{
  "abi": [
    {
      "anonymous": false,
      "inputs": [
        {
          "indexed": false,
          "internalType": "address",
          "name": "sender",
          "type": "address"
        },
        {
          "indexed": false,
          "internalType": "uint256",
          "name": "amount",
          "type": "uint256"
        }
      ],
      "name": "Deposit",
      "type": "event"
    },
    {
      "anonymous": false,
      "inputs": [
        {
          "indexed": false,
          "internalType": "uint256",
          "name": "proposalId",
          "type": "uint256"
        },
        {
          "indexed": false,
          "internalType": "bytes32",
          "name": "proposalHash",
          "type": "bytes32"
        }
      ],
      "name": "ProposalExecuted",
      "type": "event"
    },
    {
      "anonymous": false,
      "inputs": [
        {
          "indexed": false,
          "internalType": "uint256",
          "name": "proposalId",
          "type": "uint256"
        }
      ],
      "name": "ProposalExpired",
      "type": "event"
    },
    {
      "anonymous": false,
      "inputs": [
        {
          "indexed": false,
          "internalType": "address",
          "name": "validator",
          "type": "address"
        }
      ],
      "name": "ValidatorAdded",
      "type": "event"
    },
    {
      "anonymous": false,
      "inputs": [
        {
          "indexed": false,
          "internalType": "address",
          "name": "validator",
          "type": "address"
        }
      ],
      "name": "ValidatorRemoved",
      "type": "event"
    },
    {
      "inputs": [
        {
          "internalType": "address",
          "name": "validator",
          "type": "address"
        }
      ],
      "name": "addValidator",
      "outputs": [],
      "stateMutability": "nonpayable",
      "type": "function"
    },
    {
      "inputs": [
        {
          "internalType": "uint8",
          "name": "proposalNum",
          "type": "uint8"
        }
      ],
      "name": "approveTransaction",
      "outputs": [],
      "stateMutability": "nonpayable",
      "type": "function"
    },
    {
      "inputs": [
        {
          "internalType": "bytes32",
          "name": "proposalHash",
          "type": "bytes32"
        }
      ],
      "name": "createProposal",
      "outputs": [],
      "stateMutability": "nonpayable",
      "type": "function"
    },
    {
      "inputs": [
        {
          "internalType": "uint256",
          "name": "",
          "type": "uint256"
        }
      ],
      "name": "currentProposals",
      "outputs": [
        {
          "internalType": "bytes32",
          "name": "",
          "type": "bytes32"
        }
      ],
      "stateMutability": "view",
      "type": "function"
    },
    {
      "inputs": [
        {
          "internalType": "uint256",
          "name": "",
          "type": "uint256"
        }
      ],
      "name": "currentRoundValidators",
      "outputs": [
        {
          "internalType": "address",
          "name": "",
          "type": "address"
        }
      ],
      "stateMutability": "view",
      "type": "function"
    },
    {
      "inputs": [],
      "name": "doublePeriod",
      "outputs": [],
      "stateMutability": "nonpayable",
      "type": "function"
    },
    {
      "inputs": [
        {
          "internalType": "address[]",
          "name": "validatorsToRemove",
          "type": "address[]"
        },
        {
          "internalType": "bytes32[]",
          "name": "jobHashes",
          "type": "bytes32[]"
        },
        {
          "internalType": "uint256[]",
          "name": "jobCapacities",
          "type": "uint256[]"
        },
        {
          "internalType": "address[]",
          "name": "jobWorkers",
          "type": "address[]"
        },
        {
          "internalType": "uint256[]",
          "name": "allCapacities",
          "type": "uint256[]"
        },
        {
          "internalType": "uint256[]",
          "name": "allWorkers",
          "type": "uint256[]"
        }
      ],
      "name": "executeProposal",
      "outputs": [],
      "stateMutability": "nonpayable",
      "type": "function"
    },
    {
      "inputs": [
        {
          "internalType": "uint256",
          "name": "numValidators",
          "type": "uint256"
        }
      ],
      "name": "generateValidators",
      "outputs": [
        {
          "internalType": "address[]",
          "name": "",
          "type": "address[]"
        }
      ],
      "stateMutability": "view",
      "type": "function"
    },
    {
      "inputs": [],
      "name": "getNumValidators",
      "outputs": [
        {
          "internalType": "uint256",
          "name": "",
          "type": "uint256"
        }
      ],
      "stateMutability": "view",
      "type": "function"
    },
    {
      "inputs": [],
      "name": "getState",
      "outputs": [
        {
          "internalType": "uint256",
          "name": "",
          "type": "uint256"
        },
        {
          "internalType": "address[]",
          "name": "",
          "type": "address[]"
        }
      ],
      "stateMutability": "view",
      "type": "function"
    },
    {
      "inputs": [],
      "name": "halvePeriod",
      "outputs": [],
      "stateMutability": "nonpayable",
      "type": "function"
    },
    {
      "inputs": [
        {
          "internalType": "address",
          "name": "",
          "type": "address"
        }
      ],
      "name": "hasSubmittedProposal",
      "outputs": [
        {
          "internalType": "uint8",
          "name": "",
          "type": "uint8"
        }
      ],
      "stateMutability": "view",
      "type": "function"
    },
    {
      "inputs": [
        {
          "internalType": "address",
          "name": "",
          "type": "address"
        }
      ],
      "name": "hasVoted",
      "outputs": [
        {
          "internalType": "uint8",
          "name": "",
          "type": "uint8"
        }
      ],
      "stateMutability": "view",
      "type": "function"
    },
    {
      "inputs": [
        {
          "internalType": "address[]",
          "name": "validatorsToRemove",
          "type": "address[]"
        },
        {
          "internalType": "bytes32[]",
          "name": "jobHashes",
          "type": "bytes32[]"
        },
        {
          "internalType": "uint256[]",
          "name": "jobCapacities",
          "type": "uint256[]"
        },
        {
          "internalType": "address[]",
          "name": "workers",
          "type": "address[]"
        }
      ],
      "name": "hashProposalData",
      "outputs": [
        {
          "internalType": "bytes32",
          "name": "",
          "type": "bytes32"
        }
      ],
      "stateMutability": "pure",
      "type": "function"
    },
    {
      "inputs": [
        {
          "internalType": "address",
          "name": "target",
          "type": "address"
        }
      ],
      "name": "initialize",
      "outputs": [],
      "stateMutability": "nonpayable",
      "type": "function"
    },
    {
      "inputs": [
        {
          "internalType": "address",
          "name": "_validatorAddress",
          "type": "address"
        }
      ],
      "name": "isActiveValidator",
      "outputs": [
        {
          "internalType": "bool",
          "name": "",
          "type": "bool"
        }
      ],
      "stateMutability": "view",
      "type": "function"
    },
    {
      "inputs": [
        {
          "internalType": "uint256",
          "name": "proposalNumber",
          "type": "uint256"
        }
      ],
      "name": "isProposalReady",
      "outputs": [
        {
          "internalType": "bool",
          "name": "",
          "type": "bool"
        }
      ],
      "stateMutability": "view",
      "type": "function"
    },
    {
      "inputs": [],
      "name": "isRoundExpired",
      "outputs": [
        {
          "internalType": "bool",
          "name": "",
          "type": "bool"
        }
      ],
      "stateMutability": "view",
      "type": "function"
    },
    {
      "inputs": [
        {
          "internalType": "address",
          "name": "",
          "type": "address"
        }
      ],
      "name": "isValidator",
      "outputs": [
        {
          "internalType": "bool",
          "name": "",
          "type": "bool"
        }
      ],
      "stateMutability": "view",
      "type": "function"
    },
    {
      "inputs": [],
      "name": "lastProposalTime",
      "outputs": [
        {
          "internalType": "uint256",
          "name": "",
          "type": "uint256"
        }
      ],
      "stateMutability": "view",
      "type": "function"
    },
    {
      "inputs": [],
      "name": "nValidators",
      "outputs": [
        {
          "internalType": "uint8",
          "name": "",
          "type": "uint8"
        }
      ],
      "stateMutability": "view",
      "type": "function"
    },
    {
      "inputs": [],
      "name": "nextProposalId",
      "outputs": [
        {
          "internalType": "uint256",
          "name": "",
          "type": "uint256"
        }
      ],
      "stateMutability": "view",
      "type": "function"
    },
    {
      "inputs": [
        {
          "internalType": "uint8",
          "name": "",
          "type": "uint8"
        }
      ],
      "name": "proposalVotes",
      "outputs": [
        {
          "internalType": "uint256",
          "name": "",
          "type": "uint256"
        }
      ],
      "stateMutability": "view",
      "type": "function"
    },
    {
      "inputs": [
        {
          "internalType": "uint256",
          "name": "",
          "type": "uint256"
        }
      ],
      "name": "readyProposals",
      "outputs": [
        {
          "internalType": "uint8",
          "name": "",
          "type": "uint8"
        }
      ],
      "stateMutability": "view",
      "type": "function"
    },
    {
      "inputs": [
        {
          "internalType": "address",
          "name": "validator",
          "type": "address"
        }
      ],
      "name": "removeValidator",
      "outputs": [],
      "stateMutability": "nonpayable",
      "type": "function"
    },
    {
      "inputs": [],
      "name": "requiredApprovals",
      "outputs": [
        {
          "internalType": "uint256",
          "name": "",
          "type": "uint256"
        }
      ],
      "stateMutability": "view",
      "type": "function"
    },
    {
      "inputs": [],
      "name": "requiredApprovalsPercentage",
      "outputs": [
        {
          "internalType": "uint256",
          "name": "",
          "type": "uint256"
        }
      ],
      "stateMutability": "view",
      "type": "function"
    },
    {
      "inputs": [],
      "name": "roundExpirationTime",
      "outputs": [
        {
          "internalType": "uint256",
          "name": "",
          "type": "uint256"
        }
      ],
      "stateMutability": "view",
      "type": "function"
    },
    {
      "inputs": [
        {
          "internalType": "uint256",
          "name": "newExpirationTime",
          "type": "uint256"
        }
      ],
      "name": "setProposalExpirationTime",
      "outputs": [],
      "stateMutability": "nonpayable",
      "type": "function"
    },
    {
      "inputs": [],
      "name": "smartnodesContractAddress",
      "outputs": [
        {
          "internalType": "address",
          "name": "",
          "type": "address"
        }
      ],
      "stateMutability": "view",
      "type": "function"
    },
    {
      "inputs": [],
      "name": "updateTime",
      "outputs": [
        {
          "internalType": "uint256",
          "name": "",
          "type": "uint256"
        }
      ],
      "stateMutability": "view",
      "type": "function"
    },
    {
      "inputs": [
        {
          "internalType": "uint256",
          "name": "",
          "type": "uint256"
        }
      ],
      "name": "validators",
      "outputs": [
        {
          "internalType": "address",
          "name": "",
          "type": "address"
        }
      ],
      "stateMutability": "view",
      "type": "function"
    },
    {
      "stateMutability": "payable",
      "type": "receive"
    }
  ],
  "bytecode": "6080604052348015600f57600080fd5b506124948061001f6000396000f3fe6080604052600436106101e75760003560e01c8063926b930411610102578063ddaa545011610095578063e8bb594611610064578063e8bb5946146105fe578063ec432772146105c9578063facd743b1461061e578063fef7626c1461064e57600080fd5b8063ddaa545014610586578063e2a8f6f21461059c578063e71ce32e146105c9578063e7a1a64c146105de57600080fd5b8063bd423184116100d1578063bd4231841461051a578063c4d66de81461053a578063d088650a1461055a578063dc5550901461057057600080fd5b8063926b93041461049457806399c1aadc146104b45780639a171629146104ca578063a6f9ed81146104fa57600080fd5b8063456104891161017a5780636d6a0352116101495780636d6a035214610412578063857711841461043f5780638dca91f91461045f57806391e2e2521461047f57600080fd5b8063456104891461039d5780634d238c8e146103bd57806354d9d614146103dd5780636b6f3cd9146103fd57600080fd5b80632ab09d14116101b65780632ab09d14146102d857806335aa2e44146102fc57806340550a1c1461033457806340a141ff1461037d57600080fd5b80630833c91a1461022b57806309eef43e146102635780631865c57d146102935780632542bf06146102b657600080fd5b3661022657604080513381523460208201527fe1fffcc4923d04b559f4d29a8bfc6cda04eb5b0d3c460751c2402c5c5cc9109c910160405180910390a1005b600080fd5b34801561023757600080fd5b50603a5461024c90600160a01b900460ff1681565b60405160ff90911681526020015b60405180910390f35b34801561026f57600080fd5b5061024c61027e366004611e6d565b60416020526000908152604090205460ff1681565b34801561029f57600080fd5b506102a8610664565b60405161025a929190611ed4565b3480156102c257600080fd5b506102d66102d1366004611ef5565b6106d1565b005b3480156102e457600080fd5b506102ee60385481565b60405190815260200161025a565b34801561030857600080fd5b5061031c610317366004611ef5565b610937565b6040516001600160a01b03909116815260200161025a565b34801561034057600080fd5b5061036d61034f366004611e6d565b6001600160a01b03166000908152603f602052604090205460ff1690565b604051901515815260200161025a565b34801561038957600080fd5b506102d6610398366004611e6d565b610961565b3480156103a957600080fd5b506102d66103b8366004611ef5565b6109f4565b3480156103c957600080fd5b506102d66103d8366004611e6d565b610aa8565b3480156103e957600080fd5b506102d66103f8366004611f0e565b610cad565b34801561040957600080fd5b5061036d610e71565b34801561041e57600080fd5b506102ee61042d366004611f0e565b60426020526000908152604090205481565b34801561044b57600080fd5b5061024c61045a366004611ef5565b610e8a565b34801561046b57600080fd5b506102ee61047a366004612071565b610ebe565b34801561048b57600080fd5b50603b546102ee565b3480156104a057600080fd5b5061036d6104af366004611ef5565b610f57565b3480156104c057600080fd5b506102ee60365481565b3480156104d657600080fd5b5061024c6104e5366004611e6d565b60406020819052600091825290205460ff1681565b34801561050657600080fd5b50603a5461031c906001600160a01b031681565b34801561052657600080fd5b506102ee610535366004611ef5565b610fb8565b34801561054657600080fd5b506102d6610555366004611e6d565b610fd9565b34801561056657600080fd5b506102ee60375481565b34801561057c57600080fd5b506102ee60335481565b34801561059257600080fd5b506102ee60355481565b3480156105a857600080fd5b506105bc6105b7366004611ef5565b6110e6565b60405161025a919061211e565b3480156105d557600080fd5b506102d6611250565b3480156105ea57600080fd5b506102d66105f9366004612131565b6112b8565b34801561060a57600080fd5b5061031c610619366004611ef5565b611636565b34801561062a57600080fd5b5061036d610639366004611e6d565b603f6020526000908152604090205460ff1681565b34801561065a57600080fd5b506102ee60345481565b60006060603854603c808054806020026020016040519081016040528092919081815260200182805480156106c257602002820191906000526020600020905b81546001600160a01b031681526001909101906020018083116106a4575b50505050509050915091509091565b60006106dc33611646565b905060006106e861169c565b9050818061070d5750336000908152603f602052604090205460ff16801561070d5750805b61075e5760405162461bcd60e51b815260206004820181905260248201527f4e6f7420656c696769626c6520746f207375626d69742070726f706f73616c2e60448201526064015b60405180910390fd5b3360009081526040602081905290205460ff16156107dd5760405162461bcd60e51b815260206004820152603660248201527f56616c696461746f722068617320616c7265616479207375626d6974746564206044820152753090383937b837b9b0b6103a3434b9903937bab7321760511b6064820152608401610755565b80156107eb576107eb6116c1565b60026001540361083d5760405162461bcd60e51b815260206004820152601f60248201527f5265656e7472616e637947756172643a207265656e7472616e742063616c6c006044820152606401610755565b60026001556033546108519060789061223c565b60375461085e904261223c565b10156108dd5760405162461bcd60e51b815260206004820152604260248201527f50726f706f73616c206d757374206265207375626d697474656420757064617460448201527f6554696d65202d20326d696e73206166746572206c617374206578656375746960648201526137b760f11b608482015260a401610755565b5050603d8054600180820183557fece66cfdbd22e3f37d348a3d8e19074452862cd65fd4b9a11f0336d1ac6d1dc39091019290925554336000908152604060208190529020805460ff191660ff9092169190911790558055565b603b818154811061094757600080fd5b6000918252602090912001546001600160a01b0316905081565b336000908152603f602052604090205460ff166109905760405162461bcd60e51b815260040161075590612255565b336001600160a01b038216146109e85760405162461bcd60e51b815260206004820181905260248201527f43616e6e6f742072656d6f766520616e6f746865722076616c696461746f72216044820152606401610755565b6109f1816117d7565b50565b603a546001600160a01b03163314610a425760405162461bcd60e51b8152602060048201526011602482015270139bdd0818dbdc994818dbdb9d1c9858dd607a1b6044820152606401610755565b603354811015610aa35760405162461bcd60e51b815260206004820152602660248201527f45787069726174696f6e2074696d65206d757374206265203e3d207570646174604482015265652074696d6560d01b6064820152608401610755565b603455565b603954604051631293efbb60e21b81526001600160a01b03838116600483015290911690634a4fbeec90602401602060405180830381865afa158015610af2573d6000803e3d6000fd5b505050506040513d601f19601f82011682018060405250810190610b16919061227e565b610b885760405162461bcd60e51b815260206004820152603a60248201527f56616c696461746f72206d757374206265207265676973746572656420616e6460448201527f206c6f636b6564206f6e20536d6172746e6f646573436f7265210000000000006064820152608401610755565b6001600160a01b0381166000908152603f602052604090205460ff1615610c025760405162461bcd60e51b815260206004820152602860248201527f56616c696461746f7220616c72656164792072656769737465726564206f6e206044820152674d756c747369672160c01b6064820152608401610755565b603b805460018082019092557fbbe3212124853f8b0084a66a2d057c2966e251e132af3691db153ab65f0d1a4d0180546001600160a01b0319166001600160a01b0384169081179091556000908152603f60205260409020805460ff19169091179055610c6d61199d565b6040516001600160a01b03821681527fe366c1c0452ed8eec96861e9e54141ebff23c9ec89fe27b996b45f5ec3884987906020015b60405180910390a150565b336000908152603f602052604090205460ff16610cdc5760405162461bcd60e51b815260040161075590612255565b3360009081526041602052604090205460ff1615610d3c5760405162461bcd60e51b815260206004820152601c60248201527f56616c696461746f722068617320616c726561647920766f74656421000000006044820152606401610755565b603d5460ff821611801590610d54575060008160ff16115b610da05760405162461bcd60e51b815260206004820152601860248201527f496e76616c69642070726f706f73616c206e756d6265722100000000000000006044820152606401610755565b336000908152603f602052604081205460ff1615159003610dc457610dc433610aa8565b336000908152604160209081526040808320805460ff191660ff8616908117909155835260429091528120805491610dfb836122a0565b909155505060365460ff8216600090815260426020526040902054106109f157603e8054600181018255600091909152602081047f8d800d6614d35eed73733ee453164a3b48076eb3138f466adeeb9dec7bb31f7001805460ff808516601f9094166101000a9384029302191691909117905550565b600060345460375442610e84919061223c565b11905090565b603e8181548110610e9a57600080fd5b9060005260206000209060209182820401919006915054906101000a900460ff1681565b60008251825114610f205760405162461bcd60e51b815260206004820152602660248201527f576f726b65727320616e642063617061636974696573206c656e677468206d696044820152650e6dac2e8c6d60d31b6064820152608401610755565b84848484604051602001610f3794939291906122ea565b604051602081830303815290604052805190602001209050949350505050565b6000805b603e54811015610faf5782603e8281548110610f7957610f79612342565b60009182526020918290209181049091015460ff601f9092166101000a90041603610fa75750600192915050565b600101610f5b565b50600092915050565b603d8181548110610fc857600080fd5b600091825260209091200154905081565b600054610100900460ff16610ff45760005460ff1615610ff8565b303b155b61105b5760405162461bcd60e51b815260206004820152602e60248201527f496e697469616c697a61626c653a20636f6e747261637420697320616c72656160448201526d191e481a5b9a5d1a585b1a5e995960921b6064820152608401610755565b600054610100900460ff1615801561107d576000805461ffff19166101011790555b603a8054603980546001600160a01b0319166001600160a01b0386169081179091556101686033556102d06034556000603781905560426035556001600160a81b031990921617600160a01b1790915560385580156110e2576000805461ff00191690555b5050565b603b5460609082111561113b5760405162461bcd60e51b815260206004820152601d60248201527f4e6f7420656e6f756768206163746976652076616c696461746f7273210000006044820152606401610755565b60008267ffffffffffffffff81111561115657611156611f31565b60405190808252806020026020018201604052801561117f578160200160208202803683370190505b5090506000805b8481101561124757603b5460408051426020820152339181019190915260608101839052600091906080016040516020818303038152906040528051906020012060001c6111d4919061236e565b9050603b81815481106111e9576111e9612342565b9060005260206000200160009054906101000a90046001600160a01b031684838151811061121957611219612342565b6001600160a01b03909216602092830291909101909101528261123b816122a0565b93505050600101611186565b50909392505050565b603a546001600160a01b0316331461129e5760405162461bcd60e51b8152602060048201526011602482015270139bdd0818dbdc994818dbdb9d1c9858dd607a1b6044820152606401610755565b6002603360008282546112b19190612382565b9091555050565b336000908152603f602052604090205460ff166112e75760405162461bcd60e51b815260040161075590612255565b3360009081526040602081905290205460ff16806113475760405162461bcd60e51b815260206004820152601b60248201527f4d75737420626520612070726f706f73616c2063726561746f722100000000006044820152606401610755565b60365460ff821660009081526042602052604090205410156113ab5760405162461bcd60e51b815260206004820152601a60248201527f4e6f7420656e6f7567682070726f706f73616c20766f746573210000000000006044820152606401610755565b6000603d6113ba600184612396565b60ff16815481106113cd576113cd612342565b9060005260206000200154905060006113e889898989610ebe565b905081811461144b5760405162461bcd60e51b815260206004820152602960248201527f50726f706f73616c206461746120646f65736e2774206d6174636820696e697460448201526869616c20686173682160b81b6064820152608401610755565b88511561148a5760005b8951811015611488576114808a828151811061147357611473612342565b60200260200101516117d7565b600101611455565b505b60ff831660009081526042602052604081205467ffffffffffffffff8111156114b5576114b5611f31565b6040519080825280602002602001820160405280156114de578160200160208202803683370190505b50905060005b603b54811015611574576000603b828154811061150357611503612342565b60009182526020808320909101546001600160a01b0316808352604190915260409091205490915060ff80881691160361156b578083838151811061154a5761154a612342565b60200260200101906001600160a01b031690816001600160a01b0316815250505b506001016114e4565b50603b54603954604051634db7c8bb60e11b81526001600160a01b0390911690639b6f9176906115b2908d908c908e908d908d908a906004016123af565b600060405180830381600087803b1580156115cc57600080fd5b505af11580156115e0573d6000803e3d6000fd5b505060385460408051918252602082018790527f56a007d3eea04bd347e571f3451382cb2a33ef5fd102b9a63846ff8d787f43cf935001905060405180910390a16116296119cd565b5050505050505050505050565b603c818154811061094757600080fd5b6000805b603c54811015610faf57826001600160a01b0316603c828154811061167157611671612342565b6000918252602090912001546001600160a01b0316036116945750600192915050565b60010161164a565b6000603454603754426116af919061223c565b11156116bb5750600190565b50600090565b60005b603b5481101561177a57600060416000603b84815481106116e7576116e7612342565b6000918252602080832091909101546001600160a01b0316835282019290925260409081018220805460ff191660ff9490941693909317909255603b80549192918391908590811061173b5761173b612342565b6000918252602080832091909101546001600160a01b031683528201929092526040019020805460ff191660ff929092169190911790556001016116c4565b505b603d54156117c957603d805460ff81166000908152604260205260408120558154909190806117ad576117ad612431565b600190038181906000526020600020016000905590555061177c565b6117d5603e6000611df9565b565b6001600160a01b0381166000908152603f602052604090205460ff1661183f5760405162461bcd60e51b815260206004820152601960248201527f56616c696461746f72206e6f74207265676973746572656421000000000000006044820152606401610755565b6001600160a01b0381166000908152603f60205260408120805460ff191690555b603b5481101561195b57816001600160a01b0316603b828154811061188757611887612342565b6000918252602090912001546001600160a01b03160361195357603b80546118b19060019061223c565b815481106118c1576118c1612342565b600091825260209091200154603b80546001600160a01b0390921691839081106118ed576118ed612342565b9060005260206000200160006101000a8154816001600160a01b0302191690836001600160a01b03160217905550603b80548061192c5761192c612431565b600082815260209020810160001990810180546001600160a01b031916905501905561195b565b600101611860565b5061196461199d565b6040516001600160a01b03821681527fe1434e25d6611e0db941968fdc97811c982ac1602e951637d206f5fdda9dd8f190602001610ca2565b603554603b546064916119af91612447565b6119b99190612382565b6036819055600111156117d5576001603655565b6119d5611a80565b603d5415611a1d57603d805460ff16600090815260426020526040812055805480611a0257611a02612431565b600190038181906000526020600020016000905590556119d5565b603e5415611a6557603e805480611a3657611a36612431565b60019003818190600052602060002090602091828204019190066101000a81549060ff02191690559055611a1d565b4260375560388054906000611a79836122a0565b9190505550565b60005b603c54811015611ae557600060406000603c8481548110611aa657611aa6612342565b6000918252602080832091909101546001600160a01b031683528201929092526040019020805460ff191660ff92909216919091179055600101611a83565b5060005b603b54811015611b4b57600060416000603b8481548110611b0c57611b0c612342565b6000918252602080832091909101546001600160a01b031683528201929092526040019020805460ff191660ff92909216919091179055600101611ae9565b50603c54600003611bbd5760005b603b54811015611bbb57600060406000603b8481548110611b7c57611b7c612342565b6000918252602080832091909101546001600160a01b031683528201929092526040019020805460ff191660ff92909216919091179055600101611b59565b505b611bc9603c6000611e1e565b603a54603b54600160a01b90910460ff161115611c285760405162461bcd60e51b815260206004820152601d60248201527f4e6f7420656e6f756768206163746976652076616c696461746f7273210000006044820152606401610755565b603a54600090600160a01b900460ff1667ffffffffffffffff811115611c5057611c50611f31565b604051908082528060200260200182016040528015611c79578160200160208202803683370190505b5090506000805b603a54600160a01b900460ff16821015611df457603b5460408051426020820152339181019190915260608101849052608081018390526000919060a0016040516020818303038152906040528051906020012060001c611ce1919061236e565b90506000603b8281548110611cf857611cf8612342565b60009182526020822001546001600160a01b03169150805b85811015611d5b57826001600160a01b0316878281518110611d3457611d34612342565b60200260200101516001600160a01b031603611d535760019150611d5b565b600101611d10565b5080611ddf5781868681518110611d7457611d74612342565b6001600160a01b039283166020918202929092010152603c80546001810182556000919091527fc6bb06cb7f92603de181bf256cd16846b93b752a170ff24824098b31aa008a7e0180546001600160a01b03191691841691909117905584611ddb816122a0565b9550505b83611de9816122a0565b945050505050611c80565b505050565b50805460008255601f0160209004906000526020600020908101906109f19190611e38565b50805460008255906000526020600020908101906109f191905b5b80821115611e4d5760008155600101611e39565b5090565b80356001600160a01b0381168114611e6857600080fd5b919050565b600060208284031215611e7f57600080fd5b611e8882611e51565b9392505050565b60008151808452602080850194506020840160005b83811015611ec95781516001600160a01b031687529582019590820190600101611ea4565b509495945050505050565b828152604060208201526000611eed6040830184611e8f565b949350505050565b600060208284031215611f0757600080fd5b5035919050565b600060208284031215611f2057600080fd5b813560ff81168114611e8857600080fd5b634e487b7160e01b600052604160045260246000fd5b604051601f8201601f1916810167ffffffffffffffff81118282101715611f7057611f70611f31565b604052919050565b600067ffffffffffffffff821115611f9257611f92611f31565b5060051b60200190565b600082601f830112611fad57600080fd5b81356020611fc2611fbd83611f78565b611f47565b8083825260208201915060208460051b870101935086841115611fe457600080fd5b602086015b8481101561200757611ffa81611e51565b8352918301918301611fe9565b509695505050505050565b600082601f83011261202357600080fd5b81356020612033611fbd83611f78565b8083825260208201915060208460051b87010193508684111561205557600080fd5b602086015b84811015612007578035835291830191830161205a565b6000806000806080858703121561208757600080fd5b843567ffffffffffffffff8082111561209f57600080fd5b6120ab88838901611f9c565b955060208701359150808211156120c157600080fd5b6120cd88838901612012565b945060408701359150808211156120e357600080fd5b6120ef88838901612012565b9350606087013591508082111561210557600080fd5b5061211287828801611f9c565b91505092959194509250565b602081526000611e886020830184611e8f565b60008060008060008060c0878903121561214a57600080fd5b863567ffffffffffffffff8082111561216257600080fd5b61216e8a838b01611f9c565b9750602089013591508082111561218457600080fd5b6121908a838b01612012565b965060408901359150808211156121a657600080fd5b6121b28a838b01612012565b955060608901359150808211156121c857600080fd5b6121d48a838b01611f9c565b945060808901359150808211156121ea57600080fd5b6121f68a838b01612012565b935060a089013591508082111561220c57600080fd5b5061221989828a01612012565b9150509295509295509295565b634e487b7160e01b600052601160045260246000fd5b8181038181111561224f5761224f612226565b92915050565b6020808252600f908201526e2737ba1030903b30b634b230ba37b960891b604082015260600190565b60006020828403121561229057600080fd5b81518015158114611e8857600080fd5b6000600182016122b2576122b2612226565b5060010190565b60008151808452602080850194506020840160005b83811015611ec9578151875295820195908201906001016122ce565b6080815260006122fd6080830187611e8f565b828103602084015261230f81876122b9565b9050828103604084015261232381866122b9565b905082810360608401526123378185611e8f565b979650505050505050565b634e487b7160e01b600052603260045260246000fd5b634e487b7160e01b600052601260045260246000fd5b60008261237d5761237d612358565b500690565b60008261239157612391612358565b500490565b60ff828116828216039081111561224f5761224f612226565b60c0815260006123c260c08301896122b9565b82810360208401526123d48189611e8f565b905082810360408401526123e881886122b9565b905082810360608401526123fc81876122b9565b9050828103608084015261241081866122b9565b905082810360a08401526124248185611e8f565b9998505050505050505050565b634e487b7160e01b600052603160045260246000fd5b808202811582820484141761224f5761224f61222656fea26469706673582212209d885836d618099a9cef0bfc376b1459f1ec30cd3b9711667f18104015633c2a64736f6c63430008190033",
  "bytecodeSha1": "6b5f45847480e2febb9dfe165f3f94c579656a49",
  "compiler": {
    "evm_version": "istanbul",
    "optimizer": {
      "enabled": true,
      "runs": 200
    },
    "version": "0.8.25+commit.b61c2a91"
  },
  "contractName": "SmartnodesMultiSig",
  "language": "Solidity",
  "natspec": {
    "details": "A multi-signature contract composed of Smartnodes validators responsible for managing the Core contract",
    "kind": "dev",
    "methods": {
      "addValidator(address)": {
        "notice": "Adds a new validator to the contract, must be staked on SmartnodesCore.",
        "params": {
          "validator": "The address of the new validator"
        }
      },
      "approveTransaction(uint8)": {
        "notice": "Casts a vote for a proposal and executes once required approvals are met. Add Validator to storage if it has just registered and is not stored on MultiSig. ",
        "params": {
          "proposalNum": "The ID of the current round proposal"
        }
      },
      "createProposal(bytes32)": {
        "notice": "Creates a new proposal, to update all the essential data structures given some aggregated off-chain state."
      },
      "executeProposal(address[],bytes32[],uint256[],address[],uint256[],uint256[])": {
        "notice": "Executes a proposal if it has enough approvals."
      },
      "initialize(address)": {
        "notice": "Initializes the contract",
        "params": {
          "target": "Address of the SmartNodes core contract"
        }
      },
      "isRoundExpired()": {
        "notice": "Checks if a round has expired"
      },
      "setProposalExpirationTime(uint256)": {
        "notice": "Allows updating the proposal expiration time"
      }
    },
    "title": "SmartnodesMultiSig",
    "version": 1
  },
  "opcodes": "PUSH1 0x80 PUSH1 0x40 MSTORE PUSH1 0x4 CALLDATASIZE LT PUSH2 0x1E7 JUMPI PUSH1 0x0 CALLDATALOAD PUSH1 0xE0 SHR DUP1 PUSH4 0x926B9304 GT PUSH2 0x102 JUMPI DUP1 PUSH4 0xDDAA5450 GT PUSH2 0x95 JUMPI DUP1 PUSH4 0xE8BB5946 GT PUSH2 0x64 JUMPI DUP1 PUSH4 0xE8BB5946 EQ PUSH2 0x5FE JUMPI DUP1 PUSH4 0xEC432772 EQ PUSH2 0x5C9 JUMPI DUP1 PUSH4 0xFACD743B EQ PUSH2 0x61E JUMPI DUP1 PUSH4 0xFEF7626C EQ PUSH2 0x64E JUMPI PUSH1 0x0 DUP1 REVERT JUMPDEST DUP1 PUSH4 0xDDAA5450 EQ PUSH2 0x586 JUMPI DUP1 PUSH4 0xE2A8F6F2 EQ PUSH2 0x59C JUMPI DUP1 PUSH4 0xE71CE32E EQ PUSH2 0x5C9 JUMPI DUP1 PUSH4 0xE7A1A64C EQ PUSH2 0x5DE JUMPI PUSH1 0x0 DUP1 REVERT JUMPDEST DUP1 PUSH4 0xBD423184 GT PUSH2 0xD1 JUMPI DUP1 PUSH4 0xBD423184 EQ PUSH2 0x51A JUMPI DUP1 PUSH4 0xC4D66DE8 EQ PUSH2 0x53A JUMPI DUP1 PUSH4 0xD088650A EQ PUSH2 0x55A JUMPI DUP1 PUSH4 0xDC555090 EQ PUSH2 0x570 JUMPI PUSH1 0x0 DUP1 REVERT JUMPDEST DUP1 PUSH4 0x926B9304 EQ PUSH2 0x494 JUMPI DUP1 PUSH4 0x99C1AADC EQ PUSH2 0x4B4 JUMPI DUP1 PUSH4 0x9A171629 EQ PUSH2 0x4CA JUMPI DUP1 PUSH4 0xA6F9ED81 EQ PUSH2 0x4FA JUMPI PUSH1 0x0 DUP1 REVERT JUMPDEST DUP1 PUSH4 0x45610489 GT PUSH2 0x17A JUMPI DUP1 PUSH4 0x6D6A0352 GT PUSH2 0x149 JUMPI DUP1 PUSH4 0x6D6A0352 EQ PUSH2 0x412 JUMPI DUP1 PUSH4 0x85771184 EQ PUSH2 0x43F JUMPI DUP1 PUSH4 0x8DCA91F9 EQ PUSH2 0x45F JUMPI DUP1 PUSH4 0x91E2E252 EQ PUSH2 0x47F JUMPI PUSH1 0x0 DUP1 REVERT JUMPDEST DUP1 PUSH4 0x45610489 EQ PUSH2 0x39D JUMPI DUP1 PUSH4 0x4D238C8E EQ PUSH2 0x3BD JUMPI DUP1 PUSH4 0x54D9D614 EQ PUSH2 0x3DD JUMPI DUP1 PUSH4 0x6B6F3CD9 EQ PUSH2 0x3FD JUMPI PUSH1 0x0 DUP1 REVERT JUMPDEST DUP1 PUSH4 0x2AB09D14 GT PUSH2 0x1B6 JUMPI DUP1 PUSH4 0x2AB09D14 EQ PUSH2 0x2D8 JUMPI DUP1 PUSH4 0x35AA2E44 EQ PUSH2 0x2FC JUMPI DUP1 PUSH4 0x40550A1C EQ PUSH2 0x334 JUMPI DUP1 PUSH4 0x40A141FF EQ PUSH2 0x37D JUMPI PUSH1 0x0 DUP1 REVERT JUMPDEST DUP1 PUSH4 0x833C91A EQ PUSH2 0x22B JUMPI DUP1 PUSH4 0x9EEF43E EQ PUSH2 0x263 JUMPI DUP1 PUSH4 0x1865C57D EQ PUSH2 0x293 JUMPI DUP1 PUSH4 0x2542BF06 EQ PUSH2 0x2B6 JUMPI PUSH1 0x0 DUP1 REVERT JUMPDEST CALLDATASIZE PUSH2 0x226 JUMPI PUSH1 0x40 DUP1 MLOAD CALLER DUP2 MSTORE CALLVALUE PUSH1 0x20 DUP3 ADD MSTORE PUSH32 0xE1FFFCC4923D04B559F4D29A8BFC6CDA04EB5B0D3C460751C2402C5C5CC9109C SWAP2 ADD PUSH1 0x40 MLOAD DUP1 SWAP2 SUB SWAP1 LOG1 STOP JUMPDEST PUSH1 0x0 DUP1 REVERT JUMPDEST CALLVALUE DUP1 ISZERO PUSH2 0x237 JUMPI PUSH1 0x0 DUP1 REVERT JUMPDEST POP PUSH1 0x3A SLOAD PUSH2 0x24C SWAP1 PUSH1 0x1 PUSH1 0xA0 SHL SWAP1 DIV PUSH1 0xFF AND DUP2 JUMP JUMPDEST PUSH1 0x40 MLOAD PUSH1 0xFF SWAP1 SWAP2 AND DUP2 MSTORE PUSH1 0x20 ADD JUMPDEST PUSH1 0x40 MLOAD DUP1 SWAP2 SUB SWAP1 RETURN JUMPDEST CALLVALUE DUP1 ISZERO PUSH2 0x26F JUMPI PUSH1 0x0 DUP1 REVERT JUMPDEST POP PUSH2 0x24C PUSH2 0x27E CALLDATASIZE PUSH1 0x4 PUSH2 0x1E6D JUMP JUMPDEST PUSH1 0x41 PUSH1 0x20 MSTORE PUSH1 0x0 SWAP1 DUP2 MSTORE PUSH1 0x40 SWAP1 KECCAK256 SLOAD PUSH1 0xFF AND DUP2 JUMP JUMPDEST CALLVALUE DUP1 ISZERO PUSH2 0x29F JUMPI PUSH1 0x0 DUP1 REVERT JUMPDEST POP PUSH2 0x2A8 PUSH2 0x664 JUMP JUMPDEST PUSH1 0x40 MLOAD PUSH2 0x25A SWAP3 SWAP2 SWAP1 PUSH2 0x1ED4 JUMP JUMPDEST CALLVALUE DUP1 ISZERO PUSH2 0x2C2 JUMPI PUSH1 0x0 DUP1 REVERT JUMPDEST POP PUSH2 0x2D6 PUSH2 0x2D1 CALLDATASIZE PUSH1 0x4 PUSH2 0x1EF5 JUMP JUMPDEST PUSH2 0x6D1 JUMP JUMPDEST STOP JUMPDEST CALLVALUE DUP1 ISZERO PUSH2 0x2E4 JUMPI PUSH1 0x0 DUP1 REVERT JUMPDEST POP PUSH2 0x2EE PUSH1 0x38 SLOAD DUP2 JUMP JUMPDEST PUSH1 0x40 MLOAD SWAP1 DUP2 MSTORE PUSH1 0x20 ADD PUSH2 0x25A JUMP JUMPDEST CALLVALUE DUP1 ISZERO PUSH2 0x308 JUMPI PUSH1 0x0 DUP1 REVERT JUMPDEST POP PUSH2 0x31C PUSH2 0x317 CALLDATASIZE PUSH1 0x4 PUSH2 0x1EF5 JUMP JUMPDEST PUSH2 0x937 JUMP JUMPDEST PUSH1 0x40 MLOAD PUSH1 0x1 PUSH1 0x1 PUSH1 0xA0 SHL SUB SWAP1 SWAP2 AND DUP2 MSTORE PUSH1 0x20 ADD PUSH2 0x25A JUMP JUMPDEST CALLVALUE DUP1 ISZERO PUSH2 0x340 JUMPI PUSH1 0x0 DUP1 REVERT JUMPDEST POP PUSH2 0x36D PUSH2 0x34F CALLDATASIZE PUSH1 0x4 PUSH2 0x1E6D JUMP JUMPDEST PUSH1 0x1 PUSH1 0x1 PUSH1 0xA0 SHL SUB AND PUSH1 0x0 SWAP1 DUP2 MSTORE PUSH1 0x3F PUSH1 0x20 MSTORE PUSH1 0x40 SWAP1 KECCAK256 SLOAD PUSH1 0xFF AND SWAP1 JUMP JUMPDEST PUSH1 0x40 MLOAD SWAP1 ISZERO ISZERO DUP2 MSTORE PUSH1 0x20 ADD PUSH2 0x25A JUMP JUMPDEST CALLVALUE DUP1 ISZERO PUSH2 0x389 JUMPI PUSH1 0x0 DUP1 REVERT JUMPDEST POP PUSH2 0x2D6 PUSH2 0x398 CALLDATASIZE PUSH1 0x4 PUSH2 0x1E6D JUMP JUMPDEST PUSH2 0x961 JUMP JUMPDEST CALLVALUE DUP1 ISZERO PUSH2 0x3A9 JUMPI PUSH1 0x0 DUP1 REVERT JUMPDEST POP PUSH2 0x2D6 PUSH2 0x3B8 CALLDATASIZE PUSH1 0x4 PUSH2 0x1EF5 JUMP JUMPDEST PUSH2 0x9F4 JUMP JUMPDEST CALLVALUE DUP1 ISZERO PUSH2 0x3C9 JUMPI PUSH1 0x0 DUP1 REVERT JUMPDEST POP PUSH2 0x2D6 PUSH2 0x3D8 CALLDATASIZE PUSH1 0x4 PUSH2 0x1E6D JUMP JUMPDEST PUSH2 0xAA8 JUMP JUMPDEST CALLVALUE DUP1 ISZERO PUSH2 0x3E9 JUMPI PUSH1 0x0 DUP1 REVERT JUMPDEST POP PUSH2 0x2D6 PUSH2 0x3F8 CALLDATASIZE PUSH1 0x4 PUSH2 0x1F0E JUMP JUMPDEST PUSH2 0xCAD JUMP JUMPDEST CALLVALUE DUP1 ISZERO PUSH2 0x409 JUMPI PUSH1 0x0 DUP1 REVERT JUMPDEST POP PUSH2 0x36D PUSH2 0xE71 JUMP JUMPDEST CALLVALUE DUP1 ISZERO PUSH2 0x41E JUMPI PUSH1 0x0 DUP1 REVERT JUMPDEST POP PUSH2 0x2EE PUSH2 0x42D CALLDATASIZE PUSH1 0x4 PUSH2 0x1F0E JUMP JUMPDEST PUSH1 0x42 PUSH1 0x20 MSTORE PUSH1 0x0 SWAP1 DUP2 MSTORE PUSH1 0x40 SWAP1 KECCAK256 SLOAD DUP2 JUMP JUMPDEST CALLVALUE DUP1 ISZERO PUSH2 0x44B JUMPI PUSH1 0x0 DUP1 REVERT JUMPDEST POP PUSH2 0x24C PUSH2 0x45A CALLDATASIZE PUSH1 0x4 PUSH2 0x1EF5 JUMP JUMPDEST PUSH2 0xE8A JUMP JUMPDEST CALLVALUE DUP1 ISZERO PUSH2 0x46B JUMPI PUSH1 0x0 DUP1 REVERT JUMPDEST POP PUSH2 0x2EE PUSH2 0x47A CALLDATASIZE PUSH1 0x4 PUSH2 0x2071 JUMP JUMPDEST PUSH2 0xEBE JUMP JUMPDEST CALLVALUE DUP1 ISZERO PUSH2 0x48B JUMPI PUSH1 0x0 DUP1 REVERT JUMPDEST POP PUSH1 0x3B SLOAD PUSH2 0x2EE JUMP JUMPDEST CALLVALUE DUP1 ISZERO PUSH2 0x4A0 JUMPI PUSH1 0x0 DUP1 REVERT JUMPDEST POP PUSH2 0x36D PUSH2 0x4AF CALLDATASIZE PUSH1 0x4 PUSH2 0x1EF5 JUMP JUMPDEST PUSH2 0xF57 JUMP JUMPDEST CALLVALUE DUP1 ISZERO PUSH2 0x4C0 JUMPI PUSH1 0x0 DUP1 REVERT JUMPDEST POP PUSH2 0x2EE PUSH1 0x36 SLOAD DUP2 JUMP JUMPDEST CALLVALUE DUP1 ISZERO PUSH2 0x4D6 JUMPI PUSH1 0x0 DUP1 REVERT JUMPDEST POP PUSH2 0x24C PUSH2 0x4E5 CALLDATASIZE PUSH1 0x4 PUSH2 0x1E6D JUMP JUMPDEST PUSH1 0x40 PUSH1 0x20 DUP2 SWAP1 MSTORE PUSH1 0x0 SWAP2 DUP3 MSTORE SWAP1 KECCAK256 SLOAD PUSH1 0xFF AND DUP2 JUMP JUMPDEST CALLVALUE DUP1 ISZERO PUSH2 0x506 JUMPI PUSH1 0x0 DUP1 REVERT JUMPDEST POP PUSH1 0x3A SLOAD PUSH2 0x31C SWAP1 PUSH1 0x1 PUSH1 0x1 PUSH1 0xA0 SHL SUB AND DUP2 JUMP JUMPDEST CALLVALUE DUP1 ISZERO PUSH2 0x526 JUMPI PUSH1 0x0 DUP1 REVERT JUMPDEST POP PUSH2 0x2EE PUSH2 0x535 CALLDATASIZE PUSH1 0x4 PUSH2 0x1EF5 JUMP JUMPDEST PUSH2 0xFB8 JUMP JUMPDEST CALLVALUE DUP1 ISZERO PUSH2 0x546 JUMPI PUSH1 0x0 DUP1 REVERT JUMPDEST POP PUSH2 0x2D6 PUSH2 0x555 CALLDATASIZE PUSH1 0x4 PUSH2 0x1E6D JUMP JUMPDEST PUSH2 0xFD9 JUMP JUMPDEST CALLVALUE DUP1 ISZERO PUSH2 0x566 JUMPI PUSH1 0x0 DUP1 REVERT JUMPDEST POP PUSH2 0x2EE PUSH1 0x37 SLOAD DUP2 JUMP JUMPDEST CALLVALUE DUP1 ISZERO PUSH2 0x57C JUMPI PUSH1 0x0 DUP1 REVERT JUMPDEST POP PUSH2 0x2EE PUSH1 0x33 SLOAD DUP2 JUMP JUMPDEST CALLVALUE DUP1 ISZERO PUSH2 0x592 JUMPI PUSH1 0x0 DUP1 REVERT JUMPDEST POP PUSH2 0x2EE PUSH1 0x35 SLOAD DUP2 JUMP JUMPDEST CALLVALUE DUP1 ISZERO PUSH2 0x5A8 JUMPI PUSH1 0x0 DUP1 REVERT JUMPDEST POP PUSH2 0x5BC PUSH2 0x5B7 CALLDATASIZE PUSH1 0x4 PUSH2 0x1EF5 JUMP JUMPDEST PUSH2 0x10E6 JUMP JUMPDEST PUSH1 0x40 MLOAD PUSH2 0x25A SWAP2 SWAP1 PUSH2 0x211E JUMP JUMPDEST CALLVALUE DUP1 ISZERO PUSH2 0x5D5 JUMPI PUSH1 0x0 DUP1 REVERT JUMPDEST POP PUSH2 0x2D6 PUSH2 0x1250 JUMP JUMPDEST CALLVALUE DUP1 ISZERO PUSH2 0x5EA JUMPI PUSH1 0x0 DUP1 REVERT JUMPDEST POP PUSH2 0x2D6 PUSH2 0x5F9 CALLDATASIZE PUSH1 0x4 PUSH2 0x2131 JUMP JUMPDEST PUSH2 0x12B8 JUMP JUMPDEST CALLVALUE DUP1 ISZERO PUSH2 0x60A JUMPI PUSH1 0x0 DUP1 REVERT JUMPDEST POP PUSH2 0x31C PUSH2 0x619 CALLDATASIZE PUSH1 0x4 PUSH2 0x1EF5 JUMP JUMPDEST PUSH2 0x1636 JUMP JUMPDEST CALLVALUE DUP1 ISZERO PUSH2 0x62A JUMPI PUSH1 0x0 DUP1 REVERT JUMPDEST POP PUSH2 0x36D PUSH2 0x639 CALLDATASIZE PUSH1 0x4 PUSH2 0x1E6D JUMP JUMPDEST PUSH1 0x3F PUSH1 0x20 MSTORE PUSH1 0x0 SWAP1 DUP2 MSTORE PUSH1 0x40 SWAP1 KECCAK256 SLOAD PUSH1 0xFF AND DUP2 JUMP JUMPDEST CALLVALUE DUP1 ISZERO PUSH2 0x65A JUMPI PUSH1 0x0 DUP1 REVERT JUMPDEST POP PUSH2 0x2EE PUSH1 0x34 SLOAD DUP2 JUMP JUMPDEST PUSH1 0x0 PUSH1 0x60 PUSH1 0x38 SLOAD PUSH1 0x3C DUP1 DUP1 SLOAD DUP1 PUSH1 0x20 MUL PUSH1 0x20 ADD PUSH1 0x40 MLOAD SWAP1 DUP2 ADD PUSH1 0x40 MSTORE DUP1 SWAP3 SWAP2 SWAP1 DUP2 DUP2 MSTORE PUSH1 0x20 ADD DUP3 DUP1 SLOAD DUP1 ISZERO PUSH2 0x6C2 JUMPI PUSH1 0x20 MUL DUP3 ADD SWAP2 SWAP1 PUSH1 0x0 MSTORE PUSH1 0x20 PUSH1 0x0 KECCAK256 SWAP1 JUMPDEST DUP2 SLOAD PUSH1 0x1 PUSH1 0x1 PUSH1 0xA0 SHL SUB AND DUP2 MSTORE PUSH1 0x1 SWAP1 SWAP2 ADD SWAP1 PUSH1 0x20 ADD DUP1 DUP4 GT PUSH2 0x6A4 JUMPI JUMPDEST POP POP POP POP POP SWAP1 POP SWAP2 POP SWAP2 POP SWAP1 SWAP2 JUMP JUMPDEST PUSH1 0x0 PUSH2 0x6DC CALLER PUSH2 0x1646 JUMP JUMPDEST SWAP1 POP PUSH1 0x0 PUSH2 0x6E8 PUSH2 0x169C JUMP JUMPDEST SWAP1 POP DUP2 DUP1 PUSH2 0x70D JUMPI POP CALLER PUSH1 0x0 SWAP1 DUP2 MSTORE PUSH1 0x3F PUSH1 0x20 MSTORE PUSH1 0x40 SWAP1 KECCAK256 SLOAD PUSH1 0xFF AND DUP1 ISZERO PUSH2 0x70D JUMPI POP DUP1 JUMPDEST PUSH2 0x75E JUMPI PUSH1 0x40 MLOAD PUSH3 0x461BCD PUSH1 0xE5 SHL DUP2 MSTORE PUSH1 0x20 PUSH1 0x4 DUP3 ADD DUP2 SWAP1 MSTORE PUSH1 0x24 DUP3 ADD MSTORE PUSH32 0x4E6F7420656C696769626C6520746F207375626D69742070726F706F73616C2E PUSH1 0x44 DUP3 ADD MSTORE PUSH1 0x64 ADD JUMPDEST PUSH1 0x40 MLOAD DUP1 SWAP2 SUB SWAP1 REVERT JUMPDEST CALLER PUSH1 0x0 SWAP1 DUP2 MSTORE PUSH1 0x40 PUSH1 0x20 DUP2 SWAP1 MSTORE SWAP1 KECCAK256 SLOAD PUSH1 0xFF AND ISZERO PUSH2 0x7DD JUMPI PUSH1 0x40 MLOAD PUSH3 0x461BCD PUSH1 0xE5 SHL DUP2 MSTORE PUSH1 0x20 PUSH1 0x4 DUP3 ADD MSTORE PUSH1 0x36 PUSH1 0x24 DUP3 ADD MSTORE PUSH32 0x56616C696461746F722068617320616C7265616479207375626D697474656420 PUSH1 0x44 DUP3 ADD MSTORE PUSH22 0x3090383937B837B9B0B6103A3434B9903937BAB73217 PUSH1 0x51 SHL PUSH1 0x64 DUP3 ADD MSTORE PUSH1 0x84 ADD PUSH2 0x755 JUMP JUMPDEST DUP1 ISZERO PUSH2 0x7EB JUMPI PUSH2 0x7EB PUSH2 0x16C1 JUMP JUMPDEST PUSH1 0x2 PUSH1 0x1 SLOAD SUB PUSH2 0x83D JUMPI PUSH1 0x40 MLOAD PUSH3 0x461BCD PUSH1 0xE5 SHL DUP2 MSTORE PUSH1 0x20 PUSH1 0x4 DUP3 ADD MSTORE PUSH1 0x1F PUSH1 0x24 DUP3 ADD MSTORE PUSH32 0x5265656E7472616E637947756172643A207265656E7472616E742063616C6C00 PUSH1 0x44 DUP3 ADD MSTORE PUSH1 0x64 ADD PUSH2 0x755 JUMP JUMPDEST PUSH1 0x2 PUSH1 0x1 SSTORE PUSH1 0x33 SLOAD PUSH2 0x851 SWAP1 PUSH1 0x78 SWAP1 PUSH2 0x223C JUMP JUMPDEST PUSH1 0x37 SLOAD PUSH2 0x85E SWAP1 TIMESTAMP PUSH2 0x223C JUMP JUMPDEST LT ISZERO PUSH2 0x8DD JUMPI PUSH1 0x40 MLOAD PUSH3 0x461BCD PUSH1 0xE5 SHL DUP2 MSTORE PUSH1 0x20 PUSH1 0x4 DUP3 ADD MSTORE PUSH1 0x42 PUSH1 0x24 DUP3 ADD MSTORE PUSH32 0x50726F706F73616C206D757374206265207375626D6974746564207570646174 PUSH1 0x44 DUP3 ADD MSTORE PUSH32 0x6554696D65202D20326D696E73206166746572206C6173742065786563757469 PUSH1 0x64 DUP3 ADD MSTORE PUSH2 0x37B7 PUSH1 0xF1 SHL PUSH1 0x84 DUP3 ADD MSTORE PUSH1 0xA4 ADD PUSH2 0x755 JUMP JUMPDEST POP POP PUSH1 0x3D DUP1 SLOAD PUSH1 0x1 DUP1 DUP3 ADD DUP4 SSTORE PUSH32 0xECE66CFDBD22E3F37D348A3D8E19074452862CD65FD4B9A11F0336D1AC6D1DC3 SWAP1 SWAP2 ADD SWAP3 SWAP1 SWAP3 SSTORE SLOAD CALLER PUSH1 0x0 SWAP1 DUP2 MSTORE PUSH1 0x40 PUSH1 0x20 DUP2 SWAP1 MSTORE SWAP1 KECCAK256 DUP1 SLOAD PUSH1 0xFF NOT AND PUSH1 0xFF SWAP1 SWAP3 AND SWAP2 SWAP1 SWAP2 OR SWAP1 SSTORE DUP1 SSTORE JUMP JUMPDEST PUSH1 0x3B DUP2 DUP2 SLOAD DUP2 LT PUSH2 0x947 JUMPI PUSH1 0x0 DUP1 REVERT JUMPDEST PUSH1 0x0 SWAP2 DUP3 MSTORE PUSH1 0x20 SWAP1 SWAP2 KECCAK256 ADD SLOAD PUSH1 0x1 PUSH1 0x1 PUSH1 0xA0 SHL SUB AND SWAP1 POP DUP2 JUMP JUMPDEST CALLER PUSH1 0x0 SWAP1 DUP2 MSTORE PUSH1 0x3F PUSH1 0x20 MSTORE PUSH1 0x40 SWAP1 KECCAK256 SLOAD PUSH1 0xFF AND PUSH2 0x990 JUMPI PUSH1 0x40 MLOAD PUSH3 0x461BCD PUSH1 0xE5 SHL DUP2 MSTORE PUSH1 0x4 ADD PUSH2 0x755 SWAP1 PUSH2 0x2255 JUMP JUMPDEST CALLER PUSH1 0x1 PUSH1 0x1 PUSH1 0xA0 SHL SUB DUP3 AND EQ PUSH2 0x9E8 JUMPI PUSH1 0x40 MLOAD PUSH3 0x461BCD PUSH1 0xE5 SHL DUP2 MSTORE PUSH1 0x20 PUSH1 0x4 DUP3 ADD DUP2 SWAP1 MSTORE PUSH1 0x24 DUP3 ADD MSTORE PUSH32 0x43616E6E6F742072656D6F766520616E6F746865722076616C696461746F7221 PUSH1 0x44 DUP3 ADD MSTORE PUSH1 0x64 ADD PUSH2 0x755 JUMP JUMPDEST PUSH2 0x9F1 DUP2 PUSH2 0x17D7 JUMP JUMPDEST POP JUMP JUMPDEST PUSH1 0x3A SLOAD PUSH1 0x1 PUSH1 0x1 PUSH1 0xA0 SHL SUB AND CALLER EQ PUSH2 0xA42 JUMPI PUSH1 0x40 MLOAD PUSH3 0x461BCD PUSH1 0xE5 SHL DUP2 MSTORE PUSH1 0x20 PUSH1 0x4 DUP3 ADD MSTORE PUSH1 0x11 PUSH1 0x24 DUP3 ADD MSTORE PUSH17 0x139BDD0818DBDC994818DBDB9D1C9858DD PUSH1 0x7A SHL PUSH1 0x44 DUP3 ADD MSTORE PUSH1 0x64 ADD PUSH2 0x755 JUMP JUMPDEST PUSH1 0x33 SLOAD DUP2 LT ISZERO PUSH2 0xAA3 JUMPI PUSH1 0x40 MLOAD PUSH3 0x461BCD PUSH1 0xE5 SHL DUP2 MSTORE PUSH1 0x20 PUSH1 0x4 DUP3 ADD MSTORE PUSH1 0x26 PUSH1 0x24 DUP3 ADD MSTORE PUSH32 0x45787069726174696F6E2074696D65206D757374206265203E3D207570646174 PUSH1 0x44 DUP3 ADD MSTORE PUSH6 0x652074696D65 PUSH1 0xD0 SHL PUSH1 0x64 DUP3 ADD MSTORE PUSH1 0x84 ADD PUSH2 0x755 JUMP JUMPDEST PUSH1 0x34 SSTORE JUMP JUMPDEST PUSH1 0x39 SLOAD PUSH1 0x40 MLOAD PUSH4 0x1293EFBB PUSH1 0xE2 SHL DUP2 MSTORE PUSH1 0x1 PUSH1 0x1 PUSH1 0xA0 SHL SUB DUP4 DUP2 AND PUSH1 0x4 DUP4 ADD MSTORE SWAP1 SWAP2 AND SWAP1 PUSH4 0x4A4FBEEC SWAP1 PUSH1 0x24 ADD PUSH1 0x20 PUSH1 0x40 MLOAD DUP1 DUP4 SUB DUP2 DUP7 GAS STATICCALL ISZERO DUP1 ISZERO PUSH2 0xAF2 JUMPI RETURNDATASIZE PUSH1 0x0 DUP1 RETURNDATACOPY RETURNDATASIZE PUSH1 0x0 REVERT JUMPDEST POP POP POP POP PUSH1 0x40 MLOAD RETURNDATASIZE PUSH1 0x1F NOT PUSH1 0x1F DUP3 ADD AND DUP3 ADD DUP1 PUSH1 0x40 MSTORE POP DUP2 ADD SWAP1 PUSH2 0xB16 SWAP2 SWAP1 PUSH2 0x227E JUMP JUMPDEST PUSH2 0xB88 JUMPI PUSH1 0x40 MLOAD PUSH3 0x461BCD PUSH1 0xE5 SHL DUP2 MSTORE PUSH1 0x20 PUSH1 0x4 DUP3 ADD MSTORE PUSH1 0x3A PUSH1 0x24 DUP3 ADD MSTORE PUSH32 0x56616C696461746F72206D757374206265207265676973746572656420616E64 PUSH1 0x44 DUP3 ADD MSTORE PUSH32 0x206C6F636B6564206F6E20536D6172746E6F646573436F726521000000000000 PUSH1 0x64 DUP3 ADD MSTORE PUSH1 0x84 ADD PUSH2 0x755 JUMP JUMPDEST PUSH1 0x1 PUSH1 0x1 PUSH1 0xA0 SHL SUB DUP2 AND PUSH1 0x0 SWAP1 DUP2 MSTORE PUSH1 0x3F PUSH1 0x20 MSTORE PUSH1 0x40 SWAP1 KECCAK256 SLOAD PUSH1 0xFF AND ISZERO PUSH2 0xC02 JUMPI PUSH1 0x40 MLOAD PUSH3 0x461BCD PUSH1 0xE5 SHL DUP2 MSTORE PUSH1 0x20 PUSH1 0x4 DUP3 ADD MSTORE PUSH1 0x28 PUSH1 0x24 DUP3 ADD MSTORE PUSH32 0x56616C696461746F7220616C72656164792072656769737465726564206F6E20 PUSH1 0x44 DUP3 ADD MSTORE PUSH8 0x4D756C7473696721 PUSH1 0xC0 SHL PUSH1 0x64 DUP3 ADD MSTORE PUSH1 0x84 ADD PUSH2 0x755 JUMP JUMPDEST PUSH1 0x3B DUP1 SLOAD PUSH1 0x1 DUP1 DUP3 ADD SWAP1 SWAP3 SSTORE PUSH32 0xBBE3212124853F8B0084A66A2D057C2966E251E132AF3691DB153AB65F0D1A4D ADD DUP1 SLOAD PUSH1 0x1 PUSH1 0x1 PUSH1 0xA0 SHL SUB NOT AND PUSH1 0x1 PUSH1 0x1 PUSH1 0xA0 SHL SUB DUP5 AND SWAP1 DUP2 OR SWAP1 SWAP2 SSTORE PUSH1 0x0 SWAP1 DUP2 MSTORE PUSH1 0x3F PUSH1 0x20 MSTORE PUSH1 0x40 SWAP1 KECCAK256 DUP1 SLOAD PUSH1 0xFF NOT AND SWAP1 SWAP2 OR SWAP1 SSTORE PUSH2 0xC6D PUSH2 0x199D JUMP JUMPDEST PUSH1 0x40 MLOAD PUSH1 0x1 PUSH1 0x1 PUSH1 0xA0 SHL SUB DUP3 AND DUP2 MSTORE PUSH32 0xE366C1C0452ED8EEC96861E9E54141EBFF23C9EC89FE27B996B45F5EC3884987 SWAP1 PUSH1 0x20 ADD JUMPDEST PUSH1 0x40 MLOAD DUP1 SWAP2 SUB SWAP1 LOG1 POP JUMP JUMPDEST CALLER PUSH1 0x0 SWAP1 DUP2 MSTORE PUSH1 0x3F PUSH1 0x20 MSTORE PUSH1 0x40 SWAP1 KECCAK256 SLOAD PUSH1 0xFF AND PUSH2 0xCDC JUMPI PUSH1 0x40 MLOAD PUSH3 0x461BCD PUSH1 0xE5 SHL DUP2 MSTORE PUSH1 0x4 ADD PUSH2 0x755 SWAP1 PUSH2 0x2255 JUMP JUMPDEST CALLER PUSH1 0x0 SWAP1 DUP2 MSTORE PUSH1 0x41 PUSH1 0x20 MSTORE PUSH1 0x40 SWAP1 KECCAK256 SLOAD PUSH1 0xFF AND ISZERO PUSH2 0xD3C JUMPI PUSH1 0x40 MLOAD PUSH3 0x461BCD PUSH1 0xE5 SHL DUP2 MSTORE PUSH1 0x20 PUSH1 0x4 DUP3 ADD MSTORE PUSH1 0x1C PUSH1 0x24 DUP3 ADD MSTORE PUSH32 0x56616C696461746F722068617320616C726561647920766F7465642100000000 PUSH1 0x44 DUP3 ADD MSTORE PUSH1 0x64 ADD PUSH2 0x755 JUMP JUMPDEST PUSH1 0x3D SLOAD PUSH1 0xFF DUP3 AND GT DUP1 ISZERO SWAP1 PUSH2 0xD54 JUMPI POP PUSH1 0x0 DUP2 PUSH1 0xFF AND GT JUMPDEST PUSH2 0xDA0 JUMPI PUSH1 0x40 MLOAD PUSH3 0x461BCD PUSH1 0xE5 SHL DUP2 MSTORE PUSH1 0x20 PUSH1 0x4 DUP3 ADD MSTORE PUSH1 0x18 PUSH1 0x24 DUP3 ADD MSTORE PUSH32 0x496E76616C69642070726F706F73616C206E756D626572210000000000000000 PUSH1 0x44 DUP3 ADD MSTORE PUSH1 0x64 ADD PUSH2 0x755 JUMP JUMPDEST CALLER PUSH1 0x0 SWAP1 DUP2 MSTORE PUSH1 0x3F PUSH1 0x20 MSTORE PUSH1 0x40 DUP2 KECCAK256 SLOAD PUSH1 0xFF AND ISZERO ISZERO SWAP1 SUB PUSH2 0xDC4 JUMPI PUSH2 0xDC4 CALLER PUSH2 0xAA8 JUMP JUMPDEST CALLER PUSH1 0x0 SWAP1 DUP2 MSTORE PUSH1 0x41 PUSH1 0x20 SWAP1 DUP2 MSTORE PUSH1 0x40 DUP1 DUP4 KECCAK256 DUP1 SLOAD PUSH1 0xFF NOT AND PUSH1 0xFF DUP7 AND SWAP1 DUP2 OR SWAP1 SWAP2 SSTORE DUP4 MSTORE PUSH1 0x42 SWAP1 SWAP2 MSTORE DUP2 KECCAK256 DUP1 SLOAD SWAP2 PUSH2 0xDFB DUP4 PUSH2 0x22A0 JUMP JUMPDEST SWAP1 SWAP2 SSTORE POP POP PUSH1 0x36 SLOAD PUSH1 0xFF DUP3 AND PUSH1 0x0 SWAP1 DUP2 MSTORE PUSH1 0x42 PUSH1 0x20 MSTORE PUSH1 0x40 SWAP1 KECCAK256 SLOAD LT PUSH2 0x9F1 JUMPI PUSH1 0x3E DUP1 SLOAD PUSH1 0x1 DUP2 ADD DUP3 SSTORE PUSH1 0x0 SWAP2 SWAP1 SWAP2 MSTORE PUSH1 0x20 DUP2 DIV PUSH32 0x8D800D6614D35EED73733EE453164A3B48076EB3138F466ADEEB9DEC7BB31F70 ADD DUP1 SLOAD PUSH1 0xFF DUP1 DUP6 AND PUSH1 0x1F SWAP1 SWAP5 AND PUSH2 0x100 EXP SWAP4 DUP5 MUL SWAP4 MUL NOT AND SWAP2 SWAP1 SWAP2 OR SWAP1 SSTORE POP JUMP JUMPDEST PUSH1 0x0 PUSH1 0x34 SLOAD PUSH1 0x37 SLOAD TIMESTAMP PUSH2 0xE84 SWAP2 SWAP1 PUSH2 0x223C JUMP JUMPDEST GT SWAP1 POP SWAP1 JUMP JUMPDEST PUSH1 0x3E DUP2 DUP2 SLOAD DUP2 LT PUSH2 0xE9A JUMPI PUSH1 0x0 DUP1 REVERT JUMPDEST SWAP1 PUSH1 0x0 MSTORE PUSH1 0x20 PUSH1 0x0 KECCAK256 SWAP1 PUSH1 0x20 SWAP2 DUP3 DUP3 DIV ADD SWAP2 SWAP1 MOD SWAP2 POP SLOAD SWAP1 PUSH2 0x100 EXP SWAP1 DIV PUSH1 0xFF AND DUP2 JUMP JUMPDEST PUSH1 0x0 DUP3 MLOAD DUP3 MLOAD EQ PUSH2 0xF20 JUMPI PUSH1 0x40 MLOAD PUSH3 0x461BCD PUSH1 0xE5 SHL DUP2 MSTORE PUSH1 0x20 PUSH1 0x4 DUP3 ADD MSTORE PUSH1 0x26 PUSH1 0x24 DUP3 ADD MSTORE PUSH32 0x576F726B65727320616E642063617061636974696573206C656E677468206D69 PUSH1 0x44 DUP3 ADD MSTORE PUSH6 0xE6DAC2E8C6D PUSH1 0xD3 SHL PUSH1 0x64 DUP3 ADD MSTORE PUSH1 0x84 ADD PUSH2 0x755 JUMP JUMPDEST DUP5 DUP5 DUP5 DUP5 PUSH1 0x40 MLOAD PUSH1 0x20 ADD PUSH2 0xF37 SWAP5 SWAP4 SWAP3 SWAP2 SWAP1 PUSH2 0x22EA JUMP JUMPDEST PUSH1 0x40 MLOAD PUSH1 0x20 DUP2 DUP4 SUB SUB DUP2 MSTORE SWAP1 PUSH1 0x40 MSTORE DUP1 MLOAD SWAP1 PUSH1 0x20 ADD KECCAK256 SWAP1 POP SWAP5 SWAP4 POP POP POP POP JUMP JUMPDEST PUSH1 0x0 DUP1 JUMPDEST PUSH1 0x3E SLOAD DUP2 LT ISZERO PUSH2 0xFAF JUMPI DUP3 PUSH1 0x3E DUP3 DUP2 SLOAD DUP2 LT PUSH2 0xF79 JUMPI PUSH2 0xF79 PUSH2 0x2342 JUMP JUMPDEST PUSH1 0x0 SWAP2 DUP3 MSTORE PUSH1 0x20 SWAP2 DUP3 SWAP1 KECCAK256 SWAP2 DUP2 DIV SWAP1 SWAP2 ADD SLOAD PUSH1 0xFF PUSH1 0x1F SWAP1 SWAP3 AND PUSH2 0x100 EXP SWAP1 DIV AND SUB PUSH2 0xFA7 JUMPI POP PUSH1 0x1 SWAP3 SWAP2 POP POP JUMP JUMPDEST PUSH1 0x1 ADD PUSH2 0xF5B JUMP JUMPDEST POP PUSH1 0x0 SWAP3 SWAP2 POP POP JUMP JUMPDEST PUSH1 0x3D DUP2 DUP2 SLOAD DUP2 LT PUSH2 0xFC8 JUMPI PUSH1 0x0 DUP1 REVERT JUMPDEST PUSH1 0x0 SWAP2 DUP3 MSTORE PUSH1 0x20 SWAP1 SWAP2 KECCAK256 ADD SLOAD SWAP1 POP DUP2 JUMP JUMPDEST PUSH1 0x0 SLOAD PUSH2 0x100 SWAP1 DIV PUSH1 0xFF AND PUSH2 0xFF4 JUMPI PUSH1 0x0 SLOAD PUSH1 0xFF AND ISZERO PUSH2 0xFF8 JUMP JUMPDEST ADDRESS EXTCODESIZE ISZERO JUMPDEST PUSH2 0x105B JUMPI PUSH1 0x40 MLOAD PUSH3 0x461BCD PUSH1 0xE5 SHL DUP2 MSTORE PUSH1 0x20 PUSH1 0x4 DUP3 ADD MSTORE PUSH1 0x2E PUSH1 0x24 DUP3 ADD MSTORE PUSH32 0x496E697469616C697A61626C653A20636F6E747261637420697320616C726561 PUSH1 0x44 DUP3 ADD MSTORE PUSH14 0x191E481A5B9A5D1A585B1A5E9959 PUSH1 0x92 SHL PUSH1 0x64 DUP3 ADD MSTORE PUSH1 0x84 ADD PUSH2 0x755 JUMP JUMPDEST PUSH1 0x0 SLOAD PUSH2 0x100 SWAP1 DIV PUSH1 0xFF AND ISZERO DUP1 ISZERO PUSH2 0x107D JUMPI PUSH1 0x0 DUP1 SLOAD PUSH2 0xFFFF NOT AND PUSH2 0x101 OR SWAP1 SSTORE JUMPDEST PUSH1 0x3A DUP1 SLOAD PUSH1 0x39 DUP1 SLOAD PUSH1 0x1 PUSH1 0x1 PUSH1 0xA0 SHL SUB NOT AND PUSH1 0x1 PUSH1 0x1 PUSH1 0xA0 SHL SUB DUP7 AND SWAP1 DUP2 OR SWAP1 SWAP2 SSTORE PUSH2 0x168 PUSH1 0x33 SSTORE PUSH2 0x2D0 PUSH1 0x34 SSTORE PUSH1 0x0 PUSH1 0x37 DUP2 SWAP1 SSTORE PUSH1 0x42 PUSH1 0x35 SSTORE PUSH1 0x1 PUSH1 0x1 PUSH1 0xA8 SHL SUB NOT SWAP1 SWAP3 AND OR PUSH1 0x1 PUSH1 0xA0 SHL OR SWAP1 SWAP2 SSTORE PUSH1 0x38 SSTORE DUP1 ISZERO PUSH2 0x10E2 JUMPI PUSH1 0x0 DUP1 SLOAD PUSH2 0xFF00 NOT AND SWAP1 SSTORE JUMPDEST POP POP JUMP JUMPDEST PUSH1 0x3B SLOAD PUSH1 0x60 SWAP1 DUP3 GT ISZERO PUSH2 0x113B JUMPI PUSH1 0x40 MLOAD PUSH3 0x461BCD PUSH1 0xE5 SHL DUP2 MSTORE PUSH1 0x20 PUSH1 0x4 DUP3 ADD MSTORE PUSH1 0x1D PUSH1 0x24 DUP3 ADD MSTORE PUSH32 0x4E6F7420656E6F756768206163746976652076616C696461746F727321000000 PUSH1 0x44 DUP3 ADD MSTORE PUSH1 0x64 ADD PUSH2 0x755 JUMP JUMPDEST PUSH1 0x0 DUP3 PUSH8 0xFFFFFFFFFFFFFFFF DUP2 GT ISZERO PUSH2 0x1156 JUMPI PUSH2 0x1156 PUSH2 0x1F31 JUMP JUMPDEST PUSH1 0x40 MLOAD SWAP1 DUP1 DUP3 MSTORE DUP1 PUSH1 0x20 MUL PUSH1 0x20 ADD DUP3 ADD PUSH1 0x40 MSTORE DUP1 ISZERO PUSH2 0x117F JUMPI DUP2 PUSH1 0x20 ADD PUSH1 0x20 DUP3 MUL DUP1 CALLDATASIZE DUP4 CALLDATACOPY ADD SWAP1 POP JUMPDEST POP SWAP1 POP PUSH1 0x0 DUP1 JUMPDEST DUP5 DUP2 LT ISZERO PUSH2 0x1247 JUMPI PUSH1 0x3B SLOAD PUSH1 0x40 DUP1 MLOAD TIMESTAMP PUSH1 0x20 DUP3 ADD MSTORE CALLER SWAP2 DUP2 ADD SWAP2 SWAP1 SWAP2 MSTORE PUSH1 0x60 DUP2 ADD DUP4 SWAP1 MSTORE PUSH1 0x0 SWAP2 SWAP1 PUSH1 0x80 ADD PUSH1 0x40 MLOAD PUSH1 0x20 DUP2 DUP4 SUB SUB DUP2 MSTORE SWAP1 PUSH1 0x40 MSTORE DUP1 MLOAD SWAP1 PUSH1 0x20 ADD KECCAK256 PUSH1 0x0 SHR PUSH2 0x11D4 SWAP2 SWAP1 PUSH2 0x236E JUMP JUMPDEST SWAP1 POP PUSH1 0x3B DUP2 DUP2 SLOAD DUP2 LT PUSH2 0x11E9 JUMPI PUSH2 0x11E9 PUSH2 0x2342 JUMP JUMPDEST SWAP1 PUSH1 0x0 MSTORE PUSH1 0x20 PUSH1 0x0 KECCAK256 ADD PUSH1 0x0 SWAP1 SLOAD SWAP1 PUSH2 0x100 EXP SWAP1 DIV PUSH1 0x1 PUSH1 0x1 PUSH1 0xA0 SHL SUB AND DUP5 DUP4 DUP2 MLOAD DUP2 LT PUSH2 0x1219 JUMPI PUSH2 0x1219 PUSH2 0x2342 JUMP JUMPDEST PUSH1 0x1 PUSH1 0x1 PUSH1 0xA0 SHL SUB SWAP1 SWAP3 AND PUSH1 0x20 SWAP3 DUP4 MUL SWAP2 SWAP1 SWAP2 ADD SWAP1 SWAP2 ADD MSTORE DUP3 PUSH2 0x123B DUP2 PUSH2 0x22A0 JUMP JUMPDEST SWAP4 POP POP POP PUSH1 0x1 ADD PUSH2 0x1186 JUMP JUMPDEST POP SWAP1 SWAP4 SWAP3 POP POP POP JUMP JUMPDEST PUSH1 0x3A SLOAD PUSH1 0x1 PUSH1 0x1 PUSH1 0xA0 SHL SUB AND CALLER EQ PUSH2 0x129E JUMPI PUSH1 0x40 MLOAD PUSH3 0x461BCD PUSH1 0xE5 SHL DUP2 MSTORE PUSH1 0x20 PUSH1 0x4 DUP3 ADD MSTORE PUSH1 0x11 PUSH1 0x24 DUP3 ADD MSTORE PUSH17 0x139BDD0818DBDC994818DBDB9D1C9858DD PUSH1 0x7A SHL PUSH1 0x44 DUP3 ADD MSTORE PUSH1 0x64 ADD PUSH2 0x755 JUMP JUMPDEST PUSH1 0x2 PUSH1 0x33 PUSH1 0x0 DUP3 DUP3 SLOAD PUSH2 0x12B1 SWAP2 SWAP1 PUSH2 0x2382 JUMP JUMPDEST SWAP1 SWAP2 SSTORE POP POP JUMP JUMPDEST CALLER PUSH1 0x0 SWAP1 DUP2 MSTORE PUSH1 0x3F PUSH1 0x20 MSTORE PUSH1 0x40 SWAP1 KECCAK256 SLOAD PUSH1 0xFF AND PUSH2 0x12E7 JUMPI PUSH1 0x40 MLOAD PUSH3 0x461BCD PUSH1 0xE5 SHL DUP2 MSTORE PUSH1 0x4 ADD PUSH2 0x755 SWAP1 PUSH2 0x2255 JUMP JUMPDEST CALLER PUSH1 0x0 SWAP1 DUP2 MSTORE PUSH1 0x40 PUSH1 0x20 DUP2 SWAP1 MSTORE SWAP1 KECCAK256 SLOAD PUSH1 0xFF AND DUP1 PUSH2 0x1347 JUMPI PUSH1 0x40 MLOAD PUSH3 0x461BCD PUSH1 0xE5 SHL DUP2 MSTORE PUSH1 0x20 PUSH1 0x4 DUP3 ADD MSTORE PUSH1 0x1B PUSH1 0x24 DUP3 ADD MSTORE PUSH32 0x4D75737420626520612070726F706F73616C2063726561746F72210000000000 PUSH1 0x44 DUP3 ADD MSTORE PUSH1 0x64 ADD PUSH2 0x755 JUMP JUMPDEST PUSH1 0x36 SLOAD PUSH1 0xFF DUP3 AND PUSH1 0x0 SWAP1 DUP2 MSTORE PUSH1 0x42 PUSH1 0x20 MSTORE PUSH1 0x40 SWAP1 KECCAK256 SLOAD LT ISZERO PUSH2 0x13AB JUMPI PUSH1 0x40 MLOAD PUSH3 0x461BCD PUSH1 0xE5 SHL DUP2 MSTORE PUSH1 0x20 PUSH1 0x4 DUP3 ADD MSTORE PUSH1 0x1A PUSH1 0x24 DUP3 ADD MSTORE PUSH32 0x4E6F7420656E6F7567682070726F706F73616C20766F74657321000000000000 PUSH1 0x44 DUP3 ADD MSTORE PUSH1 0x64 ADD PUSH2 0x755 JUMP JUMPDEST PUSH1 0x0 PUSH1 0x3D PUSH2 0x13BA PUSH1 0x1 DUP5 PUSH2 0x2396 JUMP JUMPDEST PUSH1 0xFF AND DUP2 SLOAD DUP2 LT PUSH2 0x13CD JUMPI PUSH2 0x13CD PUSH2 0x2342 JUMP JUMPDEST SWAP1 PUSH1 0x0 MSTORE PUSH1 0x20 PUSH1 0x0 KECCAK256 ADD SLOAD SWAP1 POP PUSH1 0x0 PUSH2 0x13E8 DUP10 DUP10 DUP10 DUP10 PUSH2 0xEBE JUMP JUMPDEST SWAP1 POP DUP2 DUP2 EQ PUSH2 0x144B JUMPI PUSH1 0x40 MLOAD PUSH3 0x461BCD PUSH1 0xE5 SHL DUP2 MSTORE PUSH1 0x20 PUSH1 0x4 DUP3 ADD MSTORE PUSH1 0x29 PUSH1 0x24 DUP3 ADD MSTORE PUSH32 0x50726F706F73616C206461746120646F65736E2774206D6174636820696E6974 PUSH1 0x44 DUP3 ADD MSTORE PUSH9 0x69616C206861736821 PUSH1 0xB8 SHL PUSH1 0x64 DUP3 ADD MSTORE PUSH1 0x84 ADD PUSH2 0x755 JUMP JUMPDEST DUP9 MLOAD ISZERO PUSH2 0x148A JUMPI PUSH1 0x0 JUMPDEST DUP10 MLOAD DUP2 LT ISZERO PUSH2 0x1488 JUMPI PUSH2 0x1480 DUP11 DUP3 DUP2 MLOAD DUP2 LT PUSH2 0x1473 JUMPI PUSH2 0x1473 PUSH2 0x2342 JUMP JUMPDEST PUSH1 0x20 MUL PUSH1 0x20 ADD ADD MLOAD PUSH2 0x17D7 JUMP JUMPDEST PUSH1 0x1 ADD PUSH2 0x1455 JUMP JUMPDEST POP JUMPDEST PUSH1 0xFF DUP4 AND PUSH1 0x0 SWAP1 DUP2 MSTORE PUSH1 0x42 PUSH1 0x20 MSTORE PUSH1 0x40 DUP2 KECCAK256 SLOAD PUSH8 0xFFFFFFFFFFFFFFFF DUP2 GT ISZERO PUSH2 0x14B5 JUMPI PUSH2 0x14B5 PUSH2 0x1F31 JUMP JUMPDEST PUSH1 0x40 MLOAD SWAP1 DUP1 DUP3 MSTORE DUP1 PUSH1 0x20 MUL PUSH1 0x20 ADD DUP3 ADD PUSH1 0x40 MSTORE DUP1 ISZERO PUSH2 0x14DE JUMPI DUP2 PUSH1 0x20 ADD PUSH1 0x20 DUP3 MUL DUP1 CALLDATASIZE DUP4 CALLDATACOPY ADD SWAP1 POP JUMPDEST POP SWAP1 POP PUSH1 0x0 JUMPDEST PUSH1 0x3B SLOAD DUP2 LT ISZERO PUSH2 0x1574 JUMPI PUSH1 0x0 PUSH1 0x3B DUP3 DUP2 SLOAD DUP2 LT PUSH2 0x1503 JUMPI PUSH2 0x1503 PUSH2 0x2342 JUMP JUMPDEST PUSH1 0x0 SWAP2 DUP3 MSTORE PUSH1 0x20 DUP1 DUP4 KECCAK256 SWAP1 SWAP2 ADD SLOAD PUSH1 0x1 PUSH1 0x1 PUSH1 0xA0 SHL SUB AND DUP1 DUP4 MSTORE PUSH1 0x41 SWAP1 SWAP2 MSTORE PUSH1 0x40 SWAP1 SWAP2 KECCAK256 SLOAD SWAP1 SWAP2 POP PUSH1 0xFF DUP1 DUP9 AND SWAP2 AND SUB PUSH2 0x156B JUMPI DUP1 DUP4 DUP4 DUP2 MLOAD DUP2 LT PUSH2 0x154A JUMPI PUSH2 0x154A PUSH2 0x2342 JUMP JUMPDEST PUSH1 0x20 MUL PUSH1 0x20 ADD ADD SWAP1 PUSH1 0x1 PUSH1 0x1 PUSH1 0xA0 SHL SUB AND SWAP1 DUP2 PUSH1 0x1 PUSH1 0x1 PUSH1 0xA0 SHL SUB AND DUP2 MSTORE POP POP JUMPDEST POP PUSH1 0x1 ADD PUSH2 0x14E4 JUMP JUMPDEST POP PUSH1 0x3B SLOAD PUSH1 0x39 SLOAD PUSH1 0x40 MLOAD PUSH4 0x4DB7C8BB PUSH1 0xE1 SHL DUP2 MSTORE PUSH1 0x1 PUSH1 0x1 PUSH1 0xA0 SHL SUB SWAP1 SWAP2 AND SWAP1 PUSH4 0x9B6F9176 SWAP1 PUSH2 0x15B2 SWAP1 DUP14 SWAP1 DUP13 SWAP1 DUP15 SWAP1 DUP14 SWAP1 DUP14 SWAP1 DUP11 SWAP1 PUSH1 0x4 ADD PUSH2 0x23AF JUMP JUMPDEST PUSH1 0x0 PUSH1 0x40 MLOAD DUP1 DUP4 SUB DUP2 PUSH1 0x0 DUP8 DUP1 EXTCODESIZE ISZERO DUP1 ISZERO PUSH2 0x15CC JUMPI PUSH1 0x0 DUP1 REVERT JUMPDEST POP GAS CALL ISZERO DUP1 ISZERO PUSH2 0x15E0 JUMPI RETURNDATASIZE PUSH1 0x0 DUP1 RETURNDATACOPY RETURNDATASIZE PUSH1 0x0 REVERT JUMPDEST POP POP PUSH1 0x38 SLOAD PUSH1 0x40 DUP1 MLOAD SWAP2 DUP3 MSTORE PUSH1 0x20 DUP3 ADD DUP8 SWAP1 MSTORE PUSH32 0x56A007D3EEA04BD347E571F3451382CB2A33EF5FD102B9A63846FF8D787F43CF SWAP4 POP ADD SWAP1 POP PUSH1 0x40 MLOAD DUP1 SWAP2 SUB SWAP1 LOG1 PUSH2 0x1629 PUSH2 0x19CD JUMP JUMPDEST POP POP POP POP POP POP POP POP POP POP POP JUMP JUMPDEST PUSH1 0x3C DUP2 DUP2 SLOAD DUP2 LT PUSH2 0x947 JUMPI PUSH1 0x0 DUP1 REVERT JUMPDEST PUSH1 0x0 DUP1 JUMPDEST PUSH1 0x3C SLOAD DUP2 LT ISZERO PUSH2 0xFAF JUMPI DUP3 PUSH1 0x1 PUSH1 0x1 PUSH1 0xA0 SHL SUB AND PUSH1 0x3C DUP3 DUP2 SLOAD DUP2 LT PUSH2 0x1671 JUMPI PUSH2 0x1671 PUSH2 0x2342 JUMP JUMPDEST PUSH1 0x0 SWAP2 DUP3 MSTORE PUSH1 0x20 SWAP1 SWAP2 KECCAK256 ADD SLOAD PUSH1 0x1 PUSH1 0x1 PUSH1 0xA0 SHL SUB AND SUB PUSH2 0x1694 JUMPI POP PUSH1 0x1 SWAP3 SWAP2 POP POP JUMP JUMPDEST PUSH1 0x1 ADD PUSH2 0x164A JUMP JUMPDEST PUSH1 0x0 PUSH1 0x34 SLOAD PUSH1 0x37 SLOAD TIMESTAMP PUSH2 0x16AF SWAP2 SWAP1 PUSH2 0x223C JUMP JUMPDEST GT ISZERO PUSH2 0x16BB JUMPI POP PUSH1 0x1 SWAP1 JUMP JUMPDEST POP PUSH1 0x0 SWAP1 JUMP JUMPDEST PUSH1 0x0 JUMPDEST PUSH1 0x3B SLOAD DUP2 LT ISZERO PUSH2 0x177A JUMPI PUSH1 0x0 PUSH1 0x41 PUSH1 0x0 PUSH1 0x3B DUP5 DUP2 SLOAD DUP2 LT PUSH2 0x16E7 JUMPI PUSH2 0x16E7 PUSH2 0x2342 JUMP JUMPDEST PUSH1 0x0 SWAP2 DUP3 MSTORE PUSH1 0x20 DUP1 DUP4 KECCAK256 SWAP2 SWAP1 SWAP2 ADD SLOAD PUSH1 0x1 PUSH1 0x1 PUSH1 0xA0 SHL SUB AND DUP4 MSTORE DUP3 ADD SWAP3 SWAP1 SWAP3 MSTORE PUSH1 0x40 SWAP1 DUP2 ADD DUP3 KECCAK256 DUP1 SLOAD PUSH1 0xFF NOT AND PUSH1 0xFF SWAP5 SWAP1 SWAP5 AND SWAP4 SWAP1 SWAP4 OR SWAP1 SWAP3 SSTORE PUSH1 0x3B DUP1 SLOAD SWAP2 SWAP3 SWAP2 DUP4 SWAP2 SWAP1 DUP6 SWAP1 DUP2 LT PUSH2 0x173B JUMPI PUSH2 0x173B PUSH2 0x2342 JUMP JUMPDEST PUSH1 0x0 SWAP2 DUP3 MSTORE PUSH1 0x20 DUP1 DUP4 KECCAK256 SWAP2 SWAP1 SWAP2 ADD SLOAD PUSH1 0x1 PUSH1 0x1 PUSH1 0xA0 SHL SUB AND DUP4 MSTORE DUP3 ADD SWAP3 SWAP1 SWAP3 MSTORE PUSH1 0x40 ADD SWAP1 KECCAK256 DUP1 SLOAD PUSH1 0xFF NOT AND PUSH1 0xFF SWAP3 SWAP1 SWAP3 AND SWAP2 SWAP1 SWAP2 OR SWAP1 SSTORE PUSH1 0x1 ADD PUSH2 0x16C4 JUMP JUMPDEST POP JUMPDEST PUSH1 0x3D SLOAD ISZERO PUSH2 0x17C9 JUMPI PUSH1 0x3D DUP1 SLOAD PUSH1 0xFF DUP2 AND PUSH1 0x0 SWAP1 DUP2 MSTORE PUSH1 0x42 PUSH1 0x20 MSTORE PUSH1 0x40 DUP2 KECCAK256 SSTORE DUP2 SLOAD SWAP1 SWAP2 SWAP1 DUP1 PUSH2 0x17AD JUMPI PUSH2 0x17AD PUSH2 0x2431 JUMP JUMPDEST PUSH1 0x1 SWAP1 SUB DUP2 DUP2 SWAP1 PUSH1 0x0 MSTORE PUSH1 0x20 PUSH1 0x0 KECCAK256 ADD PUSH1 0x0 SWAP1 SSTORE SWAP1 SSTORE POP PUSH2 0x177C JUMP JUMPDEST PUSH2 0x17D5 PUSH1 0x3E PUSH1 0x0 PUSH2 0x1DF9 JUMP JUMPDEST JUMP JUMPDEST PUSH1 0x1 PUSH1 0x1 PUSH1 0xA0 SHL SUB DUP2 AND PUSH1 0x0 SWAP1 DUP2 MSTORE PUSH1 0x3F PUSH1 0x20 MSTORE PUSH1 0x40 SWAP1 KECCAK256 SLOAD PUSH1 0xFF AND PUSH2 0x183F JUMPI PUSH1 0x40 MLOAD PUSH3 0x461BCD PUSH1 0xE5 SHL DUP2 MSTORE PUSH1 0x20 PUSH1 0x4 DUP3 ADD MSTORE PUSH1 0x19 PUSH1 0x24 DUP3 ADD MSTORE PUSH32 0x56616C696461746F72206E6F7420726567697374657265642100000000000000 PUSH1 0x44 DUP3 ADD MSTORE PUSH1 0x64 ADD PUSH2 0x755 JUMP JUMPDEST PUSH1 0x1 PUSH1 0x1 PUSH1 0xA0 SHL SUB DUP2 AND PUSH1 0x0 SWAP1 DUP2 MSTORE PUSH1 0x3F PUSH1 0x20 MSTORE PUSH1 0x40 DUP2 KECCAK256 DUP1 SLOAD PUSH1 0xFF NOT AND SWAP1 SSTORE JUMPDEST PUSH1 0x3B SLOAD DUP2 LT ISZERO PUSH2 0x195B JUMPI DUP2 PUSH1 0x1 PUSH1 0x1 PUSH1 0xA0 SHL SUB AND PUSH1 0x3B DUP3 DUP2 SLOAD DUP2 LT PUSH2 0x1887 JUMPI PUSH2 0x1887 PUSH2 0x2342 JUMP JUMPDEST PUSH1 0x0 SWAP2 DUP3 MSTORE PUSH1 0x20 SWAP1 SWAP2 KECCAK256 ADD SLOAD PUSH1 0x1 PUSH1 0x1 PUSH1 0xA0 SHL SUB AND SUB PUSH2 0x1953 JUMPI PUSH1 0x3B DUP1 SLOAD PUSH2 0x18B1 SWAP1 PUSH1 0x1 SWAP1 PUSH2 0x223C JUMP JUMPDEST DUP2 SLOAD DUP2 LT PUSH2 0x18C1 JUMPI PUSH2 0x18C1 PUSH2 0x2342 JUMP JUMPDEST PUSH1 0x0 SWAP2 DUP3 MSTORE PUSH1 0x20 SWAP1 SWAP2 KECCAK256 ADD SLOAD PUSH1 0x3B DUP1 SLOAD PUSH1 0x1 PUSH1 0x1 PUSH1 0xA0 SHL SUB SWAP1 SWAP3 AND SWAP2 DUP4 SWAP1 DUP2 LT PUSH2 0x18ED JUMPI PUSH2 0x18ED PUSH2 0x2342 JUMP JUMPDEST SWAP1 PUSH1 0x0 MSTORE PUSH1 0x20 PUSH1 0x0 KECCAK256 ADD PUSH1 0x0 PUSH2 0x100 EXP DUP2 SLOAD DUP2 PUSH1 0x1 PUSH1 0x1 PUSH1 0xA0 SHL SUB MUL NOT AND SWAP1 DUP4 PUSH1 0x1 PUSH1 0x1 PUSH1 0xA0 SHL SUB AND MUL OR SWAP1 SSTORE POP PUSH1 0x3B DUP1 SLOAD DUP1 PUSH2 0x192C JUMPI PUSH2 0x192C PUSH2 0x2431 JUMP JUMPDEST PUSH1 0x0 DUP3 DUP2 MSTORE PUSH1 0x20 SWAP1 KECCAK256 DUP2 ADD PUSH1 0x0 NOT SWAP1 DUP2 ADD DUP1 SLOAD PUSH1 0x1 PUSH1 0x1 PUSH1 0xA0 SHL SUB NOT AND SWAP1 SSTORE ADD SWAP1 SSTORE PUSH2 0x195B JUMP JUMPDEST PUSH1 0x1 ADD PUSH2 0x1860 JUMP JUMPDEST POP PUSH2 0x1964 PUSH2 0x199D JUMP JUMPDEST PUSH1 0x40 MLOAD PUSH1 0x1 PUSH1 0x1 PUSH1 0xA0 SHL SUB DUP3 AND DUP2 MSTORE PUSH32 0xE1434E25D6611E0DB941968FDC97811C982AC1602E951637D206F5FDDA9DD8F1 SWAP1 PUSH1 0x20 ADD PUSH2 0xCA2 JUMP JUMPDEST PUSH1 0x35 SLOAD PUSH1 0x3B SLOAD PUSH1 0x64 SWAP2 PUSH2 0x19AF SWAP2 PUSH2 0x2447 JUMP JUMPDEST PUSH2 0x19B9 SWAP2 SWAP1 PUSH2 0x2382 JUMP JUMPDEST PUSH1 0x36 DUP2 SWAP1 SSTORE PUSH1 0x1 GT ISZERO PUSH2 0x17D5 JUMPI PUSH1 0x1 PUSH1 0x36 SSTORE JUMP JUMPDEST PUSH2 0x19D5 PUSH2 0x1A80 JUMP JUMPDEST PUSH1 0x3D SLOAD ISZERO PUSH2 0x1A1D JUMPI PUSH1 0x3D DUP1 SLOAD PUSH1 0xFF AND PUSH1 0x0 SWAP1 DUP2 MSTORE PUSH1 0x42 PUSH1 0x20 MSTORE PUSH1 0x40 DUP2 KECCAK256 SSTORE DUP1 SLOAD DUP1 PUSH2 0x1A02 JUMPI PUSH2 0x1A02 PUSH2 0x2431 JUMP JUMPDEST PUSH1 0x1 SWAP1 SUB DUP2 DUP2 SWAP1 PUSH1 0x0 MSTORE PUSH1 0x20 PUSH1 0x0 KECCAK256 ADD PUSH1 0x0 SWAP1 SSTORE SWAP1 SSTORE PUSH2 0x19D5 JUMP JUMPDEST PUSH1 0x3E SLOAD ISZERO PUSH2 0x1A65 JUMPI PUSH1 0x3E DUP1 SLOAD DUP1 PUSH2 0x1A36 JUMPI PUSH2 0x1A36 PUSH2 0x2431 JUMP JUMPDEST PUSH1 0x1 SWAP1 SUB DUP2 DUP2 SWAP1 PUSH1 0x0 MSTORE PUSH1 0x20 PUSH1 0x0 KECCAK256 SWAP1 PUSH1 0x20 SWAP2 DUP3 DUP3 DIV ADD SWAP2 SWAP1 MOD PUSH2 0x100 EXP DUP2 SLOAD SWAP1 PUSH1 0xFF MUL NOT AND SWAP1 SSTORE SWAP1 SSTORE PUSH2 0x1A1D JUMP JUMPDEST TIMESTAMP PUSH1 0x37 SSTORE PUSH1 0x38 DUP1 SLOAD SWAP1 PUSH1 0x0 PUSH2 0x1A79 DUP4 PUSH2 0x22A0 JUMP JUMPDEST SWAP2 SWAP1 POP SSTORE POP JUMP JUMPDEST PUSH1 0x0 JUMPDEST PUSH1 0x3C SLOAD DUP2 LT ISZERO PUSH2 0x1AE5 JUMPI PUSH1 0x0 PUSH1 0x40 PUSH1 0x0 PUSH1 0x3C DUP5 DUP2 SLOAD DUP2 LT PUSH2 0x1AA6 JUMPI PUSH2 0x1AA6 PUSH2 0x2342 JUMP JUMPDEST PUSH1 0x0 SWAP2 DUP3 MSTORE PUSH1 0x20 DUP1 DUP4 KECCAK256 SWAP2 SWAP1 SWAP2 ADD SLOAD PUSH1 0x1 PUSH1 0x1 PUSH1 0xA0 SHL SUB AND DUP4 MSTORE DUP3 ADD SWAP3 SWAP1 SWAP3 MSTORE PUSH1 0x40 ADD SWAP1 KECCAK256 DUP1 SLOAD PUSH1 0xFF NOT AND PUSH1 0xFF SWAP3 SWAP1 SWAP3 AND SWAP2 SWAP1 SWAP2 OR SWAP1 SSTORE PUSH1 0x1 ADD PUSH2 0x1A83 JUMP JUMPDEST POP PUSH1 0x0 JUMPDEST PUSH1 0x3B SLOAD DUP2 LT ISZERO PUSH2 0x1B4B JUMPI PUSH1 0x0 PUSH1 0x41 PUSH1 0x0 PUSH1 0x3B DUP5 DUP2 SLOAD DUP2 LT PUSH2 0x1B0C JUMPI PUSH2 0x1B0C PUSH2 0x2342 JUMP JUMPDEST PUSH1 0x0 SWAP2 DUP3 MSTORE PUSH1 0x20 DUP1 DUP4 KECCAK256 SWAP2 SWAP1 SWAP2 ADD SLOAD PUSH1 0x1 PUSH1 0x1 PUSH1 0xA0 SHL SUB AND DUP4 MSTORE DUP3 ADD SWAP3 SWAP1 SWAP3 MSTORE PUSH1 0x40 ADD SWAP1 KECCAK256 DUP1 SLOAD PUSH1 0xFF NOT AND PUSH1 0xFF SWAP3 SWAP1 SWAP3 AND SWAP2 SWAP1 SWAP2 OR SWAP1 SSTORE PUSH1 0x1 ADD PUSH2 0x1AE9 JUMP JUMPDEST POP PUSH1 0x3C SLOAD PUSH1 0x0 SUB PUSH2 0x1BBD JUMPI PUSH1 0x0 JUMPDEST PUSH1 0x3B SLOAD DUP2 LT ISZERO PUSH2 0x1BBB JUMPI PUSH1 0x0 PUSH1 0x40 PUSH1 0x0 PUSH1 0x3B DUP5 DUP2 SLOAD DUP2 LT PUSH2 0x1B7C JUMPI PUSH2 0x1B7C PUSH2 0x2342 JUMP JUMPDEST PUSH1 0x0 SWAP2 DUP3 MSTORE PUSH1 0x20 DUP1 DUP4 KECCAK256 SWAP2 SWAP1 SWAP2 ADD SLOAD PUSH1 0x1 PUSH1 0x1 PUSH1 0xA0 SHL SUB AND DUP4 MSTORE DUP3 ADD SWAP3 SWAP1 SWAP3 MSTORE PUSH1 0x40 ADD SWAP1 KECCAK256 DUP1 SLOAD PUSH1 0xFF NOT AND PUSH1 0xFF SWAP3 SWAP1 SWAP3 AND SWAP2 SWAP1 SWAP2 OR SWAP1 SSTORE PUSH1 0x1 ADD PUSH2 0x1B59 JUMP JUMPDEST POP JUMPDEST PUSH2 0x1BC9 PUSH1 0x3C PUSH1 0x0 PUSH2 0x1E1E JUMP JUMPDEST PUSH1 0x3A SLOAD PUSH1 0x3B SLOAD PUSH1 0x1 PUSH1 0xA0 SHL SWAP1 SWAP2 DIV PUSH1 0xFF AND GT ISZERO PUSH2 0x1C28 JUMPI PUSH1 0x40 MLOAD PUSH3 0x461BCD PUSH1 0xE5 SHL DUP2 MSTORE PUSH1 0x20 PUSH1 0x4 DUP3 ADD MSTORE PUSH1 0x1D PUSH1 0x24 DUP3 ADD MSTORE PUSH32 0x4E6F7420656E6F756768206163746976652076616C696461746F727321000000 PUSH1 0x44 DUP3 ADD MSTORE PUSH1 0x64 ADD PUSH2 0x755 JUMP JUMPDEST PUSH1 0x3A SLOAD PUSH1 0x0 SWAP1 PUSH1 0x1 PUSH1 0xA0 SHL SWAP1 DIV PUSH1 0xFF AND PUSH8 0xFFFFFFFFFFFFFFFF DUP2 GT ISZERO PUSH2 0x1C50 JUMPI PUSH2 0x1C50 PUSH2 0x1F31 JUMP JUMPDEST PUSH1 0x40 MLOAD SWAP1 DUP1 DUP3 MSTORE DUP1 PUSH1 0x20 MUL PUSH1 0x20 ADD DUP3 ADD PUSH1 0x40 MSTORE DUP1 ISZERO PUSH2 0x1C79 JUMPI DUP2 PUSH1 0x20 ADD PUSH1 0x20 DUP3 MUL DUP1 CALLDATASIZE DUP4 CALLDATACOPY ADD SWAP1 POP JUMPDEST POP SWAP1 POP PUSH1 0x0 DUP1 JUMPDEST PUSH1 0x3A SLOAD PUSH1 0x1 PUSH1 0xA0 SHL SWAP1 DIV PUSH1 0xFF AND DUP3 LT ISZERO PUSH2 0x1DF4 JUMPI PUSH1 0x3B SLOAD PUSH1 0x40 DUP1 MLOAD TIMESTAMP PUSH1 0x20 DUP3 ADD MSTORE CALLER SWAP2 DUP2 ADD SWAP2 SWAP1 SWAP2 MSTORE PUSH1 0x60 DUP2 ADD DUP5 SWAP1 MSTORE PUSH1 0x80 DUP2 ADD DUP4 SWAP1 MSTORE PUSH1 0x0 SWAP2 SWAP1 PUSH1 0xA0 ADD PUSH1 0x40 MLOAD PUSH1 0x20 DUP2 DUP4 SUB SUB DUP2 MSTORE SWAP1 PUSH1 0x40 MSTORE DUP1 MLOAD SWAP1 PUSH1 0x20 ADD KECCAK256 PUSH1 0x0 SHR PUSH2 0x1CE1 SWAP2 SWAP1 PUSH2 0x236E JUMP JUMPDEST SWAP1 POP PUSH1 0x0 PUSH1 0x3B DUP3 DUP2 SLOAD DUP2 LT PUSH2 0x1CF8 JUMPI PUSH2 0x1CF8 PUSH2 0x2342 JUMP JUMPDEST PUSH1 0x0 SWAP2 DUP3 MSTORE PUSH1 0x20 DUP3 KECCAK256 ADD SLOAD PUSH1 0x1 PUSH1 0x1 PUSH1 0xA0 SHL SUB AND SWAP2 POP DUP1 JUMPDEST DUP6 DUP2 LT ISZERO PUSH2 0x1D5B JUMPI DUP3 PUSH1 0x1 PUSH1 0x1 PUSH1 0xA0 SHL SUB AND DUP8 DUP3 DUP2 MLOAD DUP2 LT PUSH2 0x1D34 JUMPI PUSH2 0x1D34 PUSH2 0x2342 JUMP JUMPDEST PUSH1 0x20 MUL PUSH1 0x20 ADD ADD MLOAD PUSH1 0x1 PUSH1 0x1 PUSH1 0xA0 SHL SUB AND SUB PUSH2 0x1D53 JUMPI PUSH1 0x1 SWAP2 POP PUSH2 0x1D5B JUMP JUMPDEST PUSH1 0x1 ADD PUSH2 0x1D10 JUMP JUMPDEST POP DUP1 PUSH2 0x1DDF JUMPI DUP2 DUP7 DUP7 DUP2 MLOAD DUP2 LT PUSH2 0x1D74 JUMPI PUSH2 0x1D74 PUSH2 0x2342 JUMP JUMPDEST PUSH1 0x1 PUSH1 0x1 PUSH1 0xA0 SHL SUB SWAP3 DUP4 AND PUSH1 0x20 SWAP2 DUP3 MUL SWAP3 SWAP1 SWAP3 ADD ADD MSTORE PUSH1 0x3C DUP1 SLOAD PUSH1 0x1 DUP2 ADD DUP3 SSTORE PUSH1 0x0 SWAP2 SWAP1 SWAP2 MSTORE PUSH32 0xC6BB06CB7F92603DE181BF256CD16846B93B752A170FF24824098B31AA008A7E ADD DUP1 SLOAD PUSH1 0x1 PUSH1 0x1 PUSH1 0xA0 SHL SUB NOT AND SWAP2 DUP5 AND SWAP2 SWAP1 SWAP2 OR SWAP1 SSTORE DUP5 PUSH2 0x1DDB DUP2 PUSH2 0x22A0 JUMP JUMPDEST SWAP6 POP POP JUMPDEST DUP4 PUSH2 0x1DE9 DUP2 PUSH2 0x22A0 JUMP JUMPDEST SWAP5 POP POP POP POP POP PUSH2 0x1C80 JUMP JUMPDEST POP POP POP JUMP JUMPDEST POP DUP1 SLOAD PUSH1 0x0 DUP3 SSTORE PUSH1 0x1F ADD PUSH1 0x20 SWAP1 DIV SWAP1 PUSH1 0x0 MSTORE PUSH1 0x20 PUSH1 0x0 KECCAK256 SWAP1 DUP2 ADD SWAP1 PUSH2 0x9F1 SWAP2 SWAP1 PUSH2 0x1E38 JUMP JUMPDEST POP DUP1 SLOAD PUSH1 0x0 DUP3 SSTORE SWAP1 PUSH1 0x0 MSTORE PUSH1 0x20 PUSH1 0x0 KECCAK256 SWAP1 DUP2 ADD SWAP1 PUSH2 0x9F1 SWAP2 SWAP1 JUMPDEST JUMPDEST DUP1 DUP3 GT ISZERO PUSH2 0x1E4D JUMPI PUSH1 0x0 DUP2 SSTORE PUSH1 0x1 ADD PUSH2 0x1E39 JUMP JUMPDEST POP SWAP1 JUMP JUMPDEST DUP1 CALLDATALOAD PUSH1 0x1 PUSH1 0x1 PUSH1 0xA0 SHL SUB DUP2 AND DUP2 EQ PUSH2 0x1E68 JUMPI PUSH1 0x0 DUP1 REVERT JUMPDEST SWAP2 SWAP1 POP JUMP JUMPDEST PUSH1 0x0 PUSH1 0x20 DUP3 DUP5 SUB SLT ISZERO PUSH2 0x1E7F JUMPI PUSH1 0x0 DUP1 REVERT JUMPDEST PUSH2 0x1E88 DUP3 PUSH2 0x1E51 JUMP JUMPDEST SWAP4 SWAP3 POP POP POP JUMP JUMPDEST PUSH1 0x0 DUP2 MLOAD DUP1 DUP5 MSTORE PUSH1 0x20 DUP1 DUP6 ADD SWAP5 POP PUSH1 0x20 DUP5 ADD PUSH1 0x0 JUMPDEST DUP4 DUP2 LT ISZERO PUSH2 0x1EC9 JUMPI DUP2 MLOAD PUSH1 0x1 PUSH1 0x1 PUSH1 0xA0 SHL SUB AND DUP8 MSTORE SWAP6 DUP3 ADD SWAP6 SWAP1 DUP3 ADD SWAP1 PUSH1 0x1 ADD PUSH2 0x1EA4 JUMP JUMPDEST POP SWAP5 SWAP6 SWAP5 POP POP POP POP POP JUMP JUMPDEST DUP3 DUP2 MSTORE PUSH1 0x40 PUSH1 0x20 DUP3 ADD MSTORE PUSH1 0x0 PUSH2 0x1EED PUSH1 0x40 DUP4 ADD DUP5 PUSH2 0x1E8F JUMP JUMPDEST SWAP5 SWAP4 POP POP POP POP JUMP JUMPDEST PUSH1 0x0 PUSH1 0x20 DUP3 DUP5 SUB SLT ISZERO PUSH2 0x1F07 JUMPI PUSH1 0x0 DUP1 REVERT JUMPDEST POP CALLDATALOAD SWAP2 SWAP1 POP JUMP JUMPDEST PUSH1 0x0 PUSH1 0x20 DUP3 DUP5 SUB SLT ISZERO PUSH2 0x1F20 JUMPI PUSH1 0x0 DUP1 REVERT JUMPDEST DUP2 CALLDATALOAD PUSH1 0xFF DUP2 AND DUP2 EQ PUSH2 0x1E88 JUMPI PUSH1 0x0 DUP1 REVERT JUMPDEST PUSH4 0x4E487B71 PUSH1 0xE0 SHL PUSH1 0x0 MSTORE PUSH1 0x41 PUSH1 0x4 MSTORE PUSH1 0x24 PUSH1 0x0 REVERT JUMPDEST PUSH1 0x40 MLOAD PUSH1 0x1F DUP3 ADD PUSH1 0x1F NOT AND DUP2 ADD PUSH8 0xFFFFFFFFFFFFFFFF DUP2 GT DUP3 DUP3 LT OR ISZERO PUSH2 0x1F70 JUMPI PUSH2 0x1F70 PUSH2 0x1F31 JUMP JUMPDEST PUSH1 0x40 MSTORE SWAP2 SWAP1 POP JUMP JUMPDEST PUSH1 0x0 PUSH8 0xFFFFFFFFFFFFFFFF DUP3 GT ISZERO PUSH2 0x1F92 JUMPI PUSH2 0x1F92 PUSH2 0x1F31 JUMP JUMPDEST POP PUSH1 0x5 SHL PUSH1 0x20 ADD SWAP1 JUMP JUMPDEST PUSH1 0x0 DUP3 PUSH1 0x1F DUP4 ADD SLT PUSH2 0x1FAD JUMPI PUSH1 0x0 DUP1 REVERT JUMPDEST DUP2 CALLDATALOAD PUSH1 0x20 PUSH2 0x1FC2 PUSH2 0x1FBD DUP4 PUSH2 0x1F78 JUMP JUMPDEST PUSH2 0x1F47 JUMP JUMPDEST DUP1 DUP4 DUP3 MSTORE PUSH1 0x20 DUP3 ADD SWAP2 POP PUSH1 0x20 DUP5 PUSH1 0x5 SHL DUP8 ADD ADD SWAP4 POP DUP7 DUP5 GT ISZERO PUSH2 0x1FE4 JUMPI PUSH1 0x0 DUP1 REVERT JUMPDEST PUSH1 0x20 DUP7 ADD JUMPDEST DUP5 DUP2 LT ISZERO PUSH2 0x2007 JUMPI PUSH2 0x1FFA DUP2 PUSH2 0x1E51 JUMP JUMPDEST DUP4 MSTORE SWAP2 DUP4 ADD SWAP2 DUP4 ADD PUSH2 0x1FE9 JUMP JUMPDEST POP SWAP7 SWAP6 POP POP POP POP POP POP JUMP JUMPDEST PUSH1 0x0 DUP3 PUSH1 0x1F DUP4 ADD SLT PUSH2 0x2023 JUMPI PUSH1 0x0 DUP1 REVERT JUMPDEST DUP2 CALLDATALOAD PUSH1 0x20 PUSH2 0x2033 PUSH2 0x1FBD DUP4 PUSH2 0x1F78 JUMP JUMPDEST DUP1 DUP4 DUP3 MSTORE PUSH1 0x20 DUP3 ADD SWAP2 POP PUSH1 0x20 DUP5 PUSH1 0x5 SHL DUP8 ADD ADD SWAP4 POP DUP7 DUP5 GT ISZERO PUSH2 0x2055 JUMPI PUSH1 0x0 DUP1 REVERT JUMPDEST PUSH1 0x20 DUP7 ADD JUMPDEST DUP5 DUP2 LT ISZERO PUSH2 0x2007 JUMPI DUP1 CALLDATALOAD DUP4 MSTORE SWAP2 DUP4 ADD SWAP2 DUP4 ADD PUSH2 0x205A JUMP JUMPDEST PUSH1 0x0 DUP1 PUSH1 0x0 DUP1 PUSH1 0x80 DUP6 DUP8 SUB SLT ISZERO PUSH2 0x2087 JUMPI PUSH1 0x0 DUP1 REVERT JUMPDEST DUP5 CALLDATALOAD PUSH8 0xFFFFFFFFFFFFFFFF DUP1 DUP3 GT ISZERO PUSH2 0x209F JUMPI PUSH1 0x0 DUP1 REVERT JUMPDEST PUSH2 0x20AB DUP9 DUP4 DUP10 ADD PUSH2 0x1F9C JUMP JUMPDEST SWAP6 POP PUSH1 0x20 DUP8 ADD CALLDATALOAD SWAP2 POP DUP1 DUP3 GT ISZERO PUSH2 0x20C1 JUMPI PUSH1 0x0 DUP1 REVERT JUMPDEST PUSH2 0x20CD DUP9 DUP4 DUP10 ADD PUSH2 0x2012 JUMP JUMPDEST SWAP5 POP PUSH1 0x40 DUP8 ADD CALLDATALOAD SWAP2 POP DUP1 DUP3 GT ISZERO PUSH2 0x20E3 JUMPI PUSH1 0x0 DUP1 REVERT JUMPDEST PUSH2 0x20EF DUP9 DUP4 DUP10 ADD PUSH2 0x2012 JUMP JUMPDEST SWAP4 POP PUSH1 0x60 DUP8 ADD CALLDATALOAD SWAP2 POP DUP1 DUP3 GT ISZERO PUSH2 0x2105 JUMPI PUSH1 0x0 DUP1 REVERT JUMPDEST POP PUSH2 0x2112 DUP8 DUP3 DUP9 ADD PUSH2 0x1F9C JUMP JUMPDEST SWAP2 POP POP SWAP3 SWAP6 SWAP2 SWAP5 POP SWAP3 POP JUMP JUMPDEST PUSH1 0x20 DUP2 MSTORE PUSH1 0x0 PUSH2 0x1E88 PUSH1 0x20 DUP4 ADD DUP5 PUSH2 0x1E8F JUMP JUMPDEST PUSH1 0x0 DUP1 PUSH1 0x0 DUP1 PUSH1 0x0 DUP1 PUSH1 0xC0 DUP8 DUP10 SUB SLT ISZERO PUSH2 0x214A JUMPI PUSH1 0x0 DUP1 REVERT JUMPDEST DUP7 CALLDATALOAD PUSH8 0xFFFFFFFFFFFFFFFF DUP1 DUP3 GT ISZERO PUSH2 0x2162 JUMPI PUSH1 0x0 DUP1 REVERT JUMPDEST PUSH2 0x216E DUP11 DUP4 DUP12 ADD PUSH2 0x1F9C JUMP JUMPDEST SWAP8 POP PUSH1 0x20 DUP10 ADD CALLDATALOAD SWAP2 POP DUP1 DUP3 GT ISZERO PUSH2 0x2184 JUMPI PUSH1 0x0 DUP1 REVERT JUMPDEST PUSH2 0x2190 DUP11 DUP4 DUP12 ADD PUSH2 0x2012 JUMP JUMPDEST SWAP7 POP PUSH1 0x40 DUP10 ADD CALLDATALOAD SWAP2 POP DUP1 DUP3 GT ISZERO PUSH2 0x21A6 JUMPI PUSH1 0x0 DUP1 REVERT JUMPDEST PUSH2 0x21B2 DUP11 DUP4 DUP12 ADD PUSH2 0x2012 JUMP JUMPDEST SWAP6 POP PUSH1 0x60 DUP10 ADD CALLDATALOAD SWAP2 POP DUP1 DUP3 GT ISZERO PUSH2 0x21C8 JUMPI PUSH1 0x0 DUP1 REVERT JUMPDEST PUSH2 0x21D4 DUP11 DUP4 DUP12 ADD PUSH2 0x1F9C JUMP JUMPDEST SWAP5 POP PUSH1 0x80 DUP10 ADD CALLDATALOAD SWAP2 POP DUP1 DUP3 GT ISZERO PUSH2 0x21EA JUMPI PUSH1 0x0 DUP1 REVERT JUMPDEST PUSH2 0x21F6 DUP11 DUP4 DUP12 ADD PUSH2 0x2012 JUMP JUMPDEST SWAP4 POP PUSH1 0xA0 DUP10 ADD CALLDATALOAD SWAP2 POP DUP1 DUP3 GT ISZERO PUSH2 0x220C JUMPI PUSH1 0x0 DUP1 REVERT JUMPDEST POP PUSH2 0x2219 DUP10 DUP3 DUP11 ADD PUSH2 0x2012 JUMP JUMPDEST SWAP2 POP POP SWAP3 SWAP6 POP SWAP3 SWAP6 POP SWAP3 SWAP6 JUMP JUMPDEST PUSH4 0x4E487B71 PUSH1 0xE0 SHL PUSH1 0x0 MSTORE PUSH1 0x11 PUSH1 0x4 MSTORE PUSH1 0x24 PUSH1 0x0 REVERT JUMPDEST DUP2 DUP2 SUB DUP2 DUP2 GT ISZERO PUSH2 0x224F JUMPI PUSH2 0x224F PUSH2 0x2226 JUMP JUMPDEST SWAP3 SWAP2 POP POP JUMP JUMPDEST PUSH1 0x20 DUP1 DUP3 MSTORE PUSH1 0xF SWAP1 DUP3 ADD MSTORE PUSH15 0x2737BA1030903B30B634B230BA37B9 PUSH1 0x89 SHL PUSH1 0x40 DUP3 ADD MSTORE PUSH1 0x60 ADD SWAP1 JUMP JUMPDEST PUSH1 0x0 PUSH1 0x20 DUP3 DUP5 SUB SLT ISZERO PUSH2 0x2290 JUMPI PUSH1 0x0 DUP1 REVERT JUMPDEST DUP2 MLOAD DUP1 ISZERO ISZERO DUP2 EQ PUSH2 0x1E88 JUMPI PUSH1 0x0 DUP1 REVERT JUMPDEST PUSH1 0x0 PUSH1 0x1 DUP3 ADD PUSH2 0x22B2 JUMPI PUSH2 0x22B2 PUSH2 0x2226 JUMP JUMPDEST POP PUSH1 0x1 ADD SWAP1 JUMP JUMPDEST PUSH1 0x0 DUP2 MLOAD DUP1 DUP5 MSTORE PUSH1 0x20 DUP1 DUP6 ADD SWAP5 POP PUSH1 0x20 DUP5 ADD PUSH1 0x0 JUMPDEST DUP4 DUP2 LT ISZERO PUSH2 0x1EC9 JUMPI DUP2 MLOAD DUP8 MSTORE SWAP6 DUP3 ADD SWAP6 SWAP1 DUP3 ADD SWAP1 PUSH1 0x1 ADD PUSH2 0x22CE JUMP JUMPDEST PUSH1 0x80 DUP2 MSTORE PUSH1 0x0 PUSH2 0x22FD PUSH1 0x80 DUP4 ADD DUP8 PUSH2 0x1E8F JUMP JUMPDEST DUP3 DUP2 SUB PUSH1 0x20 DUP5 ADD MSTORE PUSH2 0x230F DUP2 DUP8 PUSH2 0x22B9 JUMP JUMPDEST SWAP1 POP DUP3 DUP2 SUB PUSH1 0x40 DUP5 ADD MSTORE PUSH2 0x2323 DUP2 DUP7 PUSH2 0x22B9 JUMP JUMPDEST SWAP1 POP DUP3 DUP2 SUB PUSH1 0x60 DUP5 ADD MSTORE PUSH2 0x2337 DUP2 DUP6 PUSH2 0x1E8F JUMP JUMPDEST SWAP8 SWAP7 POP POP POP POP POP POP POP JUMP JUMPDEST PUSH4 0x4E487B71 PUSH1 0xE0 SHL PUSH1 0x0 MSTORE PUSH1 0x32 PUSH1 0x4 MSTORE PUSH1 0x24 PUSH1 0x0 REVERT JUMPDEST PUSH4 0x4E487B71 PUSH1 0xE0 SHL PUSH1 0x0 MSTORE PUSH1 0x12 PUSH1 0x4 MSTORE PUSH1 0x24 PUSH1 0x0 REVERT JUMPDEST PUSH1 0x0 DUP3 PUSH2 0x237D JUMPI PUSH2 0x237D PUSH2 0x2358 JUMP JUMPDEST POP MOD SWAP1 JUMP JUMPDEST PUSH1 0x0 DUP3 PUSH2 0x2391 JUMPI PUSH2 0x2391 PUSH2 0x2358 JUMP JUMPDEST POP DIV SWAP1 JUMP JUMPDEST PUSH1 0xFF DUP3 DUP2 AND DUP3 DUP3 AND SUB SWAP1 DUP2 GT ISZERO PUSH2 0x224F JUMPI PUSH2 0x224F PUSH2 0x2226 JUMP JUMPDEST PUSH1 0xC0 DUP2 MSTORE PUSH1 0x0 PUSH2 0x23C2 PUSH1 0xC0 DUP4 ADD DUP10 PUSH2 0x22B9 JUMP JUMPDEST DUP3 DUP2 SUB PUSH1 0x20 DUP5 ADD MSTORE PUSH2 0x23D4 DUP2 DUP10 PUSH2 0x1E8F JUMP JUMPDEST SWAP1 POP DUP3 DUP2 SUB PUSH1 0x40 DUP5 ADD MSTORE PUSH2 0x23E8 DUP2 DUP9 PUSH2 0x22B9 JUMP JUMPDEST SWAP1 POP DUP3 DUP2 SUB PUSH1 0x60 DUP5 ADD MSTORE PUSH2 0x23FC DUP2 DUP8 PUSH2 0x22B9 JUMP JUMPDEST SWAP1 POP DUP3 DUP2 SUB PUSH1 0x80 DUP5 ADD MSTORE PUSH2 0x2410 DUP2 DUP7 PUSH2 0x22B9 JUMP JUMPDEST SWAP1 POP DUP3 DUP2 SUB PUSH1 0xA0 DUP5 ADD MSTORE PUSH2 0x2424 DUP2 DUP6 PUSH2 0x1E8F JUMP JUMPDEST SWAP10 SWAP9 POP POP POP POP POP POP POP POP POP JUMP JUMPDEST PUSH4 0x4E487B71 PUSH1 0xE0 SHL PUSH1 0x0 MSTORE PUSH1 0x31 PUSH1 0x4 MSTORE PUSH1 0x24 PUSH1 0x0 REVERT JUMPDEST DUP1 DUP3 MUL DUP2 ISZERO DUP3 DUP3 DIV DUP5 EQ OR PUSH2 0x224F JUMPI PUSH2 0x224F PUSH2 0x2226 JUMP INVALID LOG2 PUSH5 0x6970667358 0x22 SLT KECCAK256 SWAP14 DUP9 PC CALLDATASIZE 0xD6 XOR MULMOD SWAP11 SWAP13 0xEF SIGNEXTEND 0xFC CALLDATACOPY PUSH12 0x1459F1EC30CD3B9711667F18 LT BLOCKHASH ISZERO PUSH4 0x3C2A6473 PUSH16 0x6C634300081900330000000000000000 ",
  "sha1": "51e090f703a3cc2d51860933c2cfd207442628a9",
  "source": "// SPDX-License-Identifier: MIT\npragma solidity ^0.8.5;\n\nimport \"@openzeppelin-upgradeable/contracts/proxy/utils/Initializable.sol\";\nimport \"@openzeppelin-upgradeable/contracts/interfaces/IERC20Upgradeable.sol\";\nimport \"@openzeppelin-upgradeable/contracts/security/ReentrancyGuardUpgradeable.sol\";\nimport \"./interfaces/ISmartnodesCore.sol\";\n\n/** \n    * @title SmartnodesMultiSig\n    * @dev A multi-signature contract composed of Smartnodes validators responsible for\n     managing the Core contract\n*/\ncontract SmartnodesMultiSig is Initializable, ReentrancyGuardUpgradeable {\n    // State update constraints\n    uint256 public updateTime;\n    uint256 public roundExpirationTime;\n    uint256 public requiredApprovalsPercentage;\n    uint256 public requiredApprovals;\n    uint256 public lastProposalTime; // time of last executed proposal\n    uint256 public nextProposalId;\n\n    // Metadata and bytecode for SmartNodes calls\n    ISmartnodesCore private _smartnodesContractInstance;\n    address public smartnodesContractAddress;\n\n    // Counters for storage indexing / IDs\n    uint8 public nValidators;\n    address[] public validators;\n    address[] public currentRoundValidators;\n    bytes32[] public currentProposals;\n    uint8[] public readyProposals;\n\n    // Added mapping to track proposal creation times\n    mapping(address => bool) public isValidator;\n    mapping(address => uint8) public hasSubmittedProposal;\n    mapping(address => uint8) public hasVoted;\n    mapping(uint8 => uint256) public proposalVotes;\n\n    event ProposalExecuted(uint256 proposalId, bytes32 proposalHash);\n    event ProposalExpired(uint256 proposalId);\n    event Deposit(address sender, uint amount);\n    event ValidatorAdded(address validator);\n    event ValidatorRemoved(address validator);\n\n    /**\n     * @dev Ensures caller is a registered validator\n     */\n    modifier onlyValidator() {\n        require(isValidator[msg.sender], \"Not a validator\");\n        _;\n    }\n\n    /**\n     * @dev Ensures caller is the core contract\n     */\n    modifier onlySmartnodesCore() {\n        require(msg.sender == smartnodesContractAddress, \"Not core contract\");\n        _;\n    }\n\n    /**\n     * @dev Allows only current round validators, or any validator if round has expired.\n     */\n    modifier onlyEligibleValidator() {\n        bool isSelectedValidator = _isCurrentRoundValidator(msg.sender);\n        bool _isRoundExpired = _isCurrentRoundExpired();\n\n        require(\n            isSelectedValidator || (isValidator[msg.sender] && _isRoundExpired),\n            \"Not eligible to submit proposal.\"\n        );\n\n        require(\n            hasSubmittedProposal[msg.sender] == 0,\n            \"Validator has already submitted a proposal this round.\"\n        );\n\n        if (_isRoundExpired) {\n            _cleanupExpiredRound();\n        }\n\n        _;\n    }\n\n    /**\n     * @notice Initializes the contract\n     * @param target Address of the SmartNodes core contract\n     */\n    function initialize(\n        address target // Address of the main contract (Smart Nodes)\n    )\n        public\n        // address _vrfCoordinator,\n        // uint64 _subscriptionId\n        initializer\n    {\n        smartnodesContractAddress = target;\n        _smartnodesContractInstance = ISmartnodesCore(target);\n\n        updateTime = 1800 / 5; // 30 minutes minimum required between state updates\n        roundExpirationTime = 3600 / 5; // 60 minutes until proposal expires\n        lastProposalTime = 0;\n        requiredApprovalsPercentage = 66;\n        nValidators = 1;\n        nextProposalId = 0;\n    }\n\n    receive() external payable {\n        emit Deposit(msg.sender, msg.value);\n    }\n\n    /**\n     * @notice Creates a new proposal, to update all the essential data structures given some aggregated off-chain state.\n     */\n    function createProposal(\n        bytes32 proposalHash\n    ) external onlyEligibleValidator nonReentrant {\n        // Only allow proposals starting 5m from update window\n        require(\n            block.timestamp - lastProposalTime >= updateTime - 120,\n            \"Proposal must be submitted updateTime - 2mins after last execution\"\n        );\n        currentProposals.push(proposalHash);\n        uint8 proposalNum = uint8(currentProposals.length);\n        hasSubmittedProposal[msg.sender] = proposalNum;\n    }\n\n    /**\n     * @notice Internal function to clean up expired round\n     */\n    function _cleanupExpiredRound() internal {\n        // Reset all validator states\n        for (uint256 i = 0; i < validators.length; i++) {\n            hasVoted[validators[i]] = 0;\n            hasSubmittedProposal[validators[i]] = 0;\n        }\n\n        // Clear all proposals and votes\n        while (currentProposals.length > 0) {\n            uint8 proposalNum = uint8(currentProposals.length);\n            proposalVotes[proposalNum] = 0;\n            currentProposals.pop();\n        }\n\n        // Clear ready proposals\n        delete readyProposals;\n    }\n\n    /**\n     * @notice Checks if a round has expired\n     */\n    function isRoundExpired() public view returns (bool) {\n        return block.timestamp - lastProposalTime > roundExpirationTime;\n    }\n\n    /**\n     * @notice Allows updating the proposal expiration time\n     */\n    function setProposalExpirationTime(\n        uint256 newExpirationTime\n    ) external onlySmartnodesCore {\n        require(\n            newExpirationTime >= updateTime,\n            \"Expiration time must be >= update time\"\n        );\n        roundExpirationTime = newExpirationTime;\n    }\n\n    /**\n     * @notice Casts a vote for a proposal and executes once required approvals are met. Add Validator to storage\n      if it has just registered and is not stored on MultiSig. \n     * @param proposalNum The ID of the current round proposal\n     */\n    function approveTransaction(uint8 proposalNum) external onlyValidator {\n        require(hasVoted[msg.sender] == 0, \"Validator has already voted!\");\n        require(\n            currentProposals.length >= proposalNum && proposalNum > 0,\n            \"Invalid proposal number!\"\n        );\n\n        if (isValidator[msg.sender] == false) {\n            addValidator(msg.sender);\n        }\n\n        hasVoted[msg.sender] = proposalNum;\n        proposalVotes[proposalNum]++;\n\n        if (proposalVotes[proposalNum] >= requiredApprovals) {\n            readyProposals.push(proposalNum);\n        }\n    }\n\n    /**\n     * @notice Executes a proposal if it has enough approvals.\n     */\n    function executeProposal(\n        address[] memory validatorsToRemove,\n        bytes32[] memory jobHashes,\n        uint256[] memory jobCapacities,\n        address[] memory jobWorkers,\n        uint256[] memory allCapacities,\n        uint256[] memory allWorkers\n    ) external onlyValidator {\n        uint8 proposalNum = hasSubmittedProposal[msg.sender];\n        require(proposalNum > 0, \"Must be a proposal creator!\");\n        require(\n            proposalVotes[proposalNum] >= requiredApprovals,\n            \"Not enough proposal votes!\"\n        );\n\n        bytes32 providedHash = currentProposals[proposalNum - 1];\n        bytes32 proposalHash = hashProposalData(\n            validatorsToRemove,\n            jobHashes,\n            jobCapacities,\n            jobWorkers\n        );\n\n        require(\n            proposalHash == providedHash,\n            \"Proposal data doesn't match initial hash!\"\n        );\n\n        if (validatorsToRemove.length > 0) {\n            for (uint i = 0; i < validatorsToRemove.length; i++) {\n                _removeValidator(validatorsToRemove[i]);\n            }\n        }\n\n        address[] memory _approvedValidators = new address[](\n            proposalVotes[proposalNum]\n        );\n\n        for (uint i = 0; i < validators.length; i++) {\n            address validator = validators[i];\n\n            if (hasVoted[validator] == proposalNum) {\n                _approvedValidators[i] = validator;\n            }\n        }\n\n        uint256 activeValidators = validators.length;\n\n        // Call mint function to generate rewards for workers and validators\n        _smartnodesContractInstance.updateContract(\n            jobHashes,\n            jobWorkers,\n            jobCapacities,\n            allCapacities,\n            allWorkers,\n            _approvedValidators\n        );\n\n        emit ProposalExecuted(nextProposalId, proposalHash);\n\n        _updateRound();\n    }\n\n    function hashProposalData(\n        address[] memory validatorsToRemove,\n        bytes32[] memory jobHashes,\n        uint256[] memory jobCapacities,\n        address[] memory workers\n    ) public pure returns (bytes32) {\n        require(\n            workers.length == jobCapacities.length,\n            \"Workers and capacities length mismatch\"\n        );\n\n        return\n            keccak256(\n                abi.encode(\n                    validatorsToRemove,\n                    jobHashes,\n                    jobCapacities,\n                    workers\n                )\n            );\n    }\n\n    /**\n     * @notice Adds a new validator to the contract, must be staked on SmartnodesCore.\n     * @param validator The address of the new validator\n     */\n    function addValidator(address validator) public {\n        require(\n            _smartnodesContractInstance.isLocked(validator),\n            \"Validator must be registered and locked on SmartnodesCore!\"\n        );\n        require(\n            !isValidator[validator],\n            \"Validator already registered on Multsig!\"\n        );\n\n        validators.push(validator);\n        isValidator[validator] = true;\n        _updateApprovalRequirements();\n\n        emit ValidatorAdded(validator);\n    }\n\n    function removeValidator(address validator) external onlyValidator {\n        require(msg.sender == validator, \"Cannot remove another validator!\");\n        _removeValidator(validator);\n    }\n\n    /**\n     * @dev Update the number of required approvals (66% of the active validators)\n     */\n    function _updateApprovalRequirements() internal {\n        requiredApprovals =\n            (validators.length * requiredApprovalsPercentage) /\n            100;\n\n        if (requiredApprovals < 1) {\n            requiredApprovals = 1; // Ensure at least 1 approval is required\n        }\n    }\n\n    function _removeValidator(address validator) private {\n        require(isValidator[validator], \"Validator not registered!\");\n        isValidator[validator] = false;\n\n        for (uint i = 0; i < validators.length; i++) {\n            if (validators[i] == validator) {\n                validators[i] = validators[validators.length - 1];\n                validators.pop();\n                break;\n            }\n        }\n\n        _updateApprovalRequirements();\n        emit ValidatorRemoved(validator);\n    }\n\n    /**\n     * @dev Checks if current round is expired\n     */\n    function _isCurrentRoundExpired() internal view returns (bool) {\n        if (block.timestamp - lastProposalTime > roundExpirationTime) {\n            return true;\n        }\n        return false;\n    }\n\n    /**\n     * @dev Checks if a validator is selected for current round\n     */\n    function _isCurrentRoundValidator(\n        address _validator\n    ) internal view returns (bool) {\n        for (uint i = 0; i < currentRoundValidators.length; i++) {\n            if (currentRoundValidators[i] == _validator) {\n                return true;\n            }\n        }\n        return false;\n    }\n\n    function _updateRound() internal {\n        _resetCurrentValidators();\n\n        while (currentProposals.length > 0) {\n            proposalVotes[uint8(currentProposals.length)] = 0;\n            currentProposals.pop();\n        }\n\n        while (readyProposals.length > 0) {\n            readyProposals.pop();\n        }\n\n        lastProposalTime = block.timestamp;\n        nextProposalId++;\n    }\n\n    function _resetCurrentValidators() internal {\n        // Clear submission status and other parameters\n        for (uint256 i = 0; i < currentRoundValidators.length; i++) {\n            hasSubmittedProposal[currentRoundValidators[i]] = 0;\n        }\n\n        for (uint256 i = 0; i < validators.length; i++) {\n            hasVoted[validators[i]] = 0;\n        }\n\n        // If it's the genesis proposal and no round validators exist\n        if (currentRoundValidators.length == 0) {\n            for (uint256 i = 0; i < validators.length; i++) {\n                hasSubmittedProposal[validators[i]] = 0;\n            }\n        }\n\n        delete currentRoundValidators;\n\n        require(\n            validators.length >= nValidators,\n            \"Not enough active validators!\"\n        );\n\n        // Create a temporary array to store selected validators\n        address[] memory selectedValidators = new address[](nValidators);\n        uint256 selectedCount = 0;\n        uint nonce = 0;\n\n        while (selectedCount < nValidators) {\n            uint256 randId = uint256(\n                keccak256(\n                    abi.encode(\n                        block.timestamp,\n                        msg.sender,\n                        selectedCount,\n                        nonce\n                    )\n                )\n            ) % validators.length;\n\n            address selectedValidator = validators[randId];\n\n            // Check if the validator is already selected\n            bool alreadySelected = false;\n            for (uint256 j = 0; j < selectedCount; j++) {\n                if (selectedValidators[j] == selectedValidator) {\n                    alreadySelected = true;\n                    break;\n                }\n            }\n\n            // If not selected, add to the current round and increment counter\n            if (!alreadySelected) {\n                selectedValidators[selectedCount] = selectedValidator;\n                currentRoundValidators.push(selectedValidator);\n                selectedCount++;\n            }\n\n            nonce++;\n        }\n    }\n\n    function generateValidators(\n        uint256 numValidators\n    ) external view returns (address[] memory) {\n        require(\n            validators.length >= numValidators,\n            \"Not enough active validators!\"\n        );\n\n        address[] memory selectedValidators = new address[](numValidators);\n        uint256 selectedCount = 0;\n\n        for (uint256 i = 0; i < numValidators; i++) {\n            uint256 randId = uint256(\n                keccak256(abi.encode(block.timestamp, msg.sender, i))\n            ) % validators.length;\n\n            selectedValidators[i] = validators[randId];\n            selectedCount++;\n        }\n\n        return selectedValidators;\n    }\n\n    function halvePeriod() external onlySmartnodesCore {\n        updateTime /= 2;\n    }\n\n    function doublePeriod() external onlySmartnodesCore {\n        updateTime /= 2;\n    }\n\n    function getNumValidators() external view returns (uint256) {\n        return validators.length;\n    }\n\n    function isActiveValidator(\n        address _validatorAddress\n    ) external view returns (bool) {\n        return isValidator[_validatorAddress];\n    }\n\n    // function getCurrentProposal(\n    //     uint8 proposalNum\n    // ) external view returns (RemoveValidator[] memory, CompleteJob[] memory) {\n    //     require(proposalNum < currentProposals.length, \"Proposal not found!\");\n    //     return (\n    //         currentProposals[proposalNum].validatorRemovals,\n    //         currentProposals[proposalNum].jobCompletions\n    //     );\n    // }\n\n    // Get basic info on the current state of the validator multisig\n    function getState() external view returns (uint256, address[] memory) {\n        return (nextProposalId, currentRoundValidators);\n    }\n\n    function isProposalReady(\n        uint256 proposalNumber\n    ) external view returns (bool) {\n        for (uint i = 0; i < readyProposals.length; i++) {\n            if (readyProposals[i] == proposalNumber) {\n                return true;\n            }\n        }\n\n        return false;\n    }\n}\n",
  "sourcePath": "contracts/SmartnodesMultiSig.sol",
  "type": "contract"
}