{
  "abi": [
    {
      "anonymous": false,
      "inputs": [
        {
          "indexed": true,
          "internalType": "address",
          "name": "owner",
          "type": "address"
        },
        {
          "indexed": true,
          "internalType": "address",
          "name": "spender",
          "type": "address"
        },
        {
          "indexed": false,
          "internalType": "uint256",
          "name": "value",
          "type": "uint256"
        }
      ],
      "name": "Approval",
      "type": "event"
    },
    {
      "anonymous": false,
      "inputs": [
        {
          "indexed": true,
          "internalType": "bytes32",
          "name": "jobId",
          "type": "bytes32"
        },
        {
          "indexed": false,
          "internalType": "uint256",
          "name": "timestamp",
          "type": "uint256"
        }
      ],
      "name": "JobCompleted",
      "type": "event"
    },
    {
      "anonymous": false,
      "inputs": [
        {
          "indexed": true,
          "internalType": "bytes32",
          "name": "jobId",
          "type": "bytes32"
        },
        {
          "indexed": false,
          "internalType": "uint256",
          "name": "timestamp",
          "type": "uint256"
        }
      ],
      "name": "JobDisputed",
      "type": "event"
    },
    {
      "anonymous": false,
      "inputs": [
        {
          "indexed": true,
          "internalType": "bytes32",
          "name": "jobHash",
          "type": "bytes32"
        },
        {
          "indexed": false,
          "internalType": "uint256",
          "name": "timestamp",
          "type": "uint256"
        },
        {
          "indexed": false,
          "internalType": "address[]",
          "name": "seedValidators",
          "type": "address[]"
        }
      ],
      "name": "JobRequested",
      "type": "event"
    },
    {
      "anonymous": false,
      "inputs": [
        {
          "indexed": true,
          "internalType": "address",
          "name": "validator",
          "type": "address"
        },
        {
          "indexed": false,
          "internalType": "uint256",
          "name": "amount",
          "type": "uint256"
        }
      ],
      "name": "TokensLocked",
      "type": "event"
    },
    {
      "anonymous": false,
      "inputs": [
        {
          "indexed": true,
          "internalType": "address",
          "name": "validator",
          "type": "address"
        },
        {
          "indexed": false,
          "internalType": "uint256",
          "name": "amount",
          "type": "uint256"
        }
      ],
      "name": "TokensUnlocked",
      "type": "event"
    },
    {
      "anonymous": false,
      "inputs": [
        {
          "indexed": true,
          "internalType": "address",
          "name": "from",
          "type": "address"
        },
        {
          "indexed": true,
          "internalType": "address",
          "name": "to",
          "type": "address"
        },
        {
          "indexed": false,
          "internalType": "uint256",
          "name": "value",
          "type": "uint256"
        }
      ],
      "name": "Transfer",
      "type": "event"
    },
    {
      "anonymous": false,
      "inputs": [
        {
          "indexed": true,
          "internalType": "address",
          "name": "validator",
          "type": "address"
        },
        {
          "indexed": false,
          "internalType": "uint256",
          "name": "unlockTime",
          "type": "uint256"
        }
      ],
      "name": "UnlockInitiated",
      "type": "event"
    },
    {
      "inputs": [
        {
          "internalType": "uint256",
          "name": "",
          "type": "uint256"
        }
      ],
      "name": "activeJobs",
      "outputs": [
        {
          "internalType": "uint256",
          "name": "",
          "type": "uint256"
        }
      ],
      "stateMutability": "view",
      "type": "function"
    },
    {
      "inputs": [],
      "name": "activeValidators",
      "outputs": [
        {
          "internalType": "uint256",
          "name": "",
          "type": "uint256"
        }
      ],
      "stateMutability": "view",
      "type": "function"
    },
    {
      "inputs": [
        {
          "internalType": "address",
          "name": "owner",
          "type": "address"
        },
        {
          "internalType": "address",
          "name": "spender",
          "type": "address"
        }
      ],
      "name": "allowance",
      "outputs": [
        {
          "internalType": "uint256",
          "name": "",
          "type": "uint256"
        }
      ],
      "stateMutability": "view",
      "type": "function"
    },
    {
      "inputs": [
        {
          "internalType": "address",
          "name": "spender",
          "type": "address"
        },
        {
          "internalType": "uint256",
          "name": "amount",
          "type": "uint256"
        }
      ],
      "name": "approve",
      "outputs": [
        {
          "internalType": "bool",
          "name": "",
          "type": "bool"
        }
      ],
      "stateMutability": "nonpayable",
      "type": "function"
    },
    {
      "inputs": [
        {
          "internalType": "address",
          "name": "account",
          "type": "address"
        }
      ],
      "name": "balanceOf",
      "outputs": [
        {
          "internalType": "uint256",
          "name": "",
          "type": "uint256"
        }
      ],
      "stateMutability": "view",
      "type": "function"
    },
    {
      "inputs": [
        {
          "internalType": "bytes32",
          "name": "jobHash",
          "type": "bytes32"
        },
        {
          "internalType": "address[]",
          "name": "_workers",
          "type": "address[]"
        }
      ],
      "name": "completeJob",
      "outputs": [
        {
          "internalType": "uint256[]",
          "name": "",
          "type": "uint256[]"
        }
      ],
      "stateMutability": "nonpayable",
      "type": "function"
    },
    {
      "inputs": [
        {
          "internalType": "bytes32",
          "name": "_publicKeyHash",
          "type": "bytes32"
        }
      ],
      "name": "createUser",
      "outputs": [],
      "stateMutability": "nonpayable",
      "type": "function"
    },
    {
      "inputs": [
        {
          "internalType": "bytes32",
          "name": "_publicKeyHash",
          "type": "bytes32"
        },
        {
          "internalType": "uint256",
          "name": "_lockAmount",
          "type": "uint256"
        }
      ],
      "name": "createValidator",
      "outputs": [],
      "stateMutability": "nonpayable",
      "type": "function"
    },
    {
      "inputs": [],
      "name": "decimals",
      "outputs": [
        {
          "internalType": "uint8",
          "name": "",
          "type": "uint8"
        }
      ],
      "stateMutability": "view",
      "type": "function"
    },
    {
      "inputs": [
        {
          "internalType": "address",
          "name": "spender",
          "type": "address"
        },
        {
          "internalType": "uint256",
          "name": "subtractedValue",
          "type": "uint256"
        }
      ],
      "name": "decreaseAllowance",
      "outputs": [
        {
          "internalType": "bool",
          "name": "",
          "type": "bool"
        }
      ],
      "stateMutability": "nonpayable",
      "type": "function"
    },
    {
      "inputs": [
        {
          "internalType": "bytes32",
          "name": "jobHash",
          "type": "bytes32"
        }
      ],
      "name": "disputeJob",
      "outputs": [],
      "stateMutability": "nonpayable",
      "type": "function"
    },
    {
      "inputs": [],
      "name": "emissionRate",
      "outputs": [
        {
          "internalType": "uint256",
          "name": "",
          "type": "uint256"
        }
      ],
      "stateMutability": "view",
      "type": "function"
    },
    {
      "inputs": [],
      "name": "getActiveValidatorCount",
      "outputs": [
        {
          "internalType": "uint256",
          "name": "",
          "type": "uint256"
        }
      ],
      "stateMutability": "view",
      "type": "function"
    },
    {
      "inputs": [],
      "name": "getEmissionRate",
      "outputs": [
        {
          "internalType": "uint256",
          "name": "",
          "type": "uint256"
        }
      ],
      "stateMutability": "view",
      "type": "function"
    },
    {
      "inputs": [
        {
          "internalType": "bytes32",
          "name": "jobHash",
          "type": "bytes32"
        }
      ],
      "name": "getJobValidators",
      "outputs": [
        {
          "internalType": "address[]",
          "name": "",
          "type": "address[]"
        }
      ],
      "stateMutability": "view",
      "type": "function"
    },
    {
      "inputs": [],
      "name": "getProposees",
      "outputs": [
        {
          "internalType": "address[]",
          "name": "",
          "type": "address[]"
        }
      ],
      "stateMutability": "view",
      "type": "function"
    },
    {
      "inputs": [],
      "name": "getState",
      "outputs": [
        {
          "internalType": "uint256",
          "name": "",
          "type": "uint256"
        },
        {
          "internalType": "uint256",
          "name": "",
          "type": "uint256"
        },
        {
          "internalType": "uint256",
          "name": "",
          "type": "uint256"
        },
        {
          "internalType": "address[]",
          "name": "",
          "type": "address[]"
        }
      ],
      "stateMutability": "view",
      "type": "function"
    },
    {
      "inputs": [],
      "name": "getSupply",
      "outputs": [
        {
          "internalType": "uint256",
          "name": "",
          "type": "uint256"
        }
      ],
      "stateMutability": "view",
      "type": "function"
    },
    {
      "inputs": [],
      "name": "getUserCount",
      "outputs": [
        {
          "internalType": "uint256",
          "name": "",
          "type": "uint256"
        }
      ],
      "stateMutability": "view",
      "type": "function"
    },
    {
      "inputs": [
        {
          "internalType": "address",
          "name": "validatorAddress",
          "type": "address"
        }
      ],
      "name": "getValidatorBytes",
      "outputs": [
        {
          "internalType": "bytes32",
          "name": "",
          "type": "bytes32"
        }
      ],
      "stateMutability": "view",
      "type": "function"
    },
    {
      "inputs": [],
      "name": "getValidatorCount",
      "outputs": [
        {
          "internalType": "uint256",
          "name": "",
          "type": "uint256"
        }
      ],
      "stateMutability": "view",
      "type": "function"
    },
    {
      "inputs": [
        {
          "internalType": "uint256",
          "name": "_validatorId",
          "type": "uint256"
        }
      ],
      "name": "getValidatorInfo",
      "outputs": [
        {
          "internalType": "bool",
          "name": "",
          "type": "bool"
        },
        {
          "internalType": "bytes32",
          "name": "",
          "type": "bytes32"
        },
        {
          "internalType": "address",
          "name": "",
          "type": "address"
        }
      ],
      "stateMutability": "view",
      "type": "function"
    },
    {
      "inputs": [],
      "name": "halving",
      "outputs": [
        {
          "internalType": "uint256",
          "name": "",
          "type": "uint256"
        }
      ],
      "stateMutability": "view",
      "type": "function"
    },
    {
      "inputs": [
        {
          "internalType": "address",
          "name": "spender",
          "type": "address"
        },
        {
          "internalType": "uint256",
          "name": "addedValue",
          "type": "uint256"
        }
      ],
      "name": "increaseAllowance",
      "outputs": [
        {
          "internalType": "bool",
          "name": "",
          "type": "bool"
        }
      ],
      "stateMutability": "nonpayable",
      "type": "function"
    },
    {
      "inputs": [
        {
          "internalType": "address[]",
          "name": "_genesisNodes",
          "type": "address[]"
        }
      ],
      "name": "initialize",
      "outputs": [],
      "stateMutability": "nonpayable",
      "type": "function"
    },
    {
      "inputs": [
        {
          "internalType": "address",
          "name": "validatorAddr",
          "type": "address"
        }
      ],
      "name": "isLocked",
      "outputs": [
        {
          "internalType": "bool",
          "name": "",
          "type": "bool"
        }
      ],
      "stateMutability": "view",
      "type": "function"
    },
    {
      "inputs": [],
      "name": "jobCounter",
      "outputs": [
        {
          "internalType": "uint256",
          "name": "",
          "type": "uint256"
        }
      ],
      "stateMutability": "view",
      "type": "function"
    },
    {
      "inputs": [
        {
          "internalType": "bytes32",
          "name": "",
          "type": "bytes32"
        }
      ],
      "name": "jobs",
      "outputs": [
        {
          "internalType": "address",
          "name": "author",
          "type": "address"
        },
        {
          "internalType": "bool",
          "name": "activity",
          "type": "bool"
        }
      ],
      "stateMutability": "view",
      "type": "function"
    },
    {
      "inputs": [],
      "name": "lockAmount",
      "outputs": [
        {
          "internalType": "uint256",
          "name": "",
          "type": "uint256"
        }
      ],
      "stateMutability": "view",
      "type": "function"
    },
    {
      "inputs": [
        {
          "internalType": "uint256",
          "name": "amount",
          "type": "uint256"
        }
      ],
      "name": "lockTokens",
      "outputs": [],
      "stateMutability": "nonpayable",
      "type": "function"
    },
    {
      "inputs": [],
      "name": "maxValidators",
      "outputs": [
        {
          "internalType": "uint256",
          "name": "",
          "type": "uint256"
        }
      ],
      "stateMutability": "view",
      "type": "function"
    },
    {
      "inputs": [],
      "name": "minValidators",
      "outputs": [
        {
          "internalType": "uint256",
          "name": "",
          "type": "uint256"
        }
      ],
      "stateMutability": "view",
      "type": "function"
    },
    {
      "inputs": [
        {
          "internalType": "address[]",
          "name": "_workers",
          "type": "address[]"
        },
        {
          "internalType": "uint256[]",
          "name": "_workerCapacities",
          "type": "uint256[]"
        },
        {
          "internalType": "uint256",
          "name": "_totalCapacity",
          "type": "uint256"
        },
        {
          "internalType": "address[]",
          "name": "_validatorsVoted",
          "type": "address[]"
        }
      ],
      "name": "mintTokens",
      "outputs": [],
      "stateMutability": "nonpayable",
      "type": "function"
    },
    {
      "inputs": [],
      "name": "name",
      "outputs": [
        {
          "internalType": "string",
          "name": "",
          "type": "string"
        }
      ],
      "stateMutability": "view",
      "type": "function"
    },
    {
      "inputs": [
        {
          "internalType": "bytes32",
          "name": "userHash",
          "type": "bytes32"
        },
        {
          "internalType": "bytes32",
          "name": "jobHash",
          "type": "bytes32"
        },
        {
          "internalType": "uint256[]",
          "name": "_capacities",
          "type": "uint256[]"
        }
      ],
      "name": "requestJob",
      "outputs": [
        {
          "internalType": "uint256[]",
          "name": "validatorIds",
          "type": "uint256[]"
        }
      ],
      "stateMutability": "nonpayable",
      "type": "function"
    },
    {
      "inputs": [
        {
          "internalType": "address",
          "name": "validatorAddress",
          "type": "address"
        }
      ],
      "name": "setValidatorContract",
      "outputs": [],
      "stateMutability": "nonpayable",
      "type": "function"
    },
    {
      "inputs": [],
      "name": "symbol",
      "outputs": [
        {
          "internalType": "string",
          "name": "",
          "type": "string"
        }
      ],
      "stateMutability": "view",
      "type": "function"
    },
    {
      "inputs": [],
      "name": "timeSinceLastHalving",
      "outputs": [
        {
          "internalType": "uint256",
          "name": "",
          "type": "uint256"
        }
      ],
      "stateMutability": "view",
      "type": "function"
    },
    {
      "inputs": [],
      "name": "totalSupply",
      "outputs": [
        {
          "internalType": "uint256",
          "name": "",
          "type": "uint256"
        }
      ],
      "stateMutability": "view",
      "type": "function"
    },
    {
      "inputs": [
        {
          "internalType": "address",
          "name": "to",
          "type": "address"
        },
        {
          "internalType": "uint256",
          "name": "amount",
          "type": "uint256"
        }
      ],
      "name": "transfer",
      "outputs": [
        {
          "internalType": "bool",
          "name": "",
          "type": "bool"
        }
      ],
      "stateMutability": "nonpayable",
      "type": "function"
    },
    {
      "inputs": [
        {
          "internalType": "address",
          "name": "from",
          "type": "address"
        },
        {
          "internalType": "address",
          "name": "to",
          "type": "address"
        },
        {
          "internalType": "uint256",
          "name": "amount",
          "type": "uint256"
        }
      ],
      "name": "transferFrom",
      "outputs": [
        {
          "internalType": "bool",
          "name": "",
          "type": "bool"
        }
      ],
      "stateMutability": "nonpayable",
      "type": "function"
    },
    {
      "inputs": [],
      "name": "unlockPeriod",
      "outputs": [
        {
          "internalType": "uint256",
          "name": "",
          "type": "uint256"
        }
      ],
      "stateMutability": "view",
      "type": "function"
    },
    {
      "inputs": [
        {
          "internalType": "uint256",
          "name": "amount",
          "type": "uint256"
        }
      ],
      "name": "unlockTokens",
      "outputs": [],
      "stateMutability": "nonpayable",
      "type": "function"
    },
    {
      "inputs": [],
      "name": "userCounter",
      "outputs": [
        {
          "internalType": "uint256",
          "name": "",
          "type": "uint256"
        }
      ],
      "stateMutability": "view",
      "type": "function"
    },
    {
      "inputs": [
        {
          "internalType": "address",
          "name": "",
          "type": "address"
        }
      ],
      "name": "userHashByAddress",
      "outputs": [
        {
          "internalType": "bytes32",
          "name": "",
          "type": "bytes32"
        }
      ],
      "stateMutability": "view",
      "type": "function"
    },
    {
      "inputs": [
        {
          "internalType": "bytes32",
          "name": "",
          "type": "bytes32"
        }
      ],
      "name": "users",
      "outputs": [
        {
          "internalType": "address",
          "name": "userAddress",
          "type": "address"
        },
        {
          "internalType": "bytes32",
          "name": "publicKeyHash",
          "type": "bytes32"
        },
        {
          "internalType": "uint8",
          "name": "reputation",
          "type": "uint8"
        }
      ],
      "stateMutability": "view",
      "type": "function"
    },
    {
      "inputs": [
        {
          "internalType": "bytes32",
          "name": "",
          "type": "bytes32"
        }
      ],
      "name": "validatorAddressByHash",
      "outputs": [
        {
          "internalType": "address",
          "name": "",
          "type": "address"
        }
      ],
      "stateMutability": "view",
      "type": "function"
    },
    {
      "inputs": [],
      "name": "validatorContractAddress",
      "outputs": [
        {
          "internalType": "address",
          "name": "",
          "type": "address"
        }
      ],
      "stateMutability": "view",
      "type": "function"
    },
    {
      "inputs": [
        {
          "internalType": "address",
          "name": "",
          "type": "address"
        }
      ],
      "name": "validatorIdByAddress",
      "outputs": [
        {
          "internalType": "uint256",
          "name": "",
          "type": "uint256"
        }
      ],
      "stateMutability": "view",
      "type": "function"
    },
    {
      "inputs": [],
      "name": "validatorIdCounter",
      "outputs": [
        {
          "internalType": "uint256",
          "name": "",
          "type": "uint256"
        }
      ],
      "stateMutability": "view",
      "type": "function"
    },
    {
      "inputs": [
        {
          "internalType": "uint256",
          "name": "",
          "type": "uint256"
        }
      ],
      "name": "validators",
      "outputs": [
        {
          "internalType": "bytes32",
          "name": "publicKeyHash",
          "type": "bytes32"
        },
        {
          "internalType": "address",
          "name": "validatorAddress",
          "type": "address"
        },
        {
          "internalType": "uint256",
          "name": "locked",
          "type": "uint256"
        },
        {
          "internalType": "uint256",
          "name": "unlockTime",
          "type": "uint256"
        },
        {
          "internalType": "uint8",
          "name": "reputation",
          "type": "uint8"
        }
      ],
      "stateMutability": "view",
      "type": "function"
    },
    {
      "inputs": [
        {
          "internalType": "bytes32",
          "name": "",
          "type": "bytes32"
        }
      ],
      "name": "workers",
      "outputs": [
        {
          "internalType": "address",
          "name": "",
          "type": "address"
        }
      ],
      "stateMutability": "view",
      "type": "function"
    }
  ],
  "bytecode": "6080604052348015600f57600080fd5b50612b738061001f6000396000f3fe608060405234801561001057600080fd5b506004361061030c5760003560e01c80637c4053251161019d578063bc1d82a1116100e9578063d057fc19116100a2578063d8df5dc11161007c578063d8df5dc1146107f9578063dd62ed3e14610802578063f0c37a591461083b578063f79621bd1461084457600080fd5b8063d057fc19146107a7578063d2d49c4b146107c7578063d3eece97146107d057600080fd5b8063bc1d82a114610703578063c0a77da914610716578063c5ab22411461071e578063c8df245a14610727578063cdf64a7614610730578063cea6ab981461074357600080fd5b8063a457c2d711610156578063b115f50d11610130578063b115f50d146106a6578063b5cb15f7146106af578063b7797537146106b7578063ba3f5443146106f057600080fd5b8063a457c2d71461066d578063a9059cbb14610680578063abf7bfd81461069357600080fd5b80637c4053251461061a5780638f029d5e1461062d57806395d89b411461063657806396afc4501461063e578063a224cee714610647578063a3273d221461065a57600080fd5b806338e562611161025c5780634a4fbeec116102155780636c9c2faf116101ef5780636c9c2faf146105ce5780636e27d889146105d65780637071688a146105e957806370a08231146105f157600080fd5b80634a4fbeec1461057257806350355d76146105b257806362fb00fc146105bb57600080fd5b806338e562611461048c57806338ed7cfc146104cd578063395093511461052257806343a8d914146105355780634966d08614610548578063497dfe631461055d57600080fd5b806320d3a0b4116102c957806327764547116102a357806327764547146103d8578063313ce567146103f857806335aa2e441461040757806337deea701461048457600080fd5b806320d3a0b4146103a957806321b0908b146103b257806323b872dd146103c557600080fd5b806306fdde031461031157806308ac52561461032f578063095ea7b31461034657806318160ddd146103695780631865c57d146103715780631d4e779314610389575b600080fd5b610319610857565b604051610326919061223a565b60405180910390f35b610338606c5481565b604051908152602001610326565b61035961035436600461229e565b6108e9565b6040519015158152602001610326565b603554610338565b610379610903565b604051610326949392919061230f565b61039c61039736600461233e565b610993565b60405161032691906123c1565b61033860705481565b6103386103c0366004612405565b610d12565b6103596103d336600461241e565b610d33565b6103386103e636600461245f565b60796020526000908152604090205481565b60405160128152602001610326565b610451610415366004612405565b6075602052600090815260409020805460018201546002830154600384015460049094015492936001600160a01b039092169290919060ff1685565b604080519586526001600160a01b03909416602086015292840191909152606083015260ff16608082015260a001610326565b610338610d57565b6104b561049a366004612405565b6074602052600090815260409020546001600160a01b031681565b6040516001600160a01b039091168152602001610326565b6105036104db366004612405565b607660205260009081526040902080546004909101546001600160a01b039091169060ff1682565b604080516001600160a01b039093168352901515602083015201610326565b61035961053036600461229e565b610dca565b61039c610543366004612566565b610e09565b610550610f33565b60405161032691906125ad565b61057061056b3660046125c0565b610fa5565b005b61035961058036600461245f565b6001600160a01b0316600090815260796020908152604080832054606f54908452607590925290912060020154101590565b61033860695481565b6103386105c936600461245f565b611143565b6103386111ba565b6105706105e4366004612405565b6111fa565b610338611207565b6103386105ff36600461245f565b6001600160a01b031660009081526033602052604090205490565b610570610628366004612405565b611218565b61033860675481565b61031961142a565b610338606e5481565b6105706106553660046125e2565b611439565b61057061066836600461261f565b6115bc565b61035961067b36600461229e565b61172e565b61035961068e36600461229e565b6117c0565b6105706106a1366004612405565b6117ce565b61033860715481565b6103386118b3565b6106ca6106c5366004612405565b6118c4565b60408051931515845260208401929092526001600160a01b031690820152606001610326565b6105706106fe366004612405565b6119d9565b610550610711366004612405565b611a57565b606e54610338565b610338606b5481565b610338606d5481565b61057061073e36600461245f565b611ac6565b61077f610751366004612405565b6072602052600090815260409020805460018201546002909201546001600160a01b03909116919060ff1683565b604080516001600160a01b039094168452602084019290925260ff1690820152606001610326565b6103386107b536600461245f565b60786020526000908152604090205481565b610338606a5481565b6104b56107de366004612405565b6073602052600090815260409020546001600160a01b031681565b610338606f5481565b610338610810366004612705565b6001600160a01b03918216600090815260346020908152604080832093909416825291909152205490565b61033860685481565b6066546104b5906001600160a01b031681565b6060603680546108669061273e565b80601f01602080910402602001604051908101604052809291908181526020018280546108929061273e565b80156108df5780601f106108b4576101008083540402835291602001916108df565b820191906000526020600020905b8154815290600101906020018083116108c257829003601f168201915b5050505050905090565b6000336108f7818585611b4b565b60019150505b92915050565b60008060006060606560009054906101000a90046001600160a01b03166001600160a01b0316631865c57d6040518163ffffffff1660e01b8152600401600060405180830381865afa15801561095d573d6000803e3d6000fd5b505050506040513d6000823e601f3d908101601f1916820160405261098591908101906127e0565b935093509350935090919293565b6066546060906001600160a01b031633146109d857336000908152607860205260409020546109d8576109c5856117ce565b3360009081526078602052604090205494505b84610a215760405162461bcd60e51b815260206004820152601460248201527355736572206e6f7420726567697374657265642160601b60448201526064015b60405180910390fd5b6000848152607660205260409020546001600160a01b031615610a7d5760405162461bcd60e51b81526020600482015260146024820152732537b11030b63932b0b23c9031b932b0ba32b21760611b6044820152606401610a18565b6065546040516371547b7960e11b8152600160048201526000916001600160a01b03169063e2a8f6f290602401600060405180830381865afa158015610ac7573d6000803e3d6000fd5b505050506040513d6000823e601f3d908101601f19168201604052610aef919081019061282e565b604080516001808252818301909252919250600091906020808301908036833701905050905060005b8251811015610b855760796000848381518110610b3757610b37612863565b60200260200101516001600160a01b03166001600160a01b0316815260200190815260200160002054828281518110610b7257610b72612863565b6020908102919091010152600101610b18565b506040805160a081018252338152602081018490529081018567ffffffffffffffff811115610bb657610bb6612483565b604051908082528060200260200182016040528015610bdf578160200160208202803683370190505b50815260200186868080602002602001604051908101604052809392919081815260200183836020028082843760009201829052509385525050600160209384018190528a8352607684526040909220845181546001600160a01b0319166001600160a01b039091161781558484015180519194610c6294860193500190612185565b5060408201518051610c7e916002840191602090910190612185565b5060608201518051610c9a9160038401916020909101906121ea565b50608091909101516004909101805460ff191691151591909117905560405186907f5dd5aff7b55a6d23db5800ae74fafb29f5f00976a85526c852c81900d14cf3e790610cea9042908690612879565b60405180910390a260698054906000610d02836128a8565b9091555090979650505050505050565b60778181548110610d2257600080fd5b600091825260209091200154905081565b600033610d41858285611c6f565b610d4c858585611d01565b506001949350505050565b606554604080516348f1712960e11b815290516000926001600160a01b0316916391e2e2529160048083019260209291908290030181865afa158015610da1573d6000803e3d6000fd5b505050506040513d601f19601f82011682018060405250810190610dc591906128c1565b905090565b3360008181526034602090815260408083206001600160a01b03871684529091528120549091906108f79082908690610e049087906128da565b611b4b565b6066546060906001600160a01b03163314610e365760405162461bcd60e51b8152600401610a18906128ed565b600083815260766020526040902060030154825114610e5457600080fd5b60008381526076602090815260409091208351610e7992600290920191850190612185565b5060008381526076602052604090819020600401805460ff191690555183907f9b5ed714c31dfcb1a9397710b6fc1842f37d94ab5dc0ccb528d9a2c97ea76f2a90610ec79042815260200190565b60405180910390a260008381526076602090815260409182902060030180548351818402810184019094528084529091830182828015610f2657602002820191906000526020600020905b815481526020019060010190808311610f12575b5050505050905092915050565b6065546040805163fbcca27360e01b815290516060926001600160a01b03169163fbcca2739160048083019260009291908290030181865afa158015610f7d573d6000803e3d6000fd5b505050506040513d6000823e601f3d908101601f19168201604052610dc5919081019061282e565b33600090815260796020526040902054156110025760405162461bcd60e51b815260206004820152601960248201527f56616c696461746f7220616c7265616479206578697374732e000000000000006044820152606401610a18565b3360009081526033602052604090205481111580156110235750606f548110155b61106f5760405162461bcd60e51b815260206004820152601b60248201527f496e73756666696369656e7420746f6b656e2062616c616e63652e00000000006044820152606401610a18565b6040805160a081018252838152336020808301828152606f8054858701908152600060608701818152603260808901908152606780548452607588528a842099518a55955160018a0180546001600160a01b039092166001600160a01b0319928316179055935160028a015590516003890155516004909701805460ff90981660ff199098169790971790965591548486526079845286862055878552607490925293909220805490931681179092555461112a9190611ecf565b6067805490600061113a836128a8565b91905055505050565b6001600160a01b038116600090815260796020526040812054806111a55760405162461bcd60e51b81526020600482015260196024820152782b30b634b230ba37b9103237b2b9903737ba1032bc34b9ba1760391b6044820152606401610a18565b60009081526075602052604090205492915050565b6000306001600160a01b03166318160ddd6040518163ffffffff1660e01b8152600401602060405180830381865afa158015610da1573d6000803e3d6000fd5b6112043382611ecf565b50565b60006001606754610dc59190612933565b33600090815260796020526040902054806112755760405162461bcd60e51b815260206004820152601b60248201527f4e6f74206120726567697374657265642076616c696461746f722e00000000006044820152606401610a18565b600081815260756020526040902060028101548311156112d75760405162461bcd60e51b815260206004820152601e60248201527f416d6f756e742065786365656473206c6f636b65642062616c616e63652e00006044820152606401610a18565b600083116112f75760405162461bcd60e51b8152600401610a1890612946565b80600301546000036113775760705461131090426128da565b60038201556002810154600090611328908590612933565b9050336001600160a01b03167f77635f8f13ee1a01d11246347c649817c6ee9fa7620ce4c6adfa2452bfa162b2836003015460405161136991815260200190565b60405180910390a250505050565b80600301544210156113cb5760405162461bcd60e51b815260206004820152601860248201527f546f6b656e7320617265207374696c6c206c6f636b65642e00000000000000006044820152606401610a18565b828160020160008282546113df9190612933565b909155506113ef9050338461203a565b60405183815233907fe7b379c6c1fa169e9079c25e9143b127637eef8ec8c9d5c06ddb4ab3e11958889060200160405180910390a25b505050565b6060603780546108669061273e565b600054610100900460ff166114545760005460ff1615611458565b303b155b6114bb5760405162461bcd60e51b815260206004820152602e60248201527f496e697469616c697a61626c653a20636f6e747261637420697320616c72656160448201526d191e481a5b9a5d1a585b1a5e995960921b6064820152608401610a18565b600054610100900460ff161580156114dd576000805461ffff19166101011790555b6115246040518060400160405280600a815260200169536d6172746e6f64657360b01b81525060405180604001604052806003815260200162534e4f60e81b815250612119565b600160688190556069819055606755680de0b6b3a764000000606e5569152d02c7e14af6800000606f556303205b7e606d5562127500607055600060718190555b825181101561159b5761159383828151811061158357611583612863565b6020026020010151606f5461203a565b600101611565565b506001606b556005606c5580156115b8576000805461ff00191690555b5050565b6066546001600160a01b031633146115e65760405162461bcd60e51b8152600401610a18906128ed565b606d546071541061161c57671bc16d674ec80000606e54111561161c576002606e60008282546116169190612987565b90915550505b60006064606e54601461162f91906129a9565b6116399190612987565b905060006064606e54605061164e91906129a9565b6116589190612987565b905060008351836116699190612987565b905060005b84518110156116a25761169a85828151811061168c5761168c612863565b60200260200101518361203a565b60010161166e565b5060005b875181101561170f57600086848984815181106116c5576116c5612863565b60200260200101516116d791906129a9565b6116e19190612987565b90506117068983815181106116f8576116f8612863565b60200260200101518261203a565b506001016116a6565b5060718054906000611720836128a8565b919050555050505050505050565b3360008181526034602090815260408083206001600160a01b0387168452909152812054909190838110156117b35760405162461bcd60e51b815260206004820152602560248201527f45524332303a2064656372656173656420616c6c6f77616e63652062656c6f77604482015264207a65726f60d81b6064820152608401610a18565b610d4c8286868403611b4b565b6000336108f7818585611d01565b336000908152607860205260409020541561182b5760405162461bcd60e51b815260206004820152601860248201527f5573657220616c726561647920726567697374657265642e00000000000000006044820152606401610a18565b604080516060810182523380825260208083018581526032848601908152600087815260728452868120955186546001600160a01b0319166001600160a01b0390911617865591516001860155516002909401805460ff191660ff909516949094179093559082526078905290812082905560688054916118ab836128a8565b919050555050565b60006001606854610dc59190612933565b600080600060675484106119085760405162461bcd60e51b815260206004820152600b60248201526a24b73b30b634b21024a21760a91b6044820152606401610a18565b6000848152607560209081526040808320815160a0810183528154815260018201546001600160a01b039081169482018590526002830154828501526003830154606083015260049283015460ff1660808301526065549351631015428760e21b815292830194909452939291909116906340550a1c90602401602060405180830381865afa15801561199f573d6000803e3d6000fd5b505050506040513d601f19601f820116820180604052508101906119c391906129c0565b8251602090930151909792965094509092505050565b6066546001600160a01b03163314611a035760405162461bcd60e51b8152600401610a18906128ed565b60008181526076602090815260409182902060048101805460ff19169055915142815283917f6e04aa702f9af7a9a398f10d27918152df25ac0cdc6d74321b9f7496374387a7910160405180910390a25050565b6000818152607660209081526040808320600101805482518185028101850190935280835260609493830182828015611ab957602002820191906000526020600020905b81546001600160a01b03168152600190910190602001808311611a9b575b5093979650505050505050565b6066546001600160a01b031615611b1f5760405162461bcd60e51b815260206004820152601e60248201527f56616c696461746f72206164647265737320616c7265616479207365742e00006044820152606401610a18565b606580546001600160a01b039092166001600160a01b0319928316811790915560668054909216179055565b6001600160a01b038316611bad5760405162461bcd60e51b8152602060048201526024808201527f45524332303a20617070726f76652066726f6d20746865207a65726f206164646044820152637265737360e01b6064820152608401610a18565b6001600160a01b038216611c0e5760405162461bcd60e51b815260206004820152602260248201527f45524332303a20617070726f766520746f20746865207a65726f206164647265604482015261737360f01b6064820152608401610a18565b6001600160a01b0383811660008181526034602090815260408083209487168084529482529182902085905590518481527f8c5be1e5ebec7d5bd14f71427d1e84f3dd0314c0f7b2291e5b200ac8c7c3b925910160405180910390a3505050565b6001600160a01b038381166000908152603460209081526040808320938616835292905220546000198114611cfb5781811015611cee5760405162461bcd60e51b815260206004820152601d60248201527f45524332303a20696e73756666696369656e7420616c6c6f77616e63650000006044820152606401610a18565b611cfb8484848403611b4b565b50505050565b6001600160a01b038316611d655760405162461bcd60e51b815260206004820152602560248201527f45524332303a207472616e736665722066726f6d20746865207a65726f206164604482015264647265737360d81b6064820152608401610a18565b6001600160a01b038216611dc75760405162461bcd60e51b815260206004820152602360248201527f45524332303a207472616e7366657220746f20746865207a65726f206164647260448201526265737360e81b6064820152608401610a18565b6001600160a01b03831660009081526033602052604090205481811015611e3f5760405162461bcd60e51b815260206004820152602660248201527f45524332303a207472616e7366657220616d6f756e7420657863656564732062604482015265616c616e636560d01b6064820152608401610a18565b6001600160a01b03808516600090815260336020526040808220858503905591851681529081208054849290611e769084906128da565b92505081905550826001600160a01b0316846001600160a01b03167fddf252ad1be2c89b69c2b068fc378daa952ba7f163c4a11628f55a4df523b3ef84604051611ec291815260200190565b60405180910390a3611cfb565b60008111611eef5760405162461bcd60e51b8152600401610a1890612946565b80611f0f836001600160a01b031660009081526033602052604090205490565b1015611f555760405162461bcd60e51b815260206004820152601560248201527424b739bab33334b1b4b2b73a103130b630b731b29760591b6044820152606401610a18565b6001600160a01b03821660009081526079602052604081205490819003611fba5760405162461bcd60e51b81526020600482015260196024820152782b30b634b230ba37b9103237b2b9903737ba1032bc34b9ba1760391b6044820152606401610a18565b611fc5833084610d33565b5060008181526075602052604081206002018054849290611fe79084906128da565b90915550506000818152607560209081526040918290206002015491518481526001600160a01b038616917fac87f20a77d28ee8bbb58ec87ea8fa968b3393efae1a368fd50b767c2847391c9101611369565b6001600160a01b0382166120905760405162461bcd60e51b815260206004820152601f60248201527f45524332303a206d696e7420746f20746865207a65726f2061646472657373006044820152606401610a18565b80603560008282546120a291906128da565b90915550506001600160a01b038216600090815260336020526040812080548392906120cf9084906128da565b90915550506040518181526001600160a01b038316906000907fddf252ad1be2c89b69c2b068fc378daa952ba7f163c4a11628f55a4df523b3ef9060200160405180910390a35050565b600054610100900460ff166121405760405162461bcd60e51b8152600401610a18906129e2565b6115b88282600054610100900460ff1661216c5760405162461bcd60e51b8152600401610a18906129e2565b60366121788382612a7d565b5060376114258282612a7d565b8280548282559060005260206000209081019282156121da579160200282015b828111156121da57825182546001600160a01b0319166001600160a01b039091161782556020909201916001909101906121a5565b506121e6929150612225565b5090565b8280548282559060005260206000209081019282156121da579160200282015b828111156121da57825182559160200191906001019061220a565b5b808211156121e65760008155600101612226565b60006020808352835180602085015260005b818110156122685785810183015185820160400152820161224c565b506000604082860101526040601f19601f8301168501019250505092915050565b6001600160a01b038116811461120457600080fd5b600080604083850312156122b157600080fd5b82356122bc81612289565b946020939093013593505050565b60008151808452602080850194506020840160005b838110156123045781516001600160a01b0316875295820195908201906001016122df565b509495945050505050565b84815283602082015282604082015260806060820152600061233460808301846122ca565b9695505050505050565b6000806000806060858703121561235457600080fd5b8435935060208501359250604085013567ffffffffffffffff8082111561237a57600080fd5b818701915087601f83011261238e57600080fd5b81358181111561239d57600080fd5b8860208260051b85010111156123b257600080fd5b95989497505060200194505050565b6020808252825182820181905260009190848201906040850190845b818110156123f9578351835292840192918401916001016123dd565b50909695505050505050565b60006020828403121561241757600080fd5b5035919050565b60008060006060848603121561243357600080fd5b833561243e81612289565b9250602084013561244e81612289565b929592945050506040919091013590565b60006020828403121561247157600080fd5b813561247c81612289565b9392505050565b634e487b7160e01b600052604160045260246000fd5b604051601f8201601f1916810167ffffffffffffffff811182821017156124c2576124c2612483565b604052919050565b600067ffffffffffffffff8211156124e4576124e4612483565b5060051b60200190565b600082601f8301126124ff57600080fd5b8135602061251461250f836124ca565b612499565b8083825260208201915060208460051b87010193508684111561253657600080fd5b602086015b8481101561255b57803561254e81612289565b835291830191830161253b565b509695505050505050565b6000806040838503121561257957600080fd5b82359150602083013567ffffffffffffffff81111561259757600080fd5b6125a3858286016124ee565b9150509250929050565b60208152600061247c60208301846122ca565b600080604083850312156125d357600080fd5b50508035926020909101359150565b6000602082840312156125f457600080fd5b813567ffffffffffffffff81111561260b57600080fd5b612617848285016124ee565b949350505050565b6000806000806080858703121561263557600080fd5b843567ffffffffffffffff8082111561264d57600080fd5b612659888389016124ee565b955060209150818701358181111561267057600080fd5b8701601f8101891361268157600080fd5b803561268f61250f826124ca565b81815260059190911b8201840190848101908b8311156126ae57600080fd5b928501925b828410156126cc578335825292850192908501906126b3565b97505050506040870135935060608701359150808211156126ec57600080fd5b506126f9878288016124ee565b91505092959194509250565b6000806040838503121561271857600080fd5b823561272381612289565b9150602083013561273381612289565b809150509250929050565b600181811c9082168061275257607f821691505b60208210810361277257634e487b7160e01b600052602260045260246000fd5b50919050565b600082601f83011261278957600080fd5b8151602061279961250f836124ca565b8083825260208201915060208460051b8701019350868411156127bb57600080fd5b602086015b8481101561255b5780516127d381612289565b83529183019183016127c0565b600080600080608085870312156127f657600080fd5b845193506020850151925060408501519150606085015167ffffffffffffffff81111561282257600080fd5b6126f987828801612778565b60006020828403121561284057600080fd5b815167ffffffffffffffff81111561285757600080fd5b61261784828501612778565b634e487b7160e01b600052603260045260246000fd5b82815260406020820152600061261760408301846122ca565b634e487b7160e01b600052601160045260246000fd5b6000600182016128ba576128ba612892565b5060010190565b6000602082840312156128d357600080fd5b5051919050565b808201808211156108fd576108fd612892565b60208082526026908201527f43616c6c6572206d7573742062652074686520536d6172746e6f6465734d756c6040820152653a34a9b4b39760d11b606082015260800190565b818103818111156108fd576108fd612892565b60208082526021908201527f416d6f756e74206d7573742062652067726561746572207468616e207a65726f6040820152601760f91b606082015260800190565b6000826129a457634e487b7160e01b600052601260045260246000fd5b500490565b80820281158282048414176108fd576108fd612892565b6000602082840312156129d257600080fd5b8151801515811461247c57600080fd5b6020808252602b908201527f496e697469616c697a61626c653a20636f6e7472616374206973206e6f74206960408201526a6e697469616c697a696e6760a81b606082015260800190565b601f821115611425576000816000526020600020601f850160051c81016020861015612a565750805b601f850160051c820191505b81811015612a7557828155600101612a62565b505050505050565b815167ffffffffffffffff811115612a9757612a97612483565b612aab81612aa5845461273e565b84612a2d565b602080601f831160018114612ae05760008415612ac85750858301515b600019600386901b1c1916600185901b178555612a75565b600085815260208120601f198616915b82811015612b0f57888601518255948401946001909101908401612af0565b5085821015612b2d5787850151600019600388901b60f8161c191681555b5050505050600190811b0190555056fea26469706673582212209acf261ebba31596c46cc2f80937b3f7a988bda9ad97e5cb38930fc6cc74157864736f6c63430008190033",
  "bytecodeSha1": "7e31f75dffba33a4e2cdb7114dcfb6a4e7c67971",
  "compiler": {
    "evm_version": "istanbul",
    "optimizer": {
      "enabled": true,
      "runs": 200
    },
    "version": "0.8.25+commit.b61c2a91"
  },
  "contractName": "SmartnodesCore",
  "language": "Solidity",
  "natspec": {
    "details": "An ERC20 contract for managing off-chain networks",
    "kind": "dev",
    "methods": {
      "allowance(address,address)": {
        "details": "See {IERC20-allowance}."
      },
      "approve(address,uint256)": {
        "details": "See {IERC20-approve}. NOTE: If `amount` is the maximum `uint256`, the allowance is not updated on `transferFrom`. This is semantically equivalent to an infinite approval. Requirements: - `spender` cannot be the zero address."
      },
      "balanceOf(address)": {
        "details": "See {IERC20-balanceOf}."
      },
      "createUser(bytes32)": {
        "details": "Create a User, limit one per address & public key hash (RSA)"
      },
      "createValidator(bytes32,uint256)": {
        "details": "Create a Validator, limit one per address & public key hash (RSA), requires locking up sno"
      },
      "decimals()": {
        "details": "Returns the number of decimals used to get its user representation. For example, if `decimals` equals `2`, a balance of `505` tokens should be displayed to a user as `5.05` (`505 / 10 ** 2`). Tokens usually opt for a value of 18, imitating the relationship between Ether and Wei. This is the value {ERC20} uses, unless this function is overridden; NOTE: This information is only used for _display_ purposes: it in no way affects any of the arithmetic of the contract, including {IERC20-balanceOf} and {IERC20-transfer}."
      },
      "decreaseAllowance(address,uint256)": {
        "details": "Atomically decreases the allowance granted to `spender` by the caller. This is an alternative to {approve} that can be used as a mitigation for problems described in {IERC20-approve}. Emits an {Approval} event indicating the updated allowance. Requirements: - `spender` cannot be the zero address. - `spender` must have allowance for the caller of at least `subtractedValue`."
      },
      "increaseAllowance(address,uint256)": {
        "details": "Atomically increases the allowance granted to `spender` by the caller. This is an alternative to {approve} that can be used as a mitigation for problems described in {IERC20-approve}. Emits an {Approval} event indicating the updated allowance. Requirements: - `spender` cannot be the zero address."
      },
      "lockTokens(uint256)": {
        "details": "Validator token unlocking, 30 day withdrawal period."
      },
      "mintTokens(address[],uint256[],uint256,address[])": {
        "details": "Mint tokens for updating state rewards, distribute 40/60 among validators and workers Updates the emission rate and halving accordingly"
      },
      "name()": {
        "details": "Returns the name of the token."
      },
      "symbol()": {
        "details": "Returns the symbol of the token, usually a shorter version of the name."
      },
      "totalSupply()": {
        "details": "See {IERC20-totalSupply}."
      },
      "transfer(address,uint256)": {
        "details": "See {IERC20-transfer}. Requirements: - `to` cannot be the zero address. - the caller must have a balance of at least `amount`."
      },
      "transferFrom(address,address,uint256)": {
        "details": "See {IERC20-transferFrom}. Emits an {Approval} event indicating the updated allowance. This is not required by the EIP. See the note at the beginning of {ERC20}. NOTE: Does not update the allowance if the current allowance is the maximum `uint256`. Requirements: - `from` and `to` cannot be the zero address. - `from` must have a balance of at least `amount`. - the caller must have allowance for ``from``'s tokens of at least `amount`."
      }
    },
    "title": "SmartNodes",
    "version": 1
  },
  "opcodes": "PUSH1 0x80 PUSH1 0x40 MSTORE CALLVALUE DUP1 ISZERO PUSH2 0x10 JUMPI PUSH1 0x0 DUP1 REVERT JUMPDEST POP PUSH1 0x4 CALLDATASIZE LT PUSH2 0x30C JUMPI PUSH1 0x0 CALLDATALOAD PUSH1 0xE0 SHR DUP1 PUSH4 0x7C405325 GT PUSH2 0x19D JUMPI DUP1 PUSH4 0xBC1D82A1 GT PUSH2 0xE9 JUMPI DUP1 PUSH4 0xD057FC19 GT PUSH2 0xA2 JUMPI DUP1 PUSH4 0xD8DF5DC1 GT PUSH2 0x7C JUMPI DUP1 PUSH4 0xD8DF5DC1 EQ PUSH2 0x7F9 JUMPI DUP1 PUSH4 0xDD62ED3E EQ PUSH2 0x802 JUMPI DUP1 PUSH4 0xF0C37A59 EQ PUSH2 0x83B JUMPI DUP1 PUSH4 0xF79621BD EQ PUSH2 0x844 JUMPI PUSH1 0x0 DUP1 REVERT JUMPDEST DUP1 PUSH4 0xD057FC19 EQ PUSH2 0x7A7 JUMPI DUP1 PUSH4 0xD2D49C4B EQ PUSH2 0x7C7 JUMPI DUP1 PUSH4 0xD3EECE97 EQ PUSH2 0x7D0 JUMPI PUSH1 0x0 DUP1 REVERT JUMPDEST DUP1 PUSH4 0xBC1D82A1 EQ PUSH2 0x703 JUMPI DUP1 PUSH4 0xC0A77DA9 EQ PUSH2 0x716 JUMPI DUP1 PUSH4 0xC5AB2241 EQ PUSH2 0x71E JUMPI DUP1 PUSH4 0xC8DF245A EQ PUSH2 0x727 JUMPI DUP1 PUSH4 0xCDF64A76 EQ PUSH2 0x730 JUMPI DUP1 PUSH4 0xCEA6AB98 EQ PUSH2 0x743 JUMPI PUSH1 0x0 DUP1 REVERT JUMPDEST DUP1 PUSH4 0xA457C2D7 GT PUSH2 0x156 JUMPI DUP1 PUSH4 0xB115F50D GT PUSH2 0x130 JUMPI DUP1 PUSH4 0xB115F50D EQ PUSH2 0x6A6 JUMPI DUP1 PUSH4 0xB5CB15F7 EQ PUSH2 0x6AF JUMPI DUP1 PUSH4 0xB7797537 EQ PUSH2 0x6B7 JUMPI DUP1 PUSH4 0xBA3F5443 EQ PUSH2 0x6F0 JUMPI PUSH1 0x0 DUP1 REVERT JUMPDEST DUP1 PUSH4 0xA457C2D7 EQ PUSH2 0x66D JUMPI DUP1 PUSH4 0xA9059CBB EQ PUSH2 0x680 JUMPI DUP1 PUSH4 0xABF7BFD8 EQ PUSH2 0x693 JUMPI PUSH1 0x0 DUP1 REVERT JUMPDEST DUP1 PUSH4 0x7C405325 EQ PUSH2 0x61A JUMPI DUP1 PUSH4 0x8F029D5E EQ PUSH2 0x62D JUMPI DUP1 PUSH4 0x95D89B41 EQ PUSH2 0x636 JUMPI DUP1 PUSH4 0x96AFC450 EQ PUSH2 0x63E JUMPI DUP1 PUSH4 0xA224CEE7 EQ PUSH2 0x647 JUMPI DUP1 PUSH4 0xA3273D22 EQ PUSH2 0x65A JUMPI PUSH1 0x0 DUP1 REVERT JUMPDEST DUP1 PUSH4 0x38E56261 GT PUSH2 0x25C JUMPI DUP1 PUSH4 0x4A4FBEEC GT PUSH2 0x215 JUMPI DUP1 PUSH4 0x6C9C2FAF GT PUSH2 0x1EF JUMPI DUP1 PUSH4 0x6C9C2FAF EQ PUSH2 0x5CE JUMPI DUP1 PUSH4 0x6E27D889 EQ PUSH2 0x5D6 JUMPI DUP1 PUSH4 0x7071688A EQ PUSH2 0x5E9 JUMPI DUP1 PUSH4 0x70A08231 EQ PUSH2 0x5F1 JUMPI PUSH1 0x0 DUP1 REVERT JUMPDEST DUP1 PUSH4 0x4A4FBEEC EQ PUSH2 0x572 JUMPI DUP1 PUSH4 0x50355D76 EQ PUSH2 0x5B2 JUMPI DUP1 PUSH4 0x62FB00FC EQ PUSH2 0x5BB JUMPI PUSH1 0x0 DUP1 REVERT JUMPDEST DUP1 PUSH4 0x38E56261 EQ PUSH2 0x48C JUMPI DUP1 PUSH4 0x38ED7CFC EQ PUSH2 0x4CD JUMPI DUP1 PUSH4 0x39509351 EQ PUSH2 0x522 JUMPI DUP1 PUSH4 0x43A8D914 EQ PUSH2 0x535 JUMPI DUP1 PUSH4 0x4966D086 EQ PUSH2 0x548 JUMPI DUP1 PUSH4 0x497DFE63 EQ PUSH2 0x55D JUMPI PUSH1 0x0 DUP1 REVERT JUMPDEST DUP1 PUSH4 0x20D3A0B4 GT PUSH2 0x2C9 JUMPI DUP1 PUSH4 0x27764547 GT PUSH2 0x2A3 JUMPI DUP1 PUSH4 0x27764547 EQ PUSH2 0x3D8 JUMPI DUP1 PUSH4 0x313CE567 EQ PUSH2 0x3F8 JUMPI DUP1 PUSH4 0x35AA2E44 EQ PUSH2 0x407 JUMPI DUP1 PUSH4 0x37DEEA70 EQ PUSH2 0x484 JUMPI PUSH1 0x0 DUP1 REVERT JUMPDEST DUP1 PUSH4 0x20D3A0B4 EQ PUSH2 0x3A9 JUMPI DUP1 PUSH4 0x21B0908B EQ PUSH2 0x3B2 JUMPI DUP1 PUSH4 0x23B872DD EQ PUSH2 0x3C5 JUMPI PUSH1 0x0 DUP1 REVERT JUMPDEST DUP1 PUSH4 0x6FDDE03 EQ PUSH2 0x311 JUMPI DUP1 PUSH4 0x8AC5256 EQ PUSH2 0x32F JUMPI DUP1 PUSH4 0x95EA7B3 EQ PUSH2 0x346 JUMPI DUP1 PUSH4 0x18160DDD EQ PUSH2 0x369 JUMPI DUP1 PUSH4 0x1865C57D EQ PUSH2 0x371 JUMPI DUP1 PUSH4 0x1D4E7793 EQ PUSH2 0x389 JUMPI JUMPDEST PUSH1 0x0 DUP1 REVERT JUMPDEST PUSH2 0x319 PUSH2 0x857 JUMP JUMPDEST PUSH1 0x40 MLOAD PUSH2 0x326 SWAP2 SWAP1 PUSH2 0x223A JUMP JUMPDEST PUSH1 0x40 MLOAD DUP1 SWAP2 SUB SWAP1 RETURN JUMPDEST PUSH2 0x338 PUSH1 0x6C SLOAD DUP2 JUMP JUMPDEST PUSH1 0x40 MLOAD SWAP1 DUP2 MSTORE PUSH1 0x20 ADD PUSH2 0x326 JUMP JUMPDEST PUSH2 0x359 PUSH2 0x354 CALLDATASIZE PUSH1 0x4 PUSH2 0x229E JUMP JUMPDEST PUSH2 0x8E9 JUMP JUMPDEST PUSH1 0x40 MLOAD SWAP1 ISZERO ISZERO DUP2 MSTORE PUSH1 0x20 ADD PUSH2 0x326 JUMP JUMPDEST PUSH1 0x35 SLOAD PUSH2 0x338 JUMP JUMPDEST PUSH2 0x379 PUSH2 0x903 JUMP JUMPDEST PUSH1 0x40 MLOAD PUSH2 0x326 SWAP5 SWAP4 SWAP3 SWAP2 SWAP1 PUSH2 0x230F JUMP JUMPDEST PUSH2 0x39C PUSH2 0x397 CALLDATASIZE PUSH1 0x4 PUSH2 0x233E JUMP JUMPDEST PUSH2 0x993 JUMP JUMPDEST PUSH1 0x40 MLOAD PUSH2 0x326 SWAP2 SWAP1 PUSH2 0x23C1 JUMP JUMPDEST PUSH2 0x338 PUSH1 0x70 SLOAD DUP2 JUMP JUMPDEST PUSH2 0x338 PUSH2 0x3C0 CALLDATASIZE PUSH1 0x4 PUSH2 0x2405 JUMP JUMPDEST PUSH2 0xD12 JUMP JUMPDEST PUSH2 0x359 PUSH2 0x3D3 CALLDATASIZE PUSH1 0x4 PUSH2 0x241E JUMP JUMPDEST PUSH2 0xD33 JUMP JUMPDEST PUSH2 0x338 PUSH2 0x3E6 CALLDATASIZE PUSH1 0x4 PUSH2 0x245F JUMP JUMPDEST PUSH1 0x79 PUSH1 0x20 MSTORE PUSH1 0x0 SWAP1 DUP2 MSTORE PUSH1 0x40 SWAP1 KECCAK256 SLOAD DUP2 JUMP JUMPDEST PUSH1 0x40 MLOAD PUSH1 0x12 DUP2 MSTORE PUSH1 0x20 ADD PUSH2 0x326 JUMP JUMPDEST PUSH2 0x451 PUSH2 0x415 CALLDATASIZE PUSH1 0x4 PUSH2 0x2405 JUMP JUMPDEST PUSH1 0x75 PUSH1 0x20 MSTORE PUSH1 0x0 SWAP1 DUP2 MSTORE PUSH1 0x40 SWAP1 KECCAK256 DUP1 SLOAD PUSH1 0x1 DUP3 ADD SLOAD PUSH1 0x2 DUP4 ADD SLOAD PUSH1 0x3 DUP5 ADD SLOAD PUSH1 0x4 SWAP1 SWAP5 ADD SLOAD SWAP3 SWAP4 PUSH1 0x1 PUSH1 0x1 PUSH1 0xA0 SHL SUB SWAP1 SWAP3 AND SWAP3 SWAP1 SWAP2 SWAP1 PUSH1 0xFF AND DUP6 JUMP JUMPDEST PUSH1 0x40 DUP1 MLOAD SWAP6 DUP7 MSTORE PUSH1 0x1 PUSH1 0x1 PUSH1 0xA0 SHL SUB SWAP1 SWAP5 AND PUSH1 0x20 DUP7 ADD MSTORE SWAP3 DUP5 ADD SWAP2 SWAP1 SWAP2 MSTORE PUSH1 0x60 DUP4 ADD MSTORE PUSH1 0xFF AND PUSH1 0x80 DUP3 ADD MSTORE PUSH1 0xA0 ADD PUSH2 0x326 JUMP JUMPDEST PUSH2 0x338 PUSH2 0xD57 JUMP JUMPDEST PUSH2 0x4B5 PUSH2 0x49A CALLDATASIZE PUSH1 0x4 PUSH2 0x2405 JUMP JUMPDEST PUSH1 0x74 PUSH1 0x20 MSTORE PUSH1 0x0 SWAP1 DUP2 MSTORE PUSH1 0x40 SWAP1 KECCAK256 SLOAD PUSH1 0x1 PUSH1 0x1 PUSH1 0xA0 SHL SUB AND DUP2 JUMP JUMPDEST PUSH1 0x40 MLOAD PUSH1 0x1 PUSH1 0x1 PUSH1 0xA0 SHL SUB SWAP1 SWAP2 AND DUP2 MSTORE PUSH1 0x20 ADD PUSH2 0x326 JUMP JUMPDEST PUSH2 0x503 PUSH2 0x4DB CALLDATASIZE PUSH1 0x4 PUSH2 0x2405 JUMP JUMPDEST PUSH1 0x76 PUSH1 0x20 MSTORE PUSH1 0x0 SWAP1 DUP2 MSTORE PUSH1 0x40 SWAP1 KECCAK256 DUP1 SLOAD PUSH1 0x4 SWAP1 SWAP2 ADD SLOAD PUSH1 0x1 PUSH1 0x1 PUSH1 0xA0 SHL SUB SWAP1 SWAP2 AND SWAP1 PUSH1 0xFF AND DUP3 JUMP JUMPDEST PUSH1 0x40 DUP1 MLOAD PUSH1 0x1 PUSH1 0x1 PUSH1 0xA0 SHL SUB SWAP1 SWAP4 AND DUP4 MSTORE SWAP1 ISZERO ISZERO PUSH1 0x20 DUP4 ADD MSTORE ADD PUSH2 0x326 JUMP JUMPDEST PUSH2 0x359 PUSH2 0x530 CALLDATASIZE PUSH1 0x4 PUSH2 0x229E JUMP JUMPDEST PUSH2 0xDCA JUMP JUMPDEST PUSH2 0x39C PUSH2 0x543 CALLDATASIZE PUSH1 0x4 PUSH2 0x2566 JUMP JUMPDEST PUSH2 0xE09 JUMP JUMPDEST PUSH2 0x550 PUSH2 0xF33 JUMP JUMPDEST PUSH1 0x40 MLOAD PUSH2 0x326 SWAP2 SWAP1 PUSH2 0x25AD JUMP JUMPDEST PUSH2 0x570 PUSH2 0x56B CALLDATASIZE PUSH1 0x4 PUSH2 0x25C0 JUMP JUMPDEST PUSH2 0xFA5 JUMP JUMPDEST STOP JUMPDEST PUSH2 0x359 PUSH2 0x580 CALLDATASIZE PUSH1 0x4 PUSH2 0x245F JUMP JUMPDEST PUSH1 0x1 PUSH1 0x1 PUSH1 0xA0 SHL SUB AND PUSH1 0x0 SWAP1 DUP2 MSTORE PUSH1 0x79 PUSH1 0x20 SWAP1 DUP2 MSTORE PUSH1 0x40 DUP1 DUP4 KECCAK256 SLOAD PUSH1 0x6F SLOAD SWAP1 DUP5 MSTORE PUSH1 0x75 SWAP1 SWAP3 MSTORE SWAP1 SWAP2 KECCAK256 PUSH1 0x2 ADD SLOAD LT ISZERO SWAP1 JUMP JUMPDEST PUSH2 0x338 PUSH1 0x69 SLOAD DUP2 JUMP JUMPDEST PUSH2 0x338 PUSH2 0x5C9 CALLDATASIZE PUSH1 0x4 PUSH2 0x245F JUMP JUMPDEST PUSH2 0x1143 JUMP JUMPDEST PUSH2 0x338 PUSH2 0x11BA JUMP JUMPDEST PUSH2 0x570 PUSH2 0x5E4 CALLDATASIZE PUSH1 0x4 PUSH2 0x2405 JUMP JUMPDEST PUSH2 0x11FA JUMP JUMPDEST PUSH2 0x338 PUSH2 0x1207 JUMP JUMPDEST PUSH2 0x338 PUSH2 0x5FF CALLDATASIZE PUSH1 0x4 PUSH2 0x245F JUMP JUMPDEST PUSH1 0x1 PUSH1 0x1 PUSH1 0xA0 SHL SUB AND PUSH1 0x0 SWAP1 DUP2 MSTORE PUSH1 0x33 PUSH1 0x20 MSTORE PUSH1 0x40 SWAP1 KECCAK256 SLOAD SWAP1 JUMP JUMPDEST PUSH2 0x570 PUSH2 0x628 CALLDATASIZE PUSH1 0x4 PUSH2 0x2405 JUMP JUMPDEST PUSH2 0x1218 JUMP JUMPDEST PUSH2 0x338 PUSH1 0x67 SLOAD DUP2 JUMP JUMPDEST PUSH2 0x319 PUSH2 0x142A JUMP JUMPDEST PUSH2 0x338 PUSH1 0x6E SLOAD DUP2 JUMP JUMPDEST PUSH2 0x570 PUSH2 0x655 CALLDATASIZE PUSH1 0x4 PUSH2 0x25E2 JUMP JUMPDEST PUSH2 0x1439 JUMP JUMPDEST PUSH2 0x570 PUSH2 0x668 CALLDATASIZE PUSH1 0x4 PUSH2 0x261F JUMP JUMPDEST PUSH2 0x15BC JUMP JUMPDEST PUSH2 0x359 PUSH2 0x67B CALLDATASIZE PUSH1 0x4 PUSH2 0x229E JUMP JUMPDEST PUSH2 0x172E JUMP JUMPDEST PUSH2 0x359 PUSH2 0x68E CALLDATASIZE PUSH1 0x4 PUSH2 0x229E JUMP JUMPDEST PUSH2 0x17C0 JUMP JUMPDEST PUSH2 0x570 PUSH2 0x6A1 CALLDATASIZE PUSH1 0x4 PUSH2 0x2405 JUMP JUMPDEST PUSH2 0x17CE JUMP JUMPDEST PUSH2 0x338 PUSH1 0x71 SLOAD DUP2 JUMP JUMPDEST PUSH2 0x338 PUSH2 0x18B3 JUMP JUMPDEST PUSH2 0x6CA PUSH2 0x6C5 CALLDATASIZE PUSH1 0x4 PUSH2 0x2405 JUMP JUMPDEST PUSH2 0x18C4 JUMP JUMPDEST PUSH1 0x40 DUP1 MLOAD SWAP4 ISZERO ISZERO DUP5 MSTORE PUSH1 0x20 DUP5 ADD SWAP3 SWAP1 SWAP3 MSTORE PUSH1 0x1 PUSH1 0x1 PUSH1 0xA0 SHL SUB AND SWAP1 DUP3 ADD MSTORE PUSH1 0x60 ADD PUSH2 0x326 JUMP JUMPDEST PUSH2 0x570 PUSH2 0x6FE CALLDATASIZE PUSH1 0x4 PUSH2 0x2405 JUMP JUMPDEST PUSH2 0x19D9 JUMP JUMPDEST PUSH2 0x550 PUSH2 0x711 CALLDATASIZE PUSH1 0x4 PUSH2 0x2405 JUMP JUMPDEST PUSH2 0x1A57 JUMP JUMPDEST PUSH1 0x6E SLOAD PUSH2 0x338 JUMP JUMPDEST PUSH2 0x338 PUSH1 0x6B SLOAD DUP2 JUMP JUMPDEST PUSH2 0x338 PUSH1 0x6D SLOAD DUP2 JUMP JUMPDEST PUSH2 0x570 PUSH2 0x73E CALLDATASIZE PUSH1 0x4 PUSH2 0x245F JUMP JUMPDEST PUSH2 0x1AC6 JUMP JUMPDEST PUSH2 0x77F PUSH2 0x751 CALLDATASIZE PUSH1 0x4 PUSH2 0x2405 JUMP JUMPDEST PUSH1 0x72 PUSH1 0x20 MSTORE PUSH1 0x0 SWAP1 DUP2 MSTORE PUSH1 0x40 SWAP1 KECCAK256 DUP1 SLOAD PUSH1 0x1 DUP3 ADD SLOAD PUSH1 0x2 SWAP1 SWAP3 ADD SLOAD PUSH1 0x1 PUSH1 0x1 PUSH1 0xA0 SHL SUB SWAP1 SWAP2 AND SWAP2 SWAP1 PUSH1 0xFF AND DUP4 JUMP JUMPDEST PUSH1 0x40 DUP1 MLOAD PUSH1 0x1 PUSH1 0x1 PUSH1 0xA0 SHL SUB SWAP1 SWAP5 AND DUP5 MSTORE PUSH1 0x20 DUP5 ADD SWAP3 SWAP1 SWAP3 MSTORE PUSH1 0xFF AND SWAP1 DUP3 ADD MSTORE PUSH1 0x60 ADD PUSH2 0x326 JUMP JUMPDEST PUSH2 0x338 PUSH2 0x7B5 CALLDATASIZE PUSH1 0x4 PUSH2 0x245F JUMP JUMPDEST PUSH1 0x78 PUSH1 0x20 MSTORE PUSH1 0x0 SWAP1 DUP2 MSTORE PUSH1 0x40 SWAP1 KECCAK256 SLOAD DUP2 JUMP JUMPDEST PUSH2 0x338 PUSH1 0x6A SLOAD DUP2 JUMP JUMPDEST PUSH2 0x4B5 PUSH2 0x7DE CALLDATASIZE PUSH1 0x4 PUSH2 0x2405 JUMP JUMPDEST PUSH1 0x73 PUSH1 0x20 MSTORE PUSH1 0x0 SWAP1 DUP2 MSTORE PUSH1 0x40 SWAP1 KECCAK256 SLOAD PUSH1 0x1 PUSH1 0x1 PUSH1 0xA0 SHL SUB AND DUP2 JUMP JUMPDEST PUSH2 0x338 PUSH1 0x6F SLOAD DUP2 JUMP JUMPDEST PUSH2 0x338 PUSH2 0x810 CALLDATASIZE PUSH1 0x4 PUSH2 0x2705 JUMP JUMPDEST PUSH1 0x1 PUSH1 0x1 PUSH1 0xA0 SHL SUB SWAP2 DUP3 AND PUSH1 0x0 SWAP1 DUP2 MSTORE PUSH1 0x34 PUSH1 0x20 SWAP1 DUP2 MSTORE PUSH1 0x40 DUP1 DUP4 KECCAK256 SWAP4 SWAP1 SWAP5 AND DUP3 MSTORE SWAP2 SWAP1 SWAP2 MSTORE KECCAK256 SLOAD SWAP1 JUMP JUMPDEST PUSH2 0x338 PUSH1 0x68 SLOAD DUP2 JUMP JUMPDEST PUSH1 0x66 SLOAD PUSH2 0x4B5 SWAP1 PUSH1 0x1 PUSH1 0x1 PUSH1 0xA0 SHL SUB AND DUP2 JUMP JUMPDEST PUSH1 0x60 PUSH1 0x36 DUP1 SLOAD PUSH2 0x866 SWAP1 PUSH2 0x273E JUMP JUMPDEST DUP1 PUSH1 0x1F ADD PUSH1 0x20 DUP1 SWAP2 DIV MUL PUSH1 0x20 ADD PUSH1 0x40 MLOAD SWAP1 DUP2 ADD PUSH1 0x40 MSTORE DUP1 SWAP3 SWAP2 SWAP1 DUP2 DUP2 MSTORE PUSH1 0x20 ADD DUP3 DUP1 SLOAD PUSH2 0x892 SWAP1 PUSH2 0x273E JUMP JUMPDEST DUP1 ISZERO PUSH2 0x8DF JUMPI DUP1 PUSH1 0x1F LT PUSH2 0x8B4 JUMPI PUSH2 0x100 DUP1 DUP4 SLOAD DIV MUL DUP4 MSTORE SWAP2 PUSH1 0x20 ADD SWAP2 PUSH2 0x8DF JUMP JUMPDEST DUP3 ADD SWAP2 SWAP1 PUSH1 0x0 MSTORE PUSH1 0x20 PUSH1 0x0 KECCAK256 SWAP1 JUMPDEST DUP2 SLOAD DUP2 MSTORE SWAP1 PUSH1 0x1 ADD SWAP1 PUSH1 0x20 ADD DUP1 DUP4 GT PUSH2 0x8C2 JUMPI DUP3 SWAP1 SUB PUSH1 0x1F AND DUP3 ADD SWAP2 JUMPDEST POP POP POP POP POP SWAP1 POP SWAP1 JUMP JUMPDEST PUSH1 0x0 CALLER PUSH2 0x8F7 DUP2 DUP6 DUP6 PUSH2 0x1B4B JUMP JUMPDEST PUSH1 0x1 SWAP2 POP POP JUMPDEST SWAP3 SWAP2 POP POP JUMP JUMPDEST PUSH1 0x0 DUP1 PUSH1 0x0 PUSH1 0x60 PUSH1 0x65 PUSH1 0x0 SWAP1 SLOAD SWAP1 PUSH2 0x100 EXP SWAP1 DIV PUSH1 0x1 PUSH1 0x1 PUSH1 0xA0 SHL SUB AND PUSH1 0x1 PUSH1 0x1 PUSH1 0xA0 SHL SUB AND PUSH4 0x1865C57D PUSH1 0x40 MLOAD DUP2 PUSH4 0xFFFFFFFF AND PUSH1 0xE0 SHL DUP2 MSTORE PUSH1 0x4 ADD PUSH1 0x0 PUSH1 0x40 MLOAD DUP1 DUP4 SUB DUP2 DUP7 GAS STATICCALL ISZERO DUP1 ISZERO PUSH2 0x95D JUMPI RETURNDATASIZE PUSH1 0x0 DUP1 RETURNDATACOPY RETURNDATASIZE PUSH1 0x0 REVERT JUMPDEST POP POP POP POP PUSH1 0x40 MLOAD RETURNDATASIZE PUSH1 0x0 DUP3 RETURNDATACOPY PUSH1 0x1F RETURNDATASIZE SWAP1 DUP2 ADD PUSH1 0x1F NOT AND DUP3 ADD PUSH1 0x40 MSTORE PUSH2 0x985 SWAP2 SWAP1 DUP2 ADD SWAP1 PUSH2 0x27E0 JUMP JUMPDEST SWAP4 POP SWAP4 POP SWAP4 POP SWAP4 POP SWAP1 SWAP2 SWAP3 SWAP4 JUMP JUMPDEST PUSH1 0x66 SLOAD PUSH1 0x60 SWAP1 PUSH1 0x1 PUSH1 0x1 PUSH1 0xA0 SHL SUB AND CALLER EQ PUSH2 0x9D8 JUMPI CALLER PUSH1 0x0 SWAP1 DUP2 MSTORE PUSH1 0x78 PUSH1 0x20 MSTORE PUSH1 0x40 SWAP1 KECCAK256 SLOAD PUSH2 0x9D8 JUMPI PUSH2 0x9C5 DUP6 PUSH2 0x17CE JUMP JUMPDEST CALLER PUSH1 0x0 SWAP1 DUP2 MSTORE PUSH1 0x78 PUSH1 0x20 MSTORE PUSH1 0x40 SWAP1 KECCAK256 SLOAD SWAP5 POP JUMPDEST DUP5 PUSH2 0xA21 JUMPI PUSH1 0x40 MLOAD PUSH3 0x461BCD PUSH1 0xE5 SHL DUP2 MSTORE PUSH1 0x20 PUSH1 0x4 DUP3 ADD MSTORE PUSH1 0x14 PUSH1 0x24 DUP3 ADD MSTORE PUSH20 0x55736572206E6F74207265676973746572656421 PUSH1 0x60 SHL PUSH1 0x44 DUP3 ADD MSTORE PUSH1 0x64 ADD JUMPDEST PUSH1 0x40 MLOAD DUP1 SWAP2 SUB SWAP1 REVERT JUMPDEST PUSH1 0x0 DUP5 DUP2 MSTORE PUSH1 0x76 PUSH1 0x20 MSTORE PUSH1 0x40 SWAP1 KECCAK256 SLOAD PUSH1 0x1 PUSH1 0x1 PUSH1 0xA0 SHL SUB AND ISZERO PUSH2 0xA7D JUMPI PUSH1 0x40 MLOAD PUSH3 0x461BCD PUSH1 0xE5 SHL DUP2 MSTORE PUSH1 0x20 PUSH1 0x4 DUP3 ADD MSTORE PUSH1 0x14 PUSH1 0x24 DUP3 ADD MSTORE PUSH20 0x2537B11030B63932B0B23C9031B932B0BA32B217 PUSH1 0x61 SHL PUSH1 0x44 DUP3 ADD MSTORE PUSH1 0x64 ADD PUSH2 0xA18 JUMP JUMPDEST PUSH1 0x65 SLOAD PUSH1 0x40 MLOAD PUSH4 0x71547B79 PUSH1 0xE1 SHL DUP2 MSTORE PUSH1 0x1 PUSH1 0x4 DUP3 ADD MSTORE PUSH1 0x0 SWAP2 PUSH1 0x1 PUSH1 0x1 PUSH1 0xA0 SHL SUB AND SWAP1 PUSH4 0xE2A8F6F2 SWAP1 PUSH1 0x24 ADD PUSH1 0x0 PUSH1 0x40 MLOAD DUP1 DUP4 SUB DUP2 DUP7 GAS STATICCALL ISZERO DUP1 ISZERO PUSH2 0xAC7 JUMPI RETURNDATASIZE PUSH1 0x0 DUP1 RETURNDATACOPY RETURNDATASIZE PUSH1 0x0 REVERT JUMPDEST POP POP POP POP PUSH1 0x40 MLOAD RETURNDATASIZE PUSH1 0x0 DUP3 RETURNDATACOPY PUSH1 0x1F RETURNDATASIZE SWAP1 DUP2 ADD PUSH1 0x1F NOT AND DUP3 ADD PUSH1 0x40 MSTORE PUSH2 0xAEF SWAP2 SWAP1 DUP2 ADD SWAP1 PUSH2 0x282E JUMP JUMPDEST PUSH1 0x40 DUP1 MLOAD PUSH1 0x1 DUP1 DUP3 MSTORE DUP2 DUP4 ADD SWAP1 SWAP3 MSTORE SWAP2 SWAP3 POP PUSH1 0x0 SWAP2 SWAP1 PUSH1 0x20 DUP1 DUP4 ADD SWAP1 DUP1 CALLDATASIZE DUP4 CALLDATACOPY ADD SWAP1 POP POP SWAP1 POP PUSH1 0x0 JUMPDEST DUP3 MLOAD DUP2 LT ISZERO PUSH2 0xB85 JUMPI PUSH1 0x79 PUSH1 0x0 DUP5 DUP4 DUP2 MLOAD DUP2 LT PUSH2 0xB37 JUMPI PUSH2 0xB37 PUSH2 0x2863 JUMP JUMPDEST PUSH1 0x20 MUL PUSH1 0x20 ADD ADD MLOAD PUSH1 0x1 PUSH1 0x1 PUSH1 0xA0 SHL SUB AND PUSH1 0x1 PUSH1 0x1 PUSH1 0xA0 SHL SUB AND DUP2 MSTORE PUSH1 0x20 ADD SWAP1 DUP2 MSTORE PUSH1 0x20 ADD PUSH1 0x0 KECCAK256 SLOAD DUP3 DUP3 DUP2 MLOAD DUP2 LT PUSH2 0xB72 JUMPI PUSH2 0xB72 PUSH2 0x2863 JUMP JUMPDEST PUSH1 0x20 SWAP1 DUP2 MUL SWAP2 SWAP1 SWAP2 ADD ADD MSTORE PUSH1 0x1 ADD PUSH2 0xB18 JUMP JUMPDEST POP PUSH1 0x40 DUP1 MLOAD PUSH1 0xA0 DUP2 ADD DUP3 MSTORE CALLER DUP2 MSTORE PUSH1 0x20 DUP2 ADD DUP5 SWAP1 MSTORE SWAP1 DUP2 ADD DUP6 PUSH8 0xFFFFFFFFFFFFFFFF DUP2 GT ISZERO PUSH2 0xBB6 JUMPI PUSH2 0xBB6 PUSH2 0x2483 JUMP JUMPDEST PUSH1 0x40 MLOAD SWAP1 DUP1 DUP3 MSTORE DUP1 PUSH1 0x20 MUL PUSH1 0x20 ADD DUP3 ADD PUSH1 0x40 MSTORE DUP1 ISZERO PUSH2 0xBDF JUMPI DUP2 PUSH1 0x20 ADD PUSH1 0x20 DUP3 MUL DUP1 CALLDATASIZE DUP4 CALLDATACOPY ADD SWAP1 POP JUMPDEST POP DUP2 MSTORE PUSH1 0x20 ADD DUP7 DUP7 DUP1 DUP1 PUSH1 0x20 MUL PUSH1 0x20 ADD PUSH1 0x40 MLOAD SWAP1 DUP2 ADD PUSH1 0x40 MSTORE DUP1 SWAP4 SWAP3 SWAP2 SWAP1 DUP2 DUP2 MSTORE PUSH1 0x20 ADD DUP4 DUP4 PUSH1 0x20 MUL DUP1 DUP3 DUP5 CALLDATACOPY PUSH1 0x0 SWAP3 ADD DUP3 SWAP1 MSTORE POP SWAP4 DUP6 MSTORE POP POP PUSH1 0x1 PUSH1 0x20 SWAP4 DUP5 ADD DUP2 SWAP1 MSTORE DUP11 DUP4 MSTORE PUSH1 0x76 DUP5 MSTORE PUSH1 0x40 SWAP1 SWAP3 KECCAK256 DUP5 MLOAD DUP2 SLOAD PUSH1 0x1 PUSH1 0x1 PUSH1 0xA0 SHL SUB NOT AND PUSH1 0x1 PUSH1 0x1 PUSH1 0xA0 SHL SUB SWAP1 SWAP2 AND OR DUP2 SSTORE DUP5 DUP5 ADD MLOAD DUP1 MLOAD SWAP2 SWAP5 PUSH2 0xC62 SWAP5 DUP7 ADD SWAP4 POP ADD SWAP1 PUSH2 0x2185 JUMP JUMPDEST POP PUSH1 0x40 DUP3 ADD MLOAD DUP1 MLOAD PUSH2 0xC7E SWAP2 PUSH1 0x2 DUP5 ADD SWAP2 PUSH1 0x20 SWAP1 SWAP2 ADD SWAP1 PUSH2 0x2185 JUMP JUMPDEST POP PUSH1 0x60 DUP3 ADD MLOAD DUP1 MLOAD PUSH2 0xC9A SWAP2 PUSH1 0x3 DUP5 ADD SWAP2 PUSH1 0x20 SWAP1 SWAP2 ADD SWAP1 PUSH2 0x21EA JUMP JUMPDEST POP PUSH1 0x80 SWAP2 SWAP1 SWAP2 ADD MLOAD PUSH1 0x4 SWAP1 SWAP2 ADD DUP1 SLOAD PUSH1 0xFF NOT AND SWAP2 ISZERO ISZERO SWAP2 SWAP1 SWAP2 OR SWAP1 SSTORE PUSH1 0x40 MLOAD DUP7 SWAP1 PUSH32 0x5DD5AFF7B55A6D23DB5800AE74FAFB29F5F00976A85526C852C81900D14CF3E7 SWAP1 PUSH2 0xCEA SWAP1 TIMESTAMP SWAP1 DUP7 SWAP1 PUSH2 0x2879 JUMP JUMPDEST PUSH1 0x40 MLOAD DUP1 SWAP2 SUB SWAP1 LOG2 PUSH1 0x69 DUP1 SLOAD SWAP1 PUSH1 0x0 PUSH2 0xD02 DUP4 PUSH2 0x28A8 JUMP JUMPDEST SWAP1 SWAP2 SSTORE POP SWAP1 SWAP8 SWAP7 POP POP POP POP POP POP POP JUMP JUMPDEST PUSH1 0x77 DUP2 DUP2 SLOAD DUP2 LT PUSH2 0xD22 JUMPI PUSH1 0x0 DUP1 REVERT JUMPDEST PUSH1 0x0 SWAP2 DUP3 MSTORE PUSH1 0x20 SWAP1 SWAP2 KECCAK256 ADD SLOAD SWAP1 POP DUP2 JUMP JUMPDEST PUSH1 0x0 CALLER PUSH2 0xD41 DUP6 DUP3 DUP6 PUSH2 0x1C6F JUMP JUMPDEST PUSH2 0xD4C DUP6 DUP6 DUP6 PUSH2 0x1D01 JUMP JUMPDEST POP PUSH1 0x1 SWAP5 SWAP4 POP POP POP POP JUMP JUMPDEST PUSH1 0x65 SLOAD PUSH1 0x40 DUP1 MLOAD PUSH4 0x48F17129 PUSH1 0xE1 SHL DUP2 MSTORE SWAP1 MLOAD PUSH1 0x0 SWAP3 PUSH1 0x1 PUSH1 0x1 PUSH1 0xA0 SHL SUB AND SWAP2 PUSH4 0x91E2E252 SWAP2 PUSH1 0x4 DUP1 DUP4 ADD SWAP3 PUSH1 0x20 SWAP3 SWAP2 SWAP1 DUP3 SWAP1 SUB ADD DUP2 DUP7 GAS STATICCALL ISZERO DUP1 ISZERO PUSH2 0xDA1 JUMPI RETURNDATASIZE PUSH1 0x0 DUP1 RETURNDATACOPY RETURNDATASIZE PUSH1 0x0 REVERT JUMPDEST POP POP POP POP PUSH1 0x40 MLOAD RETURNDATASIZE PUSH1 0x1F NOT PUSH1 0x1F DUP3 ADD AND DUP3 ADD DUP1 PUSH1 0x40 MSTORE POP DUP2 ADD SWAP1 PUSH2 0xDC5 SWAP2 SWAP1 PUSH2 0x28C1 JUMP JUMPDEST SWAP1 POP SWAP1 JUMP JUMPDEST CALLER PUSH1 0x0 DUP2 DUP2 MSTORE PUSH1 0x34 PUSH1 0x20 SWAP1 DUP2 MSTORE PUSH1 0x40 DUP1 DUP4 KECCAK256 PUSH1 0x1 PUSH1 0x1 PUSH1 0xA0 SHL SUB DUP8 AND DUP5 MSTORE SWAP1 SWAP2 MSTORE DUP2 KECCAK256 SLOAD SWAP1 SWAP2 SWAP1 PUSH2 0x8F7 SWAP1 DUP3 SWAP1 DUP7 SWAP1 PUSH2 0xE04 SWAP1 DUP8 SWAP1 PUSH2 0x28DA JUMP JUMPDEST PUSH2 0x1B4B JUMP JUMPDEST PUSH1 0x66 SLOAD PUSH1 0x60 SWAP1 PUSH1 0x1 PUSH1 0x1 PUSH1 0xA0 SHL SUB AND CALLER EQ PUSH2 0xE36 JUMPI PUSH1 0x40 MLOAD PUSH3 0x461BCD PUSH1 0xE5 SHL DUP2 MSTORE PUSH1 0x4 ADD PUSH2 0xA18 SWAP1 PUSH2 0x28ED JUMP JUMPDEST PUSH1 0x0 DUP4 DUP2 MSTORE PUSH1 0x76 PUSH1 0x20 MSTORE PUSH1 0x40 SWAP1 KECCAK256 PUSH1 0x3 ADD SLOAD DUP3 MLOAD EQ PUSH2 0xE54 JUMPI PUSH1 0x0 DUP1 REVERT JUMPDEST PUSH1 0x0 DUP4 DUP2 MSTORE PUSH1 0x76 PUSH1 0x20 SWAP1 DUP2 MSTORE PUSH1 0x40 SWAP1 SWAP2 KECCAK256 DUP4 MLOAD PUSH2 0xE79 SWAP3 PUSH1 0x2 SWAP1 SWAP3 ADD SWAP2 DUP6 ADD SWAP1 PUSH2 0x2185 JUMP JUMPDEST POP PUSH1 0x0 DUP4 DUP2 MSTORE PUSH1 0x76 PUSH1 0x20 MSTORE PUSH1 0x40 SWAP1 DUP2 SWAP1 KECCAK256 PUSH1 0x4 ADD DUP1 SLOAD PUSH1 0xFF NOT AND SWAP1 SSTORE MLOAD DUP4 SWAP1 PUSH32 0x9B5ED714C31DFCB1A9397710B6FC1842F37D94AB5DC0CCB528D9A2C97EA76F2A SWAP1 PUSH2 0xEC7 SWAP1 TIMESTAMP DUP2 MSTORE PUSH1 0x20 ADD SWAP1 JUMP JUMPDEST PUSH1 0x40 MLOAD DUP1 SWAP2 SUB SWAP1 LOG2 PUSH1 0x0 DUP4 DUP2 MSTORE PUSH1 0x76 PUSH1 0x20 SWAP1 DUP2 MSTORE PUSH1 0x40 SWAP2 DUP3 SWAP1 KECCAK256 PUSH1 0x3 ADD DUP1 SLOAD DUP4 MLOAD DUP2 DUP5 MUL DUP2 ADD DUP5 ADD SWAP1 SWAP5 MSTORE DUP1 DUP5 MSTORE SWAP1 SWAP2 DUP4 ADD DUP3 DUP3 DUP1 ISZERO PUSH2 0xF26 JUMPI PUSH1 0x20 MUL DUP3 ADD SWAP2 SWAP1 PUSH1 0x0 MSTORE PUSH1 0x20 PUSH1 0x0 KECCAK256 SWAP1 JUMPDEST DUP2 SLOAD DUP2 MSTORE PUSH1 0x20 ADD SWAP1 PUSH1 0x1 ADD SWAP1 DUP1 DUP4 GT PUSH2 0xF12 JUMPI JUMPDEST POP POP POP POP POP SWAP1 POP SWAP3 SWAP2 POP POP JUMP JUMPDEST PUSH1 0x65 SLOAD PUSH1 0x40 DUP1 MLOAD PUSH4 0xFBCCA273 PUSH1 0xE0 SHL DUP2 MSTORE SWAP1 MLOAD PUSH1 0x60 SWAP3 PUSH1 0x1 PUSH1 0x1 PUSH1 0xA0 SHL SUB AND SWAP2 PUSH4 0xFBCCA273 SWAP2 PUSH1 0x4 DUP1 DUP4 ADD SWAP3 PUSH1 0x0 SWAP3 SWAP2 SWAP1 DUP3 SWAP1 SUB ADD DUP2 DUP7 GAS STATICCALL ISZERO DUP1 ISZERO PUSH2 0xF7D JUMPI RETURNDATASIZE PUSH1 0x0 DUP1 RETURNDATACOPY RETURNDATASIZE PUSH1 0x0 REVERT JUMPDEST POP POP POP POP PUSH1 0x40 MLOAD RETURNDATASIZE PUSH1 0x0 DUP3 RETURNDATACOPY PUSH1 0x1F RETURNDATASIZE SWAP1 DUP2 ADD PUSH1 0x1F NOT AND DUP3 ADD PUSH1 0x40 MSTORE PUSH2 0xDC5 SWAP2 SWAP1 DUP2 ADD SWAP1 PUSH2 0x282E JUMP JUMPDEST CALLER PUSH1 0x0 SWAP1 DUP2 MSTORE PUSH1 0x79 PUSH1 0x20 MSTORE PUSH1 0x40 SWAP1 KECCAK256 SLOAD ISZERO PUSH2 0x1002 JUMPI PUSH1 0x40 MLOAD PUSH3 0x461BCD PUSH1 0xE5 SHL DUP2 MSTORE PUSH1 0x20 PUSH1 0x4 DUP3 ADD MSTORE PUSH1 0x19 PUSH1 0x24 DUP3 ADD MSTORE PUSH32 0x56616C696461746F7220616C7265616479206578697374732E00000000000000 PUSH1 0x44 DUP3 ADD MSTORE PUSH1 0x64 ADD PUSH2 0xA18 JUMP JUMPDEST CALLER PUSH1 0x0 SWAP1 DUP2 MSTORE PUSH1 0x33 PUSH1 0x20 MSTORE PUSH1 0x40 SWAP1 KECCAK256 SLOAD DUP2 GT ISZERO DUP1 ISZERO PUSH2 0x1023 JUMPI POP PUSH1 0x6F SLOAD DUP2 LT ISZERO JUMPDEST PUSH2 0x106F JUMPI PUSH1 0x40 MLOAD PUSH3 0x461BCD PUSH1 0xE5 SHL DUP2 MSTORE PUSH1 0x20 PUSH1 0x4 DUP3 ADD MSTORE PUSH1 0x1B PUSH1 0x24 DUP3 ADD MSTORE PUSH32 0x496E73756666696369656E7420746F6B656E2062616C616E63652E0000000000 PUSH1 0x44 DUP3 ADD MSTORE PUSH1 0x64 ADD PUSH2 0xA18 JUMP JUMPDEST PUSH1 0x40 DUP1 MLOAD PUSH1 0xA0 DUP2 ADD DUP3 MSTORE DUP4 DUP2 MSTORE CALLER PUSH1 0x20 DUP1 DUP4 ADD DUP3 DUP2 MSTORE PUSH1 0x6F DUP1 SLOAD DUP6 DUP8 ADD SWAP1 DUP2 MSTORE PUSH1 0x0 PUSH1 0x60 DUP8 ADD DUP2 DUP2 MSTORE PUSH1 0x32 PUSH1 0x80 DUP10 ADD SWAP1 DUP2 MSTORE PUSH1 0x67 DUP1 SLOAD DUP5 MSTORE PUSH1 0x75 DUP9 MSTORE DUP11 DUP5 KECCAK256 SWAP10 MLOAD DUP11 SSTORE SWAP6 MLOAD PUSH1 0x1 DUP11 ADD DUP1 SLOAD PUSH1 0x1 PUSH1 0x1 PUSH1 0xA0 SHL SUB SWAP1 SWAP3 AND PUSH1 0x1 PUSH1 0x1 PUSH1 0xA0 SHL SUB NOT SWAP3 DUP4 AND OR SWAP1 SSTORE SWAP4 MLOAD PUSH1 0x2 DUP11 ADD SSTORE SWAP1 MLOAD PUSH1 0x3 DUP10 ADD SSTORE MLOAD PUSH1 0x4 SWAP1 SWAP8 ADD DUP1 SLOAD PUSH1 0xFF SWAP1 SWAP9 AND PUSH1 0xFF NOT SWAP1 SWAP9 AND SWAP8 SWAP1 SWAP8 OR SWAP1 SWAP7 SSTORE SWAP2 SLOAD DUP5 DUP7 MSTORE PUSH1 0x79 DUP5 MSTORE DUP7 DUP7 KECCAK256 SSTORE DUP8 DUP6 MSTORE PUSH1 0x74 SWAP1 SWAP3 MSTORE SWAP4 SWAP1 SWAP3 KECCAK256 DUP1 SLOAD SWAP1 SWAP4 AND DUP2 OR SWAP1 SWAP3 SSTORE SLOAD PUSH2 0x112A SWAP2 SWAP1 PUSH2 0x1ECF JUMP JUMPDEST PUSH1 0x67 DUP1 SLOAD SWAP1 PUSH1 0x0 PUSH2 0x113A DUP4 PUSH2 0x28A8 JUMP JUMPDEST SWAP2 SWAP1 POP SSTORE POP POP POP JUMP JUMPDEST PUSH1 0x1 PUSH1 0x1 PUSH1 0xA0 SHL SUB DUP2 AND PUSH1 0x0 SWAP1 DUP2 MSTORE PUSH1 0x79 PUSH1 0x20 MSTORE PUSH1 0x40 DUP2 KECCAK256 SLOAD DUP1 PUSH2 0x11A5 JUMPI PUSH1 0x40 MLOAD PUSH3 0x461BCD PUSH1 0xE5 SHL DUP2 MSTORE PUSH1 0x20 PUSH1 0x4 DUP3 ADD MSTORE PUSH1 0x19 PUSH1 0x24 DUP3 ADD MSTORE PUSH25 0x2B30B634B230BA37B9103237B2B9903737BA1032BC34B9BA17 PUSH1 0x39 SHL PUSH1 0x44 DUP3 ADD MSTORE PUSH1 0x64 ADD PUSH2 0xA18 JUMP JUMPDEST PUSH1 0x0 SWAP1 DUP2 MSTORE PUSH1 0x75 PUSH1 0x20 MSTORE PUSH1 0x40 SWAP1 KECCAK256 SLOAD SWAP3 SWAP2 POP POP JUMP JUMPDEST PUSH1 0x0 ADDRESS PUSH1 0x1 PUSH1 0x1 PUSH1 0xA0 SHL SUB AND PUSH4 0x18160DDD PUSH1 0x40 MLOAD DUP2 PUSH4 0xFFFFFFFF AND PUSH1 0xE0 SHL DUP2 MSTORE PUSH1 0x4 ADD PUSH1 0x20 PUSH1 0x40 MLOAD DUP1 DUP4 SUB DUP2 DUP7 GAS STATICCALL ISZERO DUP1 ISZERO PUSH2 0xDA1 JUMPI RETURNDATASIZE PUSH1 0x0 DUP1 RETURNDATACOPY RETURNDATASIZE PUSH1 0x0 REVERT JUMPDEST PUSH2 0x1204 CALLER DUP3 PUSH2 0x1ECF JUMP JUMPDEST POP JUMP JUMPDEST PUSH1 0x0 PUSH1 0x1 PUSH1 0x67 SLOAD PUSH2 0xDC5 SWAP2 SWAP1 PUSH2 0x2933 JUMP JUMPDEST CALLER PUSH1 0x0 SWAP1 DUP2 MSTORE PUSH1 0x79 PUSH1 0x20 MSTORE PUSH1 0x40 SWAP1 KECCAK256 SLOAD DUP1 PUSH2 0x1275 JUMPI PUSH1 0x40 MLOAD PUSH3 0x461BCD PUSH1 0xE5 SHL DUP2 MSTORE PUSH1 0x20 PUSH1 0x4 DUP3 ADD MSTORE PUSH1 0x1B PUSH1 0x24 DUP3 ADD MSTORE PUSH32 0x4E6F74206120726567697374657265642076616C696461746F722E0000000000 PUSH1 0x44 DUP3 ADD MSTORE PUSH1 0x64 ADD PUSH2 0xA18 JUMP JUMPDEST PUSH1 0x0 DUP2 DUP2 MSTORE PUSH1 0x75 PUSH1 0x20 MSTORE PUSH1 0x40 SWAP1 KECCAK256 PUSH1 0x2 DUP2 ADD SLOAD DUP4 GT ISZERO PUSH2 0x12D7 JUMPI PUSH1 0x40 MLOAD PUSH3 0x461BCD PUSH1 0xE5 SHL DUP2 MSTORE PUSH1 0x20 PUSH1 0x4 DUP3 ADD MSTORE PUSH1 0x1E PUSH1 0x24 DUP3 ADD MSTORE PUSH32 0x416D6F756E742065786365656473206C6F636B65642062616C616E63652E0000 PUSH1 0x44 DUP3 ADD MSTORE PUSH1 0x64 ADD PUSH2 0xA18 JUMP JUMPDEST PUSH1 0x0 DUP4 GT PUSH2 0x12F7 JUMPI PUSH1 0x40 MLOAD PUSH3 0x461BCD PUSH1 0xE5 SHL DUP2 MSTORE PUSH1 0x4 ADD PUSH2 0xA18 SWAP1 PUSH2 0x2946 JUMP JUMPDEST DUP1 PUSH1 0x3 ADD SLOAD PUSH1 0x0 SUB PUSH2 0x1377 JUMPI PUSH1 0x70 SLOAD PUSH2 0x1310 SWAP1 TIMESTAMP PUSH2 0x28DA JUMP JUMPDEST PUSH1 0x3 DUP3 ADD SSTORE PUSH1 0x2 DUP2 ADD SLOAD PUSH1 0x0 SWAP1 PUSH2 0x1328 SWAP1 DUP6 SWAP1 PUSH2 0x2933 JUMP JUMPDEST SWAP1 POP CALLER PUSH1 0x1 PUSH1 0x1 PUSH1 0xA0 SHL SUB AND PUSH32 0x77635F8F13EE1A01D11246347C649817C6EE9FA7620CE4C6ADFA2452BFA162B2 DUP4 PUSH1 0x3 ADD SLOAD PUSH1 0x40 MLOAD PUSH2 0x1369 SWAP2 DUP2 MSTORE PUSH1 0x20 ADD SWAP1 JUMP JUMPDEST PUSH1 0x40 MLOAD DUP1 SWAP2 SUB SWAP1 LOG2 POP POP POP POP JUMP JUMPDEST DUP1 PUSH1 0x3 ADD SLOAD TIMESTAMP LT ISZERO PUSH2 0x13CB JUMPI PUSH1 0x40 MLOAD PUSH3 0x461BCD PUSH1 0xE5 SHL DUP2 MSTORE PUSH1 0x20 PUSH1 0x4 DUP3 ADD MSTORE PUSH1 0x18 PUSH1 0x24 DUP3 ADD MSTORE PUSH32 0x546F6B656E7320617265207374696C6C206C6F636B65642E0000000000000000 PUSH1 0x44 DUP3 ADD MSTORE PUSH1 0x64 ADD PUSH2 0xA18 JUMP JUMPDEST DUP3 DUP2 PUSH1 0x2 ADD PUSH1 0x0 DUP3 DUP3 SLOAD PUSH2 0x13DF SWAP2 SWAP1 PUSH2 0x2933 JUMP JUMPDEST SWAP1 SWAP2 SSTORE POP PUSH2 0x13EF SWAP1 POP CALLER DUP5 PUSH2 0x203A JUMP JUMPDEST PUSH1 0x40 MLOAD DUP4 DUP2 MSTORE CALLER SWAP1 PUSH32 0xE7B379C6C1FA169E9079C25E9143B127637EEF8EC8C9D5C06DDB4AB3E1195888 SWAP1 PUSH1 0x20 ADD PUSH1 0x40 MLOAD DUP1 SWAP2 SUB SWAP1 LOG2 JUMPDEST POP POP POP JUMP JUMPDEST PUSH1 0x60 PUSH1 0x37 DUP1 SLOAD PUSH2 0x866 SWAP1 PUSH2 0x273E JUMP JUMPDEST PUSH1 0x0 SLOAD PUSH2 0x100 SWAP1 DIV PUSH1 0xFF AND PUSH2 0x1454 JUMPI PUSH1 0x0 SLOAD PUSH1 0xFF AND ISZERO PUSH2 0x1458 JUMP JUMPDEST ADDRESS EXTCODESIZE ISZERO JUMPDEST PUSH2 0x14BB JUMPI PUSH1 0x40 MLOAD PUSH3 0x461BCD PUSH1 0xE5 SHL DUP2 MSTORE PUSH1 0x20 PUSH1 0x4 DUP3 ADD MSTORE PUSH1 0x2E PUSH1 0x24 DUP3 ADD MSTORE PUSH32 0x496E697469616C697A61626C653A20636F6E747261637420697320616C726561 PUSH1 0x44 DUP3 ADD MSTORE PUSH14 0x191E481A5B9A5D1A585B1A5E9959 PUSH1 0x92 SHL PUSH1 0x64 DUP3 ADD MSTORE PUSH1 0x84 ADD PUSH2 0xA18 JUMP JUMPDEST PUSH1 0x0 SLOAD PUSH2 0x100 SWAP1 DIV PUSH1 0xFF AND ISZERO DUP1 ISZERO PUSH2 0x14DD JUMPI PUSH1 0x0 DUP1 SLOAD PUSH2 0xFFFF NOT AND PUSH2 0x101 OR SWAP1 SSTORE JUMPDEST PUSH2 0x1524 PUSH1 0x40 MLOAD DUP1 PUSH1 0x40 ADD PUSH1 0x40 MSTORE DUP1 PUSH1 0xA DUP2 MSTORE PUSH1 0x20 ADD PUSH10 0x536D6172746E6F646573 PUSH1 0xB0 SHL DUP2 MSTORE POP PUSH1 0x40 MLOAD DUP1 PUSH1 0x40 ADD PUSH1 0x40 MSTORE DUP1 PUSH1 0x3 DUP2 MSTORE PUSH1 0x20 ADD PUSH3 0x534E4F PUSH1 0xE8 SHL DUP2 MSTORE POP PUSH2 0x2119 JUMP JUMPDEST PUSH1 0x1 PUSH1 0x68 DUP2 SWAP1 SSTORE PUSH1 0x69 DUP2 SWAP1 SSTORE PUSH1 0x67 SSTORE PUSH9 0xDE0B6B3A764000000 PUSH1 0x6E SSTORE PUSH10 0x152D02C7E14AF6800000 PUSH1 0x6F SSTORE PUSH4 0x3205B7E PUSH1 0x6D SSTORE PUSH3 0x127500 PUSH1 0x70 SSTORE PUSH1 0x0 PUSH1 0x71 DUP2 SWAP1 SSTORE JUMPDEST DUP3 MLOAD DUP2 LT ISZERO PUSH2 0x159B JUMPI PUSH2 0x1593 DUP4 DUP3 DUP2 MLOAD DUP2 LT PUSH2 0x1583 JUMPI PUSH2 0x1583 PUSH2 0x2863 JUMP JUMPDEST PUSH1 0x20 MUL PUSH1 0x20 ADD ADD MLOAD PUSH1 0x6F SLOAD PUSH2 0x203A JUMP JUMPDEST PUSH1 0x1 ADD PUSH2 0x1565 JUMP JUMPDEST POP PUSH1 0x1 PUSH1 0x6B SSTORE PUSH1 0x5 PUSH1 0x6C SSTORE DUP1 ISZERO PUSH2 0x15B8 JUMPI PUSH1 0x0 DUP1 SLOAD PUSH2 0xFF00 NOT AND SWAP1 SSTORE JUMPDEST POP POP JUMP JUMPDEST PUSH1 0x66 SLOAD PUSH1 0x1 PUSH1 0x1 PUSH1 0xA0 SHL SUB AND CALLER EQ PUSH2 0x15E6 JUMPI PUSH1 0x40 MLOAD PUSH3 0x461BCD PUSH1 0xE5 SHL DUP2 MSTORE PUSH1 0x4 ADD PUSH2 0xA18 SWAP1 PUSH2 0x28ED JUMP JUMPDEST PUSH1 0x6D SLOAD PUSH1 0x71 SLOAD LT PUSH2 0x161C JUMPI PUSH8 0x1BC16D674EC80000 PUSH1 0x6E SLOAD GT ISZERO PUSH2 0x161C JUMPI PUSH1 0x2 PUSH1 0x6E PUSH1 0x0 DUP3 DUP3 SLOAD PUSH2 0x1616 SWAP2 SWAP1 PUSH2 0x2987 JUMP JUMPDEST SWAP1 SWAP2 SSTORE POP POP JUMPDEST PUSH1 0x0 PUSH1 0x64 PUSH1 0x6E SLOAD PUSH1 0x14 PUSH2 0x162F SWAP2 SWAP1 PUSH2 0x29A9 JUMP JUMPDEST PUSH2 0x1639 SWAP2 SWAP1 PUSH2 0x2987 JUMP JUMPDEST SWAP1 POP PUSH1 0x0 PUSH1 0x64 PUSH1 0x6E SLOAD PUSH1 0x50 PUSH2 0x164E SWAP2 SWAP1 PUSH2 0x29A9 JUMP JUMPDEST PUSH2 0x1658 SWAP2 SWAP1 PUSH2 0x2987 JUMP JUMPDEST SWAP1 POP PUSH1 0x0 DUP4 MLOAD DUP4 PUSH2 0x1669 SWAP2 SWAP1 PUSH2 0x2987 JUMP JUMPDEST SWAP1 POP PUSH1 0x0 JUMPDEST DUP5 MLOAD DUP2 LT ISZERO PUSH2 0x16A2 JUMPI PUSH2 0x169A DUP6 DUP3 DUP2 MLOAD DUP2 LT PUSH2 0x168C JUMPI PUSH2 0x168C PUSH2 0x2863 JUMP JUMPDEST PUSH1 0x20 MUL PUSH1 0x20 ADD ADD MLOAD DUP4 PUSH2 0x203A JUMP JUMPDEST PUSH1 0x1 ADD PUSH2 0x166E JUMP JUMPDEST POP PUSH1 0x0 JUMPDEST DUP8 MLOAD DUP2 LT ISZERO PUSH2 0x170F JUMPI PUSH1 0x0 DUP7 DUP5 DUP10 DUP5 DUP2 MLOAD DUP2 LT PUSH2 0x16C5 JUMPI PUSH2 0x16C5 PUSH2 0x2863 JUMP JUMPDEST PUSH1 0x20 MUL PUSH1 0x20 ADD ADD MLOAD PUSH2 0x16D7 SWAP2 SWAP1 PUSH2 0x29A9 JUMP JUMPDEST PUSH2 0x16E1 SWAP2 SWAP1 PUSH2 0x2987 JUMP JUMPDEST SWAP1 POP PUSH2 0x1706 DUP10 DUP4 DUP2 MLOAD DUP2 LT PUSH2 0x16F8 JUMPI PUSH2 0x16F8 PUSH2 0x2863 JUMP JUMPDEST PUSH1 0x20 MUL PUSH1 0x20 ADD ADD MLOAD DUP3 PUSH2 0x203A JUMP JUMPDEST POP PUSH1 0x1 ADD PUSH2 0x16A6 JUMP JUMPDEST POP PUSH1 0x71 DUP1 SLOAD SWAP1 PUSH1 0x0 PUSH2 0x1720 DUP4 PUSH2 0x28A8 JUMP JUMPDEST SWAP2 SWAP1 POP SSTORE POP POP POP POP POP POP POP POP JUMP JUMPDEST CALLER PUSH1 0x0 DUP2 DUP2 MSTORE PUSH1 0x34 PUSH1 0x20 SWAP1 DUP2 MSTORE PUSH1 0x40 DUP1 DUP4 KECCAK256 PUSH1 0x1 PUSH1 0x1 PUSH1 0xA0 SHL SUB DUP8 AND DUP5 MSTORE SWAP1 SWAP2 MSTORE DUP2 KECCAK256 SLOAD SWAP1 SWAP2 SWAP1 DUP4 DUP2 LT ISZERO PUSH2 0x17B3 JUMPI PUSH1 0x40 MLOAD PUSH3 0x461BCD PUSH1 0xE5 SHL DUP2 MSTORE PUSH1 0x20 PUSH1 0x4 DUP3 ADD MSTORE PUSH1 0x25 PUSH1 0x24 DUP3 ADD MSTORE PUSH32 0x45524332303A2064656372656173656420616C6C6F77616E63652062656C6F77 PUSH1 0x44 DUP3 ADD MSTORE PUSH5 0x207A65726F PUSH1 0xD8 SHL PUSH1 0x64 DUP3 ADD MSTORE PUSH1 0x84 ADD PUSH2 0xA18 JUMP JUMPDEST PUSH2 0xD4C DUP3 DUP7 DUP7 DUP5 SUB PUSH2 0x1B4B JUMP JUMPDEST PUSH1 0x0 CALLER PUSH2 0x8F7 DUP2 DUP6 DUP6 PUSH2 0x1D01 JUMP JUMPDEST CALLER PUSH1 0x0 SWAP1 DUP2 MSTORE PUSH1 0x78 PUSH1 0x20 MSTORE PUSH1 0x40 SWAP1 KECCAK256 SLOAD ISZERO PUSH2 0x182B JUMPI PUSH1 0x40 MLOAD PUSH3 0x461BCD PUSH1 0xE5 SHL DUP2 MSTORE PUSH1 0x20 PUSH1 0x4 DUP3 ADD MSTORE PUSH1 0x18 PUSH1 0x24 DUP3 ADD MSTORE PUSH32 0x5573657220616C726561647920726567697374657265642E0000000000000000 PUSH1 0x44 DUP3 ADD MSTORE PUSH1 0x64 ADD PUSH2 0xA18 JUMP JUMPDEST PUSH1 0x40 DUP1 MLOAD PUSH1 0x60 DUP2 ADD DUP3 MSTORE CALLER DUP1 DUP3 MSTORE PUSH1 0x20 DUP1 DUP4 ADD DUP6 DUP2 MSTORE PUSH1 0x32 DUP5 DUP7 ADD SWAP1 DUP2 MSTORE PUSH1 0x0 DUP8 DUP2 MSTORE PUSH1 0x72 DUP5 MSTORE DUP7 DUP2 KECCAK256 SWAP6 MLOAD DUP7 SLOAD PUSH1 0x1 PUSH1 0x1 PUSH1 0xA0 SHL SUB NOT AND PUSH1 0x1 PUSH1 0x1 PUSH1 0xA0 SHL SUB SWAP1 SWAP2 AND OR DUP7 SSTORE SWAP2 MLOAD PUSH1 0x1 DUP7 ADD SSTORE MLOAD PUSH1 0x2 SWAP1 SWAP5 ADD DUP1 SLOAD PUSH1 0xFF NOT AND PUSH1 0xFF SWAP1 SWAP6 AND SWAP5 SWAP1 SWAP5 OR SWAP1 SWAP4 SSTORE SWAP1 DUP3 MSTORE PUSH1 0x78 SWAP1 MSTORE SWAP1 DUP2 KECCAK256 DUP3 SWAP1 SSTORE PUSH1 0x68 DUP1 SLOAD SWAP2 PUSH2 0x18AB DUP4 PUSH2 0x28A8 JUMP JUMPDEST SWAP2 SWAP1 POP SSTORE POP POP JUMP JUMPDEST PUSH1 0x0 PUSH1 0x1 PUSH1 0x68 SLOAD PUSH2 0xDC5 SWAP2 SWAP1 PUSH2 0x2933 JUMP JUMPDEST PUSH1 0x0 DUP1 PUSH1 0x0 PUSH1 0x67 SLOAD DUP5 LT PUSH2 0x1908 JUMPI PUSH1 0x40 MLOAD PUSH3 0x461BCD PUSH1 0xE5 SHL DUP2 MSTORE PUSH1 0x20 PUSH1 0x4 DUP3 ADD MSTORE PUSH1 0xB PUSH1 0x24 DUP3 ADD MSTORE PUSH11 0x24B73B30B634B21024A217 PUSH1 0xA9 SHL PUSH1 0x44 DUP3 ADD MSTORE PUSH1 0x64 ADD PUSH2 0xA18 JUMP JUMPDEST PUSH1 0x0 DUP5 DUP2 MSTORE PUSH1 0x75 PUSH1 0x20 SWAP1 DUP2 MSTORE PUSH1 0x40 DUP1 DUP4 KECCAK256 DUP2 MLOAD PUSH1 0xA0 DUP2 ADD DUP4 MSTORE DUP2 SLOAD DUP2 MSTORE PUSH1 0x1 DUP3 ADD SLOAD PUSH1 0x1 PUSH1 0x1 PUSH1 0xA0 SHL SUB SWAP1 DUP2 AND SWAP5 DUP3 ADD DUP6 SWAP1 MSTORE PUSH1 0x2 DUP4 ADD SLOAD DUP3 DUP6 ADD MSTORE PUSH1 0x3 DUP4 ADD SLOAD PUSH1 0x60 DUP4 ADD MSTORE PUSH1 0x4 SWAP3 DUP4 ADD SLOAD PUSH1 0xFF AND PUSH1 0x80 DUP4 ADD MSTORE PUSH1 0x65 SLOAD SWAP4 MLOAD PUSH4 0x10154287 PUSH1 0xE2 SHL DUP2 MSTORE SWAP3 DUP4 ADD SWAP5 SWAP1 SWAP5 MSTORE SWAP4 SWAP3 SWAP2 SWAP1 SWAP2 AND SWAP1 PUSH4 0x40550A1C SWAP1 PUSH1 0x24 ADD PUSH1 0x20 PUSH1 0x40 MLOAD DUP1 DUP4 SUB DUP2 DUP7 GAS STATICCALL ISZERO DUP1 ISZERO PUSH2 0x199F JUMPI RETURNDATASIZE PUSH1 0x0 DUP1 RETURNDATACOPY RETURNDATASIZE PUSH1 0x0 REVERT JUMPDEST POP POP POP POP PUSH1 0x40 MLOAD RETURNDATASIZE PUSH1 0x1F NOT PUSH1 0x1F DUP3 ADD AND DUP3 ADD DUP1 PUSH1 0x40 MSTORE POP DUP2 ADD SWAP1 PUSH2 0x19C3 SWAP2 SWAP1 PUSH2 0x29C0 JUMP JUMPDEST DUP3 MLOAD PUSH1 0x20 SWAP1 SWAP4 ADD MLOAD SWAP1 SWAP8 SWAP3 SWAP7 POP SWAP5 POP SWAP1 SWAP3 POP POP POP JUMP JUMPDEST PUSH1 0x66 SLOAD PUSH1 0x1 PUSH1 0x1 PUSH1 0xA0 SHL SUB AND CALLER EQ PUSH2 0x1A03 JUMPI PUSH1 0x40 MLOAD PUSH3 0x461BCD PUSH1 0xE5 SHL DUP2 MSTORE PUSH1 0x4 ADD PUSH2 0xA18 SWAP1 PUSH2 0x28ED JUMP JUMPDEST PUSH1 0x0 DUP2 DUP2 MSTORE PUSH1 0x76 PUSH1 0x20 SWAP1 DUP2 MSTORE PUSH1 0x40 SWAP2 DUP3 SWAP1 KECCAK256 PUSH1 0x4 DUP2 ADD DUP1 SLOAD PUSH1 0xFF NOT AND SWAP1 SSTORE SWAP2 MLOAD TIMESTAMP DUP2 MSTORE DUP4 SWAP2 PUSH32 0x6E04AA702F9AF7A9A398F10D27918152DF25AC0CDC6D74321B9F7496374387A7 SWAP2 ADD PUSH1 0x40 MLOAD DUP1 SWAP2 SUB SWAP1 LOG2 POP POP JUMP JUMPDEST PUSH1 0x0 DUP2 DUP2 MSTORE PUSH1 0x76 PUSH1 0x20 SWAP1 DUP2 MSTORE PUSH1 0x40 DUP1 DUP4 KECCAK256 PUSH1 0x1 ADD DUP1 SLOAD DUP3 MLOAD DUP2 DUP6 MUL DUP2 ADD DUP6 ADD SWAP1 SWAP4 MSTORE DUP1 DUP4 MSTORE PUSH1 0x60 SWAP5 SWAP4 DUP4 ADD DUP3 DUP3 DUP1 ISZERO PUSH2 0x1AB9 JUMPI PUSH1 0x20 MUL DUP3 ADD SWAP2 SWAP1 PUSH1 0x0 MSTORE PUSH1 0x20 PUSH1 0x0 KECCAK256 SWAP1 JUMPDEST DUP2 SLOAD PUSH1 0x1 PUSH1 0x1 PUSH1 0xA0 SHL SUB AND DUP2 MSTORE PUSH1 0x1 SWAP1 SWAP2 ADD SWAP1 PUSH1 0x20 ADD DUP1 DUP4 GT PUSH2 0x1A9B JUMPI JUMPDEST POP SWAP4 SWAP8 SWAP7 POP POP POP POP POP POP POP JUMP JUMPDEST PUSH1 0x66 SLOAD PUSH1 0x1 PUSH1 0x1 PUSH1 0xA0 SHL SUB AND ISZERO PUSH2 0x1B1F JUMPI PUSH1 0x40 MLOAD PUSH3 0x461BCD PUSH1 0xE5 SHL DUP2 MSTORE PUSH1 0x20 PUSH1 0x4 DUP3 ADD MSTORE PUSH1 0x1E PUSH1 0x24 DUP3 ADD MSTORE PUSH32 0x56616C696461746F72206164647265737320616C7265616479207365742E0000 PUSH1 0x44 DUP3 ADD MSTORE PUSH1 0x64 ADD PUSH2 0xA18 JUMP JUMPDEST PUSH1 0x65 DUP1 SLOAD PUSH1 0x1 PUSH1 0x1 PUSH1 0xA0 SHL SUB SWAP1 SWAP3 AND PUSH1 0x1 PUSH1 0x1 PUSH1 0xA0 SHL SUB NOT SWAP3 DUP4 AND DUP2 OR SWAP1 SWAP2 SSTORE PUSH1 0x66 DUP1 SLOAD SWAP1 SWAP3 AND OR SWAP1 SSTORE JUMP JUMPDEST PUSH1 0x1 PUSH1 0x1 PUSH1 0xA0 SHL SUB DUP4 AND PUSH2 0x1BAD JUMPI PUSH1 0x40 MLOAD PUSH3 0x461BCD PUSH1 0xE5 SHL DUP2 MSTORE PUSH1 0x20 PUSH1 0x4 DUP3 ADD MSTORE PUSH1 0x24 DUP1 DUP3 ADD MSTORE PUSH32 0x45524332303A20617070726F76652066726F6D20746865207A65726F20616464 PUSH1 0x44 DUP3 ADD MSTORE PUSH4 0x72657373 PUSH1 0xE0 SHL PUSH1 0x64 DUP3 ADD MSTORE PUSH1 0x84 ADD PUSH2 0xA18 JUMP JUMPDEST PUSH1 0x1 PUSH1 0x1 PUSH1 0xA0 SHL SUB DUP3 AND PUSH2 0x1C0E JUMPI PUSH1 0x40 MLOAD PUSH3 0x461BCD PUSH1 0xE5 SHL DUP2 MSTORE PUSH1 0x20 PUSH1 0x4 DUP3 ADD MSTORE PUSH1 0x22 PUSH1 0x24 DUP3 ADD MSTORE PUSH32 0x45524332303A20617070726F766520746F20746865207A65726F206164647265 PUSH1 0x44 DUP3 ADD MSTORE PUSH2 0x7373 PUSH1 0xF0 SHL PUSH1 0x64 DUP3 ADD MSTORE PUSH1 0x84 ADD PUSH2 0xA18 JUMP JUMPDEST PUSH1 0x1 PUSH1 0x1 PUSH1 0xA0 SHL SUB DUP4 DUP2 AND PUSH1 0x0 DUP2 DUP2 MSTORE PUSH1 0x34 PUSH1 0x20 SWAP1 DUP2 MSTORE PUSH1 0x40 DUP1 DUP4 KECCAK256 SWAP5 DUP8 AND DUP1 DUP5 MSTORE SWAP5 DUP3 MSTORE SWAP2 DUP3 SWAP1 KECCAK256 DUP6 SWAP1 SSTORE SWAP1 MLOAD DUP5 DUP2 MSTORE PUSH32 0x8C5BE1E5EBEC7D5BD14F71427D1E84F3DD0314C0F7B2291E5B200AC8C7C3B925 SWAP2 ADD PUSH1 0x40 MLOAD DUP1 SWAP2 SUB SWAP1 LOG3 POP POP POP JUMP JUMPDEST PUSH1 0x1 PUSH1 0x1 PUSH1 0xA0 SHL SUB DUP4 DUP2 AND PUSH1 0x0 SWAP1 DUP2 MSTORE PUSH1 0x34 PUSH1 0x20 SWAP1 DUP2 MSTORE PUSH1 0x40 DUP1 DUP4 KECCAK256 SWAP4 DUP7 AND DUP4 MSTORE SWAP3 SWAP1 MSTORE KECCAK256 SLOAD PUSH1 0x0 NOT DUP2 EQ PUSH2 0x1CFB JUMPI DUP2 DUP2 LT ISZERO PUSH2 0x1CEE JUMPI PUSH1 0x40 MLOAD PUSH3 0x461BCD PUSH1 0xE5 SHL DUP2 MSTORE PUSH1 0x20 PUSH1 0x4 DUP3 ADD MSTORE PUSH1 0x1D PUSH1 0x24 DUP3 ADD MSTORE PUSH32 0x45524332303A20696E73756666696369656E7420616C6C6F77616E6365000000 PUSH1 0x44 DUP3 ADD MSTORE PUSH1 0x64 ADD PUSH2 0xA18 JUMP JUMPDEST PUSH2 0x1CFB DUP5 DUP5 DUP5 DUP5 SUB PUSH2 0x1B4B JUMP JUMPDEST POP POP POP POP JUMP JUMPDEST PUSH1 0x1 PUSH1 0x1 PUSH1 0xA0 SHL SUB DUP4 AND PUSH2 0x1D65 JUMPI PUSH1 0x40 MLOAD PUSH3 0x461BCD PUSH1 0xE5 SHL DUP2 MSTORE PUSH1 0x20 PUSH1 0x4 DUP3 ADD MSTORE PUSH1 0x25 PUSH1 0x24 DUP3 ADD MSTORE PUSH32 0x45524332303A207472616E736665722066726F6D20746865207A65726F206164 PUSH1 0x44 DUP3 ADD MSTORE PUSH5 0x6472657373 PUSH1 0xD8 SHL PUSH1 0x64 DUP3 ADD MSTORE PUSH1 0x84 ADD PUSH2 0xA18 JUMP JUMPDEST PUSH1 0x1 PUSH1 0x1 PUSH1 0xA0 SHL SUB DUP3 AND PUSH2 0x1DC7 JUMPI PUSH1 0x40 MLOAD PUSH3 0x461BCD PUSH1 0xE5 SHL DUP2 MSTORE PUSH1 0x20 PUSH1 0x4 DUP3 ADD MSTORE PUSH1 0x23 PUSH1 0x24 DUP3 ADD MSTORE PUSH32 0x45524332303A207472616E7366657220746F20746865207A65726F2061646472 PUSH1 0x44 DUP3 ADD MSTORE PUSH3 0x657373 PUSH1 0xE8 SHL PUSH1 0x64 DUP3 ADD MSTORE PUSH1 0x84 ADD PUSH2 0xA18 JUMP JUMPDEST PUSH1 0x1 PUSH1 0x1 PUSH1 0xA0 SHL SUB DUP4 AND PUSH1 0x0 SWAP1 DUP2 MSTORE PUSH1 0x33 PUSH1 0x20 MSTORE PUSH1 0x40 SWAP1 KECCAK256 SLOAD DUP2 DUP2 LT ISZERO PUSH2 0x1E3F JUMPI PUSH1 0x40 MLOAD PUSH3 0x461BCD PUSH1 0xE5 SHL DUP2 MSTORE PUSH1 0x20 PUSH1 0x4 DUP3 ADD MSTORE PUSH1 0x26 PUSH1 0x24 DUP3 ADD MSTORE PUSH32 0x45524332303A207472616E7366657220616D6F756E7420657863656564732062 PUSH1 0x44 DUP3 ADD MSTORE PUSH6 0x616C616E6365 PUSH1 0xD0 SHL PUSH1 0x64 DUP3 ADD MSTORE PUSH1 0x84 ADD PUSH2 0xA18 JUMP JUMPDEST PUSH1 0x1 PUSH1 0x1 PUSH1 0xA0 SHL SUB DUP1 DUP6 AND PUSH1 0x0 SWAP1 DUP2 MSTORE PUSH1 0x33 PUSH1 0x20 MSTORE PUSH1 0x40 DUP1 DUP3 KECCAK256 DUP6 DUP6 SUB SWAP1 SSTORE SWAP2 DUP6 AND DUP2 MSTORE SWAP1 DUP2 KECCAK256 DUP1 SLOAD DUP5 SWAP3 SWAP1 PUSH2 0x1E76 SWAP1 DUP5 SWAP1 PUSH2 0x28DA JUMP JUMPDEST SWAP3 POP POP DUP2 SWAP1 SSTORE POP DUP3 PUSH1 0x1 PUSH1 0x1 PUSH1 0xA0 SHL SUB AND DUP5 PUSH1 0x1 PUSH1 0x1 PUSH1 0xA0 SHL SUB AND PUSH32 0xDDF252AD1BE2C89B69C2B068FC378DAA952BA7F163C4A11628F55A4DF523B3EF DUP5 PUSH1 0x40 MLOAD PUSH2 0x1EC2 SWAP2 DUP2 MSTORE PUSH1 0x20 ADD SWAP1 JUMP JUMPDEST PUSH1 0x40 MLOAD DUP1 SWAP2 SUB SWAP1 LOG3 PUSH2 0x1CFB JUMP JUMPDEST PUSH1 0x0 DUP2 GT PUSH2 0x1EEF JUMPI PUSH1 0x40 MLOAD PUSH3 0x461BCD PUSH1 0xE5 SHL DUP2 MSTORE PUSH1 0x4 ADD PUSH2 0xA18 SWAP1 PUSH2 0x2946 JUMP JUMPDEST DUP1 PUSH2 0x1F0F DUP4 PUSH1 0x1 PUSH1 0x1 PUSH1 0xA0 SHL SUB AND PUSH1 0x0 SWAP1 DUP2 MSTORE PUSH1 0x33 PUSH1 0x20 MSTORE PUSH1 0x40 SWAP1 KECCAK256 SLOAD SWAP1 JUMP JUMPDEST LT ISZERO PUSH2 0x1F55 JUMPI PUSH1 0x40 MLOAD PUSH3 0x461BCD PUSH1 0xE5 SHL DUP2 MSTORE PUSH1 0x20 PUSH1 0x4 DUP3 ADD MSTORE PUSH1 0x15 PUSH1 0x24 DUP3 ADD MSTORE PUSH21 0x24B739BAB33334B1B4B2B73A103130B630B731B297 PUSH1 0x59 SHL PUSH1 0x44 DUP3 ADD MSTORE PUSH1 0x64 ADD PUSH2 0xA18 JUMP JUMPDEST PUSH1 0x1 PUSH1 0x1 PUSH1 0xA0 SHL SUB DUP3 AND PUSH1 0x0 SWAP1 DUP2 MSTORE PUSH1 0x79 PUSH1 0x20 MSTORE PUSH1 0x40 DUP2 KECCAK256 SLOAD SWAP1 DUP2 SWAP1 SUB PUSH2 0x1FBA JUMPI PUSH1 0x40 MLOAD PUSH3 0x461BCD PUSH1 0xE5 SHL DUP2 MSTORE PUSH1 0x20 PUSH1 0x4 DUP3 ADD MSTORE PUSH1 0x19 PUSH1 0x24 DUP3 ADD MSTORE PUSH25 0x2B30B634B230BA37B9103237B2B9903737BA1032BC34B9BA17 PUSH1 0x39 SHL PUSH1 0x44 DUP3 ADD MSTORE PUSH1 0x64 ADD PUSH2 0xA18 JUMP JUMPDEST PUSH2 0x1FC5 DUP4 ADDRESS DUP5 PUSH2 0xD33 JUMP JUMPDEST POP PUSH1 0x0 DUP2 DUP2 MSTORE PUSH1 0x75 PUSH1 0x20 MSTORE PUSH1 0x40 DUP2 KECCAK256 PUSH1 0x2 ADD DUP1 SLOAD DUP5 SWAP3 SWAP1 PUSH2 0x1FE7 SWAP1 DUP5 SWAP1 PUSH2 0x28DA JUMP JUMPDEST SWAP1 SWAP2 SSTORE POP POP PUSH1 0x0 DUP2 DUP2 MSTORE PUSH1 0x75 PUSH1 0x20 SWAP1 DUP2 MSTORE PUSH1 0x40 SWAP2 DUP3 SWAP1 KECCAK256 PUSH1 0x2 ADD SLOAD SWAP2 MLOAD DUP5 DUP2 MSTORE PUSH1 0x1 PUSH1 0x1 PUSH1 0xA0 SHL SUB DUP7 AND SWAP2 PUSH32 0xAC87F20A77D28EE8BBB58EC87EA8FA968B3393EFAE1A368FD50B767C2847391C SWAP2 ADD PUSH2 0x1369 JUMP JUMPDEST PUSH1 0x1 PUSH1 0x1 PUSH1 0xA0 SHL SUB DUP3 AND PUSH2 0x2090 JUMPI PUSH1 0x40 MLOAD PUSH3 0x461BCD PUSH1 0xE5 SHL DUP2 MSTORE PUSH1 0x20 PUSH1 0x4 DUP3 ADD MSTORE PUSH1 0x1F PUSH1 0x24 DUP3 ADD MSTORE PUSH32 0x45524332303A206D696E7420746F20746865207A65726F206164647265737300 PUSH1 0x44 DUP3 ADD MSTORE PUSH1 0x64 ADD PUSH2 0xA18 JUMP JUMPDEST DUP1 PUSH1 0x35 PUSH1 0x0 DUP3 DUP3 SLOAD PUSH2 0x20A2 SWAP2 SWAP1 PUSH2 0x28DA JUMP JUMPDEST SWAP1 SWAP2 SSTORE POP POP PUSH1 0x1 PUSH1 0x1 PUSH1 0xA0 SHL SUB DUP3 AND PUSH1 0x0 SWAP1 DUP2 MSTORE PUSH1 0x33 PUSH1 0x20 MSTORE PUSH1 0x40 DUP2 KECCAK256 DUP1 SLOAD DUP4 SWAP3 SWAP1 PUSH2 0x20CF SWAP1 DUP5 SWAP1 PUSH2 0x28DA JUMP JUMPDEST SWAP1 SWAP2 SSTORE POP POP PUSH1 0x40 MLOAD DUP2 DUP2 MSTORE PUSH1 0x1 PUSH1 0x1 PUSH1 0xA0 SHL SUB DUP4 AND SWAP1 PUSH1 0x0 SWAP1 PUSH32 0xDDF252AD1BE2C89B69C2B068FC378DAA952BA7F163C4A11628F55A4DF523B3EF SWAP1 PUSH1 0x20 ADD PUSH1 0x40 MLOAD DUP1 SWAP2 SUB SWAP1 LOG3 POP POP JUMP JUMPDEST PUSH1 0x0 SLOAD PUSH2 0x100 SWAP1 DIV PUSH1 0xFF AND PUSH2 0x2140 JUMPI PUSH1 0x40 MLOAD PUSH3 0x461BCD PUSH1 0xE5 SHL DUP2 MSTORE PUSH1 0x4 ADD PUSH2 0xA18 SWAP1 PUSH2 0x29E2 JUMP JUMPDEST PUSH2 0x15B8 DUP3 DUP3 PUSH1 0x0 SLOAD PUSH2 0x100 SWAP1 DIV PUSH1 0xFF AND PUSH2 0x216C JUMPI PUSH1 0x40 MLOAD PUSH3 0x461BCD PUSH1 0xE5 SHL DUP2 MSTORE PUSH1 0x4 ADD PUSH2 0xA18 SWAP1 PUSH2 0x29E2 JUMP JUMPDEST PUSH1 0x36 PUSH2 0x2178 DUP4 DUP3 PUSH2 0x2A7D JUMP JUMPDEST POP PUSH1 0x37 PUSH2 0x1425 DUP3 DUP3 PUSH2 0x2A7D JUMP JUMPDEST DUP3 DUP1 SLOAD DUP3 DUP3 SSTORE SWAP1 PUSH1 0x0 MSTORE PUSH1 0x20 PUSH1 0x0 KECCAK256 SWAP1 DUP2 ADD SWAP3 DUP3 ISZERO PUSH2 0x21DA JUMPI SWAP2 PUSH1 0x20 MUL DUP3 ADD JUMPDEST DUP3 DUP2 GT ISZERO PUSH2 0x21DA JUMPI DUP3 MLOAD DUP3 SLOAD PUSH1 0x1 PUSH1 0x1 PUSH1 0xA0 SHL SUB NOT AND PUSH1 0x1 PUSH1 0x1 PUSH1 0xA0 SHL SUB SWAP1 SWAP2 AND OR DUP3 SSTORE PUSH1 0x20 SWAP1 SWAP3 ADD SWAP2 PUSH1 0x1 SWAP1 SWAP2 ADD SWAP1 PUSH2 0x21A5 JUMP JUMPDEST POP PUSH2 0x21E6 SWAP3 SWAP2 POP PUSH2 0x2225 JUMP JUMPDEST POP SWAP1 JUMP JUMPDEST DUP3 DUP1 SLOAD DUP3 DUP3 SSTORE SWAP1 PUSH1 0x0 MSTORE PUSH1 0x20 PUSH1 0x0 KECCAK256 SWAP1 DUP2 ADD SWAP3 DUP3 ISZERO PUSH2 0x21DA JUMPI SWAP2 PUSH1 0x20 MUL DUP3 ADD JUMPDEST DUP3 DUP2 GT ISZERO PUSH2 0x21DA JUMPI DUP3 MLOAD DUP3 SSTORE SWAP2 PUSH1 0x20 ADD SWAP2 SWAP1 PUSH1 0x1 ADD SWAP1 PUSH2 0x220A JUMP JUMPDEST JUMPDEST DUP1 DUP3 GT ISZERO PUSH2 0x21E6 JUMPI PUSH1 0x0 DUP2 SSTORE PUSH1 0x1 ADD PUSH2 0x2226 JUMP JUMPDEST PUSH1 0x0 PUSH1 0x20 DUP1 DUP4 MSTORE DUP4 MLOAD DUP1 PUSH1 0x20 DUP6 ADD MSTORE PUSH1 0x0 JUMPDEST DUP2 DUP2 LT ISZERO PUSH2 0x2268 JUMPI DUP6 DUP2 ADD DUP4 ADD MLOAD DUP6 DUP3 ADD PUSH1 0x40 ADD MSTORE DUP3 ADD PUSH2 0x224C JUMP JUMPDEST POP PUSH1 0x0 PUSH1 0x40 DUP3 DUP7 ADD ADD MSTORE PUSH1 0x40 PUSH1 0x1F NOT PUSH1 0x1F DUP4 ADD AND DUP6 ADD ADD SWAP3 POP POP POP SWAP3 SWAP2 POP POP JUMP JUMPDEST PUSH1 0x1 PUSH1 0x1 PUSH1 0xA0 SHL SUB DUP2 AND DUP2 EQ PUSH2 0x1204 JUMPI PUSH1 0x0 DUP1 REVERT JUMPDEST PUSH1 0x0 DUP1 PUSH1 0x40 DUP4 DUP6 SUB SLT ISZERO PUSH2 0x22B1 JUMPI PUSH1 0x0 DUP1 REVERT JUMPDEST DUP3 CALLDATALOAD PUSH2 0x22BC DUP2 PUSH2 0x2289 JUMP JUMPDEST SWAP5 PUSH1 0x20 SWAP4 SWAP1 SWAP4 ADD CALLDATALOAD SWAP4 POP POP POP JUMP JUMPDEST PUSH1 0x0 DUP2 MLOAD DUP1 DUP5 MSTORE PUSH1 0x20 DUP1 DUP6 ADD SWAP5 POP PUSH1 0x20 DUP5 ADD PUSH1 0x0 JUMPDEST DUP4 DUP2 LT ISZERO PUSH2 0x2304 JUMPI DUP2 MLOAD PUSH1 0x1 PUSH1 0x1 PUSH1 0xA0 SHL SUB AND DUP8 MSTORE SWAP6 DUP3 ADD SWAP6 SWAP1 DUP3 ADD SWAP1 PUSH1 0x1 ADD PUSH2 0x22DF JUMP JUMPDEST POP SWAP5 SWAP6 SWAP5 POP POP POP POP POP JUMP JUMPDEST DUP5 DUP2 MSTORE DUP4 PUSH1 0x20 DUP3 ADD MSTORE DUP3 PUSH1 0x40 DUP3 ADD MSTORE PUSH1 0x80 PUSH1 0x60 DUP3 ADD MSTORE PUSH1 0x0 PUSH2 0x2334 PUSH1 0x80 DUP4 ADD DUP5 PUSH2 0x22CA JUMP JUMPDEST SWAP7 SWAP6 POP POP POP POP POP POP JUMP JUMPDEST PUSH1 0x0 DUP1 PUSH1 0x0 DUP1 PUSH1 0x60 DUP6 DUP8 SUB SLT ISZERO PUSH2 0x2354 JUMPI PUSH1 0x0 DUP1 REVERT JUMPDEST DUP5 CALLDATALOAD SWAP4 POP PUSH1 0x20 DUP6 ADD CALLDATALOAD SWAP3 POP PUSH1 0x40 DUP6 ADD CALLDATALOAD PUSH8 0xFFFFFFFFFFFFFFFF DUP1 DUP3 GT ISZERO PUSH2 0x237A JUMPI PUSH1 0x0 DUP1 REVERT JUMPDEST DUP2 DUP8 ADD SWAP2 POP DUP8 PUSH1 0x1F DUP4 ADD SLT PUSH2 0x238E JUMPI PUSH1 0x0 DUP1 REVERT JUMPDEST DUP2 CALLDATALOAD DUP2 DUP2 GT ISZERO PUSH2 0x239D JUMPI PUSH1 0x0 DUP1 REVERT JUMPDEST DUP9 PUSH1 0x20 DUP3 PUSH1 0x5 SHL DUP6 ADD ADD GT ISZERO PUSH2 0x23B2 JUMPI PUSH1 0x0 DUP1 REVERT JUMPDEST SWAP6 SWAP9 SWAP5 SWAP8 POP POP PUSH1 0x20 ADD SWAP5 POP POP POP JUMP JUMPDEST PUSH1 0x20 DUP1 DUP3 MSTORE DUP3 MLOAD DUP3 DUP3 ADD DUP2 SWAP1 MSTORE PUSH1 0x0 SWAP2 SWAP1 DUP5 DUP3 ADD SWAP1 PUSH1 0x40 DUP6 ADD SWAP1 DUP5 JUMPDEST DUP2 DUP2 LT ISZERO PUSH2 0x23F9 JUMPI DUP4 MLOAD DUP4 MSTORE SWAP3 DUP5 ADD SWAP3 SWAP2 DUP5 ADD SWAP2 PUSH1 0x1 ADD PUSH2 0x23DD JUMP JUMPDEST POP SWAP1 SWAP7 SWAP6 POP POP POP POP POP POP JUMP JUMPDEST PUSH1 0x0 PUSH1 0x20 DUP3 DUP5 SUB SLT ISZERO PUSH2 0x2417 JUMPI PUSH1 0x0 DUP1 REVERT JUMPDEST POP CALLDATALOAD SWAP2 SWAP1 POP JUMP JUMPDEST PUSH1 0x0 DUP1 PUSH1 0x0 PUSH1 0x60 DUP5 DUP7 SUB SLT ISZERO PUSH2 0x2433 JUMPI PUSH1 0x0 DUP1 REVERT JUMPDEST DUP4 CALLDATALOAD PUSH2 0x243E DUP2 PUSH2 0x2289 JUMP JUMPDEST SWAP3 POP PUSH1 0x20 DUP5 ADD CALLDATALOAD PUSH2 0x244E DUP2 PUSH2 0x2289 JUMP JUMPDEST SWAP3 SWAP6 SWAP3 SWAP5 POP POP POP PUSH1 0x40 SWAP2 SWAP1 SWAP2 ADD CALLDATALOAD SWAP1 JUMP JUMPDEST PUSH1 0x0 PUSH1 0x20 DUP3 DUP5 SUB SLT ISZERO PUSH2 0x2471 JUMPI PUSH1 0x0 DUP1 REVERT JUMPDEST DUP2 CALLDATALOAD PUSH2 0x247C DUP2 PUSH2 0x2289 JUMP JUMPDEST SWAP4 SWAP3 POP POP POP JUMP JUMPDEST PUSH4 0x4E487B71 PUSH1 0xE0 SHL PUSH1 0x0 MSTORE PUSH1 0x41 PUSH1 0x4 MSTORE PUSH1 0x24 PUSH1 0x0 REVERT JUMPDEST PUSH1 0x40 MLOAD PUSH1 0x1F DUP3 ADD PUSH1 0x1F NOT AND DUP2 ADD PUSH8 0xFFFFFFFFFFFFFFFF DUP2 GT DUP3 DUP3 LT OR ISZERO PUSH2 0x24C2 JUMPI PUSH2 0x24C2 PUSH2 0x2483 JUMP JUMPDEST PUSH1 0x40 MSTORE SWAP2 SWAP1 POP JUMP JUMPDEST PUSH1 0x0 PUSH8 0xFFFFFFFFFFFFFFFF DUP3 GT ISZERO PUSH2 0x24E4 JUMPI PUSH2 0x24E4 PUSH2 0x2483 JUMP JUMPDEST POP PUSH1 0x5 SHL PUSH1 0x20 ADD SWAP1 JUMP JUMPDEST PUSH1 0x0 DUP3 PUSH1 0x1F DUP4 ADD SLT PUSH2 0x24FF JUMPI PUSH1 0x0 DUP1 REVERT JUMPDEST DUP2 CALLDATALOAD PUSH1 0x20 PUSH2 0x2514 PUSH2 0x250F DUP4 PUSH2 0x24CA JUMP JUMPDEST PUSH2 0x2499 JUMP JUMPDEST DUP1 DUP4 DUP3 MSTORE PUSH1 0x20 DUP3 ADD SWAP2 POP PUSH1 0x20 DUP5 PUSH1 0x5 SHL DUP8 ADD ADD SWAP4 POP DUP7 DUP5 GT ISZERO PUSH2 0x2536 JUMPI PUSH1 0x0 DUP1 REVERT JUMPDEST PUSH1 0x20 DUP7 ADD JUMPDEST DUP5 DUP2 LT ISZERO PUSH2 0x255B JUMPI DUP1 CALLDATALOAD PUSH2 0x254E DUP2 PUSH2 0x2289 JUMP JUMPDEST DUP4 MSTORE SWAP2 DUP4 ADD SWAP2 DUP4 ADD PUSH2 0x253B JUMP JUMPDEST POP SWAP7 SWAP6 POP POP POP POP POP POP JUMP JUMPDEST PUSH1 0x0 DUP1 PUSH1 0x40 DUP4 DUP6 SUB SLT ISZERO PUSH2 0x2579 JUMPI PUSH1 0x0 DUP1 REVERT JUMPDEST DUP3 CALLDATALOAD SWAP2 POP PUSH1 0x20 DUP4 ADD CALLDATALOAD PUSH8 0xFFFFFFFFFFFFFFFF DUP2 GT ISZERO PUSH2 0x2597 JUMPI PUSH1 0x0 DUP1 REVERT JUMPDEST PUSH2 0x25A3 DUP6 DUP3 DUP7 ADD PUSH2 0x24EE JUMP JUMPDEST SWAP2 POP POP SWAP3 POP SWAP3 SWAP1 POP JUMP JUMPDEST PUSH1 0x20 DUP2 MSTORE PUSH1 0x0 PUSH2 0x247C PUSH1 0x20 DUP4 ADD DUP5 PUSH2 0x22CA JUMP JUMPDEST PUSH1 0x0 DUP1 PUSH1 0x40 DUP4 DUP6 SUB SLT ISZERO PUSH2 0x25D3 JUMPI PUSH1 0x0 DUP1 REVERT JUMPDEST POP POP DUP1 CALLDATALOAD SWAP3 PUSH1 0x20 SWAP1 SWAP2 ADD CALLDATALOAD SWAP2 POP JUMP JUMPDEST PUSH1 0x0 PUSH1 0x20 DUP3 DUP5 SUB SLT ISZERO PUSH2 0x25F4 JUMPI PUSH1 0x0 DUP1 REVERT JUMPDEST DUP2 CALLDATALOAD PUSH8 0xFFFFFFFFFFFFFFFF DUP2 GT ISZERO PUSH2 0x260B JUMPI PUSH1 0x0 DUP1 REVERT JUMPDEST PUSH2 0x2617 DUP5 DUP3 DUP6 ADD PUSH2 0x24EE JUMP JUMPDEST SWAP5 SWAP4 POP POP POP POP JUMP JUMPDEST PUSH1 0x0 DUP1 PUSH1 0x0 DUP1 PUSH1 0x80 DUP6 DUP8 SUB SLT ISZERO PUSH2 0x2635 JUMPI PUSH1 0x0 DUP1 REVERT JUMPDEST DUP5 CALLDATALOAD PUSH8 0xFFFFFFFFFFFFFFFF DUP1 DUP3 GT ISZERO PUSH2 0x264D JUMPI PUSH1 0x0 DUP1 REVERT JUMPDEST PUSH2 0x2659 DUP9 DUP4 DUP10 ADD PUSH2 0x24EE JUMP JUMPDEST SWAP6 POP PUSH1 0x20 SWAP2 POP DUP2 DUP8 ADD CALLDATALOAD DUP2 DUP2 GT ISZERO PUSH2 0x2670 JUMPI PUSH1 0x0 DUP1 REVERT JUMPDEST DUP8 ADD PUSH1 0x1F DUP2 ADD DUP10 SGT PUSH2 0x2681 JUMPI PUSH1 0x0 DUP1 REVERT JUMPDEST DUP1 CALLDATALOAD PUSH2 0x268F PUSH2 0x250F DUP3 PUSH2 0x24CA JUMP JUMPDEST DUP2 DUP2 MSTORE PUSH1 0x5 SWAP2 SWAP1 SWAP2 SHL DUP3 ADD DUP5 ADD SWAP1 DUP5 DUP2 ADD SWAP1 DUP12 DUP4 GT ISZERO PUSH2 0x26AE JUMPI PUSH1 0x0 DUP1 REVERT JUMPDEST SWAP3 DUP6 ADD SWAP3 JUMPDEST DUP3 DUP5 LT ISZERO PUSH2 0x26CC JUMPI DUP4 CALLDATALOAD DUP3 MSTORE SWAP3 DUP6 ADD SWAP3 SWAP1 DUP6 ADD SWAP1 PUSH2 0x26B3 JUMP JUMPDEST SWAP8 POP POP POP POP PUSH1 0x40 DUP8 ADD CALLDATALOAD SWAP4 POP PUSH1 0x60 DUP8 ADD CALLDATALOAD SWAP2 POP DUP1 DUP3 GT ISZERO PUSH2 0x26EC JUMPI PUSH1 0x0 DUP1 REVERT JUMPDEST POP PUSH2 0x26F9 DUP8 DUP3 DUP9 ADD PUSH2 0x24EE JUMP JUMPDEST SWAP2 POP POP SWAP3 SWAP6 SWAP2 SWAP5 POP SWAP3 POP JUMP JUMPDEST PUSH1 0x0 DUP1 PUSH1 0x40 DUP4 DUP6 SUB SLT ISZERO PUSH2 0x2718 JUMPI PUSH1 0x0 DUP1 REVERT JUMPDEST DUP3 CALLDATALOAD PUSH2 0x2723 DUP2 PUSH2 0x2289 JUMP JUMPDEST SWAP2 POP PUSH1 0x20 DUP4 ADD CALLDATALOAD PUSH2 0x2733 DUP2 PUSH2 0x2289 JUMP JUMPDEST DUP1 SWAP2 POP POP SWAP3 POP SWAP3 SWAP1 POP JUMP JUMPDEST PUSH1 0x1 DUP2 DUP2 SHR SWAP1 DUP3 AND DUP1 PUSH2 0x2752 JUMPI PUSH1 0x7F DUP3 AND SWAP2 POP JUMPDEST PUSH1 0x20 DUP3 LT DUP2 SUB PUSH2 0x2772 JUMPI PUSH4 0x4E487B71 PUSH1 0xE0 SHL PUSH1 0x0 MSTORE PUSH1 0x22 PUSH1 0x4 MSTORE PUSH1 0x24 PUSH1 0x0 REVERT JUMPDEST POP SWAP2 SWAP1 POP JUMP JUMPDEST PUSH1 0x0 DUP3 PUSH1 0x1F DUP4 ADD SLT PUSH2 0x2789 JUMPI PUSH1 0x0 DUP1 REVERT JUMPDEST DUP2 MLOAD PUSH1 0x20 PUSH2 0x2799 PUSH2 0x250F DUP4 PUSH2 0x24CA JUMP JUMPDEST DUP1 DUP4 DUP3 MSTORE PUSH1 0x20 DUP3 ADD SWAP2 POP PUSH1 0x20 DUP5 PUSH1 0x5 SHL DUP8 ADD ADD SWAP4 POP DUP7 DUP5 GT ISZERO PUSH2 0x27BB JUMPI PUSH1 0x0 DUP1 REVERT JUMPDEST PUSH1 0x20 DUP7 ADD JUMPDEST DUP5 DUP2 LT ISZERO PUSH2 0x255B JUMPI DUP1 MLOAD PUSH2 0x27D3 DUP2 PUSH2 0x2289 JUMP JUMPDEST DUP4 MSTORE SWAP2 DUP4 ADD SWAP2 DUP4 ADD PUSH2 0x27C0 JUMP JUMPDEST PUSH1 0x0 DUP1 PUSH1 0x0 DUP1 PUSH1 0x80 DUP6 DUP8 SUB SLT ISZERO PUSH2 0x27F6 JUMPI PUSH1 0x0 DUP1 REVERT JUMPDEST DUP5 MLOAD SWAP4 POP PUSH1 0x20 DUP6 ADD MLOAD SWAP3 POP PUSH1 0x40 DUP6 ADD MLOAD SWAP2 POP PUSH1 0x60 DUP6 ADD MLOAD PUSH8 0xFFFFFFFFFFFFFFFF DUP2 GT ISZERO PUSH2 0x2822 JUMPI PUSH1 0x0 DUP1 REVERT JUMPDEST PUSH2 0x26F9 DUP8 DUP3 DUP9 ADD PUSH2 0x2778 JUMP JUMPDEST PUSH1 0x0 PUSH1 0x20 DUP3 DUP5 SUB SLT ISZERO PUSH2 0x2840 JUMPI PUSH1 0x0 DUP1 REVERT JUMPDEST DUP2 MLOAD PUSH8 0xFFFFFFFFFFFFFFFF DUP2 GT ISZERO PUSH2 0x2857 JUMPI PUSH1 0x0 DUP1 REVERT JUMPDEST PUSH2 0x2617 DUP5 DUP3 DUP6 ADD PUSH2 0x2778 JUMP JUMPDEST PUSH4 0x4E487B71 PUSH1 0xE0 SHL PUSH1 0x0 MSTORE PUSH1 0x32 PUSH1 0x4 MSTORE PUSH1 0x24 PUSH1 0x0 REVERT JUMPDEST DUP3 DUP2 MSTORE PUSH1 0x40 PUSH1 0x20 DUP3 ADD MSTORE PUSH1 0x0 PUSH2 0x2617 PUSH1 0x40 DUP4 ADD DUP5 PUSH2 0x22CA JUMP JUMPDEST PUSH4 0x4E487B71 PUSH1 0xE0 SHL PUSH1 0x0 MSTORE PUSH1 0x11 PUSH1 0x4 MSTORE PUSH1 0x24 PUSH1 0x0 REVERT JUMPDEST PUSH1 0x0 PUSH1 0x1 DUP3 ADD PUSH2 0x28BA JUMPI PUSH2 0x28BA PUSH2 0x2892 JUMP JUMPDEST POP PUSH1 0x1 ADD SWAP1 JUMP JUMPDEST PUSH1 0x0 PUSH1 0x20 DUP3 DUP5 SUB SLT ISZERO PUSH2 0x28D3 JUMPI PUSH1 0x0 DUP1 REVERT JUMPDEST POP MLOAD SWAP2 SWAP1 POP JUMP JUMPDEST DUP1 DUP3 ADD DUP1 DUP3 GT ISZERO PUSH2 0x8FD JUMPI PUSH2 0x8FD PUSH2 0x2892 JUMP JUMPDEST PUSH1 0x20 DUP1 DUP3 MSTORE PUSH1 0x26 SWAP1 DUP3 ADD MSTORE PUSH32 0x43616C6C6572206D7573742062652074686520536D6172746E6F6465734D756C PUSH1 0x40 DUP3 ADD MSTORE PUSH6 0x3A34A9B4B397 PUSH1 0xD1 SHL PUSH1 0x60 DUP3 ADD MSTORE PUSH1 0x80 ADD SWAP1 JUMP JUMPDEST DUP2 DUP2 SUB DUP2 DUP2 GT ISZERO PUSH2 0x8FD JUMPI PUSH2 0x8FD PUSH2 0x2892 JUMP JUMPDEST PUSH1 0x20 DUP1 DUP3 MSTORE PUSH1 0x21 SWAP1 DUP3 ADD MSTORE PUSH32 0x416D6F756E74206D7573742062652067726561746572207468616E207A65726F PUSH1 0x40 DUP3 ADD MSTORE PUSH1 0x17 PUSH1 0xF9 SHL PUSH1 0x60 DUP3 ADD MSTORE PUSH1 0x80 ADD SWAP1 JUMP JUMPDEST PUSH1 0x0 DUP3 PUSH2 0x29A4 JUMPI PUSH4 0x4E487B71 PUSH1 0xE0 SHL PUSH1 0x0 MSTORE PUSH1 0x12 PUSH1 0x4 MSTORE PUSH1 0x24 PUSH1 0x0 REVERT JUMPDEST POP DIV SWAP1 JUMP JUMPDEST DUP1 DUP3 MUL DUP2 ISZERO DUP3 DUP3 DIV DUP5 EQ OR PUSH2 0x8FD JUMPI PUSH2 0x8FD PUSH2 0x2892 JUMP JUMPDEST PUSH1 0x0 PUSH1 0x20 DUP3 DUP5 SUB SLT ISZERO PUSH2 0x29D2 JUMPI PUSH1 0x0 DUP1 REVERT JUMPDEST DUP2 MLOAD DUP1 ISZERO ISZERO DUP2 EQ PUSH2 0x247C JUMPI PUSH1 0x0 DUP1 REVERT JUMPDEST PUSH1 0x20 DUP1 DUP3 MSTORE PUSH1 0x2B SWAP1 DUP3 ADD MSTORE PUSH32 0x496E697469616C697A61626C653A20636F6E7472616374206973206E6F742069 PUSH1 0x40 DUP3 ADD MSTORE PUSH11 0x6E697469616C697A696E67 PUSH1 0xA8 SHL PUSH1 0x60 DUP3 ADD MSTORE PUSH1 0x80 ADD SWAP1 JUMP JUMPDEST PUSH1 0x1F DUP3 GT ISZERO PUSH2 0x1425 JUMPI PUSH1 0x0 DUP2 PUSH1 0x0 MSTORE PUSH1 0x20 PUSH1 0x0 KECCAK256 PUSH1 0x1F DUP6 ADD PUSH1 0x5 SHR DUP2 ADD PUSH1 0x20 DUP7 LT ISZERO PUSH2 0x2A56 JUMPI POP DUP1 JUMPDEST PUSH1 0x1F DUP6 ADD PUSH1 0x5 SHR DUP3 ADD SWAP2 POP JUMPDEST DUP2 DUP2 LT ISZERO PUSH2 0x2A75 JUMPI DUP3 DUP2 SSTORE PUSH1 0x1 ADD PUSH2 0x2A62 JUMP JUMPDEST POP POP POP POP POP POP JUMP JUMPDEST DUP2 MLOAD PUSH8 0xFFFFFFFFFFFFFFFF DUP2 GT ISZERO PUSH2 0x2A97 JUMPI PUSH2 0x2A97 PUSH2 0x2483 JUMP JUMPDEST PUSH2 0x2AAB DUP2 PUSH2 0x2AA5 DUP5 SLOAD PUSH2 0x273E JUMP JUMPDEST DUP5 PUSH2 0x2A2D JUMP JUMPDEST PUSH1 0x20 DUP1 PUSH1 0x1F DUP4 GT PUSH1 0x1 DUP2 EQ PUSH2 0x2AE0 JUMPI PUSH1 0x0 DUP5 ISZERO PUSH2 0x2AC8 JUMPI POP DUP6 DUP4 ADD MLOAD JUMPDEST PUSH1 0x0 NOT PUSH1 0x3 DUP7 SWAP1 SHL SHR NOT AND PUSH1 0x1 DUP6 SWAP1 SHL OR DUP6 SSTORE PUSH2 0x2A75 JUMP JUMPDEST PUSH1 0x0 DUP6 DUP2 MSTORE PUSH1 0x20 DUP2 KECCAK256 PUSH1 0x1F NOT DUP7 AND SWAP2 JUMPDEST DUP3 DUP2 LT ISZERO PUSH2 0x2B0F JUMPI DUP9 DUP7 ADD MLOAD DUP3 SSTORE SWAP5 DUP5 ADD SWAP5 PUSH1 0x1 SWAP1 SWAP2 ADD SWAP1 DUP5 ADD PUSH2 0x2AF0 JUMP JUMPDEST POP DUP6 DUP3 LT ISZERO PUSH2 0x2B2D JUMPI DUP8 DUP6 ADD MLOAD PUSH1 0x0 NOT PUSH1 0x3 DUP9 SWAP1 SHL PUSH1 0xF8 AND SHR NOT AND DUP2 SSTORE JUMPDEST POP POP POP POP POP PUSH1 0x1 SWAP1 DUP2 SHL ADD SWAP1 SSTORE POP JUMP INVALID LOG2 PUSH5 0x6970667358 0x22 SLT KECCAK256 SWAP11 0xCF 0x26 0x1E 0xBB LOG3 ISZERO SWAP7 0xC4 PUSH13 0xC2F80937B3F7A988BDA9AD97E5 0xCB CODESIZE SWAP4 0xF 0xC6 0xCC PUSH21 0x157864736F6C634300081900330000000000000000 ",
  "sha1": "2f15c10857825abc79ffcaec781dff5afa78e9ac",
  "source": "// SPDX-License-Identifier: MIT\npragma solidity ^0.8.5;\n\nimport \"@openzeppelin-upgradeable/contracts/token/ERC20/ERC20Upgradeable.sol\";\nimport \"./interfaces/ISmartnodesMultiSig.sol\";\n\n/**\n * @title SmartNodes\n * @dev An ERC20 contract for managing off-chain networks\n */\ncontract SmartnodesCore is ERC20Upgradeable {\n    // Validator multi-sig address\n    ISmartnodesMultiSig private _validatorContractInstance;\n    address public validatorContractAddress;\n\n    // Counters for storage indexing / IDs\n    uint256 public validatorIdCounter;\n    uint256 public userCounter;\n    uint256 public jobCounter;\n    uint256 public activeValidators;\n    uint256 public minValidators;\n    uint256 public maxValidators;\n\n    // Events\n    event TokensLocked(address indexed validator, uint256 amount);\n    event UnlockInitiated(address indexed validator, uint256 unlockTime);\n    event TokensUnlocked(address indexed validator, uint256 amount);\n    event JobRequested(\n        bytes32 indexed jobHash,\n        uint256 timestamp,\n        address[] seedValidators\n    );\n    event JobCompleted(bytes32 indexed jobId, uint256 timestamp);\n    event JobDisputed(bytes32 indexed jobId, uint256 timestamp);\n\n    // User data with key information (address, RSA key hash, reputation)\n    struct User {\n        address userAddress;\n        bytes32 publicKeyHash;\n        uint8 reputation;\n    }\n\n    // Validator data with key information (address, RSA key hash, locked value, reputation, activity)\n    struct Validator {\n        bytes32 publicKeyHash;\n        address validatorAddress;\n        uint256 locked;\n        uint256 unlockTime;\n        uint8 reputation;\n    }\n\n    // Information for  a generic off-chain job (job hash [key for kademlia lookup], seed validators, participants, author, etc)\n    struct Job {\n        address author;\n        address[] seedValidators;\n        address[] workers;\n        uint256[] capacities;\n        bool activity;\n    }\n\n    // ERC20 token supply metrics\n    uint256 constant TAIL_EMISSION = 2e18;\n\n    uint256 public halving; // number of state updates until next halving (~3 months)\n    uint256 public emissionRate; // amount of tokens to be emitted per state update\n    uint256 public lockAmount; // minimum validator locked tokens required\n    uint256 public unlockPeriod;\n    uint256 public timeSinceLastHalving;\n\n    // Main datastructure mappings via id lookup\n    mapping(bytes32 => User) public users;\n    mapping(bytes32 => address) public workers;\n    mapping(bytes32 => address) public validatorAddressByHash;\n    mapping(uint256 => Validator) public validators;\n    mapping(bytes32 => Job) public jobs;\n    uint256[] public activeJobs;\n\n    // Helpful mappings\n    mapping(address => bytes32) public userHashByAddress;\n    mapping(address => uint256) public validatorIdByAddress;\n\n    modifier onlyValidatorMultiSig() {\n        require(\n            msg.sender == validatorContractAddress,\n            \"Caller must be the SmartnodesMultiSig.\"\n        );\n        _;\n    }\n\n    function initialize(address[] memory _genesisNodes) public initializer {\n        __ERC20_init(\"Smartnodes\", \"SNO\");\n\n        // Set all counters to 1 (when looking up values, 0 = Not found)\n        userCounter = 1;\n        jobCounter = 1;\n        validatorIdCounter = 1;\n\n        // Set ERC20 token parameters\n        emissionRate = 256e18; // amount of tokens to be emitted per state update\n        lockAmount = 100_000e18; // minimum validator locked tokens required\n        halving = 52452222; // Number of state updates before reward halving\n        unlockPeriod = 1_209_600; // (seconds)\n        timeSinceLastHalving = 0;\n\n        for (uint i = 0; i < _genesisNodes.length; i++) {\n            _mint(_genesisNodes[i], lockAmount);\n        }\n\n        // Other parameters\n        minValidators = 1;\n        maxValidators = 5;\n    }\n\n    function setValidatorContract(address validatorAddress) external {\n        require(\n            validatorContractAddress == address(0),\n            \"Validator address already set.\"\n        );\n        _validatorContractInstance = ISmartnodesMultiSig(validatorAddress);\n        validatorContractAddress = validatorAddress;\n    }\n\n    /**\n     * @dev Create a User, limit one per address & public key hash (RSA)\n     */\n    function createUser(bytes32 _publicKeyHash) public {\n        // Only one address & public key hash per user.\n        require(\n            userHashByAddress[msg.sender] == bytes32(0),\n            \"User already registered.\"\n        );\n\n        users[_publicKeyHash] = User({\n            userAddress: msg.sender,\n            publicKeyHash: _publicKeyHash,\n            reputation: 50\n        });\n\n        userHashByAddress[msg.sender] = _publicKeyHash;\n        userCounter++;\n    }\n\n    /**\n     * @dev Create a Validator, limit one per address & public key hash (RSA), requires locking up sno\n     */\n    function createValidator(\n        bytes32 _publicKeyHash,\n        uint256 _lockAmount\n    ) external {\n        require(\n            validatorIdByAddress[msg.sender] == 0,\n            \"Validator already exists.\"\n        );\n\n        require(\n            balanceOf(msg.sender) >= _lockAmount && _lockAmount >= lockAmount,\n            \"Insufficient token balance.\"\n        );\n\n        // Create validator on SmartnodesCore\n        validators[validatorIdCounter] = Validator({\n            publicKeyHash: _publicKeyHash,\n            validatorAddress: msg.sender,\n            locked: lockAmount,\n            unlockTime: 0,\n            reputation: 50\n        });\n\n        validatorIdByAddress[msg.sender] = validatorIdCounter;\n        validatorAddressByHash[_publicKeyHash] = msg.sender;\n\n        // Lock token in contract\n        _lockTokens(msg.sender, lockAmount);\n\n        validatorIdCounter++;\n    }\n\n    // User Job Requesting Via Chainlink VRF TODO\n    function requestJob(\n        bytes32 userHash,\n        bytes32 jobHash,\n        uint256[] calldata _capacities\n    ) external returns (uint256[] memory validatorIds) {\n        // If user directly requests a job, register if they have not already done so\n        if (msg.sender != validatorContractAddress) {\n            if (userHashByAddress[msg.sender] == bytes32(0)) {\n                createUser(userHash);\n                userHash = userHashByAddress[msg.sender];\n            }\n        }\n\n        require(userHash != bytes32(0), \"User not registered!\");\n        require(jobs[jobHash].author == address(0), \"Job already created.\");\n        // require(_capacities[0] > 0, \"Capacity must be greater zero.\");\n\n        address[] memory _seedValidators = _validatorContractInstance\n            .generateValidators(1);\n        uint256[] memory _validatorIds = new uint256[](1); // (_seedValidators.length);\n\n        for (uint256 i = 0; i < _seedValidators.length; i++) {\n            _validatorIds[i] = validatorIdByAddress[_seedValidators[i]];\n        }\n\n        // Store the job in the jobs mapping\n        jobs[jobHash] = Job({\n            author: msg.sender,\n            seedValidators: _seedValidators,\n            workers: new address[](_capacities.length),\n            capacities: _capacities,\n            activity: true\n        });\n\n        emit JobRequested(jobHash, block.timestamp, _seedValidators);\n        jobCounter++;\n\n        return _validatorIds;\n    }\n\n    function completeJob(\n        bytes32 jobHash,\n        address[] memory _workers\n    ) external onlyValidatorMultiSig returns (uint256[] memory) {\n        require(_workers.length == jobs[jobHash].capacities.length);\n\n        jobs[jobHash].workers = _workers;\n        jobs[jobHash].activity = false;\n        // jobIdByUserHash[userIdHash] = 0;\n\n        emit JobCompleted(jobHash, block.timestamp);\n\n        return jobs[jobHash].capacities;\n    }\n\n    function disputeJob(bytes32 jobHash) external onlyValidatorMultiSig {\n        Job storage job = jobs[jobHash];\n        job.activity = false;\n        emit JobDisputed(jobHash, block.timestamp);\n    }\n\n    /**\n     * @dev Internal function to lock tokens, callable from other functions\n     */\n    function _lockTokens(address sender, uint256 amount) internal {\n        require(amount > 0, \"Amount must be greater than zero.\");\n        require(balanceOf(sender) >= amount, \"Insufficient balance.\");\n\n        uint256 validatorId = validatorIdByAddress[sender];\n        require(validatorId != 0, \"Validator does not exist.\");\n\n        transferFrom(sender, address(this), amount);\n        validators[validatorId].locked += amount;\n        uint256 totalLocked = validators[validatorId].locked;\n\n        emit TokensLocked(sender, amount);\n    }\n\n    /**\n     * @dev Validator token unlocking, 30 day withdrawal period.\n     */\n    function lockTokens(uint256 amount) external {\n        _lockTokens(msg.sender, amount);\n    }\n\n    function unlockTokens(uint256 amount) external {\n        uint256 validatorId = validatorIdByAddress[msg.sender];\n        require(validatorId > 0, \"Not a registered validator.\");\n\n        Validator storage validator = validators[validatorId];\n\n        require(amount <= validator.locked, \"Amount exceeds locked balance.\");\n        require(amount > 0, \"Amount must be greater than zero.\");\n\n        // Initialize the unlock time if it's the first unlock attempt\n        if (validator.unlockTime == 0) {\n            validator.unlockTime = block.timestamp + unlockPeriod; // unlocking period\n\n            // Update multisig validator\n            uint256 totalLocked = validator.locked - amount;\n\n            emit UnlockInitiated(msg.sender, validator.unlockTime); // Optional: emit an event\n        } else {\n            // On subsequent attempts, check if the unlock period has elapsed\n            require(\n                block.timestamp >= validator.unlockTime,\n                \"Tokens are still locked.\"\n            );\n\n            validator.locked -= amount;\n            _mint(msg.sender, amount); // Mint tokens back to the validator's address\n\n            emit TokensUnlocked(msg.sender, amount); // Optional: emit an event when tokens are unlocked\n        }\n    }\n\n    /**\n     * @dev Mint tokens for updating state rewards, distribute 40/60 among validators and workers\n     * Updates the emission rate and halving accordingly\n     */\n    function mintTokens(\n        address[] memory _workers,\n        uint256[] memory _workerCapacities,\n        uint256 _totalCapacity,\n        address[] memory _validatorsVoted\n    ) external onlyValidatorMultiSig {\n        if (timeSinceLastHalving >= halving) {\n            if (emissionRate > TAIL_EMISSION) {\n                emissionRate /= 2;\n            }\n        }\n\n        uint256 validatorRewardTotal = (emissionRate * 20) / 100;\n        uint256 workerRewardTotal = (emissionRate * 80) / 100;\n\n        // Distribute rewards for validators equally\n        uint256 validatorReward = validatorRewardTotal /\n            _validatorsVoted.length;\n\n        for (uint256 v = 0; v < _validatorsVoted.length; v++) {\n            _mint(_validatorsVoted[v], validatorReward);\n        }\n\n        // Distribute rewards for workers\n        for (uint256 w = 0; w < _workers.length; w++) {\n            uint256 reward = ((_workerCapacities[w] * workerRewardTotal) /\n                _totalCapacity);\n            _mint(_workers[w], reward);\n        }\n\n        timeSinceLastHalving++;\n    }\n\n    // Returns a list of all the selected validators for a job request\n    function getJobValidators(\n        bytes32 jobHash\n    ) external view returns (address[] memory) {\n        address[] memory jobValidators = jobs[jobHash].seedValidators;\n        return jobValidators;\n    }\n\n    function getValidatorInfo(\n        uint256 _validatorId\n    ) external view returns (bool, bytes32, address) {\n        require(_validatorId < validatorIdCounter, \"Invalid ID.\");\n        Validator memory _validator = validators[_validatorId];\n        bool isActive = _validatorContractInstance.isActiveValidator(\n            _validator.validatorAddress\n        );\n        return (\n            isActive,\n            _validator.publicKeyHash,\n            _validator.validatorAddress\n        );\n    }\n\n    function getValidatorBytes(\n        address validatorAddress\n    ) external view returns (bytes32) {\n        uint256 validatorId = validatorIdByAddress[validatorAddress];\n        require(validatorId > 0, \"Validator does not exist.\");\n\n        return validators[validatorId].publicKeyHash;\n    }\n\n    function getUserCount() external view returns (uint256) {\n        return userCounter - 1;\n    }\n\n    function getValidatorCount() external view returns (uint256) {\n        return validatorIdCounter - 1;\n    }\n\n    function getActiveValidatorCount() external view returns (uint256) {\n        return _validatorContractInstance.getNumValidators();\n    }\n\n    function getEmissionRate() external view returns (uint256) {\n        return emissionRate;\n    }\n\n    function getSupply() external view returns (uint256) {\n        return this.totalSupply();\n    }\n\n    function isLocked(address validatorAddr) external view returns (bool) {\n        uint256 _id = validatorIdByAddress[validatorAddr];\n        return validators[_id].locked >= lockAmount;\n    }\n\n    function getProposees() external view returns (address[] memory) {\n        return _validatorContractInstance.getSelectedValidators();\n    }\n\n    function getState()\n        external\n        view\n        returns (uint256, uint256, uint256, address[] memory)\n    {\n        return _validatorContractInstance.getState();\n    }\n}\n",
  "sourcePath": "contracts/SmartnodesCore.sol",
  "type": "contract"
}