{
  "abi": [
    {
      "anonymous": false,
      "inputs": [
        {
          "indexed": true,
          "internalType": "address",
          "name": "owner",
          "type": "address"
        },
        {
          "indexed": true,
          "internalType": "address",
          "name": "spender",
          "type": "address"
        },
        {
          "indexed": false,
          "internalType": "uint256",
          "name": "value",
          "type": "uint256"
        }
      ],
      "name": "Approval",
      "type": "event"
    },
    {
      "anonymous": false,
      "inputs": [
        {
          "indexed": true,
          "internalType": "uint256",
          "name": "jobId",
          "type": "uint256"
        }
      ],
      "name": "JobCompleted",
      "type": "event"
    },
    {
      "anonymous": false,
      "inputs": [
        {
          "indexed": true,
          "internalType": "uint256",
          "name": "jobId",
          "type": "uint256"
        }
      ],
      "name": "JobDisputed",
      "type": "event"
    },
    {
      "anonymous": false,
      "inputs": [
        {
          "indexed": true,
          "internalType": "uint256",
          "name": "jobId",
          "type": "uint256"
        },
        {
          "indexed": false,
          "internalType": "address[]",
          "name": "seedValidators",
          "type": "address[]"
        }
      ],
      "name": "JobRequested",
      "type": "event"
    },
    {
      "anonymous": false,
      "inputs": [
        {
          "indexed": true,
          "internalType": "address",
          "name": "validator",
          "type": "address"
        },
        {
          "indexed": false,
          "internalType": "uint256",
          "name": "amount",
          "type": "uint256"
        }
      ],
      "name": "TokensLocked",
      "type": "event"
    },
    {
      "anonymous": false,
      "inputs": [
        {
          "indexed": true,
          "internalType": "address",
          "name": "validator",
          "type": "address"
        },
        {
          "indexed": false,
          "internalType": "uint256",
          "name": "amount",
          "type": "uint256"
        }
      ],
      "name": "TokensUnlocked",
      "type": "event"
    },
    {
      "anonymous": false,
      "inputs": [
        {
          "indexed": true,
          "internalType": "address",
          "name": "from",
          "type": "address"
        },
        {
          "indexed": true,
          "internalType": "address",
          "name": "to",
          "type": "address"
        },
        {
          "indexed": false,
          "internalType": "uint256",
          "name": "value",
          "type": "uint256"
        }
      ],
      "name": "Transfer",
      "type": "event"
    },
    {
      "anonymous": false,
      "inputs": [
        {
          "indexed": true,
          "internalType": "address",
          "name": "validator",
          "type": "address"
        },
        {
          "indexed": false,
          "internalType": "uint256",
          "name": "unlockTime",
          "type": "uint256"
        }
      ],
      "name": "UnlockInitiated",
      "type": "event"
    },
    {
      "inputs": [],
      "name": "HALVING",
      "outputs": [
        {
          "internalType": "uint256",
          "name": "",
          "type": "uint256"
        }
      ],
      "stateMutability": "view",
      "type": "function"
    },
    {
      "inputs": [],
      "name": "INITIAL_SUPPLY",
      "outputs": [
        {
          "internalType": "uint256",
          "name": "",
          "type": "uint256"
        }
      ],
      "stateMutability": "view",
      "type": "function"
    },
    {
      "inputs": [],
      "name": "MAX_SUPPLY",
      "outputs": [
        {
          "internalType": "uint256",
          "name": "",
          "type": "uint256"
        }
      ],
      "stateMutability": "view",
      "type": "function"
    },
    {
      "inputs": [],
      "name": "activeValidators",
      "outputs": [
        {
          "internalType": "uint256",
          "name": "",
          "type": "uint256"
        }
      ],
      "stateMutability": "view",
      "type": "function"
    },
    {
      "inputs": [
        {
          "internalType": "address",
          "name": "owner",
          "type": "address"
        },
        {
          "internalType": "address",
          "name": "spender",
          "type": "address"
        }
      ],
      "name": "allowance",
      "outputs": [
        {
          "internalType": "uint256",
          "name": "",
          "type": "uint256"
        }
      ],
      "stateMutability": "view",
      "type": "function"
    },
    {
      "inputs": [
        {
          "internalType": "address",
          "name": "spender",
          "type": "address"
        },
        {
          "internalType": "uint256",
          "name": "amount",
          "type": "uint256"
        }
      ],
      "name": "approve",
      "outputs": [
        {
          "internalType": "bool",
          "name": "",
          "type": "bool"
        }
      ],
      "stateMutability": "nonpayable",
      "type": "function"
    },
    {
      "inputs": [
        {
          "internalType": "address",
          "name": "account",
          "type": "address"
        }
      ],
      "name": "balanceOf",
      "outputs": [
        {
          "internalType": "uint256",
          "name": "",
          "type": "uint256"
        }
      ],
      "stateMutability": "view",
      "type": "function"
    },
    {
      "inputs": [
        {
          "internalType": "uint256",
          "name": "jobId",
          "type": "uint256"
        },
        {
          "internalType": "address[]",
          "name": "_workers",
          "type": "address[]"
        }
      ],
      "name": "completeJob",
      "outputs": [
        {
          "internalType": "uint256[]",
          "name": "",
          "type": "uint256[]"
        }
      ],
      "stateMutability": "nonpayable",
      "type": "function"
    },
    {
      "inputs": [
        {
          "internalType": "uint256",
          "name": "",
          "type": "uint256"
        }
      ],
      "name": "completedJobs",
      "outputs": [
        {
          "internalType": "uint256",
          "name": "",
          "type": "uint256"
        }
      ],
      "stateMutability": "view",
      "type": "function"
    },
    {
      "inputs": [
        {
          "internalType": "bytes32",
          "name": "_publicKeyHash",
          "type": "bytes32"
        }
      ],
      "name": "createUser",
      "outputs": [],
      "stateMutability": "nonpayable",
      "type": "function"
    },
    {
      "inputs": [
        {
          "internalType": "bytes32",
          "name": "_publicKeyHash",
          "type": "bytes32"
        }
      ],
      "name": "createValidator",
      "outputs": [],
      "stateMutability": "nonpayable",
      "type": "function"
    },
    {
      "inputs": [],
      "name": "decimals",
      "outputs": [
        {
          "internalType": "uint8",
          "name": "",
          "type": "uint8"
        }
      ],
      "stateMutability": "view",
      "type": "function"
    },
    {
      "inputs": [
        {
          "internalType": "address",
          "name": "spender",
          "type": "address"
        },
        {
          "internalType": "uint256",
          "name": "subtractedValue",
          "type": "uint256"
        }
      ],
      "name": "decreaseAllowance",
      "outputs": [
        {
          "internalType": "bool",
          "name": "",
          "type": "bool"
        }
      ],
      "stateMutability": "nonpayable",
      "type": "function"
    },
    {
      "inputs": [
        {
          "internalType": "uint256",
          "name": "jobId",
          "type": "uint256"
        }
      ],
      "name": "disputeJob",
      "outputs": [],
      "stateMutability": "nonpayable",
      "type": "function"
    },
    {
      "inputs": [],
      "name": "emissionRate",
      "outputs": [
        {
          "internalType": "uint256",
          "name": "",
          "type": "uint256"
        }
      ],
      "stateMutability": "view",
      "type": "function"
    },
    {
      "inputs": [],
      "name": "getActiveValidatorCount",
      "outputs": [
        {
          "internalType": "uint256",
          "name": "",
          "type": "uint256"
        }
      ],
      "stateMutability": "view",
      "type": "function"
    },
    {
      "inputs": [],
      "name": "getEmissionRate",
      "outputs": [
        {
          "internalType": "uint256",
          "name": "",
          "type": "uint256"
        }
      ],
      "stateMutability": "view",
      "type": "function"
    },
    {
      "inputs": [
        {
          "internalType": "uint256",
          "name": "jobId",
          "type": "uint256"
        }
      ],
      "name": "getJobValidators",
      "outputs": [
        {
          "internalType": "address[]",
          "name": "",
          "type": "address[]"
        }
      ],
      "stateMutability": "view",
      "type": "function"
    },
    {
      "inputs": [],
      "name": "getSupply",
      "outputs": [
        {
          "internalType": "uint256",
          "name": "",
          "type": "uint256"
        }
      ],
      "stateMutability": "view",
      "type": "function"
    },
    {
      "inputs": [],
      "name": "getUserCount",
      "outputs": [
        {
          "internalType": "uint256",
          "name": "",
          "type": "uint256"
        }
      ],
      "stateMutability": "view",
      "type": "function"
    },
    {
      "inputs": [],
      "name": "getValidatorCount",
      "outputs": [
        {
          "internalType": "uint256",
          "name": "",
          "type": "uint256"
        }
      ],
      "stateMutability": "view",
      "type": "function"
    },
    {
      "inputs": [
        {
          "internalType": "address",
          "name": "spender",
          "type": "address"
        },
        {
          "internalType": "uint256",
          "name": "addedValue",
          "type": "uint256"
        }
      ],
      "name": "increaseAllowance",
      "outputs": [
        {
          "internalType": "bool",
          "name": "",
          "type": "bool"
        }
      ],
      "stateMutability": "nonpayable",
      "type": "function"
    },
    {
      "inputs": [],
      "name": "initialize",
      "outputs": [],
      "stateMutability": "nonpayable",
      "type": "function"
    },
    {
      "inputs": [
        {
          "internalType": "address",
          "name": "validatorAddr",
          "type": "address"
        }
      ],
      "name": "isLocked",
      "outputs": [
        {
          "internalType": "bool",
          "name": "",
          "type": "bool"
        }
      ],
      "stateMutability": "view",
      "type": "function"
    },
    {
      "inputs": [],
      "name": "jobCounter",
      "outputs": [
        {
          "internalType": "uint256",
          "name": "",
          "type": "uint256"
        }
      ],
      "stateMutability": "view",
      "type": "function"
    },
    {
      "inputs": [
        {
          "internalType": "uint256",
          "name": "",
          "type": "uint256"
        }
      ],
      "name": "jobs",
      "outputs": [
        {
          "internalType": "uint256",
          "name": "id",
          "type": "uint256"
        },
        {
          "internalType": "address",
          "name": "author",
          "type": "address"
        },
        {
          "internalType": "bool",
          "name": "activity",
          "type": "bool"
        }
      ],
      "stateMutability": "view",
      "type": "function"
    },
    {
      "inputs": [],
      "name": "lockAmount",
      "outputs": [
        {
          "internalType": "uint256",
          "name": "",
          "type": "uint256"
        }
      ],
      "stateMutability": "view",
      "type": "function"
    },
    {
      "inputs": [
        {
          "internalType": "uint32",
          "name": "amount",
          "type": "uint32"
        }
      ],
      "name": "lockTokens",
      "outputs": [],
      "stateMutability": "nonpayable",
      "type": "function"
    },
    {
      "inputs": [],
      "name": "maxValidators",
      "outputs": [
        {
          "internalType": "uint256",
          "name": "",
          "type": "uint256"
        }
      ],
      "stateMutability": "view",
      "type": "function"
    },
    {
      "inputs": [],
      "name": "minValidators",
      "outputs": [
        {
          "internalType": "uint256",
          "name": "",
          "type": "uint256"
        }
      ],
      "stateMutability": "view",
      "type": "function"
    },
    {
      "inputs": [
        {
          "internalType": "address",
          "name": "recipient",
          "type": "address"
        },
        {
          "internalType": "uint256",
          "name": "amount",
          "type": "uint256"
        }
      ],
      "name": "mintTokens",
      "outputs": [],
      "stateMutability": "nonpayable",
      "type": "function"
    },
    {
      "inputs": [],
      "name": "name",
      "outputs": [
        {
          "internalType": "string",
          "name": "",
          "type": "string"
        }
      ],
      "stateMutability": "view",
      "type": "function"
    },
    {
      "inputs": [
        {
          "internalType": "uint256[]",
          "name": "_capacities",
          "type": "uint256[]"
        }
      ],
      "name": "requestJob",
      "outputs": [
        {
          "internalType": "uint256[]",
          "name": "validatorIds",
          "type": "uint256[]"
        }
      ],
      "stateMutability": "nonpayable",
      "type": "function"
    },
    {
      "inputs": [
        {
          "internalType": "address",
          "name": "validatorAddress",
          "type": "address"
        }
      ],
      "name": "setValidatorContract",
      "outputs": [],
      "stateMutability": "nonpayable",
      "type": "function"
    },
    {
      "inputs": [],
      "name": "symbol",
      "outputs": [
        {
          "internalType": "string",
          "name": "",
          "type": "string"
        }
      ],
      "stateMutability": "view",
      "type": "function"
    },
    {
      "inputs": [],
      "name": "totalSupply",
      "outputs": [
        {
          "internalType": "uint256",
          "name": "",
          "type": "uint256"
        }
      ],
      "stateMutability": "view",
      "type": "function"
    },
    {
      "inputs": [
        {
          "internalType": "address",
          "name": "to",
          "type": "address"
        },
        {
          "internalType": "uint256",
          "name": "amount",
          "type": "uint256"
        }
      ],
      "name": "transfer",
      "outputs": [
        {
          "internalType": "bool",
          "name": "",
          "type": "bool"
        }
      ],
      "stateMutability": "nonpayable",
      "type": "function"
    },
    {
      "inputs": [
        {
          "internalType": "address",
          "name": "from",
          "type": "address"
        },
        {
          "internalType": "address",
          "name": "to",
          "type": "address"
        },
        {
          "internalType": "uint256",
          "name": "amount",
          "type": "uint256"
        }
      ],
      "name": "transferFrom",
      "outputs": [
        {
          "internalType": "bool",
          "name": "",
          "type": "bool"
        }
      ],
      "stateMutability": "nonpayable",
      "type": "function"
    },
    {
      "inputs": [],
      "name": "unlockPeriod",
      "outputs": [
        {
          "internalType": "uint256",
          "name": "",
          "type": "uint256"
        }
      ],
      "stateMutability": "view",
      "type": "function"
    },
    {
      "inputs": [
        {
          "internalType": "uint32",
          "name": "amount",
          "type": "uint32"
        }
      ],
      "name": "unlockTokens",
      "outputs": [],
      "stateMutability": "nonpayable",
      "type": "function"
    },
    {
      "inputs": [
        {
          "internalType": "address",
          "name": "",
          "type": "address"
        }
      ],
      "name": "userIdByAddress",
      "outputs": [
        {
          "internalType": "uint256",
          "name": "",
          "type": "uint256"
        }
      ],
      "stateMutability": "view",
      "type": "function"
    },
    {
      "inputs": [],
      "name": "userIdCounter",
      "outputs": [
        {
          "internalType": "uint256",
          "name": "",
          "type": "uint256"
        }
      ],
      "stateMutability": "view",
      "type": "function"
    },
    {
      "inputs": [
        {
          "internalType": "uint256",
          "name": "",
          "type": "uint256"
        }
      ],
      "name": "users",
      "outputs": [
        {
          "internalType": "uint256",
          "name": "id",
          "type": "uint256"
        },
        {
          "internalType": "address",
          "name": "userAddress",
          "type": "address"
        },
        {
          "internalType": "bytes32",
          "name": "publicKeyHash",
          "type": "bytes32"
        },
        {
          "internalType": "uint8",
          "name": "reputation",
          "type": "uint8"
        }
      ],
      "stateMutability": "view",
      "type": "function"
    },
    {
      "inputs": [],
      "name": "validatorContractAddress",
      "outputs": [
        {
          "internalType": "address",
          "name": "",
          "type": "address"
        }
      ],
      "stateMutability": "view",
      "type": "function"
    },
    {
      "inputs": [
        {
          "internalType": "address",
          "name": "",
          "type": "address"
        }
      ],
      "name": "validatorIdByAddress",
      "outputs": [
        {
          "internalType": "uint256",
          "name": "",
          "type": "uint256"
        }
      ],
      "stateMutability": "view",
      "type": "function"
    },
    {
      "inputs": [],
      "name": "validatorIdCounter",
      "outputs": [
        {
          "internalType": "uint256",
          "name": "",
          "type": "uint256"
        }
      ],
      "stateMutability": "view",
      "type": "function"
    },
    {
      "inputs": [
        {
          "internalType": "uint256",
          "name": "",
          "type": "uint256"
        }
      ],
      "name": "validators",
      "outputs": [
        {
          "internalType": "uint256",
          "name": "id",
          "type": "uint256"
        },
        {
          "internalType": "address",
          "name": "validatorAddress",
          "type": "address"
        },
        {
          "internalType": "bytes32",
          "name": "publicKeyHash",
          "type": "bytes32"
        },
        {
          "internalType": "uint256",
          "name": "locked",
          "type": "uint256"
        },
        {
          "internalType": "uint256",
          "name": "unlockTime",
          "type": "uint256"
        },
        {
          "internalType": "uint8",
          "name": "reputation",
          "type": "uint8"
        }
      ],
      "stateMutability": "view",
      "type": "function"
    }
  ],
  "bytecode": "60806040526806f05b59d3b2000000606555683635c9adc5dea0000060665561c4e0606755348015602f57600080fd5b506125408061003f6000396000f3fe608060405234801561001057600080fd5b50600436106102955760003560e01c80637071688a11610167578063b5cb15f7116100ce578063d93d9beb11610087578063d93d9beb146106a0578063dd62ed3e146106b3578063ec81560f146106ec578063f0dda65c146106ff578063f325957214610712578063f79621bd1461072557600080fd5b8063b5cb15f714610662578063c0a77da91461066a578063c5ab224114610672578063cdf64a761461067b578063d2d49c4b1461068e578063d8df5dc11461069757600080fd5b80638f029d5e116101205780638f029d5e1461060f57806395d89b411461061857806396afc45014610620578063a457c2d714610629578063a9059cbb1461063c578063abf7bfd81461064f57600080fd5b80637071688a1461059b57806370a08231146105a357806380652c90146105cc5780638129fc1c146105d45780638d12b266146105dc5780638dca9a19146105fc57600080fd5b8063313ce5671161020b57806344c6957b116101c457806344c6957b146104f55780634a4fbeec1461050a5780634b7590881461054a57806350355d761461056a5780636817dd5b146105735780636c9c2faf1461059357600080fd5b8063313ce567146103c457806332cb6b0c146103d357806335aa2e44146103e5578063365b98b21461046d57806337deea70146104da57806339509351146104e257600080fd5b80631f9ca61d1161025d5780631f9ca61d1461035a57806320d3a0b41461036d57806323b872dd1461037657806327764547146103895780632faba6ae146103a95780632ff2e9dc146103b257600080fd5b806306fdde031461029a57806308ac5256146102b8578063095ea7b3146102cf578063180aedf3146102f257806318160ddd14610352575b600080fd5b6102a2610750565b6040516102af9190611e3d565b60405180910390f35b6102c1606f5481565b6040519081526020016102af565b6102e26102dd366004611ea1565b6107e2565b60405190151581526020016102af565b61032d610300366004611ecd565b60736020526000908152604090208054600182015460059092015490916001600160a01b03169060ff1683565b604080519384526001600160a01b0390921660208401521515908201526060016102af565b6035546102c1565b6102c1610368366004611ecd565b6107fc565b6102c160675481565b6102e2610384366004611ee6565b61081d565b6102c1610397366004611f27565b60756020526000908152604090205481565b6102c1606b5481565b6102c16a0422ca8b0a00a42500000081565b604051601281526020016102af565b6102c16a115eec47f6cf7e3500000081565b6104356103f3366004611ecd565b60726020526000908152604090208054600182015460028301546003840154600485015460059095015493946001600160a01b03909316939192909160ff1686565b604080519687526001600160a01b039095166020870152938501929092526060840152608083015260ff1660a082015260c0016102af565b6104af61047b366004611ecd565b607160205260009081526040902080546001820154600283015460039093015491926001600160a01b039091169160ff1684565b604080519485526001600160a01b0390931660208501529183015260ff1660608201526080016102af565b606d546102c1565b6102e26104f0366004611ea1565b610841565b610508610503366004611f4b565b610880565b005b6102e2610518366004611f27565b6001600160a01b0316600090815260756020908152604080832054606654908452607290925290912060030154101590565b6102c1610558366004611f27565b60746020526000908152604090205481565b6102c1606c5481565b610586610581366004611ecd565b610a3f565b6040516102af9190611f71565b6102c1610b42565b606a546102c1565b6102c16105b1366004611f27565b6001600160a01b031660009081526033602052604090205490565b6102c1600281565b610508610bab565b6105ef6105ea366004611fbe565b610d1a565b6040516102af9190612033565b61050861060a366004611ecd565b611105565b6102c1606a5481565b6102a26112d7565b6102c160655481565b6102e2610637366004611ea1565b6112e6565b6102e261064a366004611ea1565b611378565b61050861065d366004611ecd565b611386565b606b546102c1565b6065546102c1565b6102c1606e5481565b610508610689366004611f27565b611480565b6102c1606d5481565b6102c160665481565b6105086106ae366004611ecd565b611505565b6102c16106c136600461206b565b6001600160a01b03918216600090815260346020908152604080832093909416825291909152205490565b6105086106fa366004611f4b565b611578565b61050861070d366004611ea1565b6116d8565b6105ef61072036600461210f565b611756565b606954610738906001600160a01b031681565b6040516001600160a01b0390911681526020016102af565b60606036805461075f906121ba565b80601f016020809104026020016040519081016040528092919081815260200182805461078b906121ba565b80156107d85780601f106107ad576101008083540402835291602001916107d8565b820191906000526020600020905b8154815290600101906020018083116107bb57829003601f168201915b5050505050905090565b6000336107f08185856118b9565b60019150505b92915050565b6070818154811061080c57600080fd5b600091825260209091200154905081565b60003361082b8582856119dd565b610836858585611a6f565b506001949350505050565b3360008181526034602090815260408083206001600160a01b03871684529091528120549091906107f0908290869061087b90879061220a565b6118b9565b336000908152607560209081526040808320548084526072909252909120600381015463ffffffff841611156108fd5760405162461bcd60e51b815260206004820152601e60248201527f416d6f756e742065786365656473206c6f636b65642062616c616e63652e000060448201526064015b60405180910390fd5b60008363ffffffff16116109235760405162461bcd60e51b81526004016108f49061221d565b806004015460000361097e5760675461093c904261220a565b6004820181905560405190815233907f77635f8f13ee1a01d11246347c649817c6ee9fa7620ce4c6adfa2452bfa162b2906020015b60405180910390a2505050565b80600401544210156109d25760405162461bcd60e51b815260206004820152601860248201527f546f6b656e7320617265207374696c6c206c6f636b65642e000000000000000060448201526064016108f4565b8263ffffffff168160030160008282546109ec919061225e565b90915550610a0290503363ffffffff8516611c3d565b60405163ffffffff8416815233907fe7b379c6c1fa169e9079c25e9143b127637eef8ec8c9d5c06ddb4ab3e119588890602001610971565b505050565b6060606c548210610a835760405162461bcd60e51b815260206004820152600e60248201526d125b9d985b1a59081a9bd888125160921b60448201526064016108f4565b600082815260736020526040902054829003610b0957600082815260736020908152604080832060020180548251818502810185019093528083529192909190830182828015610afc57602002820191906000526020600020905b81546001600160a01b03168152600190910190602001808311610ade575b5093979650505050505050565b60405162461bcd60e51b815260206004820152600e60248201526d4a6f62206e6f7420666f756e642160901b60448201526064016108f4565b6000306001600160a01b03166318160ddd6040518163ffffffff1660e01b8152600401602060405180830381865afa158015610b82573d6000803e3d6000fd5b505050506040513d601f19601f82011682018060405250810190610ba69190612271565b905090565b600054610100900460ff16610bc65760005460ff1615610bca565b303b155b610c2d5760405162461bcd60e51b815260206004820152602e60248201527f496e697469616c697a61626c653a20636f6e747261637420697320616c72656160448201526d191e481a5b9a5d1a585b1a5e995960921b60648201526084016108f4565b600054610100900460ff16158015610c4f576000805461ffff19166101011790555b610c966040518060400160405280600a815260200169536d6172746e6f64657360b01b81525060405180604001604052806003815260200162534e4f60e81b815250611d1c565b6001606b819055606c819055606a819055606e556003606f55604080516113888082526202712082019092529060208201620271008036833750508151610ce4926070925060200190611d88565b506806f05b59d3b2000000606555683635c9adc5dea0000060665561c4e06067558015610d17576000805461ff00191690555b50565b33600090815260746020526040812054606091819003610d735760405162461bcd60e51b81526020600482015260146024820152732ab9b2b9103737ba103932b3b4b9ba32b932b21760611b60448201526064016108f4565b600084846000818110610d8857610d8861228a565b9050602002013511610ddc5760405162461bcd60e51b815260206004820152601e60248201527f4361706163697479206d7573742062652067726561746572207a65726f2e000060448201526064016108f4565b6069546001600160a01b0316610e345760405162461bcd60e51b815260206004820152601b60248201527f56616c696461746f7220636f6e7472616374206e6f742073657421000000000060448201526064016108f4565b60685460408051632909069b60e21b815290516000926001600160a01b03169163a4241a6c91600480830192869291908290030181865afa158015610e7d573d6000803e3d6000fd5b505050506040513d6000823e601f3d908101601f19168201604052610ea591908101906122a0565b90506000815167ffffffffffffffff811115610ec357610ec36120a4565b604051908082528060200260200182016040528015610eec578160200160208202803683370190505b50905060005b8251811015610f5f5760756000848381518110610f1157610f1161228a565b60200260200101516001600160a01b03166001600160a01b0316815260200190815260200160002054828281518110610f4c57610f4c61228a565b6020908102919091010152600101610ef2565b506040805160c081018252606c548152336020820152908101839052606081018667ffffffffffffffff811115610f9857610f986120a4565b604051908082528060200260200182016040528015610fc1578160200160208202803683370190505b5081526020018787808060200260200160405190810160405280939291908181526020018383602002808284376000920182905250938552505060016020938401819052606c54835260738452604092839020855181558585015191810180546001600160a01b0319166001600160a01b0390931692909217909155918401518051929361105793600286019350910190611dd3565b5060608201518051611073916003840191602090910190611dd3565b506080820151805161108f916004840191602090910190611d88565b5060a091909101516005909101805460ff1916911515919091179055606c546040517f3c015d1005da8bb61e99936222d4a8a0c3c5b6643f9daa5eae3ef07b7fb67647906110de908590611f71565b60405180910390a2606c80549060006110f68361233a565b90915550909695505050505050565b33600090815260756020526040902054156111625760405162461bcd60e51b815260206004820152601960248201527f56616c696461746f7220616c7265616479206578697374732e0000000000000060448201526064016108f4565b6066543360009081526033602052604090205410156111c35760405162461bcd60e51b815260206004820152601b60248201527f496e73756666696369656e7420746f6b656e2062616c616e63652e000000000060448201526064016108f4565b60006111d2333060665461081d565b9050806112195760405162461bcd60e51b8152602060048201526015602482015274151bdad95b881d1c985b9cd9995c8819985a5b1959605a1b60448201526064016108f4565b6040805160c081018252606a805480835233602080850182815285870189815260665460608801908152600060808901818152603260a08b01908152978252607286528a822099518a55935160018a0180546001600160a01b0319166001600160a01b03909216919091179055915160028901555160038801559051600487015592516005909501805460ff191660ff909616959095179094558254908252607590935292832082905590916112ce8361233a565b91905055505050565b60606037805461075f906121ba565b3360008181526034602090815260408083206001600160a01b03871684529091528120549091908381101561136b5760405162461bcd60e51b815260206004820152602560248201527f45524332303a2064656372656173656420616c6c6f77616e63652062656c6f77604482015264207a65726f60d81b60648201526084016108f4565b61083682868684036118b9565b6000336107f0818585611a6f565b33600090815260746020526040902054156113e35760405162461bcd60e51b815260206004820152601860248201527f5573657220616c726561647920726567697374657265642e000000000000000060448201526064016108f4565b60408051608081018252606b80548083523360208085018281528587018881526032606088019081526000958652607184528886209751885591516001880180546001600160a01b0319166001600160a01b03909216919091179055516002870155516003909501805460ff191660ff909616959095179094558254908252607490935292832082905590916114788361233a565b919050555050565b6069546001600160a01b0316156114d95760405162461bcd60e51b815260206004820152601e60248201527f56616c696461746f72206164647265737320616c7265616479207365742e000060448201526064016108f4565b606880546001600160a01b039092166001600160a01b0319928316811790915560698054909216179055565b6069546001600160a01b0316331461152f5760405162461bcd60e51b81526004016108f490612353565b60008181526073602052604080822060058101805460ff191690559051909183917fb1dee78cef8c6887046d91c59e17f84fbc012c9f7efa49a10cce97e13cc94bf49190a25050565b60008163ffffffff161161159e5760405162461bcd60e51b81526004016108f49061221d565b3360009081526033602052604090205463ffffffff821611156115fb5760405162461bcd60e51b815260206004820152601560248201527424b739bab33334b1b4b2b73a103130b630b731b29760591b60448201526064016108f4565b336000908152607560205260408120549081900361165b5760405162461bcd60e51b815260206004820152601960248201527f56616c696461746f7220646f6573206e6f742065786973742e0000000000000060448201526064016108f4565b61166c33308463ffffffff1661081d565b506000818152607260205260408120600301805463ffffffff8516929061169490849061220a565b909155505060405163ffffffff8316815233907fac87f20a77d28ee8bbb58ec87ea8fa968b3393efae1a368fd50b767c2847391c9060200160405180910390a25050565b6a115eec47f6cf7e350000006065546116f060355490565b6116fa919061220a565b11156117485760405162461bcd60e51b815260206004820152601760248201527f4d6178696d756d20737570706c7920726561636865642100000000000000000060448201526064016108f4565b6117528282611c3d565b5050565b6069546060906001600160a01b031633146117835760405162461bcd60e51b81526004016108f490612353565b6000838152607360205260409020600401548251146117a157600080fd5b600083815260736020908152604090912083516117c692600390920191850190611dd3565b5060405183907f02244c8529cb95e213ee542e76e7776342b3dabd10203d01472bbf4441be892990600090a26070546113881161182557607080548061180e5761180e612399565b600190038181906000526020600020016000905590555b60708054600181019091557f8f6b23ffa15f0465e3176e15ca644cf24f86dc1312fe715484e3c4aead5eb78b01839055600083815260736020908152604091829020600401805483518184028101840190945280845290918301828280156118ac57602002820191906000526020600020905b815481526020019060010190808311611898575b5050505050905092915050565b6001600160a01b03831661191b5760405162461bcd60e51b8152602060048201526024808201527f45524332303a20617070726f76652066726f6d20746865207a65726f206164646044820152637265737360e01b60648201526084016108f4565b6001600160a01b03821661197c5760405162461bcd60e51b815260206004820152602260248201527f45524332303a20617070726f766520746f20746865207a65726f206164647265604482015261737360f01b60648201526084016108f4565b6001600160a01b0383811660008181526034602090815260408083209487168084529482529182902085905590518481527f8c5be1e5ebec7d5bd14f71427d1e84f3dd0314c0f7b2291e5b200ac8c7c3b925910160405180910390a3505050565b6001600160a01b038381166000908152603460209081526040808320938616835292905220546000198114611a695781811015611a5c5760405162461bcd60e51b815260206004820152601d60248201527f45524332303a20696e73756666696369656e7420616c6c6f77616e636500000060448201526064016108f4565b611a6984848484036118b9565b50505050565b6001600160a01b038316611ad35760405162461bcd60e51b815260206004820152602560248201527f45524332303a207472616e736665722066726f6d20746865207a65726f206164604482015264647265737360d81b60648201526084016108f4565b6001600160a01b038216611b355760405162461bcd60e51b815260206004820152602360248201527f45524332303a207472616e7366657220746f20746865207a65726f206164647260448201526265737360e81b60648201526084016108f4565b6001600160a01b03831660009081526033602052604090205481811015611bad5760405162461bcd60e51b815260206004820152602660248201527f45524332303a207472616e7366657220616d6f756e7420657863656564732062604482015265616c616e636560d01b60648201526084016108f4565b6001600160a01b03808516600090815260336020526040808220858503905591851681529081208054849290611be490849061220a565b92505081905550826001600160a01b0316846001600160a01b03167fddf252ad1be2c89b69c2b068fc378daa952ba7f163c4a11628f55a4df523b3ef84604051611c3091815260200190565b60405180910390a3611a69565b6001600160a01b038216611c935760405162461bcd60e51b815260206004820152601f60248201527f45524332303a206d696e7420746f20746865207a65726f20616464726573730060448201526064016108f4565b8060356000828254611ca5919061220a565b90915550506001600160a01b03821660009081526033602052604081208054839290611cd290849061220a565b90915550506040518181526001600160a01b038316906000907fddf252ad1be2c89b69c2b068fc378daa952ba7f163c4a11628f55a4df523b3ef9060200160405180910390a35050565b600054610100900460ff16611d435760405162461bcd60e51b81526004016108f4906123af565b6117528282600054610100900460ff16611d6f5760405162461bcd60e51b81526004016108f4906123af565b6036611d7b838261244a565b506037610a3a828261244a565b828054828255906000526020600020908101928215611dc3579160200282015b82811115611dc3578251825591602001919060010190611da8565b50611dcf929150611e28565b5090565b828054828255906000526020600020908101928215611dc3579160200282015b82811115611dc357825182546001600160a01b0319166001600160a01b03909116178255602090920191600190910190611df3565b5b80821115611dcf5760008155600101611e29565b60006020808352835180602085015260005b81811015611e6b57858101830151858201604001528201611e4f565b506000604082860101526040601f19601f8301168501019250505092915050565b6001600160a01b0381168114610d1757600080fd5b60008060408385031215611eb457600080fd5b8235611ebf81611e8c565b946020939093013593505050565b600060208284031215611edf57600080fd5b5035919050565b600080600060608486031215611efb57600080fd5b8335611f0681611e8c565b92506020840135611f1681611e8c565b929592945050506040919091013590565b600060208284031215611f3957600080fd5b8135611f4481611e8c565b9392505050565b600060208284031215611f5d57600080fd5b813563ffffffff81168114611f4457600080fd5b6020808252825182820181905260009190848201906040850190845b81811015611fb25783516001600160a01b031683529284019291840191600101611f8d565b50909695505050505050565b60008060208385031215611fd157600080fd5b823567ffffffffffffffff80821115611fe957600080fd5b818501915085601f830112611ffd57600080fd5b81358181111561200c57600080fd5b8660208260051b850101111561202157600080fd5b60209290920196919550909350505050565b6020808252825182820181905260009190848201906040850190845b81811015611fb25783518352928401929184019160010161204f565b6000806040838503121561207e57600080fd5b823561208981611e8c565b9150602083013561209981611e8c565b809150509250929050565b634e487b7160e01b600052604160045260246000fd5b604051601f8201601f1916810167ffffffffffffffff811182821017156120e3576120e36120a4565b604052919050565b600067ffffffffffffffff821115612105576121056120a4565b5060051b60200190565b6000806040838503121561212257600080fd5b8235915060208084013567ffffffffffffffff81111561214157600080fd5b8401601f8101861361215257600080fd5b8035612165612160826120eb565b6120ba565b81815260059190911b8201830190838101908883111561218457600080fd5b928401925b828410156121ab57833561219c81611e8c565b82529284019290840190612189565b80955050505050509250929050565b600181811c908216806121ce57607f821691505b6020821081036121ee57634e487b7160e01b600052602260045260246000fd5b50919050565b634e487b7160e01b600052601160045260246000fd5b808201808211156107f6576107f66121f4565b60208082526021908201527f416d6f756e74206d7573742062652067726561746572207468616e207a65726f6040820152601760f91b606082015260800190565b818103818111156107f6576107f66121f4565b60006020828403121561228357600080fd5b5051919050565b634e487b7160e01b600052603260045260246000fd5b600060208083850312156122b357600080fd5b825167ffffffffffffffff8111156122ca57600080fd5b8301601f810185136122db57600080fd5b80516122e9612160826120eb565b81815260059190911b8201830190838101908783111561230857600080fd5b928401925b8284101561232f57835161232081611e8c565b8252928401929084019061230d565b979650505050505050565b60006001820161234c5761234c6121f4565b5060010190565b60208082526026908201527f43616c6c6572206d7573742062652074686520536d6172746e6f6465734d756c6040820152653a34a9b4b39760d11b606082015260800190565b634e487b7160e01b600052603160045260246000fd5b6020808252602b908201527f496e697469616c697a61626c653a20636f6e7472616374206973206e6f74206960408201526a6e697469616c697a696e6760a81b606082015260800190565b601f821115610a3a576000816000526020600020601f850160051c810160208610156124235750805b601f850160051c820191505b818110156124425782815560010161242f565b505050505050565b815167ffffffffffffffff811115612464576124646120a4565b6124788161247284546121ba565b846123fa565b602080601f8311600181146124ad57600084156124955750858301515b600019600386901b1c1916600185901b178555612442565b600085815260208120601f198616915b828110156124dc578886015182559484019460019091019084016124bd565b50858210156124fa5787850151600019600388901b60f8161c191681555b5050505050600190811b0190555056fea26469706673582212207b83946a5c19e5edd8abee22b1c310709df15bb8f24fe0bc8c491180b2eef30764736f6c63430008190033",
  "bytecodeSha1": "e76a0e543e99735f4680aeecec1b93888860b861",
  "compiler": {
    "evm_version": "istanbul",
    "optimizer": {
      "enabled": true,
      "runs": 200
    },
    "version": "0.8.25+commit.b61c2a91"
  },
  "contractName": "SmartnodesCore",
  "language": "Solidity",
  "natspec": {
    "details": "An ERC20 contract for managing off-chain networks",
    "kind": "dev",
    "methods": {
      "allowance(address,address)": {
        "details": "See {IERC20-allowance}."
      },
      "approve(address,uint256)": {
        "details": "See {IERC20-approve}. NOTE: If `amount` is the maximum `uint256`, the allowance is not updated on `transferFrom`. This is semantically equivalent to an infinite approval. Requirements: - `spender` cannot be the zero address."
      },
      "balanceOf(address)": {
        "details": "See {IERC20-balanceOf}."
      },
      "createUser(bytes32)": {
        "details": "Create a User, limit one per address & public key hash (RSA)"
      },
      "createValidator(bytes32)": {
        "details": "Create a Validator, limit one per address & public key hash (RSA), requires locking up sno"
      },
      "decimals()": {
        "details": "Returns the number of decimals used to get its user representation. For example, if `decimals` equals `2`, a balance of `505` tokens should be displayed to a user as `5.05` (`505 / 10 ** 2`). Tokens usually opt for a value of 18, imitating the relationship between Ether and Wei. This is the value {ERC20} uses, unless this function is overridden; NOTE: This information is only used for _display_ purposes: it in no way affects any of the arithmetic of the contract, including {IERC20-balanceOf} and {IERC20-transfer}."
      },
      "decreaseAllowance(address,uint256)": {
        "details": "Atomically decreases the allowance granted to `spender` by the caller. This is an alternative to {approve} that can be used as a mitigation for problems described in {IERC20-approve}. Emits an {Approval} event indicating the updated allowance. Requirements: - `spender` cannot be the zero address. - `spender` must have allowance for the caller of at least `subtractedValue`."
      },
      "increaseAllowance(address,uint256)": {
        "details": "Atomically increases the allowance granted to `spender` by the caller. This is an alternative to {approve} that can be used as a mitigation for problems described in {IERC20-approve}. Emits an {Approval} event indicating the updated allowance. Requirements: - `spender` cannot be the zero address."
      },
      "lockTokens(uint32)": {
        "details": "Validator token unlocking, 30 day withdrawal period."
      },
      "mintTokens(address,uint256)": {
        "details": "Mint tokens for updating state rewards, TODO change to internal (external for testing)"
      },
      "name()": {
        "details": "Returns the name of the token."
      },
      "symbol()": {
        "details": "Returns the symbol of the token, usually a shorter version of the name."
      },
      "totalSupply()": {
        "details": "See {IERC20-totalSupply}."
      },
      "transfer(address,uint256)": {
        "details": "See {IERC20-transfer}. Requirements: - `to` cannot be the zero address. - the caller must have a balance of at least `amount`."
      },
      "transferFrom(address,address,uint256)": {
        "details": "See {IERC20-transferFrom}. Emits an {Approval} event indicating the updated allowance. This is not required by the EIP. See the note at the beginning of {ERC20}. NOTE: Does not update the allowance if the current allowance is the maximum `uint256`. Requirements: - `from` and `to` cannot be the zero address. - `from` must have a balance of at least `amount`. - the caller must have allowance for ``from``'s tokens of at least `amount`."
      }
    },
    "title": "SmartNodes",
    "version": 1
  },
  "opcodes": "PUSH1 0x80 PUSH1 0x40 MSTORE CALLVALUE DUP1 ISZERO PUSH2 0x10 JUMPI PUSH1 0x0 DUP1 REVERT JUMPDEST POP PUSH1 0x4 CALLDATASIZE LT PUSH2 0x295 JUMPI PUSH1 0x0 CALLDATALOAD PUSH1 0xE0 SHR DUP1 PUSH4 0x7071688A GT PUSH2 0x167 JUMPI DUP1 PUSH4 0xB5CB15F7 GT PUSH2 0xCE JUMPI DUP1 PUSH4 0xD93D9BEB GT PUSH2 0x87 JUMPI DUP1 PUSH4 0xD93D9BEB EQ PUSH2 0x6A0 JUMPI DUP1 PUSH4 0xDD62ED3E EQ PUSH2 0x6B3 JUMPI DUP1 PUSH4 0xEC81560F EQ PUSH2 0x6EC JUMPI DUP1 PUSH4 0xF0DDA65C EQ PUSH2 0x6FF JUMPI DUP1 PUSH4 0xF3259572 EQ PUSH2 0x712 JUMPI DUP1 PUSH4 0xF79621BD EQ PUSH2 0x725 JUMPI PUSH1 0x0 DUP1 REVERT JUMPDEST DUP1 PUSH4 0xB5CB15F7 EQ PUSH2 0x662 JUMPI DUP1 PUSH4 0xC0A77DA9 EQ PUSH2 0x66A JUMPI DUP1 PUSH4 0xC5AB2241 EQ PUSH2 0x672 JUMPI DUP1 PUSH4 0xCDF64A76 EQ PUSH2 0x67B JUMPI DUP1 PUSH4 0xD2D49C4B EQ PUSH2 0x68E JUMPI DUP1 PUSH4 0xD8DF5DC1 EQ PUSH2 0x697 JUMPI PUSH1 0x0 DUP1 REVERT JUMPDEST DUP1 PUSH4 0x8F029D5E GT PUSH2 0x120 JUMPI DUP1 PUSH4 0x8F029D5E EQ PUSH2 0x60F JUMPI DUP1 PUSH4 0x95D89B41 EQ PUSH2 0x618 JUMPI DUP1 PUSH4 0x96AFC450 EQ PUSH2 0x620 JUMPI DUP1 PUSH4 0xA457C2D7 EQ PUSH2 0x629 JUMPI DUP1 PUSH4 0xA9059CBB EQ PUSH2 0x63C JUMPI DUP1 PUSH4 0xABF7BFD8 EQ PUSH2 0x64F JUMPI PUSH1 0x0 DUP1 REVERT JUMPDEST DUP1 PUSH4 0x7071688A EQ PUSH2 0x59B JUMPI DUP1 PUSH4 0x70A08231 EQ PUSH2 0x5A3 JUMPI DUP1 PUSH4 0x80652C90 EQ PUSH2 0x5CC JUMPI DUP1 PUSH4 0x8129FC1C EQ PUSH2 0x5D4 JUMPI DUP1 PUSH4 0x8D12B266 EQ PUSH2 0x5DC JUMPI DUP1 PUSH4 0x8DCA9A19 EQ PUSH2 0x5FC JUMPI PUSH1 0x0 DUP1 REVERT JUMPDEST DUP1 PUSH4 0x313CE567 GT PUSH2 0x20B JUMPI DUP1 PUSH4 0x44C6957B GT PUSH2 0x1C4 JUMPI DUP1 PUSH4 0x44C6957B EQ PUSH2 0x4F5 JUMPI DUP1 PUSH4 0x4A4FBEEC EQ PUSH2 0x50A JUMPI DUP1 PUSH4 0x4B759088 EQ PUSH2 0x54A JUMPI DUP1 PUSH4 0x50355D76 EQ PUSH2 0x56A JUMPI DUP1 PUSH4 0x6817DD5B EQ PUSH2 0x573 JUMPI DUP1 PUSH4 0x6C9C2FAF EQ PUSH2 0x593 JUMPI PUSH1 0x0 DUP1 REVERT JUMPDEST DUP1 PUSH4 0x313CE567 EQ PUSH2 0x3C4 JUMPI DUP1 PUSH4 0x32CB6B0C EQ PUSH2 0x3D3 JUMPI DUP1 PUSH4 0x35AA2E44 EQ PUSH2 0x3E5 JUMPI DUP1 PUSH4 0x365B98B2 EQ PUSH2 0x46D JUMPI DUP1 PUSH4 0x37DEEA70 EQ PUSH2 0x4DA JUMPI DUP1 PUSH4 0x39509351 EQ PUSH2 0x4E2 JUMPI PUSH1 0x0 DUP1 REVERT JUMPDEST DUP1 PUSH4 0x1F9CA61D GT PUSH2 0x25D JUMPI DUP1 PUSH4 0x1F9CA61D EQ PUSH2 0x35A JUMPI DUP1 PUSH4 0x20D3A0B4 EQ PUSH2 0x36D JUMPI DUP1 PUSH4 0x23B872DD EQ PUSH2 0x376 JUMPI DUP1 PUSH4 0x27764547 EQ PUSH2 0x389 JUMPI DUP1 PUSH4 0x2FABA6AE EQ PUSH2 0x3A9 JUMPI DUP1 PUSH4 0x2FF2E9DC EQ PUSH2 0x3B2 JUMPI PUSH1 0x0 DUP1 REVERT JUMPDEST DUP1 PUSH4 0x6FDDE03 EQ PUSH2 0x29A JUMPI DUP1 PUSH4 0x8AC5256 EQ PUSH2 0x2B8 JUMPI DUP1 PUSH4 0x95EA7B3 EQ PUSH2 0x2CF JUMPI DUP1 PUSH4 0x180AEDF3 EQ PUSH2 0x2F2 JUMPI DUP1 PUSH4 0x18160DDD EQ PUSH2 0x352 JUMPI JUMPDEST PUSH1 0x0 DUP1 REVERT JUMPDEST PUSH2 0x2A2 PUSH2 0x750 JUMP JUMPDEST PUSH1 0x40 MLOAD PUSH2 0x2AF SWAP2 SWAP1 PUSH2 0x1E3D JUMP JUMPDEST PUSH1 0x40 MLOAD DUP1 SWAP2 SUB SWAP1 RETURN JUMPDEST PUSH2 0x2C1 PUSH1 0x6F SLOAD DUP2 JUMP JUMPDEST PUSH1 0x40 MLOAD SWAP1 DUP2 MSTORE PUSH1 0x20 ADD PUSH2 0x2AF JUMP JUMPDEST PUSH2 0x2E2 PUSH2 0x2DD CALLDATASIZE PUSH1 0x4 PUSH2 0x1EA1 JUMP JUMPDEST PUSH2 0x7E2 JUMP JUMPDEST PUSH1 0x40 MLOAD SWAP1 ISZERO ISZERO DUP2 MSTORE PUSH1 0x20 ADD PUSH2 0x2AF JUMP JUMPDEST PUSH2 0x32D PUSH2 0x300 CALLDATASIZE PUSH1 0x4 PUSH2 0x1ECD JUMP JUMPDEST PUSH1 0x73 PUSH1 0x20 MSTORE PUSH1 0x0 SWAP1 DUP2 MSTORE PUSH1 0x40 SWAP1 KECCAK256 DUP1 SLOAD PUSH1 0x1 DUP3 ADD SLOAD PUSH1 0x5 SWAP1 SWAP3 ADD SLOAD SWAP1 SWAP2 PUSH1 0x1 PUSH1 0x1 PUSH1 0xA0 SHL SUB AND SWAP1 PUSH1 0xFF AND DUP4 JUMP JUMPDEST PUSH1 0x40 DUP1 MLOAD SWAP4 DUP5 MSTORE PUSH1 0x1 PUSH1 0x1 PUSH1 0xA0 SHL SUB SWAP1 SWAP3 AND PUSH1 0x20 DUP5 ADD MSTORE ISZERO ISZERO SWAP1 DUP3 ADD MSTORE PUSH1 0x60 ADD PUSH2 0x2AF JUMP JUMPDEST PUSH1 0x35 SLOAD PUSH2 0x2C1 JUMP JUMPDEST PUSH2 0x2C1 PUSH2 0x368 CALLDATASIZE PUSH1 0x4 PUSH2 0x1ECD JUMP JUMPDEST PUSH2 0x7FC JUMP JUMPDEST PUSH2 0x2C1 PUSH1 0x67 SLOAD DUP2 JUMP JUMPDEST PUSH2 0x2E2 PUSH2 0x384 CALLDATASIZE PUSH1 0x4 PUSH2 0x1EE6 JUMP JUMPDEST PUSH2 0x81D JUMP JUMPDEST PUSH2 0x2C1 PUSH2 0x397 CALLDATASIZE PUSH1 0x4 PUSH2 0x1F27 JUMP JUMPDEST PUSH1 0x75 PUSH1 0x20 MSTORE PUSH1 0x0 SWAP1 DUP2 MSTORE PUSH1 0x40 SWAP1 KECCAK256 SLOAD DUP2 JUMP JUMPDEST PUSH2 0x2C1 PUSH1 0x6B SLOAD DUP2 JUMP JUMPDEST PUSH2 0x2C1 PUSH11 0x422CA8B0A00A425000000 DUP2 JUMP JUMPDEST PUSH1 0x40 MLOAD PUSH1 0x12 DUP2 MSTORE PUSH1 0x20 ADD PUSH2 0x2AF JUMP JUMPDEST PUSH2 0x2C1 PUSH11 0x115EEC47F6CF7E35000000 DUP2 JUMP JUMPDEST PUSH2 0x435 PUSH2 0x3F3 CALLDATASIZE PUSH1 0x4 PUSH2 0x1ECD JUMP JUMPDEST PUSH1 0x72 PUSH1 0x20 MSTORE PUSH1 0x0 SWAP1 DUP2 MSTORE PUSH1 0x40 SWAP1 KECCAK256 DUP1 SLOAD PUSH1 0x1 DUP3 ADD SLOAD PUSH1 0x2 DUP4 ADD SLOAD PUSH1 0x3 DUP5 ADD SLOAD PUSH1 0x4 DUP6 ADD SLOAD PUSH1 0x5 SWAP1 SWAP6 ADD SLOAD SWAP4 SWAP5 PUSH1 0x1 PUSH1 0x1 PUSH1 0xA0 SHL SUB SWAP1 SWAP4 AND SWAP4 SWAP2 SWAP3 SWAP1 SWAP2 PUSH1 0xFF AND DUP7 JUMP JUMPDEST PUSH1 0x40 DUP1 MLOAD SWAP7 DUP8 MSTORE PUSH1 0x1 PUSH1 0x1 PUSH1 0xA0 SHL SUB SWAP1 SWAP6 AND PUSH1 0x20 DUP8 ADD MSTORE SWAP4 DUP6 ADD SWAP3 SWAP1 SWAP3 MSTORE PUSH1 0x60 DUP5 ADD MSTORE PUSH1 0x80 DUP4 ADD MSTORE PUSH1 0xFF AND PUSH1 0xA0 DUP3 ADD MSTORE PUSH1 0xC0 ADD PUSH2 0x2AF JUMP JUMPDEST PUSH2 0x4AF PUSH2 0x47B CALLDATASIZE PUSH1 0x4 PUSH2 0x1ECD JUMP JUMPDEST PUSH1 0x71 PUSH1 0x20 MSTORE PUSH1 0x0 SWAP1 DUP2 MSTORE PUSH1 0x40 SWAP1 KECCAK256 DUP1 SLOAD PUSH1 0x1 DUP3 ADD SLOAD PUSH1 0x2 DUP4 ADD SLOAD PUSH1 0x3 SWAP1 SWAP4 ADD SLOAD SWAP2 SWAP3 PUSH1 0x1 PUSH1 0x1 PUSH1 0xA0 SHL SUB SWAP1 SWAP2 AND SWAP2 PUSH1 0xFF AND DUP5 JUMP JUMPDEST PUSH1 0x40 DUP1 MLOAD SWAP5 DUP6 MSTORE PUSH1 0x1 PUSH1 0x1 PUSH1 0xA0 SHL SUB SWAP1 SWAP4 AND PUSH1 0x20 DUP6 ADD MSTORE SWAP2 DUP4 ADD MSTORE PUSH1 0xFF AND PUSH1 0x60 DUP3 ADD MSTORE PUSH1 0x80 ADD PUSH2 0x2AF JUMP JUMPDEST PUSH1 0x6D SLOAD PUSH2 0x2C1 JUMP JUMPDEST PUSH2 0x2E2 PUSH2 0x4F0 CALLDATASIZE PUSH1 0x4 PUSH2 0x1EA1 JUMP JUMPDEST PUSH2 0x841 JUMP JUMPDEST PUSH2 0x508 PUSH2 0x503 CALLDATASIZE PUSH1 0x4 PUSH2 0x1F4B JUMP JUMPDEST PUSH2 0x880 JUMP JUMPDEST STOP JUMPDEST PUSH2 0x2E2 PUSH2 0x518 CALLDATASIZE PUSH1 0x4 PUSH2 0x1F27 JUMP JUMPDEST PUSH1 0x1 PUSH1 0x1 PUSH1 0xA0 SHL SUB AND PUSH1 0x0 SWAP1 DUP2 MSTORE PUSH1 0x75 PUSH1 0x20 SWAP1 DUP2 MSTORE PUSH1 0x40 DUP1 DUP4 KECCAK256 SLOAD PUSH1 0x66 SLOAD SWAP1 DUP5 MSTORE PUSH1 0x72 SWAP1 SWAP3 MSTORE SWAP1 SWAP2 KECCAK256 PUSH1 0x3 ADD SLOAD LT ISZERO SWAP1 JUMP JUMPDEST PUSH2 0x2C1 PUSH2 0x558 CALLDATASIZE PUSH1 0x4 PUSH2 0x1F27 JUMP JUMPDEST PUSH1 0x74 PUSH1 0x20 MSTORE PUSH1 0x0 SWAP1 DUP2 MSTORE PUSH1 0x40 SWAP1 KECCAK256 SLOAD DUP2 JUMP JUMPDEST PUSH2 0x2C1 PUSH1 0x6C SLOAD DUP2 JUMP JUMPDEST PUSH2 0x586 PUSH2 0x581 CALLDATASIZE PUSH1 0x4 PUSH2 0x1ECD JUMP JUMPDEST PUSH2 0xA3F JUMP JUMPDEST PUSH1 0x40 MLOAD PUSH2 0x2AF SWAP2 SWAP1 PUSH2 0x1F71 JUMP JUMPDEST PUSH2 0x2C1 PUSH2 0xB42 JUMP JUMPDEST PUSH1 0x6A SLOAD PUSH2 0x2C1 JUMP JUMPDEST PUSH2 0x2C1 PUSH2 0x5B1 CALLDATASIZE PUSH1 0x4 PUSH2 0x1F27 JUMP JUMPDEST PUSH1 0x1 PUSH1 0x1 PUSH1 0xA0 SHL SUB AND PUSH1 0x0 SWAP1 DUP2 MSTORE PUSH1 0x33 PUSH1 0x20 MSTORE PUSH1 0x40 SWAP1 KECCAK256 SLOAD SWAP1 JUMP JUMPDEST PUSH2 0x2C1 PUSH1 0x2 DUP2 JUMP JUMPDEST PUSH2 0x508 PUSH2 0xBAB JUMP JUMPDEST PUSH2 0x5EF PUSH2 0x5EA CALLDATASIZE PUSH1 0x4 PUSH2 0x1FBE JUMP JUMPDEST PUSH2 0xD1A JUMP JUMPDEST PUSH1 0x40 MLOAD PUSH2 0x2AF SWAP2 SWAP1 PUSH2 0x2033 JUMP JUMPDEST PUSH2 0x508 PUSH2 0x60A CALLDATASIZE PUSH1 0x4 PUSH2 0x1ECD JUMP JUMPDEST PUSH2 0x1105 JUMP JUMPDEST PUSH2 0x2C1 PUSH1 0x6A SLOAD DUP2 JUMP JUMPDEST PUSH2 0x2A2 PUSH2 0x12D7 JUMP JUMPDEST PUSH2 0x2C1 PUSH1 0x65 SLOAD DUP2 JUMP JUMPDEST PUSH2 0x2E2 PUSH2 0x637 CALLDATASIZE PUSH1 0x4 PUSH2 0x1EA1 JUMP JUMPDEST PUSH2 0x12E6 JUMP JUMPDEST PUSH2 0x2E2 PUSH2 0x64A CALLDATASIZE PUSH1 0x4 PUSH2 0x1EA1 JUMP JUMPDEST PUSH2 0x1378 JUMP JUMPDEST PUSH2 0x508 PUSH2 0x65D CALLDATASIZE PUSH1 0x4 PUSH2 0x1ECD JUMP JUMPDEST PUSH2 0x1386 JUMP JUMPDEST PUSH1 0x6B SLOAD PUSH2 0x2C1 JUMP JUMPDEST PUSH1 0x65 SLOAD PUSH2 0x2C1 JUMP JUMPDEST PUSH2 0x2C1 PUSH1 0x6E SLOAD DUP2 JUMP JUMPDEST PUSH2 0x508 PUSH2 0x689 CALLDATASIZE PUSH1 0x4 PUSH2 0x1F27 JUMP JUMPDEST PUSH2 0x1480 JUMP JUMPDEST PUSH2 0x2C1 PUSH1 0x6D SLOAD DUP2 JUMP JUMPDEST PUSH2 0x2C1 PUSH1 0x66 SLOAD DUP2 JUMP JUMPDEST PUSH2 0x508 PUSH2 0x6AE CALLDATASIZE PUSH1 0x4 PUSH2 0x1ECD JUMP JUMPDEST PUSH2 0x1505 JUMP JUMPDEST PUSH2 0x2C1 PUSH2 0x6C1 CALLDATASIZE PUSH1 0x4 PUSH2 0x206B JUMP JUMPDEST PUSH1 0x1 PUSH1 0x1 PUSH1 0xA0 SHL SUB SWAP2 DUP3 AND PUSH1 0x0 SWAP1 DUP2 MSTORE PUSH1 0x34 PUSH1 0x20 SWAP1 DUP2 MSTORE PUSH1 0x40 DUP1 DUP4 KECCAK256 SWAP4 SWAP1 SWAP5 AND DUP3 MSTORE SWAP2 SWAP1 SWAP2 MSTORE KECCAK256 SLOAD SWAP1 JUMP JUMPDEST PUSH2 0x508 PUSH2 0x6FA CALLDATASIZE PUSH1 0x4 PUSH2 0x1F4B JUMP JUMPDEST PUSH2 0x1578 JUMP JUMPDEST PUSH2 0x508 PUSH2 0x70D CALLDATASIZE PUSH1 0x4 PUSH2 0x1EA1 JUMP JUMPDEST PUSH2 0x16D8 JUMP JUMPDEST PUSH2 0x5EF PUSH2 0x720 CALLDATASIZE PUSH1 0x4 PUSH2 0x210F JUMP JUMPDEST PUSH2 0x1756 JUMP JUMPDEST PUSH1 0x69 SLOAD PUSH2 0x738 SWAP1 PUSH1 0x1 PUSH1 0x1 PUSH1 0xA0 SHL SUB AND DUP2 JUMP JUMPDEST PUSH1 0x40 MLOAD PUSH1 0x1 PUSH1 0x1 PUSH1 0xA0 SHL SUB SWAP1 SWAP2 AND DUP2 MSTORE PUSH1 0x20 ADD PUSH2 0x2AF JUMP JUMPDEST PUSH1 0x60 PUSH1 0x36 DUP1 SLOAD PUSH2 0x75F SWAP1 PUSH2 0x21BA JUMP JUMPDEST DUP1 PUSH1 0x1F ADD PUSH1 0x20 DUP1 SWAP2 DIV MUL PUSH1 0x20 ADD PUSH1 0x40 MLOAD SWAP1 DUP2 ADD PUSH1 0x40 MSTORE DUP1 SWAP3 SWAP2 SWAP1 DUP2 DUP2 MSTORE PUSH1 0x20 ADD DUP3 DUP1 SLOAD PUSH2 0x78B SWAP1 PUSH2 0x21BA JUMP JUMPDEST DUP1 ISZERO PUSH2 0x7D8 JUMPI DUP1 PUSH1 0x1F LT PUSH2 0x7AD JUMPI PUSH2 0x100 DUP1 DUP4 SLOAD DIV MUL DUP4 MSTORE SWAP2 PUSH1 0x20 ADD SWAP2 PUSH2 0x7D8 JUMP JUMPDEST DUP3 ADD SWAP2 SWAP1 PUSH1 0x0 MSTORE PUSH1 0x20 PUSH1 0x0 KECCAK256 SWAP1 JUMPDEST DUP2 SLOAD DUP2 MSTORE SWAP1 PUSH1 0x1 ADD SWAP1 PUSH1 0x20 ADD DUP1 DUP4 GT PUSH2 0x7BB JUMPI DUP3 SWAP1 SUB PUSH1 0x1F AND DUP3 ADD SWAP2 JUMPDEST POP POP POP POP POP SWAP1 POP SWAP1 JUMP JUMPDEST PUSH1 0x0 CALLER PUSH2 0x7F0 DUP2 DUP6 DUP6 PUSH2 0x18B9 JUMP JUMPDEST PUSH1 0x1 SWAP2 POP POP JUMPDEST SWAP3 SWAP2 POP POP JUMP JUMPDEST PUSH1 0x70 DUP2 DUP2 SLOAD DUP2 LT PUSH2 0x80C JUMPI PUSH1 0x0 DUP1 REVERT JUMPDEST PUSH1 0x0 SWAP2 DUP3 MSTORE PUSH1 0x20 SWAP1 SWAP2 KECCAK256 ADD SLOAD SWAP1 POP DUP2 JUMP JUMPDEST PUSH1 0x0 CALLER PUSH2 0x82B DUP6 DUP3 DUP6 PUSH2 0x19DD JUMP JUMPDEST PUSH2 0x836 DUP6 DUP6 DUP6 PUSH2 0x1A6F JUMP JUMPDEST POP PUSH1 0x1 SWAP5 SWAP4 POP POP POP POP JUMP JUMPDEST CALLER PUSH1 0x0 DUP2 DUP2 MSTORE PUSH1 0x34 PUSH1 0x20 SWAP1 DUP2 MSTORE PUSH1 0x40 DUP1 DUP4 KECCAK256 PUSH1 0x1 PUSH1 0x1 PUSH1 0xA0 SHL SUB DUP8 AND DUP5 MSTORE SWAP1 SWAP2 MSTORE DUP2 KECCAK256 SLOAD SWAP1 SWAP2 SWAP1 PUSH2 0x7F0 SWAP1 DUP3 SWAP1 DUP7 SWAP1 PUSH2 0x87B SWAP1 DUP8 SWAP1 PUSH2 0x220A JUMP JUMPDEST PUSH2 0x18B9 JUMP JUMPDEST CALLER PUSH1 0x0 SWAP1 DUP2 MSTORE PUSH1 0x75 PUSH1 0x20 SWAP1 DUP2 MSTORE PUSH1 0x40 DUP1 DUP4 KECCAK256 SLOAD DUP1 DUP5 MSTORE PUSH1 0x72 SWAP1 SWAP3 MSTORE SWAP1 SWAP2 KECCAK256 PUSH1 0x3 DUP2 ADD SLOAD PUSH4 0xFFFFFFFF DUP5 AND GT ISZERO PUSH2 0x8FD JUMPI PUSH1 0x40 MLOAD PUSH3 0x461BCD PUSH1 0xE5 SHL DUP2 MSTORE PUSH1 0x20 PUSH1 0x4 DUP3 ADD MSTORE PUSH1 0x1E PUSH1 0x24 DUP3 ADD MSTORE PUSH32 0x416D6F756E742065786365656473206C6F636B65642062616C616E63652E0000 PUSH1 0x44 DUP3 ADD MSTORE PUSH1 0x64 ADD JUMPDEST PUSH1 0x40 MLOAD DUP1 SWAP2 SUB SWAP1 REVERT JUMPDEST PUSH1 0x0 DUP4 PUSH4 0xFFFFFFFF AND GT PUSH2 0x923 JUMPI PUSH1 0x40 MLOAD PUSH3 0x461BCD PUSH1 0xE5 SHL DUP2 MSTORE PUSH1 0x4 ADD PUSH2 0x8F4 SWAP1 PUSH2 0x221D JUMP JUMPDEST DUP1 PUSH1 0x4 ADD SLOAD PUSH1 0x0 SUB PUSH2 0x97E JUMPI PUSH1 0x67 SLOAD PUSH2 0x93C SWAP1 TIMESTAMP PUSH2 0x220A JUMP JUMPDEST PUSH1 0x4 DUP3 ADD DUP2 SWAP1 SSTORE PUSH1 0x40 MLOAD SWAP1 DUP2 MSTORE CALLER SWAP1 PUSH32 0x77635F8F13EE1A01D11246347C649817C6EE9FA7620CE4C6ADFA2452BFA162B2 SWAP1 PUSH1 0x20 ADD JUMPDEST PUSH1 0x40 MLOAD DUP1 SWAP2 SUB SWAP1 LOG2 POP POP POP JUMP JUMPDEST DUP1 PUSH1 0x4 ADD SLOAD TIMESTAMP LT ISZERO PUSH2 0x9D2 JUMPI PUSH1 0x40 MLOAD PUSH3 0x461BCD PUSH1 0xE5 SHL DUP2 MSTORE PUSH1 0x20 PUSH1 0x4 DUP3 ADD MSTORE PUSH1 0x18 PUSH1 0x24 DUP3 ADD MSTORE PUSH32 0x546F6B656E7320617265207374696C6C206C6F636B65642E0000000000000000 PUSH1 0x44 DUP3 ADD MSTORE PUSH1 0x64 ADD PUSH2 0x8F4 JUMP JUMPDEST DUP3 PUSH4 0xFFFFFFFF AND DUP2 PUSH1 0x3 ADD PUSH1 0x0 DUP3 DUP3 SLOAD PUSH2 0x9EC SWAP2 SWAP1 PUSH2 0x225E JUMP JUMPDEST SWAP1 SWAP2 SSTORE POP PUSH2 0xA02 SWAP1 POP CALLER PUSH4 0xFFFFFFFF DUP6 AND PUSH2 0x1C3D JUMP JUMPDEST PUSH1 0x40 MLOAD PUSH4 0xFFFFFFFF DUP5 AND DUP2 MSTORE CALLER SWAP1 PUSH32 0xE7B379C6C1FA169E9079C25E9143B127637EEF8EC8C9D5C06DDB4AB3E1195888 SWAP1 PUSH1 0x20 ADD PUSH2 0x971 JUMP JUMPDEST POP POP POP JUMP JUMPDEST PUSH1 0x60 PUSH1 0x6C SLOAD DUP3 LT PUSH2 0xA83 JUMPI PUSH1 0x40 MLOAD PUSH3 0x461BCD PUSH1 0xE5 SHL DUP2 MSTORE PUSH1 0x20 PUSH1 0x4 DUP3 ADD MSTORE PUSH1 0xE PUSH1 0x24 DUP3 ADD MSTORE PUSH14 0x125B9D985B1A59081A9BD8881251 PUSH1 0x92 SHL PUSH1 0x44 DUP3 ADD MSTORE PUSH1 0x64 ADD PUSH2 0x8F4 JUMP JUMPDEST PUSH1 0x0 DUP3 DUP2 MSTORE PUSH1 0x73 PUSH1 0x20 MSTORE PUSH1 0x40 SWAP1 KECCAK256 SLOAD DUP3 SWAP1 SUB PUSH2 0xB09 JUMPI PUSH1 0x0 DUP3 DUP2 MSTORE PUSH1 0x73 PUSH1 0x20 SWAP1 DUP2 MSTORE PUSH1 0x40 DUP1 DUP4 KECCAK256 PUSH1 0x2 ADD DUP1 SLOAD DUP3 MLOAD DUP2 DUP6 MUL DUP2 ADD DUP6 ADD SWAP1 SWAP4 MSTORE DUP1 DUP4 MSTORE SWAP2 SWAP3 SWAP1 SWAP2 SWAP1 DUP4 ADD DUP3 DUP3 DUP1 ISZERO PUSH2 0xAFC JUMPI PUSH1 0x20 MUL DUP3 ADD SWAP2 SWAP1 PUSH1 0x0 MSTORE PUSH1 0x20 PUSH1 0x0 KECCAK256 SWAP1 JUMPDEST DUP2 SLOAD PUSH1 0x1 PUSH1 0x1 PUSH1 0xA0 SHL SUB AND DUP2 MSTORE PUSH1 0x1 SWAP1 SWAP2 ADD SWAP1 PUSH1 0x20 ADD DUP1 DUP4 GT PUSH2 0xADE JUMPI JUMPDEST POP SWAP4 SWAP8 SWAP7 POP POP POP POP POP POP POP JUMP JUMPDEST PUSH1 0x40 MLOAD PUSH3 0x461BCD PUSH1 0xE5 SHL DUP2 MSTORE PUSH1 0x20 PUSH1 0x4 DUP3 ADD MSTORE PUSH1 0xE PUSH1 0x24 DUP3 ADD MSTORE PUSH14 0x4A6F62206E6F7420666F756E6421 PUSH1 0x90 SHL PUSH1 0x44 DUP3 ADD MSTORE PUSH1 0x64 ADD PUSH2 0x8F4 JUMP JUMPDEST PUSH1 0x0 ADDRESS PUSH1 0x1 PUSH1 0x1 PUSH1 0xA0 SHL SUB AND PUSH4 0x18160DDD PUSH1 0x40 MLOAD DUP2 PUSH4 0xFFFFFFFF AND PUSH1 0xE0 SHL DUP2 MSTORE PUSH1 0x4 ADD PUSH1 0x20 PUSH1 0x40 MLOAD DUP1 DUP4 SUB DUP2 DUP7 GAS STATICCALL ISZERO DUP1 ISZERO PUSH2 0xB82 JUMPI RETURNDATASIZE PUSH1 0x0 DUP1 RETURNDATACOPY RETURNDATASIZE PUSH1 0x0 REVERT JUMPDEST POP POP POP POP PUSH1 0x40 MLOAD RETURNDATASIZE PUSH1 0x1F NOT PUSH1 0x1F DUP3 ADD AND DUP3 ADD DUP1 PUSH1 0x40 MSTORE POP DUP2 ADD SWAP1 PUSH2 0xBA6 SWAP2 SWAP1 PUSH2 0x2271 JUMP JUMPDEST SWAP1 POP SWAP1 JUMP JUMPDEST PUSH1 0x0 SLOAD PUSH2 0x100 SWAP1 DIV PUSH1 0xFF AND PUSH2 0xBC6 JUMPI PUSH1 0x0 SLOAD PUSH1 0xFF AND ISZERO PUSH2 0xBCA JUMP JUMPDEST ADDRESS EXTCODESIZE ISZERO JUMPDEST PUSH2 0xC2D JUMPI PUSH1 0x40 MLOAD PUSH3 0x461BCD PUSH1 0xE5 SHL DUP2 MSTORE PUSH1 0x20 PUSH1 0x4 DUP3 ADD MSTORE PUSH1 0x2E PUSH1 0x24 DUP3 ADD MSTORE PUSH32 0x496E697469616C697A61626C653A20636F6E747261637420697320616C726561 PUSH1 0x44 DUP3 ADD MSTORE PUSH14 0x191E481A5B9A5D1A585B1A5E9959 PUSH1 0x92 SHL PUSH1 0x64 DUP3 ADD MSTORE PUSH1 0x84 ADD PUSH2 0x8F4 JUMP JUMPDEST PUSH1 0x0 SLOAD PUSH2 0x100 SWAP1 DIV PUSH1 0xFF AND ISZERO DUP1 ISZERO PUSH2 0xC4F JUMPI PUSH1 0x0 DUP1 SLOAD PUSH2 0xFFFF NOT AND PUSH2 0x101 OR SWAP1 SSTORE JUMPDEST PUSH2 0xC96 PUSH1 0x40 MLOAD DUP1 PUSH1 0x40 ADD PUSH1 0x40 MSTORE DUP1 PUSH1 0xA DUP2 MSTORE PUSH1 0x20 ADD PUSH10 0x536D6172746E6F646573 PUSH1 0xB0 SHL DUP2 MSTORE POP PUSH1 0x40 MLOAD DUP1 PUSH1 0x40 ADD PUSH1 0x40 MSTORE DUP1 PUSH1 0x3 DUP2 MSTORE PUSH1 0x20 ADD PUSH3 0x534E4F PUSH1 0xE8 SHL DUP2 MSTORE POP PUSH2 0x1D1C JUMP JUMPDEST PUSH1 0x1 PUSH1 0x6B DUP2 SWAP1 SSTORE PUSH1 0x6C DUP2 SWAP1 SSTORE PUSH1 0x6A DUP2 SWAP1 SSTORE PUSH1 0x6E SSTORE PUSH1 0x3 PUSH1 0x6F SSTORE PUSH1 0x40 DUP1 MLOAD PUSH2 0x1388 DUP1 DUP3 MSTORE PUSH3 0x27120 DUP3 ADD SWAP1 SWAP3 MSTORE SWAP1 PUSH1 0x20 DUP3 ADD PUSH3 0x27100 DUP1 CALLDATASIZE DUP4 CALLDATACOPY POP POP DUP2 MLOAD PUSH2 0xCE4 SWAP3 PUSH1 0x70 SWAP3 POP PUSH1 0x20 ADD SWAP1 PUSH2 0x1D88 JUMP JUMPDEST POP PUSH9 0x6F05B59D3B2000000 PUSH1 0x65 SSTORE PUSH9 0x3635C9ADC5DEA00000 PUSH1 0x66 SSTORE PUSH2 0xC4E0 PUSH1 0x67 SSTORE DUP1 ISZERO PUSH2 0xD17 JUMPI PUSH1 0x0 DUP1 SLOAD PUSH2 0xFF00 NOT AND SWAP1 SSTORE JUMPDEST POP JUMP JUMPDEST CALLER PUSH1 0x0 SWAP1 DUP2 MSTORE PUSH1 0x74 PUSH1 0x20 MSTORE PUSH1 0x40 DUP2 KECCAK256 SLOAD PUSH1 0x60 SWAP2 DUP2 SWAP1 SUB PUSH2 0xD73 JUMPI PUSH1 0x40 MLOAD PUSH3 0x461BCD PUSH1 0xE5 SHL DUP2 MSTORE PUSH1 0x20 PUSH1 0x4 DUP3 ADD MSTORE PUSH1 0x14 PUSH1 0x24 DUP3 ADD MSTORE PUSH20 0x2AB9B2B9103737BA103932B3B4B9BA32B932B217 PUSH1 0x61 SHL PUSH1 0x44 DUP3 ADD MSTORE PUSH1 0x64 ADD PUSH2 0x8F4 JUMP JUMPDEST PUSH1 0x0 DUP5 DUP5 PUSH1 0x0 DUP2 DUP2 LT PUSH2 0xD88 JUMPI PUSH2 0xD88 PUSH2 0x228A JUMP JUMPDEST SWAP1 POP PUSH1 0x20 MUL ADD CALLDATALOAD GT PUSH2 0xDDC JUMPI PUSH1 0x40 MLOAD PUSH3 0x461BCD PUSH1 0xE5 SHL DUP2 MSTORE PUSH1 0x20 PUSH1 0x4 DUP3 ADD MSTORE PUSH1 0x1E PUSH1 0x24 DUP3 ADD MSTORE PUSH32 0x4361706163697479206D7573742062652067726561746572207A65726F2E0000 PUSH1 0x44 DUP3 ADD MSTORE PUSH1 0x64 ADD PUSH2 0x8F4 JUMP JUMPDEST PUSH1 0x69 SLOAD PUSH1 0x1 PUSH1 0x1 PUSH1 0xA0 SHL SUB AND PUSH2 0xE34 JUMPI PUSH1 0x40 MLOAD PUSH3 0x461BCD PUSH1 0xE5 SHL DUP2 MSTORE PUSH1 0x20 PUSH1 0x4 DUP3 ADD MSTORE PUSH1 0x1B PUSH1 0x24 DUP3 ADD MSTORE PUSH32 0x56616C696461746F7220636F6E7472616374206E6F7420736574210000000000 PUSH1 0x44 DUP3 ADD MSTORE PUSH1 0x64 ADD PUSH2 0x8F4 JUMP JUMPDEST PUSH1 0x68 SLOAD PUSH1 0x40 DUP1 MLOAD PUSH4 0x2909069B PUSH1 0xE2 SHL DUP2 MSTORE SWAP1 MLOAD PUSH1 0x0 SWAP3 PUSH1 0x1 PUSH1 0x1 PUSH1 0xA0 SHL SUB AND SWAP2 PUSH4 0xA4241A6C SWAP2 PUSH1 0x4 DUP1 DUP4 ADD SWAP3 DUP7 SWAP3 SWAP2 SWAP1 DUP3 SWAP1 SUB ADD DUP2 DUP7 GAS STATICCALL ISZERO DUP1 ISZERO PUSH2 0xE7D JUMPI RETURNDATASIZE PUSH1 0x0 DUP1 RETURNDATACOPY RETURNDATASIZE PUSH1 0x0 REVERT JUMPDEST POP POP POP POP PUSH1 0x40 MLOAD RETURNDATASIZE PUSH1 0x0 DUP3 RETURNDATACOPY PUSH1 0x1F RETURNDATASIZE SWAP1 DUP2 ADD PUSH1 0x1F NOT AND DUP3 ADD PUSH1 0x40 MSTORE PUSH2 0xEA5 SWAP2 SWAP1 DUP2 ADD SWAP1 PUSH2 0x22A0 JUMP JUMPDEST SWAP1 POP PUSH1 0x0 DUP2 MLOAD PUSH8 0xFFFFFFFFFFFFFFFF DUP2 GT ISZERO PUSH2 0xEC3 JUMPI PUSH2 0xEC3 PUSH2 0x20A4 JUMP JUMPDEST PUSH1 0x40 MLOAD SWAP1 DUP1 DUP3 MSTORE DUP1 PUSH1 0x20 MUL PUSH1 0x20 ADD DUP3 ADD PUSH1 0x40 MSTORE DUP1 ISZERO PUSH2 0xEEC JUMPI DUP2 PUSH1 0x20 ADD PUSH1 0x20 DUP3 MUL DUP1 CALLDATASIZE DUP4 CALLDATACOPY ADD SWAP1 POP JUMPDEST POP SWAP1 POP PUSH1 0x0 JUMPDEST DUP3 MLOAD DUP2 LT ISZERO PUSH2 0xF5F JUMPI PUSH1 0x75 PUSH1 0x0 DUP5 DUP4 DUP2 MLOAD DUP2 LT PUSH2 0xF11 JUMPI PUSH2 0xF11 PUSH2 0x228A JUMP JUMPDEST PUSH1 0x20 MUL PUSH1 0x20 ADD ADD MLOAD PUSH1 0x1 PUSH1 0x1 PUSH1 0xA0 SHL SUB AND PUSH1 0x1 PUSH1 0x1 PUSH1 0xA0 SHL SUB AND DUP2 MSTORE PUSH1 0x20 ADD SWAP1 DUP2 MSTORE PUSH1 0x20 ADD PUSH1 0x0 KECCAK256 SLOAD DUP3 DUP3 DUP2 MLOAD DUP2 LT PUSH2 0xF4C JUMPI PUSH2 0xF4C PUSH2 0x228A JUMP JUMPDEST PUSH1 0x20 SWAP1 DUP2 MUL SWAP2 SWAP1 SWAP2 ADD ADD MSTORE PUSH1 0x1 ADD PUSH2 0xEF2 JUMP JUMPDEST POP PUSH1 0x40 DUP1 MLOAD PUSH1 0xC0 DUP2 ADD DUP3 MSTORE PUSH1 0x6C SLOAD DUP2 MSTORE CALLER PUSH1 0x20 DUP3 ADD MSTORE SWAP1 DUP2 ADD DUP4 SWAP1 MSTORE PUSH1 0x60 DUP2 ADD DUP7 PUSH8 0xFFFFFFFFFFFFFFFF DUP2 GT ISZERO PUSH2 0xF98 JUMPI PUSH2 0xF98 PUSH2 0x20A4 JUMP JUMPDEST PUSH1 0x40 MLOAD SWAP1 DUP1 DUP3 MSTORE DUP1 PUSH1 0x20 MUL PUSH1 0x20 ADD DUP3 ADD PUSH1 0x40 MSTORE DUP1 ISZERO PUSH2 0xFC1 JUMPI DUP2 PUSH1 0x20 ADD PUSH1 0x20 DUP3 MUL DUP1 CALLDATASIZE DUP4 CALLDATACOPY ADD SWAP1 POP JUMPDEST POP DUP2 MSTORE PUSH1 0x20 ADD DUP8 DUP8 DUP1 DUP1 PUSH1 0x20 MUL PUSH1 0x20 ADD PUSH1 0x40 MLOAD SWAP1 DUP2 ADD PUSH1 0x40 MSTORE DUP1 SWAP4 SWAP3 SWAP2 SWAP1 DUP2 DUP2 MSTORE PUSH1 0x20 ADD DUP4 DUP4 PUSH1 0x20 MUL DUP1 DUP3 DUP5 CALLDATACOPY PUSH1 0x0 SWAP3 ADD DUP3 SWAP1 MSTORE POP SWAP4 DUP6 MSTORE POP POP PUSH1 0x1 PUSH1 0x20 SWAP4 DUP5 ADD DUP2 SWAP1 MSTORE PUSH1 0x6C SLOAD DUP4 MSTORE PUSH1 0x73 DUP5 MSTORE PUSH1 0x40 SWAP3 DUP4 SWAP1 KECCAK256 DUP6 MLOAD DUP2 SSTORE DUP6 DUP6 ADD MLOAD SWAP2 DUP2 ADD DUP1 SLOAD PUSH1 0x1 PUSH1 0x1 PUSH1 0xA0 SHL SUB NOT AND PUSH1 0x1 PUSH1 0x1 PUSH1 0xA0 SHL SUB SWAP1 SWAP4 AND SWAP3 SWAP1 SWAP3 OR SWAP1 SWAP2 SSTORE SWAP2 DUP5 ADD MLOAD DUP1 MLOAD SWAP3 SWAP4 PUSH2 0x1057 SWAP4 PUSH1 0x2 DUP7 ADD SWAP4 POP SWAP2 ADD SWAP1 PUSH2 0x1DD3 JUMP JUMPDEST POP PUSH1 0x60 DUP3 ADD MLOAD DUP1 MLOAD PUSH2 0x1073 SWAP2 PUSH1 0x3 DUP5 ADD SWAP2 PUSH1 0x20 SWAP1 SWAP2 ADD SWAP1 PUSH2 0x1DD3 JUMP JUMPDEST POP PUSH1 0x80 DUP3 ADD MLOAD DUP1 MLOAD PUSH2 0x108F SWAP2 PUSH1 0x4 DUP5 ADD SWAP2 PUSH1 0x20 SWAP1 SWAP2 ADD SWAP1 PUSH2 0x1D88 JUMP JUMPDEST POP PUSH1 0xA0 SWAP2 SWAP1 SWAP2 ADD MLOAD PUSH1 0x5 SWAP1 SWAP2 ADD DUP1 SLOAD PUSH1 0xFF NOT AND SWAP2 ISZERO ISZERO SWAP2 SWAP1 SWAP2 OR SWAP1 SSTORE PUSH1 0x6C SLOAD PUSH1 0x40 MLOAD PUSH32 0x3C015D1005DA8BB61E99936222D4A8A0C3C5B6643F9DAA5EAE3EF07B7FB67647 SWAP1 PUSH2 0x10DE SWAP1 DUP6 SWAP1 PUSH2 0x1F71 JUMP JUMPDEST PUSH1 0x40 MLOAD DUP1 SWAP2 SUB SWAP1 LOG2 PUSH1 0x6C DUP1 SLOAD SWAP1 PUSH1 0x0 PUSH2 0x10F6 DUP4 PUSH2 0x233A JUMP JUMPDEST SWAP1 SWAP2 SSTORE POP SWAP1 SWAP7 SWAP6 POP POP POP POP POP POP JUMP JUMPDEST CALLER PUSH1 0x0 SWAP1 DUP2 MSTORE PUSH1 0x75 PUSH1 0x20 MSTORE PUSH1 0x40 SWAP1 KECCAK256 SLOAD ISZERO PUSH2 0x1162 JUMPI PUSH1 0x40 MLOAD PUSH3 0x461BCD PUSH1 0xE5 SHL DUP2 MSTORE PUSH1 0x20 PUSH1 0x4 DUP3 ADD MSTORE PUSH1 0x19 PUSH1 0x24 DUP3 ADD MSTORE PUSH32 0x56616C696461746F7220616C7265616479206578697374732E00000000000000 PUSH1 0x44 DUP3 ADD MSTORE PUSH1 0x64 ADD PUSH2 0x8F4 JUMP JUMPDEST PUSH1 0x66 SLOAD CALLER PUSH1 0x0 SWAP1 DUP2 MSTORE PUSH1 0x33 PUSH1 0x20 MSTORE PUSH1 0x40 SWAP1 KECCAK256 SLOAD LT ISZERO PUSH2 0x11C3 JUMPI PUSH1 0x40 MLOAD PUSH3 0x461BCD PUSH1 0xE5 SHL DUP2 MSTORE PUSH1 0x20 PUSH1 0x4 DUP3 ADD MSTORE PUSH1 0x1B PUSH1 0x24 DUP3 ADD MSTORE PUSH32 0x496E73756666696369656E7420746F6B656E2062616C616E63652E0000000000 PUSH1 0x44 DUP3 ADD MSTORE PUSH1 0x64 ADD PUSH2 0x8F4 JUMP JUMPDEST PUSH1 0x0 PUSH2 0x11D2 CALLER ADDRESS PUSH1 0x66 SLOAD PUSH2 0x81D JUMP JUMPDEST SWAP1 POP DUP1 PUSH2 0x1219 JUMPI PUSH1 0x40 MLOAD PUSH3 0x461BCD PUSH1 0xE5 SHL DUP2 MSTORE PUSH1 0x20 PUSH1 0x4 DUP3 ADD MSTORE PUSH1 0x15 PUSH1 0x24 DUP3 ADD MSTORE PUSH21 0x151BDAD95B881D1C985B9CD9995C8819985A5B1959 PUSH1 0x5A SHL PUSH1 0x44 DUP3 ADD MSTORE PUSH1 0x64 ADD PUSH2 0x8F4 JUMP JUMPDEST PUSH1 0x40 DUP1 MLOAD PUSH1 0xC0 DUP2 ADD DUP3 MSTORE PUSH1 0x6A DUP1 SLOAD DUP1 DUP4 MSTORE CALLER PUSH1 0x20 DUP1 DUP6 ADD DUP3 DUP2 MSTORE DUP6 DUP8 ADD DUP10 DUP2 MSTORE PUSH1 0x66 SLOAD PUSH1 0x60 DUP9 ADD SWAP1 DUP2 MSTORE PUSH1 0x0 PUSH1 0x80 DUP10 ADD DUP2 DUP2 MSTORE PUSH1 0x32 PUSH1 0xA0 DUP12 ADD SWAP1 DUP2 MSTORE SWAP8 DUP3 MSTORE PUSH1 0x72 DUP7 MSTORE DUP11 DUP3 KECCAK256 SWAP10 MLOAD DUP11 SSTORE SWAP4 MLOAD PUSH1 0x1 DUP11 ADD DUP1 SLOAD PUSH1 0x1 PUSH1 0x1 PUSH1 0xA0 SHL SUB NOT AND PUSH1 0x1 PUSH1 0x1 PUSH1 0xA0 SHL SUB SWAP1 SWAP3 AND SWAP2 SWAP1 SWAP2 OR SWAP1 SSTORE SWAP2 MLOAD PUSH1 0x2 DUP10 ADD SSTORE MLOAD PUSH1 0x3 DUP9 ADD SSTORE SWAP1 MLOAD PUSH1 0x4 DUP8 ADD SSTORE SWAP3 MLOAD PUSH1 0x5 SWAP1 SWAP6 ADD DUP1 SLOAD PUSH1 0xFF NOT AND PUSH1 0xFF SWAP1 SWAP7 AND SWAP6 SWAP1 SWAP6 OR SWAP1 SWAP5 SSTORE DUP3 SLOAD SWAP1 DUP3 MSTORE PUSH1 0x75 SWAP1 SWAP4 MSTORE SWAP3 DUP4 KECCAK256 DUP3 SWAP1 SSTORE SWAP1 SWAP2 PUSH2 0x12CE DUP4 PUSH2 0x233A JUMP JUMPDEST SWAP2 SWAP1 POP SSTORE POP POP POP JUMP JUMPDEST PUSH1 0x60 PUSH1 0x37 DUP1 SLOAD PUSH2 0x75F SWAP1 PUSH2 0x21BA JUMP JUMPDEST CALLER PUSH1 0x0 DUP2 DUP2 MSTORE PUSH1 0x34 PUSH1 0x20 SWAP1 DUP2 MSTORE PUSH1 0x40 DUP1 DUP4 KECCAK256 PUSH1 0x1 PUSH1 0x1 PUSH1 0xA0 SHL SUB DUP8 AND DUP5 MSTORE SWAP1 SWAP2 MSTORE DUP2 KECCAK256 SLOAD SWAP1 SWAP2 SWAP1 DUP4 DUP2 LT ISZERO PUSH2 0x136B JUMPI PUSH1 0x40 MLOAD PUSH3 0x461BCD PUSH1 0xE5 SHL DUP2 MSTORE PUSH1 0x20 PUSH1 0x4 DUP3 ADD MSTORE PUSH1 0x25 PUSH1 0x24 DUP3 ADD MSTORE PUSH32 0x45524332303A2064656372656173656420616C6C6F77616E63652062656C6F77 PUSH1 0x44 DUP3 ADD MSTORE PUSH5 0x207A65726F PUSH1 0xD8 SHL PUSH1 0x64 DUP3 ADD MSTORE PUSH1 0x84 ADD PUSH2 0x8F4 JUMP JUMPDEST PUSH2 0x836 DUP3 DUP7 DUP7 DUP5 SUB PUSH2 0x18B9 JUMP JUMPDEST PUSH1 0x0 CALLER PUSH2 0x7F0 DUP2 DUP6 DUP6 PUSH2 0x1A6F JUMP JUMPDEST CALLER PUSH1 0x0 SWAP1 DUP2 MSTORE PUSH1 0x74 PUSH1 0x20 MSTORE PUSH1 0x40 SWAP1 KECCAK256 SLOAD ISZERO PUSH2 0x13E3 JUMPI PUSH1 0x40 MLOAD PUSH3 0x461BCD PUSH1 0xE5 SHL DUP2 MSTORE PUSH1 0x20 PUSH1 0x4 DUP3 ADD MSTORE PUSH1 0x18 PUSH1 0x24 DUP3 ADD MSTORE PUSH32 0x5573657220616C726561647920726567697374657265642E0000000000000000 PUSH1 0x44 DUP3 ADD MSTORE PUSH1 0x64 ADD PUSH2 0x8F4 JUMP JUMPDEST PUSH1 0x40 DUP1 MLOAD PUSH1 0x80 DUP2 ADD DUP3 MSTORE PUSH1 0x6B DUP1 SLOAD DUP1 DUP4 MSTORE CALLER PUSH1 0x20 DUP1 DUP6 ADD DUP3 DUP2 MSTORE DUP6 DUP8 ADD DUP9 DUP2 MSTORE PUSH1 0x32 PUSH1 0x60 DUP9 ADD SWAP1 DUP2 MSTORE PUSH1 0x0 SWAP6 DUP7 MSTORE PUSH1 0x71 DUP5 MSTORE DUP9 DUP7 KECCAK256 SWAP8 MLOAD DUP9 SSTORE SWAP2 MLOAD PUSH1 0x1 DUP9 ADD DUP1 SLOAD PUSH1 0x1 PUSH1 0x1 PUSH1 0xA0 SHL SUB NOT AND PUSH1 0x1 PUSH1 0x1 PUSH1 0xA0 SHL SUB SWAP1 SWAP3 AND SWAP2 SWAP1 SWAP2 OR SWAP1 SSTORE MLOAD PUSH1 0x2 DUP8 ADD SSTORE MLOAD PUSH1 0x3 SWAP1 SWAP6 ADD DUP1 SLOAD PUSH1 0xFF NOT AND PUSH1 0xFF SWAP1 SWAP7 AND SWAP6 SWAP1 SWAP6 OR SWAP1 SWAP5 SSTORE DUP3 SLOAD SWAP1 DUP3 MSTORE PUSH1 0x74 SWAP1 SWAP4 MSTORE SWAP3 DUP4 KECCAK256 DUP3 SWAP1 SSTORE SWAP1 SWAP2 PUSH2 0x1478 DUP4 PUSH2 0x233A JUMP JUMPDEST SWAP2 SWAP1 POP SSTORE POP POP JUMP JUMPDEST PUSH1 0x69 SLOAD PUSH1 0x1 PUSH1 0x1 PUSH1 0xA0 SHL SUB AND ISZERO PUSH2 0x14D9 JUMPI PUSH1 0x40 MLOAD PUSH3 0x461BCD PUSH1 0xE5 SHL DUP2 MSTORE PUSH1 0x20 PUSH1 0x4 DUP3 ADD MSTORE PUSH1 0x1E PUSH1 0x24 DUP3 ADD MSTORE PUSH32 0x56616C696461746F72206164647265737320616C7265616479207365742E0000 PUSH1 0x44 DUP3 ADD MSTORE PUSH1 0x64 ADD PUSH2 0x8F4 JUMP JUMPDEST PUSH1 0x68 DUP1 SLOAD PUSH1 0x1 PUSH1 0x1 PUSH1 0xA0 SHL SUB SWAP1 SWAP3 AND PUSH1 0x1 PUSH1 0x1 PUSH1 0xA0 SHL SUB NOT SWAP3 DUP4 AND DUP2 OR SWAP1 SWAP2 SSTORE PUSH1 0x69 DUP1 SLOAD SWAP1 SWAP3 AND OR SWAP1 SSTORE JUMP JUMPDEST PUSH1 0x69 SLOAD PUSH1 0x1 PUSH1 0x1 PUSH1 0xA0 SHL SUB AND CALLER EQ PUSH2 0x152F JUMPI PUSH1 0x40 MLOAD PUSH3 0x461BCD PUSH1 0xE5 SHL DUP2 MSTORE PUSH1 0x4 ADD PUSH2 0x8F4 SWAP1 PUSH2 0x2353 JUMP JUMPDEST PUSH1 0x0 DUP2 DUP2 MSTORE PUSH1 0x73 PUSH1 0x20 MSTORE PUSH1 0x40 DUP1 DUP3 KECCAK256 PUSH1 0x5 DUP2 ADD DUP1 SLOAD PUSH1 0xFF NOT AND SWAP1 SSTORE SWAP1 MLOAD SWAP1 SWAP2 DUP4 SWAP2 PUSH32 0xB1DEE78CEF8C6887046D91C59E17F84FBC012C9F7EFA49A10CCE97E13CC94BF4 SWAP2 SWAP1 LOG2 POP POP JUMP JUMPDEST PUSH1 0x0 DUP2 PUSH4 0xFFFFFFFF AND GT PUSH2 0x159E JUMPI PUSH1 0x40 MLOAD PUSH3 0x461BCD PUSH1 0xE5 SHL DUP2 MSTORE PUSH1 0x4 ADD PUSH2 0x8F4 SWAP1 PUSH2 0x221D JUMP JUMPDEST CALLER PUSH1 0x0 SWAP1 DUP2 MSTORE PUSH1 0x33 PUSH1 0x20 MSTORE PUSH1 0x40 SWAP1 KECCAK256 SLOAD PUSH4 0xFFFFFFFF DUP3 AND GT ISZERO PUSH2 0x15FB JUMPI PUSH1 0x40 MLOAD PUSH3 0x461BCD PUSH1 0xE5 SHL DUP2 MSTORE PUSH1 0x20 PUSH1 0x4 DUP3 ADD MSTORE PUSH1 0x15 PUSH1 0x24 DUP3 ADD MSTORE PUSH21 0x24B739BAB33334B1B4B2B73A103130B630B731B297 PUSH1 0x59 SHL PUSH1 0x44 DUP3 ADD MSTORE PUSH1 0x64 ADD PUSH2 0x8F4 JUMP JUMPDEST CALLER PUSH1 0x0 SWAP1 DUP2 MSTORE PUSH1 0x75 PUSH1 0x20 MSTORE PUSH1 0x40 DUP2 KECCAK256 SLOAD SWAP1 DUP2 SWAP1 SUB PUSH2 0x165B JUMPI PUSH1 0x40 MLOAD PUSH3 0x461BCD PUSH1 0xE5 SHL DUP2 MSTORE PUSH1 0x20 PUSH1 0x4 DUP3 ADD MSTORE PUSH1 0x19 PUSH1 0x24 DUP3 ADD MSTORE PUSH32 0x56616C696461746F7220646F6573206E6F742065786973742E00000000000000 PUSH1 0x44 DUP3 ADD MSTORE PUSH1 0x64 ADD PUSH2 0x8F4 JUMP JUMPDEST PUSH2 0x166C CALLER ADDRESS DUP5 PUSH4 0xFFFFFFFF AND PUSH2 0x81D JUMP JUMPDEST POP PUSH1 0x0 DUP2 DUP2 MSTORE PUSH1 0x72 PUSH1 0x20 MSTORE PUSH1 0x40 DUP2 KECCAK256 PUSH1 0x3 ADD DUP1 SLOAD PUSH4 0xFFFFFFFF DUP6 AND SWAP3 SWAP1 PUSH2 0x1694 SWAP1 DUP5 SWAP1 PUSH2 0x220A JUMP JUMPDEST SWAP1 SWAP2 SSTORE POP POP PUSH1 0x40 MLOAD PUSH4 0xFFFFFFFF DUP4 AND DUP2 MSTORE CALLER SWAP1 PUSH32 0xAC87F20A77D28EE8BBB58EC87EA8FA968B3393EFAE1A368FD50B767C2847391C SWAP1 PUSH1 0x20 ADD PUSH1 0x40 MLOAD DUP1 SWAP2 SUB SWAP1 LOG2 POP POP JUMP JUMPDEST PUSH11 0x115EEC47F6CF7E35000000 PUSH1 0x65 SLOAD PUSH2 0x16F0 PUSH1 0x35 SLOAD SWAP1 JUMP JUMPDEST PUSH2 0x16FA SWAP2 SWAP1 PUSH2 0x220A JUMP JUMPDEST GT ISZERO PUSH2 0x1748 JUMPI PUSH1 0x40 MLOAD PUSH3 0x461BCD PUSH1 0xE5 SHL DUP2 MSTORE PUSH1 0x20 PUSH1 0x4 DUP3 ADD MSTORE PUSH1 0x17 PUSH1 0x24 DUP3 ADD MSTORE PUSH32 0x4D6178696D756D20737570706C79207265616368656421000000000000000000 PUSH1 0x44 DUP3 ADD MSTORE PUSH1 0x64 ADD PUSH2 0x8F4 JUMP JUMPDEST PUSH2 0x1752 DUP3 DUP3 PUSH2 0x1C3D JUMP JUMPDEST POP POP JUMP JUMPDEST PUSH1 0x69 SLOAD PUSH1 0x60 SWAP1 PUSH1 0x1 PUSH1 0x1 PUSH1 0xA0 SHL SUB AND CALLER EQ PUSH2 0x1783 JUMPI PUSH1 0x40 MLOAD PUSH3 0x461BCD PUSH1 0xE5 SHL DUP2 MSTORE PUSH1 0x4 ADD PUSH2 0x8F4 SWAP1 PUSH2 0x2353 JUMP JUMPDEST PUSH1 0x0 DUP4 DUP2 MSTORE PUSH1 0x73 PUSH1 0x20 MSTORE PUSH1 0x40 SWAP1 KECCAK256 PUSH1 0x4 ADD SLOAD DUP3 MLOAD EQ PUSH2 0x17A1 JUMPI PUSH1 0x0 DUP1 REVERT JUMPDEST PUSH1 0x0 DUP4 DUP2 MSTORE PUSH1 0x73 PUSH1 0x20 SWAP1 DUP2 MSTORE PUSH1 0x40 SWAP1 SWAP2 KECCAK256 DUP4 MLOAD PUSH2 0x17C6 SWAP3 PUSH1 0x3 SWAP1 SWAP3 ADD SWAP2 DUP6 ADD SWAP1 PUSH2 0x1DD3 JUMP JUMPDEST POP PUSH1 0x40 MLOAD DUP4 SWAP1 PUSH32 0x2244C8529CB95E213EE542E76E7776342B3DABD10203D01472BBF4441BE8929 SWAP1 PUSH1 0x0 SWAP1 LOG2 PUSH1 0x70 SLOAD PUSH2 0x1388 GT PUSH2 0x1825 JUMPI PUSH1 0x70 DUP1 SLOAD DUP1 PUSH2 0x180E JUMPI PUSH2 0x180E PUSH2 0x2399 JUMP JUMPDEST PUSH1 0x1 SWAP1 SUB DUP2 DUP2 SWAP1 PUSH1 0x0 MSTORE PUSH1 0x20 PUSH1 0x0 KECCAK256 ADD PUSH1 0x0 SWAP1 SSTORE SWAP1 SSTORE JUMPDEST PUSH1 0x70 DUP1 SLOAD PUSH1 0x1 DUP2 ADD SWAP1 SWAP2 SSTORE PUSH32 0x8F6B23FFA15F0465E3176E15CA644CF24F86DC1312FE715484E3C4AEAD5EB78B ADD DUP4 SWAP1 SSTORE PUSH1 0x0 DUP4 DUP2 MSTORE PUSH1 0x73 PUSH1 0x20 SWAP1 DUP2 MSTORE PUSH1 0x40 SWAP2 DUP3 SWAP1 KECCAK256 PUSH1 0x4 ADD DUP1 SLOAD DUP4 MLOAD DUP2 DUP5 MUL DUP2 ADD DUP5 ADD SWAP1 SWAP5 MSTORE DUP1 DUP5 MSTORE SWAP1 SWAP2 DUP4 ADD DUP3 DUP3 DUP1 ISZERO PUSH2 0x18AC JUMPI PUSH1 0x20 MUL DUP3 ADD SWAP2 SWAP1 PUSH1 0x0 MSTORE PUSH1 0x20 PUSH1 0x0 KECCAK256 SWAP1 JUMPDEST DUP2 SLOAD DUP2 MSTORE PUSH1 0x20 ADD SWAP1 PUSH1 0x1 ADD SWAP1 DUP1 DUP4 GT PUSH2 0x1898 JUMPI JUMPDEST POP POP POP POP POP SWAP1 POP SWAP3 SWAP2 POP POP JUMP JUMPDEST PUSH1 0x1 PUSH1 0x1 PUSH1 0xA0 SHL SUB DUP4 AND PUSH2 0x191B JUMPI PUSH1 0x40 MLOAD PUSH3 0x461BCD PUSH1 0xE5 SHL DUP2 MSTORE PUSH1 0x20 PUSH1 0x4 DUP3 ADD MSTORE PUSH1 0x24 DUP1 DUP3 ADD MSTORE PUSH32 0x45524332303A20617070726F76652066726F6D20746865207A65726F20616464 PUSH1 0x44 DUP3 ADD MSTORE PUSH4 0x72657373 PUSH1 0xE0 SHL PUSH1 0x64 DUP3 ADD MSTORE PUSH1 0x84 ADD PUSH2 0x8F4 JUMP JUMPDEST PUSH1 0x1 PUSH1 0x1 PUSH1 0xA0 SHL SUB DUP3 AND PUSH2 0x197C JUMPI PUSH1 0x40 MLOAD PUSH3 0x461BCD PUSH1 0xE5 SHL DUP2 MSTORE PUSH1 0x20 PUSH1 0x4 DUP3 ADD MSTORE PUSH1 0x22 PUSH1 0x24 DUP3 ADD MSTORE PUSH32 0x45524332303A20617070726F766520746F20746865207A65726F206164647265 PUSH1 0x44 DUP3 ADD MSTORE PUSH2 0x7373 PUSH1 0xF0 SHL PUSH1 0x64 DUP3 ADD MSTORE PUSH1 0x84 ADD PUSH2 0x8F4 JUMP JUMPDEST PUSH1 0x1 PUSH1 0x1 PUSH1 0xA0 SHL SUB DUP4 DUP2 AND PUSH1 0x0 DUP2 DUP2 MSTORE PUSH1 0x34 PUSH1 0x20 SWAP1 DUP2 MSTORE PUSH1 0x40 DUP1 DUP4 KECCAK256 SWAP5 DUP8 AND DUP1 DUP5 MSTORE SWAP5 DUP3 MSTORE SWAP2 DUP3 SWAP1 KECCAK256 DUP6 SWAP1 SSTORE SWAP1 MLOAD DUP5 DUP2 MSTORE PUSH32 0x8C5BE1E5EBEC7D5BD14F71427D1E84F3DD0314C0F7B2291E5B200AC8C7C3B925 SWAP2 ADD PUSH1 0x40 MLOAD DUP1 SWAP2 SUB SWAP1 LOG3 POP POP POP JUMP JUMPDEST PUSH1 0x1 PUSH1 0x1 PUSH1 0xA0 SHL SUB DUP4 DUP2 AND PUSH1 0x0 SWAP1 DUP2 MSTORE PUSH1 0x34 PUSH1 0x20 SWAP1 DUP2 MSTORE PUSH1 0x40 DUP1 DUP4 KECCAK256 SWAP4 DUP7 AND DUP4 MSTORE SWAP3 SWAP1 MSTORE KECCAK256 SLOAD PUSH1 0x0 NOT DUP2 EQ PUSH2 0x1A69 JUMPI DUP2 DUP2 LT ISZERO PUSH2 0x1A5C JUMPI PUSH1 0x40 MLOAD PUSH3 0x461BCD PUSH1 0xE5 SHL DUP2 MSTORE PUSH1 0x20 PUSH1 0x4 DUP3 ADD MSTORE PUSH1 0x1D PUSH1 0x24 DUP3 ADD MSTORE PUSH32 0x45524332303A20696E73756666696369656E7420616C6C6F77616E6365000000 PUSH1 0x44 DUP3 ADD MSTORE PUSH1 0x64 ADD PUSH2 0x8F4 JUMP JUMPDEST PUSH2 0x1A69 DUP5 DUP5 DUP5 DUP5 SUB PUSH2 0x18B9 JUMP JUMPDEST POP POP POP POP JUMP JUMPDEST PUSH1 0x1 PUSH1 0x1 PUSH1 0xA0 SHL SUB DUP4 AND PUSH2 0x1AD3 JUMPI PUSH1 0x40 MLOAD PUSH3 0x461BCD PUSH1 0xE5 SHL DUP2 MSTORE PUSH1 0x20 PUSH1 0x4 DUP3 ADD MSTORE PUSH1 0x25 PUSH1 0x24 DUP3 ADD MSTORE PUSH32 0x45524332303A207472616E736665722066726F6D20746865207A65726F206164 PUSH1 0x44 DUP3 ADD MSTORE PUSH5 0x6472657373 PUSH1 0xD8 SHL PUSH1 0x64 DUP3 ADD MSTORE PUSH1 0x84 ADD PUSH2 0x8F4 JUMP JUMPDEST PUSH1 0x1 PUSH1 0x1 PUSH1 0xA0 SHL SUB DUP3 AND PUSH2 0x1B35 JUMPI PUSH1 0x40 MLOAD PUSH3 0x461BCD PUSH1 0xE5 SHL DUP2 MSTORE PUSH1 0x20 PUSH1 0x4 DUP3 ADD MSTORE PUSH1 0x23 PUSH1 0x24 DUP3 ADD MSTORE PUSH32 0x45524332303A207472616E7366657220746F20746865207A65726F2061646472 PUSH1 0x44 DUP3 ADD MSTORE PUSH3 0x657373 PUSH1 0xE8 SHL PUSH1 0x64 DUP3 ADD MSTORE PUSH1 0x84 ADD PUSH2 0x8F4 JUMP JUMPDEST PUSH1 0x1 PUSH1 0x1 PUSH1 0xA0 SHL SUB DUP4 AND PUSH1 0x0 SWAP1 DUP2 MSTORE PUSH1 0x33 PUSH1 0x20 MSTORE PUSH1 0x40 SWAP1 KECCAK256 SLOAD DUP2 DUP2 LT ISZERO PUSH2 0x1BAD JUMPI PUSH1 0x40 MLOAD PUSH3 0x461BCD PUSH1 0xE5 SHL DUP2 MSTORE PUSH1 0x20 PUSH1 0x4 DUP3 ADD MSTORE PUSH1 0x26 PUSH1 0x24 DUP3 ADD MSTORE PUSH32 0x45524332303A207472616E7366657220616D6F756E7420657863656564732062 PUSH1 0x44 DUP3 ADD MSTORE PUSH6 0x616C616E6365 PUSH1 0xD0 SHL PUSH1 0x64 DUP3 ADD MSTORE PUSH1 0x84 ADD PUSH2 0x8F4 JUMP JUMPDEST PUSH1 0x1 PUSH1 0x1 PUSH1 0xA0 SHL SUB DUP1 DUP6 AND PUSH1 0x0 SWAP1 DUP2 MSTORE PUSH1 0x33 PUSH1 0x20 MSTORE PUSH1 0x40 DUP1 DUP3 KECCAK256 DUP6 DUP6 SUB SWAP1 SSTORE SWAP2 DUP6 AND DUP2 MSTORE SWAP1 DUP2 KECCAK256 DUP1 SLOAD DUP5 SWAP3 SWAP1 PUSH2 0x1BE4 SWAP1 DUP5 SWAP1 PUSH2 0x220A JUMP JUMPDEST SWAP3 POP POP DUP2 SWAP1 SSTORE POP DUP3 PUSH1 0x1 PUSH1 0x1 PUSH1 0xA0 SHL SUB AND DUP5 PUSH1 0x1 PUSH1 0x1 PUSH1 0xA0 SHL SUB AND PUSH32 0xDDF252AD1BE2C89B69C2B068FC378DAA952BA7F163C4A11628F55A4DF523B3EF DUP5 PUSH1 0x40 MLOAD PUSH2 0x1C30 SWAP2 DUP2 MSTORE PUSH1 0x20 ADD SWAP1 JUMP JUMPDEST PUSH1 0x40 MLOAD DUP1 SWAP2 SUB SWAP1 LOG3 PUSH2 0x1A69 JUMP JUMPDEST PUSH1 0x1 PUSH1 0x1 PUSH1 0xA0 SHL SUB DUP3 AND PUSH2 0x1C93 JUMPI PUSH1 0x40 MLOAD PUSH3 0x461BCD PUSH1 0xE5 SHL DUP2 MSTORE PUSH1 0x20 PUSH1 0x4 DUP3 ADD MSTORE PUSH1 0x1F PUSH1 0x24 DUP3 ADD MSTORE PUSH32 0x45524332303A206D696E7420746F20746865207A65726F206164647265737300 PUSH1 0x44 DUP3 ADD MSTORE PUSH1 0x64 ADD PUSH2 0x8F4 JUMP JUMPDEST DUP1 PUSH1 0x35 PUSH1 0x0 DUP3 DUP3 SLOAD PUSH2 0x1CA5 SWAP2 SWAP1 PUSH2 0x220A JUMP JUMPDEST SWAP1 SWAP2 SSTORE POP POP PUSH1 0x1 PUSH1 0x1 PUSH1 0xA0 SHL SUB DUP3 AND PUSH1 0x0 SWAP1 DUP2 MSTORE PUSH1 0x33 PUSH1 0x20 MSTORE PUSH1 0x40 DUP2 KECCAK256 DUP1 SLOAD DUP4 SWAP3 SWAP1 PUSH2 0x1CD2 SWAP1 DUP5 SWAP1 PUSH2 0x220A JUMP JUMPDEST SWAP1 SWAP2 SSTORE POP POP PUSH1 0x40 MLOAD DUP2 DUP2 MSTORE PUSH1 0x1 PUSH1 0x1 PUSH1 0xA0 SHL SUB DUP4 AND SWAP1 PUSH1 0x0 SWAP1 PUSH32 0xDDF252AD1BE2C89B69C2B068FC378DAA952BA7F163C4A11628F55A4DF523B3EF SWAP1 PUSH1 0x20 ADD PUSH1 0x40 MLOAD DUP1 SWAP2 SUB SWAP1 LOG3 POP POP JUMP JUMPDEST PUSH1 0x0 SLOAD PUSH2 0x100 SWAP1 DIV PUSH1 0xFF AND PUSH2 0x1D43 JUMPI PUSH1 0x40 MLOAD PUSH3 0x461BCD PUSH1 0xE5 SHL DUP2 MSTORE PUSH1 0x4 ADD PUSH2 0x8F4 SWAP1 PUSH2 0x23AF JUMP JUMPDEST PUSH2 0x1752 DUP3 DUP3 PUSH1 0x0 SLOAD PUSH2 0x100 SWAP1 DIV PUSH1 0xFF AND PUSH2 0x1D6F JUMPI PUSH1 0x40 MLOAD PUSH3 0x461BCD PUSH1 0xE5 SHL DUP2 MSTORE PUSH1 0x4 ADD PUSH2 0x8F4 SWAP1 PUSH2 0x23AF JUMP JUMPDEST PUSH1 0x36 PUSH2 0x1D7B DUP4 DUP3 PUSH2 0x244A JUMP JUMPDEST POP PUSH1 0x37 PUSH2 0xA3A DUP3 DUP3 PUSH2 0x244A JUMP JUMPDEST DUP3 DUP1 SLOAD DUP3 DUP3 SSTORE SWAP1 PUSH1 0x0 MSTORE PUSH1 0x20 PUSH1 0x0 KECCAK256 SWAP1 DUP2 ADD SWAP3 DUP3 ISZERO PUSH2 0x1DC3 JUMPI SWAP2 PUSH1 0x20 MUL DUP3 ADD JUMPDEST DUP3 DUP2 GT ISZERO PUSH2 0x1DC3 JUMPI DUP3 MLOAD DUP3 SSTORE SWAP2 PUSH1 0x20 ADD SWAP2 SWAP1 PUSH1 0x1 ADD SWAP1 PUSH2 0x1DA8 JUMP JUMPDEST POP PUSH2 0x1DCF SWAP3 SWAP2 POP PUSH2 0x1E28 JUMP JUMPDEST POP SWAP1 JUMP JUMPDEST DUP3 DUP1 SLOAD DUP3 DUP3 SSTORE SWAP1 PUSH1 0x0 MSTORE PUSH1 0x20 PUSH1 0x0 KECCAK256 SWAP1 DUP2 ADD SWAP3 DUP3 ISZERO PUSH2 0x1DC3 JUMPI SWAP2 PUSH1 0x20 MUL DUP3 ADD JUMPDEST DUP3 DUP2 GT ISZERO PUSH2 0x1DC3 JUMPI DUP3 MLOAD DUP3 SLOAD PUSH1 0x1 PUSH1 0x1 PUSH1 0xA0 SHL SUB NOT AND PUSH1 0x1 PUSH1 0x1 PUSH1 0xA0 SHL SUB SWAP1 SWAP2 AND OR DUP3 SSTORE PUSH1 0x20 SWAP1 SWAP3 ADD SWAP2 PUSH1 0x1 SWAP1 SWAP2 ADD SWAP1 PUSH2 0x1DF3 JUMP JUMPDEST JUMPDEST DUP1 DUP3 GT ISZERO PUSH2 0x1DCF JUMPI PUSH1 0x0 DUP2 SSTORE PUSH1 0x1 ADD PUSH2 0x1E29 JUMP JUMPDEST PUSH1 0x0 PUSH1 0x20 DUP1 DUP4 MSTORE DUP4 MLOAD DUP1 PUSH1 0x20 DUP6 ADD MSTORE PUSH1 0x0 JUMPDEST DUP2 DUP2 LT ISZERO PUSH2 0x1E6B JUMPI DUP6 DUP2 ADD DUP4 ADD MLOAD DUP6 DUP3 ADD PUSH1 0x40 ADD MSTORE DUP3 ADD PUSH2 0x1E4F JUMP JUMPDEST POP PUSH1 0x0 PUSH1 0x40 DUP3 DUP7 ADD ADD MSTORE PUSH1 0x40 PUSH1 0x1F NOT PUSH1 0x1F DUP4 ADD AND DUP6 ADD ADD SWAP3 POP POP POP SWAP3 SWAP2 POP POP JUMP JUMPDEST PUSH1 0x1 PUSH1 0x1 PUSH1 0xA0 SHL SUB DUP2 AND DUP2 EQ PUSH2 0xD17 JUMPI PUSH1 0x0 DUP1 REVERT JUMPDEST PUSH1 0x0 DUP1 PUSH1 0x40 DUP4 DUP6 SUB SLT ISZERO PUSH2 0x1EB4 JUMPI PUSH1 0x0 DUP1 REVERT JUMPDEST DUP3 CALLDATALOAD PUSH2 0x1EBF DUP2 PUSH2 0x1E8C JUMP JUMPDEST SWAP5 PUSH1 0x20 SWAP4 SWAP1 SWAP4 ADD CALLDATALOAD SWAP4 POP POP POP JUMP JUMPDEST PUSH1 0x0 PUSH1 0x20 DUP3 DUP5 SUB SLT ISZERO PUSH2 0x1EDF JUMPI PUSH1 0x0 DUP1 REVERT JUMPDEST POP CALLDATALOAD SWAP2 SWAP1 POP JUMP JUMPDEST PUSH1 0x0 DUP1 PUSH1 0x0 PUSH1 0x60 DUP5 DUP7 SUB SLT ISZERO PUSH2 0x1EFB JUMPI PUSH1 0x0 DUP1 REVERT JUMPDEST DUP4 CALLDATALOAD PUSH2 0x1F06 DUP2 PUSH2 0x1E8C JUMP JUMPDEST SWAP3 POP PUSH1 0x20 DUP5 ADD CALLDATALOAD PUSH2 0x1F16 DUP2 PUSH2 0x1E8C JUMP JUMPDEST SWAP3 SWAP6 SWAP3 SWAP5 POP POP POP PUSH1 0x40 SWAP2 SWAP1 SWAP2 ADD CALLDATALOAD SWAP1 JUMP JUMPDEST PUSH1 0x0 PUSH1 0x20 DUP3 DUP5 SUB SLT ISZERO PUSH2 0x1F39 JUMPI PUSH1 0x0 DUP1 REVERT JUMPDEST DUP2 CALLDATALOAD PUSH2 0x1F44 DUP2 PUSH2 0x1E8C JUMP JUMPDEST SWAP4 SWAP3 POP POP POP JUMP JUMPDEST PUSH1 0x0 PUSH1 0x20 DUP3 DUP5 SUB SLT ISZERO PUSH2 0x1F5D JUMPI PUSH1 0x0 DUP1 REVERT JUMPDEST DUP2 CALLDATALOAD PUSH4 0xFFFFFFFF DUP2 AND DUP2 EQ PUSH2 0x1F44 JUMPI PUSH1 0x0 DUP1 REVERT JUMPDEST PUSH1 0x20 DUP1 DUP3 MSTORE DUP3 MLOAD DUP3 DUP3 ADD DUP2 SWAP1 MSTORE PUSH1 0x0 SWAP2 SWAP1 DUP5 DUP3 ADD SWAP1 PUSH1 0x40 DUP6 ADD SWAP1 DUP5 JUMPDEST DUP2 DUP2 LT ISZERO PUSH2 0x1FB2 JUMPI DUP4 MLOAD PUSH1 0x1 PUSH1 0x1 PUSH1 0xA0 SHL SUB AND DUP4 MSTORE SWAP3 DUP5 ADD SWAP3 SWAP2 DUP5 ADD SWAP2 PUSH1 0x1 ADD PUSH2 0x1F8D JUMP JUMPDEST POP SWAP1 SWAP7 SWAP6 POP POP POP POP POP POP JUMP JUMPDEST PUSH1 0x0 DUP1 PUSH1 0x20 DUP4 DUP6 SUB SLT ISZERO PUSH2 0x1FD1 JUMPI PUSH1 0x0 DUP1 REVERT JUMPDEST DUP3 CALLDATALOAD PUSH8 0xFFFFFFFFFFFFFFFF DUP1 DUP3 GT ISZERO PUSH2 0x1FE9 JUMPI PUSH1 0x0 DUP1 REVERT JUMPDEST DUP2 DUP6 ADD SWAP2 POP DUP6 PUSH1 0x1F DUP4 ADD SLT PUSH2 0x1FFD JUMPI PUSH1 0x0 DUP1 REVERT JUMPDEST DUP2 CALLDATALOAD DUP2 DUP2 GT ISZERO PUSH2 0x200C JUMPI PUSH1 0x0 DUP1 REVERT JUMPDEST DUP7 PUSH1 0x20 DUP3 PUSH1 0x5 SHL DUP6 ADD ADD GT ISZERO PUSH2 0x2021 JUMPI PUSH1 0x0 DUP1 REVERT JUMPDEST PUSH1 0x20 SWAP3 SWAP1 SWAP3 ADD SWAP7 SWAP2 SWAP6 POP SWAP1 SWAP4 POP POP POP POP JUMP JUMPDEST PUSH1 0x20 DUP1 DUP3 MSTORE DUP3 MLOAD DUP3 DUP3 ADD DUP2 SWAP1 MSTORE PUSH1 0x0 SWAP2 SWAP1 DUP5 DUP3 ADD SWAP1 PUSH1 0x40 DUP6 ADD SWAP1 DUP5 JUMPDEST DUP2 DUP2 LT ISZERO PUSH2 0x1FB2 JUMPI DUP4 MLOAD DUP4 MSTORE SWAP3 DUP5 ADD SWAP3 SWAP2 DUP5 ADD SWAP2 PUSH1 0x1 ADD PUSH2 0x204F JUMP JUMPDEST PUSH1 0x0 DUP1 PUSH1 0x40 DUP4 DUP6 SUB SLT ISZERO PUSH2 0x207E JUMPI PUSH1 0x0 DUP1 REVERT JUMPDEST DUP3 CALLDATALOAD PUSH2 0x2089 DUP2 PUSH2 0x1E8C JUMP JUMPDEST SWAP2 POP PUSH1 0x20 DUP4 ADD CALLDATALOAD PUSH2 0x2099 DUP2 PUSH2 0x1E8C JUMP JUMPDEST DUP1 SWAP2 POP POP SWAP3 POP SWAP3 SWAP1 POP JUMP JUMPDEST PUSH4 0x4E487B71 PUSH1 0xE0 SHL PUSH1 0x0 MSTORE PUSH1 0x41 PUSH1 0x4 MSTORE PUSH1 0x24 PUSH1 0x0 REVERT JUMPDEST PUSH1 0x40 MLOAD PUSH1 0x1F DUP3 ADD PUSH1 0x1F NOT AND DUP2 ADD PUSH8 0xFFFFFFFFFFFFFFFF DUP2 GT DUP3 DUP3 LT OR ISZERO PUSH2 0x20E3 JUMPI PUSH2 0x20E3 PUSH2 0x20A4 JUMP JUMPDEST PUSH1 0x40 MSTORE SWAP2 SWAP1 POP JUMP JUMPDEST PUSH1 0x0 PUSH8 0xFFFFFFFFFFFFFFFF DUP3 GT ISZERO PUSH2 0x2105 JUMPI PUSH2 0x2105 PUSH2 0x20A4 JUMP JUMPDEST POP PUSH1 0x5 SHL PUSH1 0x20 ADD SWAP1 JUMP JUMPDEST PUSH1 0x0 DUP1 PUSH1 0x40 DUP4 DUP6 SUB SLT ISZERO PUSH2 0x2122 JUMPI PUSH1 0x0 DUP1 REVERT JUMPDEST DUP3 CALLDATALOAD SWAP2 POP PUSH1 0x20 DUP1 DUP5 ADD CALLDATALOAD PUSH8 0xFFFFFFFFFFFFFFFF DUP2 GT ISZERO PUSH2 0x2141 JUMPI PUSH1 0x0 DUP1 REVERT JUMPDEST DUP5 ADD PUSH1 0x1F DUP2 ADD DUP7 SGT PUSH2 0x2152 JUMPI PUSH1 0x0 DUP1 REVERT JUMPDEST DUP1 CALLDATALOAD PUSH2 0x2165 PUSH2 0x2160 DUP3 PUSH2 0x20EB JUMP JUMPDEST PUSH2 0x20BA JUMP JUMPDEST DUP2 DUP2 MSTORE PUSH1 0x5 SWAP2 SWAP1 SWAP2 SHL DUP3 ADD DUP4 ADD SWAP1 DUP4 DUP2 ADD SWAP1 DUP9 DUP4 GT ISZERO PUSH2 0x2184 JUMPI PUSH1 0x0 DUP1 REVERT JUMPDEST SWAP3 DUP5 ADD SWAP3 JUMPDEST DUP3 DUP5 LT ISZERO PUSH2 0x21AB JUMPI DUP4 CALLDATALOAD PUSH2 0x219C DUP2 PUSH2 0x1E8C JUMP JUMPDEST DUP3 MSTORE SWAP3 DUP5 ADD SWAP3 SWAP1 DUP5 ADD SWAP1 PUSH2 0x2189 JUMP JUMPDEST DUP1 SWAP6 POP POP POP POP POP POP SWAP3 POP SWAP3 SWAP1 POP JUMP JUMPDEST PUSH1 0x1 DUP2 DUP2 SHR SWAP1 DUP3 AND DUP1 PUSH2 0x21CE JUMPI PUSH1 0x7F DUP3 AND SWAP2 POP JUMPDEST PUSH1 0x20 DUP3 LT DUP2 SUB PUSH2 0x21EE JUMPI PUSH4 0x4E487B71 PUSH1 0xE0 SHL PUSH1 0x0 MSTORE PUSH1 0x22 PUSH1 0x4 MSTORE PUSH1 0x24 PUSH1 0x0 REVERT JUMPDEST POP SWAP2 SWAP1 POP JUMP JUMPDEST PUSH4 0x4E487B71 PUSH1 0xE0 SHL PUSH1 0x0 MSTORE PUSH1 0x11 PUSH1 0x4 MSTORE PUSH1 0x24 PUSH1 0x0 REVERT JUMPDEST DUP1 DUP3 ADD DUP1 DUP3 GT ISZERO PUSH2 0x7F6 JUMPI PUSH2 0x7F6 PUSH2 0x21F4 JUMP JUMPDEST PUSH1 0x20 DUP1 DUP3 MSTORE PUSH1 0x21 SWAP1 DUP3 ADD MSTORE PUSH32 0x416D6F756E74206D7573742062652067726561746572207468616E207A65726F PUSH1 0x40 DUP3 ADD MSTORE PUSH1 0x17 PUSH1 0xF9 SHL PUSH1 0x60 DUP3 ADD MSTORE PUSH1 0x80 ADD SWAP1 JUMP JUMPDEST DUP2 DUP2 SUB DUP2 DUP2 GT ISZERO PUSH2 0x7F6 JUMPI PUSH2 0x7F6 PUSH2 0x21F4 JUMP JUMPDEST PUSH1 0x0 PUSH1 0x20 DUP3 DUP5 SUB SLT ISZERO PUSH2 0x2283 JUMPI PUSH1 0x0 DUP1 REVERT JUMPDEST POP MLOAD SWAP2 SWAP1 POP JUMP JUMPDEST PUSH4 0x4E487B71 PUSH1 0xE0 SHL PUSH1 0x0 MSTORE PUSH1 0x32 PUSH1 0x4 MSTORE PUSH1 0x24 PUSH1 0x0 REVERT JUMPDEST PUSH1 0x0 PUSH1 0x20 DUP1 DUP4 DUP6 SUB SLT ISZERO PUSH2 0x22B3 JUMPI PUSH1 0x0 DUP1 REVERT JUMPDEST DUP3 MLOAD PUSH8 0xFFFFFFFFFFFFFFFF DUP2 GT ISZERO PUSH2 0x22CA JUMPI PUSH1 0x0 DUP1 REVERT JUMPDEST DUP4 ADD PUSH1 0x1F DUP2 ADD DUP6 SGT PUSH2 0x22DB JUMPI PUSH1 0x0 DUP1 REVERT JUMPDEST DUP1 MLOAD PUSH2 0x22E9 PUSH2 0x2160 DUP3 PUSH2 0x20EB JUMP JUMPDEST DUP2 DUP2 MSTORE PUSH1 0x5 SWAP2 SWAP1 SWAP2 SHL DUP3 ADD DUP4 ADD SWAP1 DUP4 DUP2 ADD SWAP1 DUP8 DUP4 GT ISZERO PUSH2 0x2308 JUMPI PUSH1 0x0 DUP1 REVERT JUMPDEST SWAP3 DUP5 ADD SWAP3 JUMPDEST DUP3 DUP5 LT ISZERO PUSH2 0x232F JUMPI DUP4 MLOAD PUSH2 0x2320 DUP2 PUSH2 0x1E8C JUMP JUMPDEST DUP3 MSTORE SWAP3 DUP5 ADD SWAP3 SWAP1 DUP5 ADD SWAP1 PUSH2 0x230D JUMP JUMPDEST SWAP8 SWAP7 POP POP POP POP POP POP POP JUMP JUMPDEST PUSH1 0x0 PUSH1 0x1 DUP3 ADD PUSH2 0x234C JUMPI PUSH2 0x234C PUSH2 0x21F4 JUMP JUMPDEST POP PUSH1 0x1 ADD SWAP1 JUMP JUMPDEST PUSH1 0x20 DUP1 DUP3 MSTORE PUSH1 0x26 SWAP1 DUP3 ADD MSTORE PUSH32 0x43616C6C6572206D7573742062652074686520536D6172746E6F6465734D756C PUSH1 0x40 DUP3 ADD MSTORE PUSH6 0x3A34A9B4B397 PUSH1 0xD1 SHL PUSH1 0x60 DUP3 ADD MSTORE PUSH1 0x80 ADD SWAP1 JUMP JUMPDEST PUSH4 0x4E487B71 PUSH1 0xE0 SHL PUSH1 0x0 MSTORE PUSH1 0x31 PUSH1 0x4 MSTORE PUSH1 0x24 PUSH1 0x0 REVERT JUMPDEST PUSH1 0x20 DUP1 DUP3 MSTORE PUSH1 0x2B SWAP1 DUP3 ADD MSTORE PUSH32 0x496E697469616C697A61626C653A20636F6E7472616374206973206E6F742069 PUSH1 0x40 DUP3 ADD MSTORE PUSH11 0x6E697469616C697A696E67 PUSH1 0xA8 SHL PUSH1 0x60 DUP3 ADD MSTORE PUSH1 0x80 ADD SWAP1 JUMP JUMPDEST PUSH1 0x1F DUP3 GT ISZERO PUSH2 0xA3A JUMPI PUSH1 0x0 DUP2 PUSH1 0x0 MSTORE PUSH1 0x20 PUSH1 0x0 KECCAK256 PUSH1 0x1F DUP6 ADD PUSH1 0x5 SHR DUP2 ADD PUSH1 0x20 DUP7 LT ISZERO PUSH2 0x2423 JUMPI POP DUP1 JUMPDEST PUSH1 0x1F DUP6 ADD PUSH1 0x5 SHR DUP3 ADD SWAP2 POP JUMPDEST DUP2 DUP2 LT ISZERO PUSH2 0x2442 JUMPI DUP3 DUP2 SSTORE PUSH1 0x1 ADD PUSH2 0x242F JUMP JUMPDEST POP POP POP POP POP POP JUMP JUMPDEST DUP2 MLOAD PUSH8 0xFFFFFFFFFFFFFFFF DUP2 GT ISZERO PUSH2 0x2464 JUMPI PUSH2 0x2464 PUSH2 0x20A4 JUMP JUMPDEST PUSH2 0x2478 DUP2 PUSH2 0x2472 DUP5 SLOAD PUSH2 0x21BA JUMP JUMPDEST DUP5 PUSH2 0x23FA JUMP JUMPDEST PUSH1 0x20 DUP1 PUSH1 0x1F DUP4 GT PUSH1 0x1 DUP2 EQ PUSH2 0x24AD JUMPI PUSH1 0x0 DUP5 ISZERO PUSH2 0x2495 JUMPI POP DUP6 DUP4 ADD MLOAD JUMPDEST PUSH1 0x0 NOT PUSH1 0x3 DUP7 SWAP1 SHL SHR NOT AND PUSH1 0x1 DUP6 SWAP1 SHL OR DUP6 SSTORE PUSH2 0x2442 JUMP JUMPDEST PUSH1 0x0 DUP6 DUP2 MSTORE PUSH1 0x20 DUP2 KECCAK256 PUSH1 0x1F NOT DUP7 AND SWAP2 JUMPDEST DUP3 DUP2 LT ISZERO PUSH2 0x24DC JUMPI DUP9 DUP7 ADD MLOAD DUP3 SSTORE SWAP5 DUP5 ADD SWAP5 PUSH1 0x1 SWAP1 SWAP2 ADD SWAP1 DUP5 ADD PUSH2 0x24BD JUMP JUMPDEST POP DUP6 DUP3 LT ISZERO PUSH2 0x24FA JUMPI DUP8 DUP6 ADD MLOAD PUSH1 0x0 NOT PUSH1 0x3 DUP9 SWAP1 SHL PUSH1 0xF8 AND SHR NOT AND DUP2 SSTORE JUMPDEST POP POP POP POP POP PUSH1 0x1 SWAP1 DUP2 SHL ADD SWAP1 SSTORE POP JUMP INVALID LOG2 PUSH5 0x6970667358 0x22 SLT KECCAK256 PUSH28 0x83946A5C19E5EDD8ABEE22B1C310709DF15BB8F24FE0BC8C491180B2 0xEE RETURN SMOD PUSH5 0x736F6C6343 STOP ADDMOD NOT STOP CALLER ",
  "sha1": "556c3944666a1c2c89032701696da14ba91da1e2",
  "source": "// SPDX-License-Identifier: MIT\npragma solidity ^0.8.5;\n\nimport \"@openzeppelin-upgradeable/contracts/token/ERC20/ERC20Upgradeable.sol\";\nimport \"./interfaces/ISmartnodesMultiSig.sol\";\n\n/**\n * @title SmartNodes\n * @dev An ERC20 contract for managing off-chain networks\n */\ncontract SmartnodesCore is ERC20Upgradeable {\n    // ERC20 token supply metrics\n    uint256 public constant INITIAL_SUPPLY = 5_000_000e18;\n    uint256 public constant MAX_SUPPLY = 21_000_000e18;\n    uint256 public constant HALVING = 2; //52_560; // number of state updates until next HALVING\n    uint256 public emissionRate = 128e18; // amount of tokens to be emitted per state update\n    uint256 public lockAmount = 1_000e18; // minimum validator locked tokens required\n    uint256 public unlockPeriod = 50400;\n\n    // Validator multi-sig address\n    ISmartnodesMultiSig private _validatorContractInstance;\n    address public validatorContractAddress;\n\n    // Counters for storage indexing / IDs\n    uint256 public validatorIdCounter;\n    uint256 public userIdCounter;\n    uint256 public jobCounter;\n    uint256 public activeValidators;\n    uint256 public minValidators;\n    uint256 public maxValidators;\n\n    // Events\n    event TokensLocked(address indexed validator, uint256 amount);\n    event UnlockInitiated(address indexed validator, uint256 unlockTime);\n    event TokensUnlocked(address indexed validator, uint256 amount);\n    event JobRequested(uint256 indexed jobId, address[] seedValidators);\n    event JobCompleted(uint256 indexed jobId);\n    event JobDisputed(uint256 indexed jobId);\n\n    // User data with key information (address, RSA key hash, reputation)\n    struct User {\n        uint256 id;\n        address userAddress;\n        bytes32 publicKeyHash;\n        uint8 reputation;\n    }\n\n    // Validator data with key information (address, RSA key hash, locked value, reputation, activity)\n    struct Validator {\n        uint256 id;\n        address validatorAddress;\n        bytes32 publicKeyHash;\n        uint256 locked;\n        uint256 unlockTime;\n        uint8 reputation;\n    }\n\n    // Information for  a generic off-chain job (job hash [key for kademlia lookup], seed validators, participants, author, etc)\n    struct Job {\n        uint256 id;\n        address author;\n        address[] seedValidators;\n        address[] workers;\n        uint256[] capacities;\n        bool activity;\n    }\n\n    uint256[] public completedJobs;\n\n    // Main datastructure mappings via id lookup\n    mapping(uint256 => User) public users;\n    mapping(uint256 => Validator) public validators;\n    mapping(uint256 => Job) public jobs;\n\n    // Helpful mappings\n    mapping(address => uint256) public userIdByAddress;\n    mapping(address => uint256) public validatorIdByAddress;\n\n    modifier onlyValidatorMultiSig() {\n        require(\n            msg.sender == validatorContractAddress,\n            \"Caller must be the SmartnodesMultiSig.\"\n        );\n        _;\n    }\n\n    function initialize() public initializer {\n        __ERC20_init(\"Smartnodes\", \"SNO\");\n\n        // Set all counters to 1 (when looking up values, 0 = Not found)\n        userIdCounter = 1;\n        jobCounter = 1;\n        validatorIdCounter = 1;\n        minValidators = 1;\n        maxValidators = 3;\n        completedJobs = new uint256[](5_000);\n        emissionRate = 128e18; // amount of tokens to be emitted per state update\n        lockAmount = 1_000e18; // minimum validator locked tokens required\n        unlockPeriod = 50400;\n    }\n\n    function setValidatorContract(address validatorAddress) external {\n        require(\n            validatorContractAddress == address(0),\n            \"Validator address already set.\"\n        );\n        _validatorContractInstance = ISmartnodesMultiSig(validatorAddress);\n        validatorContractAddress = validatorAddress;\n    }\n\n    /**\n     * @dev Create a User, limit one per address & public key hash (RSA)\n     */\n    function createUser(bytes32 _publicKeyHash) external {\n        // Only one address & public key hash per user.\n        require(userIdByAddress[msg.sender] == 0, \"User already registered.\");\n\n        users[userIdCounter] = User({\n            id: userIdCounter,\n            userAddress: msg.sender,\n            publicKeyHash: _publicKeyHash,\n            reputation: 50\n        });\n\n        userIdByAddress[msg.sender] = userIdCounter;\n        userIdCounter++;\n    }\n\n    /**\n     * @dev Create a Validator, limit one per address & public key hash (RSA), requires locking up sno\n     */\n    function createValidator(bytes32 _publicKeyHash) external {\n        require(\n            validatorIdByAddress[msg.sender] == 0,\n            \"Validator already exists.\"\n        );\n\n        require(\n            balanceOf(msg.sender) >= lockAmount,\n            \"Insufficient token balance.\"\n        );\n\n        // Lock token in contract\n        bool success = transferFrom(msg.sender, address(this), lockAmount);\n        require(success, \"Token transfer failed\");\n\n        validators[validatorIdCounter] = Validator({\n            id: validatorIdCounter,\n            validatorAddress: msg.sender,\n            publicKeyHash: _publicKeyHash,\n            locked: lockAmount,\n            unlockTime: 0,\n            reputation: 50\n        });\n\n        validatorIdByAddress[msg.sender] = validatorIdCounter;\n        validatorIdCounter++;\n    }\n\n    // User Job Requesting Via Chainlink VRF TODO\n    function requestJob(\n        uint256[] calldata _capacities\n    ) external returns (uint256[] memory validatorIds) {\n        uint256 uid = userIdByAddress[msg.sender];\n\n        require(uid != 0, \"User not registered.\");\n        require(_capacities[0] > 0, \"Capacity must be greater zero.\");\n        require(\n            validatorContractAddress != address(0),\n            \"Validator contract not set!\"\n        );\n\n        address[] memory _seedValidators = _validatorContractInstance\n            .generateValidatorCandidates();\n        uint256[] memory _validatorIds = new uint256[](_seedValidators.length);\n\n        for (uint256 i = 0; i < _seedValidators.length; i++) {\n            _validatorIds[i] = validatorIdByAddress[_seedValidators[i]];\n        }\n\n        // Store the job in the jobs mapping\n        jobs[jobCounter] = Job({\n            id: jobCounter,\n            author: msg.sender,\n            seedValidators: _seedValidators,\n            workers: new address[](_capacities.length),\n            capacities: _capacities,\n            activity: true\n        });\n\n        emit JobRequested(jobCounter, _seedValidators);\n        jobCounter++;\n\n        return _validatorIds;\n    }\n\n    function completeJob(\n        uint256 jobId,\n        address[] memory _workers\n    ) external onlyValidatorMultiSig returns (uint256[] memory) {\n        require(_workers.length == jobs[jobId].capacities.length);\n        jobs[jobId].workers = _workers;\n        emit JobCompleted(jobId);\n        if (completedJobs.length >= 5_000) {\n            completedJobs.pop();\n        }\n        completedJobs.push(jobId);\n        return jobs[jobId].capacities;\n    }\n\n    function disputeJob(uint256 jobId) external onlyValidatorMultiSig {\n        Job storage job = jobs[jobId];\n        job.activity = false;\n        emit JobDisputed(jobId);\n    }\n\n    /**\n     * @dev Validator token unlocking, 30 day withdrawal period.\n     */\n    function lockTokens(uint32 amount) external {\n        require(amount > 0, \"Amount must be greater than zero.\");\n        require(balanceOf(msg.sender) >= amount, \"Insufficient balance.\");\n\n        uint256 validatorId = validatorIdByAddress[msg.sender];\n        require(validatorId != 0, \"Validator does not exist.\");\n\n        transferFrom(msg.sender, address(this), amount);\n        validators[validatorId].locked += amount;\n\n        emit TokensLocked(msg.sender, amount);\n    }\n\n    function unlockTokens(uint32 amount) external {\n        uint256 validatorId = validatorIdByAddress[msg.sender];\n        Validator storage validator = validators[validatorId];\n\n        require(amount <= validator.locked, \"Amount exceeds locked balance.\");\n        require(amount > 0, \"Amount must be greater than zero.\");\n\n        // Initialize the unlock time if it's the first unlock attempt\n        if (validator.unlockTime == 0) {\n            validator.unlockTime = block.timestamp + unlockPeriod; // 14 day unlocking period\n            emit UnlockInitiated(msg.sender, validator.unlockTime); // Optional: emit an event\n        } else {\n            // On subsequent attempts, check if the unlock period has elapsed\n            require(\n                block.timestamp >= validator.unlockTime,\n                \"Tokens are still locked.\"\n            );\n\n            validator.locked -= amount;\n            _mint(msg.sender, amount); // Mint tokens back to the validator's address\n\n            emit TokensUnlocked(msg.sender, amount); // Optional: emit an event when tokens are unlocked\n        }\n    }\n\n    /**\n     * @dev Mint tokens for updating state rewards,\n     TODO change to internal (external for testing)\n     */\n    function mintTokens(address recipient, uint256 amount) external {\n        require(\n            totalSupply() + emissionRate <= MAX_SUPPLY,\n            \"Maximum supply reached!\"\n        );\n        // _mint(msg.sender, emissionRate);\n        _mint(recipient, amount);\n    }\n\n    // Returns a list of all the selected validators for a job request\n    function getJobValidators(\n        uint256 jobId\n    ) external view returns (address[] memory) {\n        require(jobId < jobCounter, \"Invalid job ID\");\n        if (jobs[jobId].id == jobId) {\n            address[] memory jobValidators = jobs[jobId].seedValidators;\n            return jobValidators;\n        } else {\n            revert(\"Job not found!\");\n        }\n    }\n\n    function getUserCount() external view returns (uint256) {\n        return userIdCounter;\n    }\n\n    function getValidatorCount() external view returns (uint256) {\n        return validatorIdCounter;\n    }\n\n    function getActiveValidatorCount() external view returns (uint256) {\n        return activeValidators;\n    }\n\n    function getEmissionRate() external view returns (uint256) {\n        return emissionRate;\n    }\n\n    function getSupply() external view returns (uint256) {\n        return this.totalSupply();\n    }\n\n    function isLocked(address validatorAddr) external view returns (bool) {\n        uint256 _id = validatorIdByAddress[validatorAddr];\n        return validators[_id].locked >= lockAmount;\n    }\n}\n",
  "sourcePath": "contracts/SmartnodesCore.sol",
  "type": "contract"
}