{
  "abi": [
    {
      "anonymous": false,
      "inputs": [
        {
          "indexed": true,
          "internalType": "address",
          "name": "owner",
          "type": "address"
        },
        {
          "indexed": true,
          "internalType": "address",
          "name": "spender",
          "type": "address"
        },
        {
          "indexed": false,
          "internalType": "uint256",
          "name": "value",
          "type": "uint256"
        }
      ],
      "name": "Approval",
      "type": "event"
    },
    {
      "anonymous": false,
      "inputs": [
        {
          "indexed": true,
          "internalType": "bytes32",
          "name": "jobId",
          "type": "bytes32"
        },
        {
          "indexed": false,
          "internalType": "uint256",
          "name": "timestamp",
          "type": "uint256"
        }
      ],
      "name": "JobCompleted",
      "type": "event"
    },
    {
      "anonymous": false,
      "inputs": [
        {
          "indexed": true,
          "internalType": "bytes32",
          "name": "jobId",
          "type": "bytes32"
        },
        {
          "indexed": false,
          "internalType": "uint256",
          "name": "timestamp",
          "type": "uint256"
        }
      ],
      "name": "JobDisputed",
      "type": "event"
    },
    {
      "anonymous": false,
      "inputs": [
        {
          "indexed": true,
          "internalType": "bytes32",
          "name": "jobHash",
          "type": "bytes32"
        },
        {
          "indexed": false,
          "internalType": "uint256",
          "name": "timestamp",
          "type": "uint256"
        },
        {
          "indexed": false,
          "internalType": "address[]",
          "name": "seedValidators",
          "type": "address[]"
        }
      ],
      "name": "JobRequested",
      "type": "event"
    },
    {
      "anonymous": false,
      "inputs": [
        {
          "indexed": true,
          "internalType": "address",
          "name": "validator",
          "type": "address"
        },
        {
          "indexed": false,
          "internalType": "uint256",
          "name": "amount",
          "type": "uint256"
        }
      ],
      "name": "TokensLocked",
      "type": "event"
    },
    {
      "anonymous": false,
      "inputs": [
        {
          "indexed": true,
          "internalType": "address",
          "name": "validtor",
          "type": "address"
        },
        {
          "indexed": false,
          "internalType": "uint256",
          "name": "amount",
          "type": "uint256"
        }
      ],
      "name": "TokensUnlocked",
      "type": "event"
    },
    {
      "anonymous": false,
      "inputs": [
        {
          "indexed": true,
          "internalType": "address",
          "name": "from",
          "type": "address"
        },
        {
          "indexed": true,
          "internalType": "address",
          "name": "to",
          "type": "address"
        },
        {
          "indexed": false,
          "internalType": "uint256",
          "name": "value",
          "type": "uint256"
        }
      ],
      "name": "Transfer",
      "type": "event"
    },
    {
      "anonymous": false,
      "inputs": [
        {
          "indexed": true,
          "internalType": "address",
          "name": "validator",
          "type": "address"
        },
        {
          "indexed": false,
          "internalType": "uint256",
          "name": "unlockTime",
          "type": "uint256"
        }
      ],
      "name": "UnlockInitiated",
      "type": "event"
    },
    {
      "inputs": [
        {
          "internalType": "uint256",
          "name": "",
          "type": "uint256"
        }
      ],
      "name": "activeJobs",
      "outputs": [
        {
          "internalType": "uint256",
          "name": "",
          "type": "uint256"
        }
      ],
      "stateMutability": "view",
      "type": "function"
    },
    {
      "inputs": [],
      "name": "activeValidators",
      "outputs": [
        {
          "internalType": "uint256",
          "name": "",
          "type": "uint256"
        }
      ],
      "stateMutability": "view",
      "type": "function"
    },
    {
      "inputs": [
        {
          "internalType": "address",
          "name": "owner",
          "type": "address"
        },
        {
          "internalType": "address",
          "name": "spender",
          "type": "address"
        }
      ],
      "name": "allowance",
      "outputs": [
        {
          "internalType": "uint256",
          "name": "",
          "type": "uint256"
        }
      ],
      "stateMutability": "view",
      "type": "function"
    },
    {
      "inputs": [
        {
          "internalType": "address",
          "name": "spender",
          "type": "address"
        },
        {
          "internalType": "uint256",
          "name": "amount",
          "type": "uint256"
        }
      ],
      "name": "approve",
      "outputs": [
        {
          "internalType": "bool",
          "name": "",
          "type": "bool"
        }
      ],
      "stateMutability": "nonpayable",
      "type": "function"
    },
    {
      "inputs": [
        {
          "internalType": "address",
          "name": "account",
          "type": "address"
        }
      ],
      "name": "balanceOf",
      "outputs": [
        {
          "internalType": "uint256",
          "name": "",
          "type": "uint256"
        }
      ],
      "stateMutability": "view",
      "type": "function"
    },
    {
      "inputs": [
        {
          "internalType": "bytes32",
          "name": "jobHash",
          "type": "bytes32"
        },
        {
          "internalType": "address[]",
          "name": "_workers",
          "type": "address[]"
        }
      ],
      "name": "completeJob",
      "outputs": [
        {
          "internalType": "uint256[]",
          "name": "",
          "type": "uint256[]"
        }
      ],
      "stateMutability": "nonpayable",
      "type": "function"
    },
    {
      "inputs": [
        {
          "internalType": "bytes32",
          "name": "_publicKeyHash",
          "type": "bytes32"
        }
      ],
      "name": "createUser",
      "outputs": [],
      "stateMutability": "nonpayable",
      "type": "function"
    },
    {
      "inputs": [
        {
          "internalType": "bytes32",
          "name": "_publicKeyHash",
          "type": "bytes32"
        },
        {
          "internalType": "uint256",
          "name": "_lockAmount",
          "type": "uint256"
        }
      ],
      "name": "createValidator",
      "outputs": [],
      "stateMutability": "nonpayable",
      "type": "function"
    },
    {
      "inputs": [],
      "name": "decimals",
      "outputs": [
        {
          "internalType": "uint8",
          "name": "",
          "type": "uint8"
        }
      ],
      "stateMutability": "view",
      "type": "function"
    },
    {
      "inputs": [
        {
          "internalType": "address",
          "name": "spender",
          "type": "address"
        },
        {
          "internalType": "uint256",
          "name": "subtractedValue",
          "type": "uint256"
        }
      ],
      "name": "decreaseAllowance",
      "outputs": [
        {
          "internalType": "bool",
          "name": "",
          "type": "bool"
        }
      ],
      "stateMutability": "nonpayable",
      "type": "function"
    },
    {
      "inputs": [
        {
          "internalType": "bytes32",
          "name": "jobHash",
          "type": "bytes32"
        }
      ],
      "name": "disputeJob",
      "outputs": [],
      "stateMutability": "nonpayable",
      "type": "function"
    },
    {
      "inputs": [],
      "name": "emissionRate",
      "outputs": [
        {
          "internalType": "uint256",
          "name": "",
          "type": "uint256"
        }
      ],
      "stateMutability": "view",
      "type": "function"
    },
    {
      "inputs": [],
      "name": "getActiveValidatorCount",
      "outputs": [
        {
          "internalType": "uint256",
          "name": "",
          "type": "uint256"
        }
      ],
      "stateMutability": "view",
      "type": "function"
    },
    {
      "inputs": [],
      "name": "getEmissionRate",
      "outputs": [
        {
          "internalType": "uint256",
          "name": "",
          "type": "uint256"
        }
      ],
      "stateMutability": "view",
      "type": "function"
    },
    {
      "inputs": [
        {
          "internalType": "bytes32",
          "name": "jobHash",
          "type": "bytes32"
        }
      ],
      "name": "getJobValidators",
      "outputs": [
        {
          "internalType": "address[]",
          "name": "",
          "type": "address[]"
        }
      ],
      "stateMutability": "view",
      "type": "function"
    },
    {
      "inputs": [],
      "name": "getProposees",
      "outputs": [
        {
          "internalType": "address[]",
          "name": "",
          "type": "address[]"
        }
      ],
      "stateMutability": "view",
      "type": "function"
    },
    {
      "inputs": [],
      "name": "getState",
      "outputs": [
        {
          "internalType": "uint256",
          "name": "",
          "type": "uint256"
        },
        {
          "internalType": "uint256",
          "name": "",
          "type": "uint256"
        },
        {
          "internalType": "uint256",
          "name": "",
          "type": "uint256"
        },
        {
          "internalType": "address[]",
          "name": "",
          "type": "address[]"
        }
      ],
      "stateMutability": "view",
      "type": "function"
    },
    {
      "inputs": [],
      "name": "getSupply",
      "outputs": [
        {
          "internalType": "uint256",
          "name": "",
          "type": "uint256"
        }
      ],
      "stateMutability": "view",
      "type": "function"
    },
    {
      "inputs": [],
      "name": "getUserCount",
      "outputs": [
        {
          "internalType": "uint256",
          "name": "",
          "type": "uint256"
        }
      ],
      "stateMutability": "view",
      "type": "function"
    },
    {
      "inputs": [
        {
          "internalType": "address",
          "name": "validatorAddress",
          "type": "address"
        }
      ],
      "name": "getValidatorBytes",
      "outputs": [
        {
          "internalType": "bytes32",
          "name": "",
          "type": "bytes32"
        }
      ],
      "stateMutability": "view",
      "type": "function"
    },
    {
      "inputs": [],
      "name": "getValidatorCount",
      "outputs": [
        {
          "internalType": "uint256",
          "name": "",
          "type": "uint256"
        }
      ],
      "stateMutability": "view",
      "type": "function"
    },
    {
      "inputs": [
        {
          "internalType": "uint256",
          "name": "_validatorId",
          "type": "uint256"
        }
      ],
      "name": "getValidatorInfo",
      "outputs": [
        {
          "internalType": "bool",
          "name": "",
          "type": "bool"
        },
        {
          "internalType": "bytes32",
          "name": "",
          "type": "bytes32"
        },
        {
          "internalType": "address",
          "name": "",
          "type": "address"
        }
      ],
      "stateMutability": "view",
      "type": "function"
    },
    {
      "inputs": [],
      "name": "halving",
      "outputs": [
        {
          "internalType": "uint256",
          "name": "",
          "type": "uint256"
        }
      ],
      "stateMutability": "view",
      "type": "function"
    },
    {
      "inputs": [
        {
          "internalType": "address",
          "name": "spender",
          "type": "address"
        },
        {
          "internalType": "uint256",
          "name": "addedValue",
          "type": "uint256"
        }
      ],
      "name": "increaseAllowance",
      "outputs": [
        {
          "internalType": "bool",
          "name": "",
          "type": "bool"
        }
      ],
      "stateMutability": "nonpayable",
      "type": "function"
    },
    {
      "inputs": [
        {
          "internalType": "address[]",
          "name": "_genesisNodes",
          "type": "address[]"
        }
      ],
      "name": "initialize",
      "outputs": [],
      "stateMutability": "nonpayable",
      "type": "function"
    },
    {
      "inputs": [
        {
          "internalType": "address",
          "name": "validatorAddr",
          "type": "address"
        }
      ],
      "name": "isLocked",
      "outputs": [
        {
          "internalType": "bool",
          "name": "",
          "type": "bool"
        }
      ],
      "stateMutability": "view",
      "type": "function"
    },
    {
      "inputs": [],
      "name": "jobCounter",
      "outputs": [
        {
          "internalType": "uint256",
          "name": "",
          "type": "uint256"
        }
      ],
      "stateMutability": "view",
      "type": "function"
    },
    {
      "inputs": [
        {
          "internalType": "bytes32",
          "name": "",
          "type": "bytes32"
        }
      ],
      "name": "jobs",
      "outputs": [
        {
          "internalType": "address",
          "name": "author",
          "type": "address"
        },
        {
          "internalType": "bool",
          "name": "activity",
          "type": "bool"
        }
      ],
      "stateMutability": "view",
      "type": "function"
    },
    {
      "inputs": [],
      "name": "lockAmount",
      "outputs": [
        {
          "internalType": "uint256",
          "name": "",
          "type": "uint256"
        }
      ],
      "stateMutability": "view",
      "type": "function"
    },
    {
      "inputs": [
        {
          "internalType": "uint256",
          "name": "amount",
          "type": "uint256"
        }
      ],
      "name": "lockTokens",
      "outputs": [],
      "stateMutability": "nonpayable",
      "type": "function"
    },
    {
      "inputs": [],
      "name": "maxValidators",
      "outputs": [
        {
          "internalType": "uint256",
          "name": "",
          "type": "uint256"
        }
      ],
      "stateMutability": "view",
      "type": "function"
    },
    {
      "inputs": [],
      "name": "minValidators",
      "outputs": [
        {
          "internalType": "uint256",
          "name": "",
          "type": "uint256"
        }
      ],
      "stateMutability": "view",
      "type": "function"
    },
    {
      "inputs": [
        {
          "internalType": "address[]",
          "name": "_workers",
          "type": "address[]"
        },
        {
          "internalType": "uint256[]",
          "name": "_workerCapacities",
          "type": "uint256[]"
        },
        {
          "internalType": "uint256",
          "name": "_totalCapacity",
          "type": "uint256"
        },
        {
          "internalType": "address[]",
          "name": "_validatorsVoted",
          "type": "address[]"
        }
      ],
      "name": "mintTokens",
      "outputs": [],
      "stateMutability": "nonpayable",
      "type": "function"
    },
    {
      "inputs": [],
      "name": "name",
      "outputs": [
        {
          "internalType": "string",
          "name": "",
          "type": "string"
        }
      ],
      "stateMutability": "view",
      "type": "function"
    },
    {
      "inputs": [
        {
          "internalType": "bytes32",
          "name": "userHash",
          "type": "bytes32"
        },
        {
          "internalType": "bytes32",
          "name": "jobHash",
          "type": "bytes32"
        },
        {
          "internalType": "uint256[]",
          "name": "_capacities",
          "type": "uint256[]"
        }
      ],
      "name": "requestJob",
      "outputs": [
        {
          "internalType": "uint256[]",
          "name": "validatorIds",
          "type": "uint256[]"
        }
      ],
      "stateMutability": "nonpayable",
      "type": "function"
    },
    {
      "inputs": [
        {
          "internalType": "address",
          "name": "validatorAddress",
          "type": "address"
        }
      ],
      "name": "setValidatorContract",
      "outputs": [],
      "stateMutability": "nonpayable",
      "type": "function"
    },
    {
      "inputs": [],
      "name": "symbol",
      "outputs": [
        {
          "internalType": "string",
          "name": "",
          "type": "string"
        }
      ],
      "stateMutability": "view",
      "type": "function"
    },
    {
      "inputs": [],
      "name": "timeSinceLastHalving",
      "outputs": [
        {
          "internalType": "uint256",
          "name": "",
          "type": "uint256"
        }
      ],
      "stateMutability": "view",
      "type": "function"
    },
    {
      "inputs": [],
      "name": "totalLocked",
      "outputs": [
        {
          "internalType": "uint256",
          "name": "",
          "type": "uint256"
        }
      ],
      "stateMutability": "view",
      "type": "function"
    },
    {
      "inputs": [],
      "name": "totalSupply",
      "outputs": [
        {
          "internalType": "uint256",
          "name": "",
          "type": "uint256"
        }
      ],
      "stateMutability": "view",
      "type": "function"
    },
    {
      "inputs": [
        {
          "internalType": "address",
          "name": "to",
          "type": "address"
        },
        {
          "internalType": "uint256",
          "name": "amount",
          "type": "uint256"
        }
      ],
      "name": "transfer",
      "outputs": [
        {
          "internalType": "bool",
          "name": "",
          "type": "bool"
        }
      ],
      "stateMutability": "nonpayable",
      "type": "function"
    },
    {
      "inputs": [
        {
          "internalType": "address",
          "name": "from",
          "type": "address"
        },
        {
          "internalType": "address",
          "name": "to",
          "type": "address"
        },
        {
          "internalType": "uint256",
          "name": "amount",
          "type": "uint256"
        }
      ],
      "name": "transferFrom",
      "outputs": [
        {
          "internalType": "bool",
          "name": "",
          "type": "bool"
        }
      ],
      "stateMutability": "nonpayable",
      "type": "function"
    },
    {
      "inputs": [],
      "name": "unlockPeriod",
      "outputs": [
        {
          "internalType": "uint256",
          "name": "",
          "type": "uint256"
        }
      ],
      "stateMutability": "view",
      "type": "function"
    },
    {
      "inputs": [
        {
          "internalType": "uint256",
          "name": "amount",
          "type": "uint256"
        }
      ],
      "name": "unlockTokens",
      "outputs": [],
      "stateMutability": "nonpayable",
      "type": "function"
    },
    {
      "inputs": [],
      "name": "userCounter",
      "outputs": [
        {
          "internalType": "uint256",
          "name": "",
          "type": "uint256"
        }
      ],
      "stateMutability": "view",
      "type": "function"
    },
    {
      "inputs": [
        {
          "internalType": "address",
          "name": "",
          "type": "address"
        }
      ],
      "name": "userHashByAddress",
      "outputs": [
        {
          "internalType": "bytes32",
          "name": "",
          "type": "bytes32"
        }
      ],
      "stateMutability": "view",
      "type": "function"
    },
    {
      "inputs": [
        {
          "internalType": "bytes32",
          "name": "",
          "type": "bytes32"
        }
      ],
      "name": "users",
      "outputs": [
        {
          "internalType": "address",
          "name": "userAddress",
          "type": "address"
        },
        {
          "internalType": "bytes32",
          "name": "publicKeyHash",
          "type": "bytes32"
        },
        {
          "internalType": "uint8",
          "name": "reputation",
          "type": "uint8"
        }
      ],
      "stateMutability": "view",
      "type": "function"
    },
    {
      "inputs": [
        {
          "internalType": "bytes32",
          "name": "",
          "type": "bytes32"
        }
      ],
      "name": "validatorAddressByHash",
      "outputs": [
        {
          "internalType": "address",
          "name": "",
          "type": "address"
        }
      ],
      "stateMutability": "view",
      "type": "function"
    },
    {
      "inputs": [],
      "name": "validatorContractAddress",
      "outputs": [
        {
          "internalType": "address",
          "name": "",
          "type": "address"
        }
      ],
      "stateMutability": "view",
      "type": "function"
    },
    {
      "inputs": [
        {
          "internalType": "address",
          "name": "",
          "type": "address"
        }
      ],
      "name": "validatorIdByAddress",
      "outputs": [
        {
          "internalType": "uint256",
          "name": "",
          "type": "uint256"
        }
      ],
      "stateMutability": "view",
      "type": "function"
    },
    {
      "inputs": [],
      "name": "validatorIdCounter",
      "outputs": [
        {
          "internalType": "uint256",
          "name": "",
          "type": "uint256"
        }
      ],
      "stateMutability": "view",
      "type": "function"
    },
    {
      "inputs": [
        {
          "internalType": "uint256",
          "name": "",
          "type": "uint256"
        }
      ],
      "name": "validators",
      "outputs": [
        {
          "internalType": "bytes32",
          "name": "publicKeyHash",
          "type": "bytes32"
        },
        {
          "internalType": "address",
          "name": "validatorAddress",
          "type": "address"
        },
        {
          "internalType": "uint256",
          "name": "locked",
          "type": "uint256"
        },
        {
          "internalType": "uint256",
          "name": "unlockTime",
          "type": "uint256"
        },
        {
          "internalType": "uint8",
          "name": "reputation",
          "type": "uint8"
        }
      ],
      "stateMutability": "view",
      "type": "function"
    },
    {
      "inputs": [
        {
          "internalType": "bytes32",
          "name": "",
          "type": "bytes32"
        }
      ],
      "name": "workers",
      "outputs": [
        {
          "internalType": "address",
          "name": "",
          "type": "address"
        }
      ],
      "stateMutability": "view",
      "type": "function"
    }
  ],
  "bytecode": "6080604052348015600f57600080fd5b50612bab8061001f6000396000f3fe608060405234801561001057600080fd5b50600436106103275760003560e01c806370a08231116101b8578063ba3f544311610104578063d057fc19116100a2578063d8df5dc11161007c578063d8df5dc11461081d578063dd62ed3e14610826578063f0c37a591461085f578063f79621bd1461086857600080fd5b8063d057fc19146107cb578063d2d49c4b146107eb578063d3eece97146107f457600080fd5b8063c5ab2241116100de578063c5ab224114610742578063c8df245a1461074b578063cdf64a7614610754578063cea6ab981461076757600080fd5b8063ba3f544314610714578063bc1d82a114610727578063c0a77da91461073a57600080fd5b8063a3273d2211610171578063abf7bfd81161014b578063abf7bfd8146106b7578063b115f50d146106ca578063b5cb15f7146106d3578063b7797537146106db57600080fd5b8063a3273d221461067e578063a457c2d714610691578063a9059cbb146106a457600080fd5b806370a08231146106155780637c4053251461063e5780638f029d5e1461065157806395d89b411461065a57806396afc45014610662578063a224cee71461066b57600080fd5b806338e56261116102775780634a4fbeec1161023057806362fb00fc1161020a57806362fb00fc146105df5780636c9c2faf146105f25780636e27d889146105fa5780637071688a1461060d57600080fd5b80634a4fbeec1461058d57806350355d76146105cd57806356891412146105d657600080fd5b806338e56261146104a757806338ed7cfc146104e8578063395093511461053d57806343a8d914146105505780634966d08614610563578063497dfe631461057857600080fd5b806320d3a0b4116102e457806327764547116102be57806327764547146103f3578063313ce5671461041357806335aa2e441461042257806337deea701461049f57600080fd5b806320d3a0b4146103c457806321b0908b146103cd57806323b872dd146103e057600080fd5b806306fdde031461032c57806308ac52561461034a578063095ea7b31461036157806318160ddd146103845780631865c57d1461038c5780631d4e7793146103a4575b600080fd5b61033461087b565b6040516103419190612272565b60405180910390f35b610353606c5481565b604051908152602001610341565b61037461036f3660046122d6565b61090d565b6040519015158152602001610341565b603554610353565b610394610927565b6040516103419493929190612347565b6103b76103b2366004612376565b6109b7565b60405161034191906123f9565b61035360715481565b6103536103db36600461243d565b610d36565b6103746103ee366004612456565b610d57565b610353610401366004612497565b607a6020526000908152604090205481565b60405160128152602001610341565b61046c61043036600461243d565b6076602052600090815260409020805460018201546002830154600384015460049094015492936001600160a01b039092169290919060ff1685565b604080519586526001600160a01b03909416602086015292840191909152606083015260ff16608082015260a001610341565b610353610d7b565b6104d06104b536600461243d565b6075602052600090815260409020546001600160a01b031681565b6040516001600160a01b039091168152602001610341565b61051e6104f636600461243d565b607760205260009081526040902080546004909101546001600160a01b039091169060ff1682565b604080516001600160a01b039093168352901515602083015201610341565b61037461054b3660046122d6565b610dee565b6103b761055e36600461259e565b610e2d565b61056b610f57565b60405161034191906125e5565b61058b6105863660046125f8565b610fc9565b005b61037461059b366004612497565b6001600160a01b03166000908152607a6020908152604080832054607054908452607690925290912060020154101590565b61035360695481565b610353606d5481565b6103536105ed366004612497565b611167565b6103536111de565b61058b61060836600461243d565b61121e565b61035361122b565b610353610623366004612497565b6001600160a01b031660009081526033602052604090205490565b61058b61064c36600461243d565b61123c565b61035360675481565b610334611442565b610353606f5481565b61058b61067936600461261a565b611451565b61058b61068c366004612657565b6115d4565b61037461069f3660046122d6565b611746565b6103746106b23660046122d6565b6117d8565b61058b6106c536600461243d565b6117e6565b61035360725481565b6103536118cb565b6106ee6106e936600461243d565b6118dc565b60408051931515845260208401929092526001600160a01b031690820152606001610341565b61058b61072236600461243d565b6119f1565b61056b61073536600461243d565b611a6f565b606f54610353565b610353606b5481565b610353606e5481565b61058b610762366004612497565b611ade565b6107a361077536600461243d565b6073602052600090815260409020805460018201546002909201546001600160a01b03909116919060ff1683565b604080516001600160a01b039094168452602084019290925260ff1690820152606001610341565b6103536107d9366004612497565b60796020526000908152604090205481565b610353606a5481565b6104d061080236600461243d565b6074602052600090815260409020546001600160a01b031681565b61035360705481565b61035361083436600461273d565b6001600160a01b03918216600090815260346020908152604080832093909416825291909152205490565b61035360685481565b6066546104d0906001600160a01b031681565b60606036805461088a90612776565b80601f01602080910402602001604051908101604052809291908181526020018280546108b690612776565b80156109035780601f106108d857610100808354040283529160200191610903565b820191906000526020600020905b8154815290600101906020018083116108e657829003601f168201915b5050505050905090565b60003361091b818585611b63565b60019150505b92915050565b60008060006060606560009054906101000a90046001600160a01b03166001600160a01b0316631865c57d6040518163ffffffff1660e01b8152600401600060405180830381865afa158015610981573d6000803e3d6000fd5b505050506040513d6000823e601f3d908101601f191682016040526109a99190810190612818565b935093509350935090919293565b6066546060906001600160a01b031633146109fc57336000908152607960205260409020546109fc576109e9856117e6565b3360009081526079602052604090205494505b84610a455760405162461bcd60e51b815260206004820152601460248201527355736572206e6f7420726567697374657265642160601b60448201526064015b60405180910390fd5b6000848152607760205260409020546001600160a01b031615610aa15760405162461bcd60e51b81526020600482015260146024820152732537b11030b63932b0b23c9031b932b0ba32b21760611b6044820152606401610a3c565b6065546040516371547b7960e11b8152600160048201526000916001600160a01b03169063e2a8f6f290602401600060405180830381865afa158015610aeb573d6000803e3d6000fd5b505050506040513d6000823e601f3d908101601f19168201604052610b139190810190612866565b604080516001808252818301909252919250600091906020808301908036833701905050905060005b8251811015610ba957607a6000848381518110610b5b57610b5b61289b565b60200260200101516001600160a01b03166001600160a01b0316815260200190815260200160002054828281518110610b9657610b9661289b565b6020908102919091010152600101610b3c565b506040805160a081018252338152602081018490529081018567ffffffffffffffff811115610bda57610bda6124bb565b604051908082528060200260200182016040528015610c03578160200160208202803683370190505b50815260200186868080602002602001604051908101604052809392919081815260200183836020028082843760009201829052509385525050600160209384018190528a8352607784526040909220845181546001600160a01b0319166001600160a01b039091161781558484015180519194610c86948601935001906121bd565b5060408201518051610ca29160028401916020909101906121bd565b5060608201518051610cbe916003840191602090910190612222565b50608091909101516004909101805460ff191691151591909117905560405186907f5dd5aff7b55a6d23db5800ae74fafb29f5f00976a85526c852c81900d14cf3e790610d0e90429086906128b1565b60405180910390a260698054906000610d26836128e0565b9091555090979650505050505050565b60788181548110610d4657600080fd5b600091825260209091200154905081565b600033610d65858285611c87565b610d70858585611d19565b506001949350505050565b606554604080516348f1712960e11b815290516000926001600160a01b0316916391e2e2529160048083019260209291908290030181865afa158015610dc5573d6000803e3d6000fd5b505050506040513d601f19601f82011682018060405250810190610de991906128f9565b905090565b3360008181526034602090815260408083206001600160a01b038716845290915281205490919061091b9082908690610e28908790612912565b611b63565b6066546060906001600160a01b03163314610e5a5760405162461bcd60e51b8152600401610a3c90612925565b600083815260776020526040902060030154825114610e7857600080fd5b60008381526077602090815260409091208351610e9d926002909201918501906121bd565b5060008381526077602052604090819020600401805460ff191690555183907f9b5ed714c31dfcb1a9397710b6fc1842f37d94ab5dc0ccb528d9a2c97ea76f2a90610eeb9042815260200190565b60405180910390a260008381526077602090815260409182902060030180548351818402810184019094528084529091830182828015610f4a57602002820191906000526020600020905b815481526020019060010190808311610f36575b5050505050905092915050565b6065546040805163fbcca27360e01b815290516060926001600160a01b03169163fbcca2739160048083019260009291908290030181865afa158015610fa1573d6000803e3d6000fd5b505050506040513d6000823e601f3d908101601f19168201604052610de99190810190612866565b336000908152607a6020526040902054156110265760405162461bcd60e51b815260206004820152601960248201527f56616c696461746f7220616c7265616479206578697374732e000000000000006044820152606401610a3c565b33600090815260336020526040902054811115801561104757506070548110155b6110935760405162461bcd60e51b815260206004820152601b60248201527f496e73756666696369656e7420746f6b656e2062616c616e63652e00000000006044820152606401610a3c565b6040805160a08101825283815233602080830182815260708054858701908152600060608701818152603260808901908152606780548452607688528a842099518a55955160018a0180546001600160a01b039092166001600160a01b0319928316179055935160028a015590516003890155516004909701805460ff90981660ff19909816979097179096559154848652607a845286862055878552607590925293909220805490931681179092555461114e9190611ee7565b6067805490600061115e836128e0565b91905055505050565b6001600160a01b0381166000908152607a6020526040812054806111c95760405162461bcd60e51b81526020600482015260196024820152782b30b634b230ba37b9103237b2b9903737ba1032bc34b9ba1760391b6044820152606401610a3c565b60009081526076602052604090205492915050565b6000306001600160a01b03166318160ddd6040518163ffffffff1660e01b8152600401602060405180830381865afa158015610dc5573d6000803e3d6000fd5b6112283382611ee7565b50565b60006001606754610de9919061296b565b336000908152607a6020526040902054806112995760405162461bcd60e51b815260206004820152601b60248201527f4e6f74206120726567697374657265642076616c696461746f722e00000000006044820152606401610a3c565b600081815260766020526040902060028101548311156112fb5760405162461bcd60e51b815260206004820152601e60248201527f416d6f756e742065786365656473206c6f636b65642062616c616e63652e00006044820152606401610a3c565b6000831161131b5760405162461bcd60e51b8152600401610a3c9061297e565b8060030154600003611393576071546113349042612912565b816003018190555082606d600082825461134e919061296b565b9091555050600381015460405190815233907f77635f8f13ee1a01d11246347c649817c6ee9fa7620ce4c6adfa2452bfa162b2906020015b60405180910390a2505050565b80600301544210156113e75760405162461bcd60e51b815260206004820152601860248201527f546f6b656e7320617265207374696c6c206c6f636b65642e00000000000000006044820152606401610a3c565b828160020160008282546113fb919061296b565b9091555061140b90503384612072565b60405183815233907fe7b379c6c1fa169e9079c25e9143b127637eef8ec8c9d5c06ddb4ab3e119588890602001611386565b505050565b60606037805461088a90612776565b600054610100900460ff1661146c5760005460ff1615611470565b303b155b6114d35760405162461bcd60e51b815260206004820152602e60248201527f496e697469616c697a61626c653a20636f6e747261637420697320616c72656160448201526d191e481a5b9a5d1a585b1a5e995960921b6064820152608401610a3c565b600054610100900460ff161580156114f5576000805461ffff19166101011790555b61153c6040518060400160405280600a815260200169536d6172746e6f64657360b01b81525060405180604001604052806003815260200162534e4f60e81b815250612151565b600160688190556069819055606755680de0b6b3a764000000606f5569152d02c7e14af68000006070556303205b7e606e5562127500607155600060728190555b82518110156115b3576115ab83828151811061159b5761159b61289b565b6020026020010151607054612072565b60010161157d565b506001606b556005606c5580156115d0576000805461ff00191690555b5050565b6066546001600160a01b031633146115fe5760405162461bcd60e51b8152600401610a3c90612925565b606e546072541061163457671bc16d674ec80000606f541115611634576002606f600082825461162e91906129bf565b90915550505b60006064606f54601461164791906129e1565b61165191906129bf565b905060006064606f54605061166691906129e1565b61167091906129bf565b9050600083518361168191906129bf565b905060005b84518110156116ba576116b28582815181106116a4576116a461289b565b602002602001015183612072565b600101611686565b5060005b875181101561172757600086848984815181106116dd576116dd61289b565b60200260200101516116ef91906129e1565b6116f991906129bf565b905061171e8983815181106117105761171061289b565b602002602001015182612072565b506001016116be565b5060728054906000611738836128e0565b919050555050505050505050565b3360008181526034602090815260408083206001600160a01b0387168452909152812054909190838110156117cb5760405162461bcd60e51b815260206004820152602560248201527f45524332303a2064656372656173656420616c6c6f77616e63652062656c6f77604482015264207a65726f60d81b6064820152608401610a3c565b610d708286868403611b63565b60003361091b818585611d19565b33600090815260796020526040902054156118435760405162461bcd60e51b815260206004820152601860248201527f5573657220616c726561647920726567697374657265642e00000000000000006044820152606401610a3c565b604080516060810182523380825260208083018581526032848601908152600087815260738452868120955186546001600160a01b0319166001600160a01b0390911617865591516001860155516002909401805460ff191660ff909516949094179093559082526079905290812082905560688054916118c3836128e0565b919050555050565b60006001606854610de9919061296b565b600080600060675484106119205760405162461bcd60e51b815260206004820152600b60248201526a24b73b30b634b21024a21760a91b6044820152606401610a3c565b6000848152607660209081526040808320815160a0810183528154815260018201546001600160a01b039081169482018590526002830154828501526003830154606083015260049283015460ff1660808301526065549351631015428760e21b815292830194909452939291909116906340550a1c90602401602060405180830381865afa1580156119b7573d6000803e3d6000fd5b505050506040513d601f19601f820116820180604052508101906119db91906129f8565b8251602090930151909792965094509092505050565b6066546001600160a01b03163314611a1b5760405162461bcd60e51b8152600401610a3c90612925565b60008181526077602090815260409182902060048101805460ff19169055915142815283917f6e04aa702f9af7a9a398f10d27918152df25ac0cdc6d74321b9f7496374387a7910160405180910390a25050565b6000818152607760209081526040808320600101805482518185028101850190935280835260609493830182828015611ad157602002820191906000526020600020905b81546001600160a01b03168152600190910190602001808311611ab3575b5093979650505050505050565b6066546001600160a01b031615611b375760405162461bcd60e51b815260206004820152601e60248201527f56616c696461746f72206164647265737320616c7265616479207365742e00006044820152606401610a3c565b606580546001600160a01b039092166001600160a01b0319928316811790915560668054909216179055565b6001600160a01b038316611bc55760405162461bcd60e51b8152602060048201526024808201527f45524332303a20617070726f76652066726f6d20746865207a65726f206164646044820152637265737360e01b6064820152608401610a3c565b6001600160a01b038216611c265760405162461bcd60e51b815260206004820152602260248201527f45524332303a20617070726f766520746f20746865207a65726f206164647265604482015261737360f01b6064820152608401610a3c565b6001600160a01b0383811660008181526034602090815260408083209487168084529482529182902085905590518481527f8c5be1e5ebec7d5bd14f71427d1e84f3dd0314c0f7b2291e5b200ac8c7c3b925910160405180910390a3505050565b6001600160a01b038381166000908152603460209081526040808320938616835292905220546000198114611d135781811015611d065760405162461bcd60e51b815260206004820152601d60248201527f45524332303a20696e73756666696369656e7420616c6c6f77616e63650000006044820152606401610a3c565b611d138484848403611b63565b50505050565b6001600160a01b038316611d7d5760405162461bcd60e51b815260206004820152602560248201527f45524332303a207472616e736665722066726f6d20746865207a65726f206164604482015264647265737360d81b6064820152608401610a3c565b6001600160a01b038216611ddf5760405162461bcd60e51b815260206004820152602360248201527f45524332303a207472616e7366657220746f20746865207a65726f206164647260448201526265737360e81b6064820152608401610a3c565b6001600160a01b03831660009081526033602052604090205481811015611e575760405162461bcd60e51b815260206004820152602660248201527f45524332303a207472616e7366657220616d6f756e7420657863656564732062604482015265616c616e636560d01b6064820152608401610a3c565b6001600160a01b03808516600090815260336020526040808220858503905591851681529081208054849290611e8e908490612912565b92505081905550826001600160a01b0316846001600160a01b03167fddf252ad1be2c89b69c2b068fc378daa952ba7f163c4a11628f55a4df523b3ef84604051611eda91815260200190565b60405180910390a3611d13565b60008111611f075760405162461bcd60e51b8152600401610a3c9061297e565b80611f27836001600160a01b031660009081526033602052604090205490565b1015611f6d5760405162461bcd60e51b815260206004820152601560248201527424b739bab33334b1b4b2b73a103130b630b731b29760591b6044820152606401610a3c565b6001600160a01b0382166000908152607a602052604081205490819003611fd25760405162461bcd60e51b81526020600482015260196024820152782b30b634b230ba37b9103237b2b9903737ba1032bc34b9ba1760391b6044820152606401610a3c565b611fdd833084610d57565b5060008181526076602052604081206002018054849290611fff908490612912565b9091555050600081815260766020526040812060020154606d805491928392612029908490612912565b90915550506040518381526001600160a01b038516907fac87f20a77d28ee8bbb58ec87ea8fa968b3393efae1a368fd50b767c2847391c9060200160405180910390a250505050565b6001600160a01b0382166120c85760405162461bcd60e51b815260206004820152601f60248201527f45524332303a206d696e7420746f20746865207a65726f2061646472657373006044820152606401610a3c565b80603560008282546120da9190612912565b90915550506001600160a01b03821660009081526033602052604081208054839290612107908490612912565b90915550506040518181526001600160a01b038316906000907fddf252ad1be2c89b69c2b068fc378daa952ba7f163c4a11628f55a4df523b3ef9060200160405180910390a35050565b600054610100900460ff166121785760405162461bcd60e51b8152600401610a3c90612a1a565b6115d08282600054610100900460ff166121a45760405162461bcd60e51b8152600401610a3c90612a1a565b60366121b08382612ab5565b50603761143d8282612ab5565b828054828255906000526020600020908101928215612212579160200282015b8281111561221257825182546001600160a01b0319166001600160a01b039091161782556020909201916001909101906121dd565b5061221e92915061225d565b5090565b828054828255906000526020600020908101928215612212579160200282015b82811115612212578251825591602001919060010190612242565b5b8082111561221e576000815560010161225e565b60006020808352835180602085015260005b818110156122a057858101830151858201604001528201612284565b506000604082860101526040601f19601f8301168501019250505092915050565b6001600160a01b038116811461122857600080fd5b600080604083850312156122e957600080fd5b82356122f4816122c1565b946020939093013593505050565b60008151808452602080850194506020840160005b8381101561233c5781516001600160a01b031687529582019590820190600101612317565b509495945050505050565b84815283602082015282604082015260806060820152600061236c6080830184612302565b9695505050505050565b6000806000806060858703121561238c57600080fd5b8435935060208501359250604085013567ffffffffffffffff808211156123b257600080fd5b818701915087601f8301126123c657600080fd5b8135818111156123d557600080fd5b8860208260051b85010111156123ea57600080fd5b95989497505060200194505050565b6020808252825182820181905260009190848201906040850190845b8181101561243157835183529284019291840191600101612415565b50909695505050505050565b60006020828403121561244f57600080fd5b5035919050565b60008060006060848603121561246b57600080fd5b8335612476816122c1565b92506020840135612486816122c1565b929592945050506040919091013590565b6000602082840312156124a957600080fd5b81356124b4816122c1565b9392505050565b634e487b7160e01b600052604160045260246000fd5b604051601f8201601f1916810167ffffffffffffffff811182821017156124fa576124fa6124bb565b604052919050565b600067ffffffffffffffff82111561251c5761251c6124bb565b5060051b60200190565b600082601f83011261253757600080fd5b8135602061254c61254783612502565b6124d1565b8083825260208201915060208460051b87010193508684111561256e57600080fd5b602086015b84811015612593578035612586816122c1565b8352918301918301612573565b509695505050505050565b600080604083850312156125b157600080fd5b82359150602083013567ffffffffffffffff8111156125cf57600080fd5b6125db85828601612526565b9150509250929050565b6020815260006124b46020830184612302565b6000806040838503121561260b57600080fd5b50508035926020909101359150565b60006020828403121561262c57600080fd5b813567ffffffffffffffff81111561264357600080fd5b61264f84828501612526565b949350505050565b6000806000806080858703121561266d57600080fd5b843567ffffffffffffffff8082111561268557600080fd5b61269188838901612526565b95506020915081870135818111156126a857600080fd5b8701601f810189136126b957600080fd5b80356126c761254782612502565b81815260059190911b8201840190848101908b8311156126e657600080fd5b928501925b82841015612704578335825292850192908501906126eb565b975050505060408701359350606087013591508082111561272457600080fd5b5061273187828801612526565b91505092959194509250565b6000806040838503121561275057600080fd5b823561275b816122c1565b9150602083013561276b816122c1565b809150509250929050565b600181811c9082168061278a57607f821691505b6020821081036127aa57634e487b7160e01b600052602260045260246000fd5b50919050565b600082601f8301126127c157600080fd5b815160206127d161254783612502565b8083825260208201915060208460051b8701019350868411156127f357600080fd5b602086015b8481101561259357805161280b816122c1565b83529183019183016127f8565b6000806000806080858703121561282e57600080fd5b845193506020850151925060408501519150606085015167ffffffffffffffff81111561285a57600080fd5b612731878288016127b0565b60006020828403121561287857600080fd5b815167ffffffffffffffff81111561288f57600080fd5b61264f848285016127b0565b634e487b7160e01b600052603260045260246000fd5b82815260406020820152600061264f6040830184612302565b634e487b7160e01b600052601160045260246000fd5b6000600182016128f2576128f26128ca565b5060010190565b60006020828403121561290b57600080fd5b5051919050565b80820180821115610921576109216128ca565b60208082526026908201527f43616c6c6572206d7573742062652074686520536d6172746e6f6465734d756c6040820152653a34a9b4b39760d11b606082015260800190565b81810381811115610921576109216128ca565b60208082526021908201527f416d6f756e74206d7573742062652067726561746572207468616e207a65726f6040820152601760f91b606082015260800190565b6000826129dc57634e487b7160e01b600052601260045260246000fd5b500490565b8082028115828204841417610921576109216128ca565b600060208284031215612a0a57600080fd5b815180151581146124b457600080fd5b6020808252602b908201527f496e697469616c697a61626c653a20636f6e7472616374206973206e6f74206960408201526a6e697469616c697a696e6760a81b606082015260800190565b601f82111561143d576000816000526020600020601f850160051c81016020861015612a8e5750805b601f850160051c820191505b81811015612aad57828155600101612a9a565b505050505050565b815167ffffffffffffffff811115612acf57612acf6124bb565b612ae381612add8454612776565b84612a65565b602080601f831160018114612b185760008415612b005750858301515b600019600386901b1c1916600185901b178555612aad565b600085815260208120601f198616915b82811015612b4757888601518255948401946001909101908401612b28565b5085821015612b655787850151600019600388901b60f8161c191681555b5050505050600190811b0190555056fea26469706673582212203e0b042bc3c84ec0e6949b73143d048b43c61abdbe71086e41c55edf9b86779b64736f6c63430008190033",
  "bytecodeSha1": "d9bfe3101d81702d4cb791c3300193d43a9edcac",
  "compiler": {
    "evm_version": "istanbul",
    "optimizer": {
      "enabled": true,
      "runs": 200
    },
    "version": "0.8.25+commit.b61c2a91"
  },
  "contractName": "SmartnodesCore",
  "language": "Solidity",
  "natspec": {
    "details": "An ERC20 contract for managing off-chain networks",
    "kind": "dev",
    "methods": {
      "allowance(address,address)": {
        "details": "See {IERC20-allowance}."
      },
      "approve(address,uint256)": {
        "details": "See {IERC20-approve}. NOTE: If `amount` is the maximum `uint256`, the allowance is not updated on `transferFrom`. This is semantically equivalent to an infinite approval. Requirements: - `spender` cannot be the zero address."
      },
      "balanceOf(address)": {
        "details": "See {IERC20-balanceOf}."
      },
      "createUser(bytes32)": {
        "details": "Create a User, limit one per address & public key hash (RSA)"
      },
      "createValidator(bytes32,uint256)": {
        "details": "Create a Validator, limit one per address & public key hash (RSA), requires locking up sno"
      },
      "decimals()": {
        "details": "Returns the number of decimals used to get its user representation. For example, if `decimals` equals `2`, a balance of `505` tokens should be displayed to a user as `5.05` (`505 / 10 ** 2`). Tokens usually opt for a value of 18, imitating the relationship between Ether and Wei. This is the value {ERC20} uses, unless this function is overridden; NOTE: This information is only used for _display_ purposes: it in no way affects any of the arithmetic of the contract, including {IERC20-balanceOf} and {IERC20-transfer}."
      },
      "decreaseAllowance(address,uint256)": {
        "details": "Atomically decreases the allowance granted to `spender` by the caller. This is an alternative to {approve} that can be used as a mitigation for problems described in {IERC20-approve}. Emits an {Approval} event indicating the updated allowance. Requirements: - `spender` cannot be the zero address. - `spender` must have allowance for the caller of at least `subtractedValue`."
      },
      "increaseAllowance(address,uint256)": {
        "details": "Atomically increases the allowance granted to `spender` by the caller. This is an alternative to {approve} that can be used as a mitigation for problems described in {IERC20-approve}. Emits an {Approval} event indicating the updated allowance. Requirements: - `spender` cannot be the zero address."
      },
      "lockTokens(uint256)": {
        "details": "Validator token unlocking, 30 day withdrawal period."
      },
      "mintTokens(address[],uint256[],uint256,address[])": {
        "details": "Mint tokens for updating state rewards, distribute 40/60 among validators and workers Updates the emission rate and halving accordingly"
      },
      "name()": {
        "details": "Returns the name of the token."
      },
      "symbol()": {
        "details": "Returns the symbol of the token, usually a shorter version of the name."
      },
      "totalSupply()": {
        "details": "See {IERC20-totalSupply}."
      },
      "transfer(address,uint256)": {
        "details": "See {IERC20-transfer}. Requirements: - `to` cannot be the zero address. - the caller must have a balance of at least `amount`."
      },
      "transferFrom(address,address,uint256)": {
        "details": "See {IERC20-transferFrom}. Emits an {Approval} event indicating the updated allowance. This is not required by the EIP. See the note at the beginning of {ERC20}. NOTE: Does not update the allowance if the current allowance is the maximum `uint256`. Requirements: - `from` and `to` cannot be the zero address. - `from` must have a balance of at least `amount`. - the caller must have allowance for ``from``'s tokens of at least `amount`."
      }
    },
    "title": "SmartNodes",
    "version": 1
  },
  "opcodes": "PUSH1 0x80 PUSH1 0x40 MSTORE CALLVALUE DUP1 ISZERO PUSH2 0x10 JUMPI PUSH1 0x0 DUP1 REVERT JUMPDEST POP PUSH1 0x4 CALLDATASIZE LT PUSH2 0x327 JUMPI PUSH1 0x0 CALLDATALOAD PUSH1 0xE0 SHR DUP1 PUSH4 0x70A08231 GT PUSH2 0x1B8 JUMPI DUP1 PUSH4 0xBA3F5443 GT PUSH2 0x104 JUMPI DUP1 PUSH4 0xD057FC19 GT PUSH2 0xA2 JUMPI DUP1 PUSH4 0xD8DF5DC1 GT PUSH2 0x7C JUMPI DUP1 PUSH4 0xD8DF5DC1 EQ PUSH2 0x81D JUMPI DUP1 PUSH4 0xDD62ED3E EQ PUSH2 0x826 JUMPI DUP1 PUSH4 0xF0C37A59 EQ PUSH2 0x85F JUMPI DUP1 PUSH4 0xF79621BD EQ PUSH2 0x868 JUMPI PUSH1 0x0 DUP1 REVERT JUMPDEST DUP1 PUSH4 0xD057FC19 EQ PUSH2 0x7CB JUMPI DUP1 PUSH4 0xD2D49C4B EQ PUSH2 0x7EB JUMPI DUP1 PUSH4 0xD3EECE97 EQ PUSH2 0x7F4 JUMPI PUSH1 0x0 DUP1 REVERT JUMPDEST DUP1 PUSH4 0xC5AB2241 GT PUSH2 0xDE JUMPI DUP1 PUSH4 0xC5AB2241 EQ PUSH2 0x742 JUMPI DUP1 PUSH4 0xC8DF245A EQ PUSH2 0x74B JUMPI DUP1 PUSH4 0xCDF64A76 EQ PUSH2 0x754 JUMPI DUP1 PUSH4 0xCEA6AB98 EQ PUSH2 0x767 JUMPI PUSH1 0x0 DUP1 REVERT JUMPDEST DUP1 PUSH4 0xBA3F5443 EQ PUSH2 0x714 JUMPI DUP1 PUSH4 0xBC1D82A1 EQ PUSH2 0x727 JUMPI DUP1 PUSH4 0xC0A77DA9 EQ PUSH2 0x73A JUMPI PUSH1 0x0 DUP1 REVERT JUMPDEST DUP1 PUSH4 0xA3273D22 GT PUSH2 0x171 JUMPI DUP1 PUSH4 0xABF7BFD8 GT PUSH2 0x14B JUMPI DUP1 PUSH4 0xABF7BFD8 EQ PUSH2 0x6B7 JUMPI DUP1 PUSH4 0xB115F50D EQ PUSH2 0x6CA JUMPI DUP1 PUSH4 0xB5CB15F7 EQ PUSH2 0x6D3 JUMPI DUP1 PUSH4 0xB7797537 EQ PUSH2 0x6DB JUMPI PUSH1 0x0 DUP1 REVERT JUMPDEST DUP1 PUSH4 0xA3273D22 EQ PUSH2 0x67E JUMPI DUP1 PUSH4 0xA457C2D7 EQ PUSH2 0x691 JUMPI DUP1 PUSH4 0xA9059CBB EQ PUSH2 0x6A4 JUMPI PUSH1 0x0 DUP1 REVERT JUMPDEST DUP1 PUSH4 0x70A08231 EQ PUSH2 0x615 JUMPI DUP1 PUSH4 0x7C405325 EQ PUSH2 0x63E JUMPI DUP1 PUSH4 0x8F029D5E EQ PUSH2 0x651 JUMPI DUP1 PUSH4 0x95D89B41 EQ PUSH2 0x65A JUMPI DUP1 PUSH4 0x96AFC450 EQ PUSH2 0x662 JUMPI DUP1 PUSH4 0xA224CEE7 EQ PUSH2 0x66B JUMPI PUSH1 0x0 DUP1 REVERT JUMPDEST DUP1 PUSH4 0x38E56261 GT PUSH2 0x277 JUMPI DUP1 PUSH4 0x4A4FBEEC GT PUSH2 0x230 JUMPI DUP1 PUSH4 0x62FB00FC GT PUSH2 0x20A JUMPI DUP1 PUSH4 0x62FB00FC EQ PUSH2 0x5DF JUMPI DUP1 PUSH4 0x6C9C2FAF EQ PUSH2 0x5F2 JUMPI DUP1 PUSH4 0x6E27D889 EQ PUSH2 0x5FA JUMPI DUP1 PUSH4 0x7071688A EQ PUSH2 0x60D JUMPI PUSH1 0x0 DUP1 REVERT JUMPDEST DUP1 PUSH4 0x4A4FBEEC EQ PUSH2 0x58D JUMPI DUP1 PUSH4 0x50355D76 EQ PUSH2 0x5CD JUMPI DUP1 PUSH4 0x56891412 EQ PUSH2 0x5D6 JUMPI PUSH1 0x0 DUP1 REVERT JUMPDEST DUP1 PUSH4 0x38E56261 EQ PUSH2 0x4A7 JUMPI DUP1 PUSH4 0x38ED7CFC EQ PUSH2 0x4E8 JUMPI DUP1 PUSH4 0x39509351 EQ PUSH2 0x53D JUMPI DUP1 PUSH4 0x43A8D914 EQ PUSH2 0x550 JUMPI DUP1 PUSH4 0x4966D086 EQ PUSH2 0x563 JUMPI DUP1 PUSH4 0x497DFE63 EQ PUSH2 0x578 JUMPI PUSH1 0x0 DUP1 REVERT JUMPDEST DUP1 PUSH4 0x20D3A0B4 GT PUSH2 0x2E4 JUMPI DUP1 PUSH4 0x27764547 GT PUSH2 0x2BE JUMPI DUP1 PUSH4 0x27764547 EQ PUSH2 0x3F3 JUMPI DUP1 PUSH4 0x313CE567 EQ PUSH2 0x413 JUMPI DUP1 PUSH4 0x35AA2E44 EQ PUSH2 0x422 JUMPI DUP1 PUSH4 0x37DEEA70 EQ PUSH2 0x49F JUMPI PUSH1 0x0 DUP1 REVERT JUMPDEST DUP1 PUSH4 0x20D3A0B4 EQ PUSH2 0x3C4 JUMPI DUP1 PUSH4 0x21B0908B EQ PUSH2 0x3CD JUMPI DUP1 PUSH4 0x23B872DD EQ PUSH2 0x3E0 JUMPI PUSH1 0x0 DUP1 REVERT JUMPDEST DUP1 PUSH4 0x6FDDE03 EQ PUSH2 0x32C JUMPI DUP1 PUSH4 0x8AC5256 EQ PUSH2 0x34A JUMPI DUP1 PUSH4 0x95EA7B3 EQ PUSH2 0x361 JUMPI DUP1 PUSH4 0x18160DDD EQ PUSH2 0x384 JUMPI DUP1 PUSH4 0x1865C57D EQ PUSH2 0x38C JUMPI DUP1 PUSH4 0x1D4E7793 EQ PUSH2 0x3A4 JUMPI JUMPDEST PUSH1 0x0 DUP1 REVERT JUMPDEST PUSH2 0x334 PUSH2 0x87B JUMP JUMPDEST PUSH1 0x40 MLOAD PUSH2 0x341 SWAP2 SWAP1 PUSH2 0x2272 JUMP JUMPDEST PUSH1 0x40 MLOAD DUP1 SWAP2 SUB SWAP1 RETURN JUMPDEST PUSH2 0x353 PUSH1 0x6C SLOAD DUP2 JUMP JUMPDEST PUSH1 0x40 MLOAD SWAP1 DUP2 MSTORE PUSH1 0x20 ADD PUSH2 0x341 JUMP JUMPDEST PUSH2 0x374 PUSH2 0x36F CALLDATASIZE PUSH1 0x4 PUSH2 0x22D6 JUMP JUMPDEST PUSH2 0x90D JUMP JUMPDEST PUSH1 0x40 MLOAD SWAP1 ISZERO ISZERO DUP2 MSTORE PUSH1 0x20 ADD PUSH2 0x341 JUMP JUMPDEST PUSH1 0x35 SLOAD PUSH2 0x353 JUMP JUMPDEST PUSH2 0x394 PUSH2 0x927 JUMP JUMPDEST PUSH1 0x40 MLOAD PUSH2 0x341 SWAP5 SWAP4 SWAP3 SWAP2 SWAP1 PUSH2 0x2347 JUMP JUMPDEST PUSH2 0x3B7 PUSH2 0x3B2 CALLDATASIZE PUSH1 0x4 PUSH2 0x2376 JUMP JUMPDEST PUSH2 0x9B7 JUMP JUMPDEST PUSH1 0x40 MLOAD PUSH2 0x341 SWAP2 SWAP1 PUSH2 0x23F9 JUMP JUMPDEST PUSH2 0x353 PUSH1 0x71 SLOAD DUP2 JUMP JUMPDEST PUSH2 0x353 PUSH2 0x3DB CALLDATASIZE PUSH1 0x4 PUSH2 0x243D JUMP JUMPDEST PUSH2 0xD36 JUMP JUMPDEST PUSH2 0x374 PUSH2 0x3EE CALLDATASIZE PUSH1 0x4 PUSH2 0x2456 JUMP JUMPDEST PUSH2 0xD57 JUMP JUMPDEST PUSH2 0x353 PUSH2 0x401 CALLDATASIZE PUSH1 0x4 PUSH2 0x2497 JUMP JUMPDEST PUSH1 0x7A PUSH1 0x20 MSTORE PUSH1 0x0 SWAP1 DUP2 MSTORE PUSH1 0x40 SWAP1 KECCAK256 SLOAD DUP2 JUMP JUMPDEST PUSH1 0x40 MLOAD PUSH1 0x12 DUP2 MSTORE PUSH1 0x20 ADD PUSH2 0x341 JUMP JUMPDEST PUSH2 0x46C PUSH2 0x430 CALLDATASIZE PUSH1 0x4 PUSH2 0x243D JUMP JUMPDEST PUSH1 0x76 PUSH1 0x20 MSTORE PUSH1 0x0 SWAP1 DUP2 MSTORE PUSH1 0x40 SWAP1 KECCAK256 DUP1 SLOAD PUSH1 0x1 DUP3 ADD SLOAD PUSH1 0x2 DUP4 ADD SLOAD PUSH1 0x3 DUP5 ADD SLOAD PUSH1 0x4 SWAP1 SWAP5 ADD SLOAD SWAP3 SWAP4 PUSH1 0x1 PUSH1 0x1 PUSH1 0xA0 SHL SUB SWAP1 SWAP3 AND SWAP3 SWAP1 SWAP2 SWAP1 PUSH1 0xFF AND DUP6 JUMP JUMPDEST PUSH1 0x40 DUP1 MLOAD SWAP6 DUP7 MSTORE PUSH1 0x1 PUSH1 0x1 PUSH1 0xA0 SHL SUB SWAP1 SWAP5 AND PUSH1 0x20 DUP7 ADD MSTORE SWAP3 DUP5 ADD SWAP2 SWAP1 SWAP2 MSTORE PUSH1 0x60 DUP4 ADD MSTORE PUSH1 0xFF AND PUSH1 0x80 DUP3 ADD MSTORE PUSH1 0xA0 ADD PUSH2 0x341 JUMP JUMPDEST PUSH2 0x353 PUSH2 0xD7B JUMP JUMPDEST PUSH2 0x4D0 PUSH2 0x4B5 CALLDATASIZE PUSH1 0x4 PUSH2 0x243D JUMP JUMPDEST PUSH1 0x75 PUSH1 0x20 MSTORE PUSH1 0x0 SWAP1 DUP2 MSTORE PUSH1 0x40 SWAP1 KECCAK256 SLOAD PUSH1 0x1 PUSH1 0x1 PUSH1 0xA0 SHL SUB AND DUP2 JUMP JUMPDEST PUSH1 0x40 MLOAD PUSH1 0x1 PUSH1 0x1 PUSH1 0xA0 SHL SUB SWAP1 SWAP2 AND DUP2 MSTORE PUSH1 0x20 ADD PUSH2 0x341 JUMP JUMPDEST PUSH2 0x51E PUSH2 0x4F6 CALLDATASIZE PUSH1 0x4 PUSH2 0x243D JUMP JUMPDEST PUSH1 0x77 PUSH1 0x20 MSTORE PUSH1 0x0 SWAP1 DUP2 MSTORE PUSH1 0x40 SWAP1 KECCAK256 DUP1 SLOAD PUSH1 0x4 SWAP1 SWAP2 ADD SLOAD PUSH1 0x1 PUSH1 0x1 PUSH1 0xA0 SHL SUB SWAP1 SWAP2 AND SWAP1 PUSH1 0xFF AND DUP3 JUMP JUMPDEST PUSH1 0x40 DUP1 MLOAD PUSH1 0x1 PUSH1 0x1 PUSH1 0xA0 SHL SUB SWAP1 SWAP4 AND DUP4 MSTORE SWAP1 ISZERO ISZERO PUSH1 0x20 DUP4 ADD MSTORE ADD PUSH2 0x341 JUMP JUMPDEST PUSH2 0x374 PUSH2 0x54B CALLDATASIZE PUSH1 0x4 PUSH2 0x22D6 JUMP JUMPDEST PUSH2 0xDEE JUMP JUMPDEST PUSH2 0x3B7 PUSH2 0x55E CALLDATASIZE PUSH1 0x4 PUSH2 0x259E JUMP JUMPDEST PUSH2 0xE2D JUMP JUMPDEST PUSH2 0x56B PUSH2 0xF57 JUMP JUMPDEST PUSH1 0x40 MLOAD PUSH2 0x341 SWAP2 SWAP1 PUSH2 0x25E5 JUMP JUMPDEST PUSH2 0x58B PUSH2 0x586 CALLDATASIZE PUSH1 0x4 PUSH2 0x25F8 JUMP JUMPDEST PUSH2 0xFC9 JUMP JUMPDEST STOP JUMPDEST PUSH2 0x374 PUSH2 0x59B CALLDATASIZE PUSH1 0x4 PUSH2 0x2497 JUMP JUMPDEST PUSH1 0x1 PUSH1 0x1 PUSH1 0xA0 SHL SUB AND PUSH1 0x0 SWAP1 DUP2 MSTORE PUSH1 0x7A PUSH1 0x20 SWAP1 DUP2 MSTORE PUSH1 0x40 DUP1 DUP4 KECCAK256 SLOAD PUSH1 0x70 SLOAD SWAP1 DUP5 MSTORE PUSH1 0x76 SWAP1 SWAP3 MSTORE SWAP1 SWAP2 KECCAK256 PUSH1 0x2 ADD SLOAD LT ISZERO SWAP1 JUMP JUMPDEST PUSH2 0x353 PUSH1 0x69 SLOAD DUP2 JUMP JUMPDEST PUSH2 0x353 PUSH1 0x6D SLOAD DUP2 JUMP JUMPDEST PUSH2 0x353 PUSH2 0x5ED CALLDATASIZE PUSH1 0x4 PUSH2 0x2497 JUMP JUMPDEST PUSH2 0x1167 JUMP JUMPDEST PUSH2 0x353 PUSH2 0x11DE JUMP JUMPDEST PUSH2 0x58B PUSH2 0x608 CALLDATASIZE PUSH1 0x4 PUSH2 0x243D JUMP JUMPDEST PUSH2 0x121E JUMP JUMPDEST PUSH2 0x353 PUSH2 0x122B JUMP JUMPDEST PUSH2 0x353 PUSH2 0x623 CALLDATASIZE PUSH1 0x4 PUSH2 0x2497 JUMP JUMPDEST PUSH1 0x1 PUSH1 0x1 PUSH1 0xA0 SHL SUB AND PUSH1 0x0 SWAP1 DUP2 MSTORE PUSH1 0x33 PUSH1 0x20 MSTORE PUSH1 0x40 SWAP1 KECCAK256 SLOAD SWAP1 JUMP JUMPDEST PUSH2 0x58B PUSH2 0x64C CALLDATASIZE PUSH1 0x4 PUSH2 0x243D JUMP JUMPDEST PUSH2 0x123C JUMP JUMPDEST PUSH2 0x353 PUSH1 0x67 SLOAD DUP2 JUMP JUMPDEST PUSH2 0x334 PUSH2 0x1442 JUMP JUMPDEST PUSH2 0x353 PUSH1 0x6F SLOAD DUP2 JUMP JUMPDEST PUSH2 0x58B PUSH2 0x679 CALLDATASIZE PUSH1 0x4 PUSH2 0x261A JUMP JUMPDEST PUSH2 0x1451 JUMP JUMPDEST PUSH2 0x58B PUSH2 0x68C CALLDATASIZE PUSH1 0x4 PUSH2 0x2657 JUMP JUMPDEST PUSH2 0x15D4 JUMP JUMPDEST PUSH2 0x374 PUSH2 0x69F CALLDATASIZE PUSH1 0x4 PUSH2 0x22D6 JUMP JUMPDEST PUSH2 0x1746 JUMP JUMPDEST PUSH2 0x374 PUSH2 0x6B2 CALLDATASIZE PUSH1 0x4 PUSH2 0x22D6 JUMP JUMPDEST PUSH2 0x17D8 JUMP JUMPDEST PUSH2 0x58B PUSH2 0x6C5 CALLDATASIZE PUSH1 0x4 PUSH2 0x243D JUMP JUMPDEST PUSH2 0x17E6 JUMP JUMPDEST PUSH2 0x353 PUSH1 0x72 SLOAD DUP2 JUMP JUMPDEST PUSH2 0x353 PUSH2 0x18CB JUMP JUMPDEST PUSH2 0x6EE PUSH2 0x6E9 CALLDATASIZE PUSH1 0x4 PUSH2 0x243D JUMP JUMPDEST PUSH2 0x18DC JUMP JUMPDEST PUSH1 0x40 DUP1 MLOAD SWAP4 ISZERO ISZERO DUP5 MSTORE PUSH1 0x20 DUP5 ADD SWAP3 SWAP1 SWAP3 MSTORE PUSH1 0x1 PUSH1 0x1 PUSH1 0xA0 SHL SUB AND SWAP1 DUP3 ADD MSTORE PUSH1 0x60 ADD PUSH2 0x341 JUMP JUMPDEST PUSH2 0x58B PUSH2 0x722 CALLDATASIZE PUSH1 0x4 PUSH2 0x243D JUMP JUMPDEST PUSH2 0x19F1 JUMP JUMPDEST PUSH2 0x56B PUSH2 0x735 CALLDATASIZE PUSH1 0x4 PUSH2 0x243D JUMP JUMPDEST PUSH2 0x1A6F JUMP JUMPDEST PUSH1 0x6F SLOAD PUSH2 0x353 JUMP JUMPDEST PUSH2 0x353 PUSH1 0x6B SLOAD DUP2 JUMP JUMPDEST PUSH2 0x353 PUSH1 0x6E SLOAD DUP2 JUMP JUMPDEST PUSH2 0x58B PUSH2 0x762 CALLDATASIZE PUSH1 0x4 PUSH2 0x2497 JUMP JUMPDEST PUSH2 0x1ADE JUMP JUMPDEST PUSH2 0x7A3 PUSH2 0x775 CALLDATASIZE PUSH1 0x4 PUSH2 0x243D JUMP JUMPDEST PUSH1 0x73 PUSH1 0x20 MSTORE PUSH1 0x0 SWAP1 DUP2 MSTORE PUSH1 0x40 SWAP1 KECCAK256 DUP1 SLOAD PUSH1 0x1 DUP3 ADD SLOAD PUSH1 0x2 SWAP1 SWAP3 ADD SLOAD PUSH1 0x1 PUSH1 0x1 PUSH1 0xA0 SHL SUB SWAP1 SWAP2 AND SWAP2 SWAP1 PUSH1 0xFF AND DUP4 JUMP JUMPDEST PUSH1 0x40 DUP1 MLOAD PUSH1 0x1 PUSH1 0x1 PUSH1 0xA0 SHL SUB SWAP1 SWAP5 AND DUP5 MSTORE PUSH1 0x20 DUP5 ADD SWAP3 SWAP1 SWAP3 MSTORE PUSH1 0xFF AND SWAP1 DUP3 ADD MSTORE PUSH1 0x60 ADD PUSH2 0x341 JUMP JUMPDEST PUSH2 0x353 PUSH2 0x7D9 CALLDATASIZE PUSH1 0x4 PUSH2 0x2497 JUMP JUMPDEST PUSH1 0x79 PUSH1 0x20 MSTORE PUSH1 0x0 SWAP1 DUP2 MSTORE PUSH1 0x40 SWAP1 KECCAK256 SLOAD DUP2 JUMP JUMPDEST PUSH2 0x353 PUSH1 0x6A SLOAD DUP2 JUMP JUMPDEST PUSH2 0x4D0 PUSH2 0x802 CALLDATASIZE PUSH1 0x4 PUSH2 0x243D JUMP JUMPDEST PUSH1 0x74 PUSH1 0x20 MSTORE PUSH1 0x0 SWAP1 DUP2 MSTORE PUSH1 0x40 SWAP1 KECCAK256 SLOAD PUSH1 0x1 PUSH1 0x1 PUSH1 0xA0 SHL SUB AND DUP2 JUMP JUMPDEST PUSH2 0x353 PUSH1 0x70 SLOAD DUP2 JUMP JUMPDEST PUSH2 0x353 PUSH2 0x834 CALLDATASIZE PUSH1 0x4 PUSH2 0x273D JUMP JUMPDEST PUSH1 0x1 PUSH1 0x1 PUSH1 0xA0 SHL SUB SWAP2 DUP3 AND PUSH1 0x0 SWAP1 DUP2 MSTORE PUSH1 0x34 PUSH1 0x20 SWAP1 DUP2 MSTORE PUSH1 0x40 DUP1 DUP4 KECCAK256 SWAP4 SWAP1 SWAP5 AND DUP3 MSTORE SWAP2 SWAP1 SWAP2 MSTORE KECCAK256 SLOAD SWAP1 JUMP JUMPDEST PUSH2 0x353 PUSH1 0x68 SLOAD DUP2 JUMP JUMPDEST PUSH1 0x66 SLOAD PUSH2 0x4D0 SWAP1 PUSH1 0x1 PUSH1 0x1 PUSH1 0xA0 SHL SUB AND DUP2 JUMP JUMPDEST PUSH1 0x60 PUSH1 0x36 DUP1 SLOAD PUSH2 0x88A SWAP1 PUSH2 0x2776 JUMP JUMPDEST DUP1 PUSH1 0x1F ADD PUSH1 0x20 DUP1 SWAP2 DIV MUL PUSH1 0x20 ADD PUSH1 0x40 MLOAD SWAP1 DUP2 ADD PUSH1 0x40 MSTORE DUP1 SWAP3 SWAP2 SWAP1 DUP2 DUP2 MSTORE PUSH1 0x20 ADD DUP3 DUP1 SLOAD PUSH2 0x8B6 SWAP1 PUSH2 0x2776 JUMP JUMPDEST DUP1 ISZERO PUSH2 0x903 JUMPI DUP1 PUSH1 0x1F LT PUSH2 0x8D8 JUMPI PUSH2 0x100 DUP1 DUP4 SLOAD DIV MUL DUP4 MSTORE SWAP2 PUSH1 0x20 ADD SWAP2 PUSH2 0x903 JUMP JUMPDEST DUP3 ADD SWAP2 SWAP1 PUSH1 0x0 MSTORE PUSH1 0x20 PUSH1 0x0 KECCAK256 SWAP1 JUMPDEST DUP2 SLOAD DUP2 MSTORE SWAP1 PUSH1 0x1 ADD SWAP1 PUSH1 0x20 ADD DUP1 DUP4 GT PUSH2 0x8E6 JUMPI DUP3 SWAP1 SUB PUSH1 0x1F AND DUP3 ADD SWAP2 JUMPDEST POP POP POP POP POP SWAP1 POP SWAP1 JUMP JUMPDEST PUSH1 0x0 CALLER PUSH2 0x91B DUP2 DUP6 DUP6 PUSH2 0x1B63 JUMP JUMPDEST PUSH1 0x1 SWAP2 POP POP JUMPDEST SWAP3 SWAP2 POP POP JUMP JUMPDEST PUSH1 0x0 DUP1 PUSH1 0x0 PUSH1 0x60 PUSH1 0x65 PUSH1 0x0 SWAP1 SLOAD SWAP1 PUSH2 0x100 EXP SWAP1 DIV PUSH1 0x1 PUSH1 0x1 PUSH1 0xA0 SHL SUB AND PUSH1 0x1 PUSH1 0x1 PUSH1 0xA0 SHL SUB AND PUSH4 0x1865C57D PUSH1 0x40 MLOAD DUP2 PUSH4 0xFFFFFFFF AND PUSH1 0xE0 SHL DUP2 MSTORE PUSH1 0x4 ADD PUSH1 0x0 PUSH1 0x40 MLOAD DUP1 DUP4 SUB DUP2 DUP7 GAS STATICCALL ISZERO DUP1 ISZERO PUSH2 0x981 JUMPI RETURNDATASIZE PUSH1 0x0 DUP1 RETURNDATACOPY RETURNDATASIZE PUSH1 0x0 REVERT JUMPDEST POP POP POP POP PUSH1 0x40 MLOAD RETURNDATASIZE PUSH1 0x0 DUP3 RETURNDATACOPY PUSH1 0x1F RETURNDATASIZE SWAP1 DUP2 ADD PUSH1 0x1F NOT AND DUP3 ADD PUSH1 0x40 MSTORE PUSH2 0x9A9 SWAP2 SWAP1 DUP2 ADD SWAP1 PUSH2 0x2818 JUMP JUMPDEST SWAP4 POP SWAP4 POP SWAP4 POP SWAP4 POP SWAP1 SWAP2 SWAP3 SWAP4 JUMP JUMPDEST PUSH1 0x66 SLOAD PUSH1 0x60 SWAP1 PUSH1 0x1 PUSH1 0x1 PUSH1 0xA0 SHL SUB AND CALLER EQ PUSH2 0x9FC JUMPI CALLER PUSH1 0x0 SWAP1 DUP2 MSTORE PUSH1 0x79 PUSH1 0x20 MSTORE PUSH1 0x40 SWAP1 KECCAK256 SLOAD PUSH2 0x9FC JUMPI PUSH2 0x9E9 DUP6 PUSH2 0x17E6 JUMP JUMPDEST CALLER PUSH1 0x0 SWAP1 DUP2 MSTORE PUSH1 0x79 PUSH1 0x20 MSTORE PUSH1 0x40 SWAP1 KECCAK256 SLOAD SWAP5 POP JUMPDEST DUP5 PUSH2 0xA45 JUMPI PUSH1 0x40 MLOAD PUSH3 0x461BCD PUSH1 0xE5 SHL DUP2 MSTORE PUSH1 0x20 PUSH1 0x4 DUP3 ADD MSTORE PUSH1 0x14 PUSH1 0x24 DUP3 ADD MSTORE PUSH20 0x55736572206E6F74207265676973746572656421 PUSH1 0x60 SHL PUSH1 0x44 DUP3 ADD MSTORE PUSH1 0x64 ADD JUMPDEST PUSH1 0x40 MLOAD DUP1 SWAP2 SUB SWAP1 REVERT JUMPDEST PUSH1 0x0 DUP5 DUP2 MSTORE PUSH1 0x77 PUSH1 0x20 MSTORE PUSH1 0x40 SWAP1 KECCAK256 SLOAD PUSH1 0x1 PUSH1 0x1 PUSH1 0xA0 SHL SUB AND ISZERO PUSH2 0xAA1 JUMPI PUSH1 0x40 MLOAD PUSH3 0x461BCD PUSH1 0xE5 SHL DUP2 MSTORE PUSH1 0x20 PUSH1 0x4 DUP3 ADD MSTORE PUSH1 0x14 PUSH1 0x24 DUP3 ADD MSTORE PUSH20 0x2537B11030B63932B0B23C9031B932B0BA32B217 PUSH1 0x61 SHL PUSH1 0x44 DUP3 ADD MSTORE PUSH1 0x64 ADD PUSH2 0xA3C JUMP JUMPDEST PUSH1 0x65 SLOAD PUSH1 0x40 MLOAD PUSH4 0x71547B79 PUSH1 0xE1 SHL DUP2 MSTORE PUSH1 0x1 PUSH1 0x4 DUP3 ADD MSTORE PUSH1 0x0 SWAP2 PUSH1 0x1 PUSH1 0x1 PUSH1 0xA0 SHL SUB AND SWAP1 PUSH4 0xE2A8F6F2 SWAP1 PUSH1 0x24 ADD PUSH1 0x0 PUSH1 0x40 MLOAD DUP1 DUP4 SUB DUP2 DUP7 GAS STATICCALL ISZERO DUP1 ISZERO PUSH2 0xAEB JUMPI RETURNDATASIZE PUSH1 0x0 DUP1 RETURNDATACOPY RETURNDATASIZE PUSH1 0x0 REVERT JUMPDEST POP POP POP POP PUSH1 0x40 MLOAD RETURNDATASIZE PUSH1 0x0 DUP3 RETURNDATACOPY PUSH1 0x1F RETURNDATASIZE SWAP1 DUP2 ADD PUSH1 0x1F NOT AND DUP3 ADD PUSH1 0x40 MSTORE PUSH2 0xB13 SWAP2 SWAP1 DUP2 ADD SWAP1 PUSH2 0x2866 JUMP JUMPDEST PUSH1 0x40 DUP1 MLOAD PUSH1 0x1 DUP1 DUP3 MSTORE DUP2 DUP4 ADD SWAP1 SWAP3 MSTORE SWAP2 SWAP3 POP PUSH1 0x0 SWAP2 SWAP1 PUSH1 0x20 DUP1 DUP4 ADD SWAP1 DUP1 CALLDATASIZE DUP4 CALLDATACOPY ADD SWAP1 POP POP SWAP1 POP PUSH1 0x0 JUMPDEST DUP3 MLOAD DUP2 LT ISZERO PUSH2 0xBA9 JUMPI PUSH1 0x7A PUSH1 0x0 DUP5 DUP4 DUP2 MLOAD DUP2 LT PUSH2 0xB5B JUMPI PUSH2 0xB5B PUSH2 0x289B JUMP JUMPDEST PUSH1 0x20 MUL PUSH1 0x20 ADD ADD MLOAD PUSH1 0x1 PUSH1 0x1 PUSH1 0xA0 SHL SUB AND PUSH1 0x1 PUSH1 0x1 PUSH1 0xA0 SHL SUB AND DUP2 MSTORE PUSH1 0x20 ADD SWAP1 DUP2 MSTORE PUSH1 0x20 ADD PUSH1 0x0 KECCAK256 SLOAD DUP3 DUP3 DUP2 MLOAD DUP2 LT PUSH2 0xB96 JUMPI PUSH2 0xB96 PUSH2 0x289B JUMP JUMPDEST PUSH1 0x20 SWAP1 DUP2 MUL SWAP2 SWAP1 SWAP2 ADD ADD MSTORE PUSH1 0x1 ADD PUSH2 0xB3C JUMP JUMPDEST POP PUSH1 0x40 DUP1 MLOAD PUSH1 0xA0 DUP2 ADD DUP3 MSTORE CALLER DUP2 MSTORE PUSH1 0x20 DUP2 ADD DUP5 SWAP1 MSTORE SWAP1 DUP2 ADD DUP6 PUSH8 0xFFFFFFFFFFFFFFFF DUP2 GT ISZERO PUSH2 0xBDA JUMPI PUSH2 0xBDA PUSH2 0x24BB JUMP JUMPDEST PUSH1 0x40 MLOAD SWAP1 DUP1 DUP3 MSTORE DUP1 PUSH1 0x20 MUL PUSH1 0x20 ADD DUP3 ADD PUSH1 0x40 MSTORE DUP1 ISZERO PUSH2 0xC03 JUMPI DUP2 PUSH1 0x20 ADD PUSH1 0x20 DUP3 MUL DUP1 CALLDATASIZE DUP4 CALLDATACOPY ADD SWAP1 POP JUMPDEST POP DUP2 MSTORE PUSH1 0x20 ADD DUP7 DUP7 DUP1 DUP1 PUSH1 0x20 MUL PUSH1 0x20 ADD PUSH1 0x40 MLOAD SWAP1 DUP2 ADD PUSH1 0x40 MSTORE DUP1 SWAP4 SWAP3 SWAP2 SWAP1 DUP2 DUP2 MSTORE PUSH1 0x20 ADD DUP4 DUP4 PUSH1 0x20 MUL DUP1 DUP3 DUP5 CALLDATACOPY PUSH1 0x0 SWAP3 ADD DUP3 SWAP1 MSTORE POP SWAP4 DUP6 MSTORE POP POP PUSH1 0x1 PUSH1 0x20 SWAP4 DUP5 ADD DUP2 SWAP1 MSTORE DUP11 DUP4 MSTORE PUSH1 0x77 DUP5 MSTORE PUSH1 0x40 SWAP1 SWAP3 KECCAK256 DUP5 MLOAD DUP2 SLOAD PUSH1 0x1 PUSH1 0x1 PUSH1 0xA0 SHL SUB NOT AND PUSH1 0x1 PUSH1 0x1 PUSH1 0xA0 SHL SUB SWAP1 SWAP2 AND OR DUP2 SSTORE DUP5 DUP5 ADD MLOAD DUP1 MLOAD SWAP2 SWAP5 PUSH2 0xC86 SWAP5 DUP7 ADD SWAP4 POP ADD SWAP1 PUSH2 0x21BD JUMP JUMPDEST POP PUSH1 0x40 DUP3 ADD MLOAD DUP1 MLOAD PUSH2 0xCA2 SWAP2 PUSH1 0x2 DUP5 ADD SWAP2 PUSH1 0x20 SWAP1 SWAP2 ADD SWAP1 PUSH2 0x21BD JUMP JUMPDEST POP PUSH1 0x60 DUP3 ADD MLOAD DUP1 MLOAD PUSH2 0xCBE SWAP2 PUSH1 0x3 DUP5 ADD SWAP2 PUSH1 0x20 SWAP1 SWAP2 ADD SWAP1 PUSH2 0x2222 JUMP JUMPDEST POP PUSH1 0x80 SWAP2 SWAP1 SWAP2 ADD MLOAD PUSH1 0x4 SWAP1 SWAP2 ADD DUP1 SLOAD PUSH1 0xFF NOT AND SWAP2 ISZERO ISZERO SWAP2 SWAP1 SWAP2 OR SWAP1 SSTORE PUSH1 0x40 MLOAD DUP7 SWAP1 PUSH32 0x5DD5AFF7B55A6D23DB5800AE74FAFB29F5F00976A85526C852C81900D14CF3E7 SWAP1 PUSH2 0xD0E SWAP1 TIMESTAMP SWAP1 DUP7 SWAP1 PUSH2 0x28B1 JUMP JUMPDEST PUSH1 0x40 MLOAD DUP1 SWAP2 SUB SWAP1 LOG2 PUSH1 0x69 DUP1 SLOAD SWAP1 PUSH1 0x0 PUSH2 0xD26 DUP4 PUSH2 0x28E0 JUMP JUMPDEST SWAP1 SWAP2 SSTORE POP SWAP1 SWAP8 SWAP7 POP POP POP POP POP POP POP JUMP JUMPDEST PUSH1 0x78 DUP2 DUP2 SLOAD DUP2 LT PUSH2 0xD46 JUMPI PUSH1 0x0 DUP1 REVERT JUMPDEST PUSH1 0x0 SWAP2 DUP3 MSTORE PUSH1 0x20 SWAP1 SWAP2 KECCAK256 ADD SLOAD SWAP1 POP DUP2 JUMP JUMPDEST PUSH1 0x0 CALLER PUSH2 0xD65 DUP6 DUP3 DUP6 PUSH2 0x1C87 JUMP JUMPDEST PUSH2 0xD70 DUP6 DUP6 DUP6 PUSH2 0x1D19 JUMP JUMPDEST POP PUSH1 0x1 SWAP5 SWAP4 POP POP POP POP JUMP JUMPDEST PUSH1 0x65 SLOAD PUSH1 0x40 DUP1 MLOAD PUSH4 0x48F17129 PUSH1 0xE1 SHL DUP2 MSTORE SWAP1 MLOAD PUSH1 0x0 SWAP3 PUSH1 0x1 PUSH1 0x1 PUSH1 0xA0 SHL SUB AND SWAP2 PUSH4 0x91E2E252 SWAP2 PUSH1 0x4 DUP1 DUP4 ADD SWAP3 PUSH1 0x20 SWAP3 SWAP2 SWAP1 DUP3 SWAP1 SUB ADD DUP2 DUP7 GAS STATICCALL ISZERO DUP1 ISZERO PUSH2 0xDC5 JUMPI RETURNDATASIZE PUSH1 0x0 DUP1 RETURNDATACOPY RETURNDATASIZE PUSH1 0x0 REVERT JUMPDEST POP POP POP POP PUSH1 0x40 MLOAD RETURNDATASIZE PUSH1 0x1F NOT PUSH1 0x1F DUP3 ADD AND DUP3 ADD DUP1 PUSH1 0x40 MSTORE POP DUP2 ADD SWAP1 PUSH2 0xDE9 SWAP2 SWAP1 PUSH2 0x28F9 JUMP JUMPDEST SWAP1 POP SWAP1 JUMP JUMPDEST CALLER PUSH1 0x0 DUP2 DUP2 MSTORE PUSH1 0x34 PUSH1 0x20 SWAP1 DUP2 MSTORE PUSH1 0x40 DUP1 DUP4 KECCAK256 PUSH1 0x1 PUSH1 0x1 PUSH1 0xA0 SHL SUB DUP8 AND DUP5 MSTORE SWAP1 SWAP2 MSTORE DUP2 KECCAK256 SLOAD SWAP1 SWAP2 SWAP1 PUSH2 0x91B SWAP1 DUP3 SWAP1 DUP7 SWAP1 PUSH2 0xE28 SWAP1 DUP8 SWAP1 PUSH2 0x2912 JUMP JUMPDEST PUSH2 0x1B63 JUMP JUMPDEST PUSH1 0x66 SLOAD PUSH1 0x60 SWAP1 PUSH1 0x1 PUSH1 0x1 PUSH1 0xA0 SHL SUB AND CALLER EQ PUSH2 0xE5A JUMPI PUSH1 0x40 MLOAD PUSH3 0x461BCD PUSH1 0xE5 SHL DUP2 MSTORE PUSH1 0x4 ADD PUSH2 0xA3C SWAP1 PUSH2 0x2925 JUMP JUMPDEST PUSH1 0x0 DUP4 DUP2 MSTORE PUSH1 0x77 PUSH1 0x20 MSTORE PUSH1 0x40 SWAP1 KECCAK256 PUSH1 0x3 ADD SLOAD DUP3 MLOAD EQ PUSH2 0xE78 JUMPI PUSH1 0x0 DUP1 REVERT JUMPDEST PUSH1 0x0 DUP4 DUP2 MSTORE PUSH1 0x77 PUSH1 0x20 SWAP1 DUP2 MSTORE PUSH1 0x40 SWAP1 SWAP2 KECCAK256 DUP4 MLOAD PUSH2 0xE9D SWAP3 PUSH1 0x2 SWAP1 SWAP3 ADD SWAP2 DUP6 ADD SWAP1 PUSH2 0x21BD JUMP JUMPDEST POP PUSH1 0x0 DUP4 DUP2 MSTORE PUSH1 0x77 PUSH1 0x20 MSTORE PUSH1 0x40 SWAP1 DUP2 SWAP1 KECCAK256 PUSH1 0x4 ADD DUP1 SLOAD PUSH1 0xFF NOT AND SWAP1 SSTORE MLOAD DUP4 SWAP1 PUSH32 0x9B5ED714C31DFCB1A9397710B6FC1842F37D94AB5DC0CCB528D9A2C97EA76F2A SWAP1 PUSH2 0xEEB SWAP1 TIMESTAMP DUP2 MSTORE PUSH1 0x20 ADD SWAP1 JUMP JUMPDEST PUSH1 0x40 MLOAD DUP1 SWAP2 SUB SWAP1 LOG2 PUSH1 0x0 DUP4 DUP2 MSTORE PUSH1 0x77 PUSH1 0x20 SWAP1 DUP2 MSTORE PUSH1 0x40 SWAP2 DUP3 SWAP1 KECCAK256 PUSH1 0x3 ADD DUP1 SLOAD DUP4 MLOAD DUP2 DUP5 MUL DUP2 ADD DUP5 ADD SWAP1 SWAP5 MSTORE DUP1 DUP5 MSTORE SWAP1 SWAP2 DUP4 ADD DUP3 DUP3 DUP1 ISZERO PUSH2 0xF4A JUMPI PUSH1 0x20 MUL DUP3 ADD SWAP2 SWAP1 PUSH1 0x0 MSTORE PUSH1 0x20 PUSH1 0x0 KECCAK256 SWAP1 JUMPDEST DUP2 SLOAD DUP2 MSTORE PUSH1 0x20 ADD SWAP1 PUSH1 0x1 ADD SWAP1 DUP1 DUP4 GT PUSH2 0xF36 JUMPI JUMPDEST POP POP POP POP POP SWAP1 POP SWAP3 SWAP2 POP POP JUMP JUMPDEST PUSH1 0x65 SLOAD PUSH1 0x40 DUP1 MLOAD PUSH4 0xFBCCA273 PUSH1 0xE0 SHL DUP2 MSTORE SWAP1 MLOAD PUSH1 0x60 SWAP3 PUSH1 0x1 PUSH1 0x1 PUSH1 0xA0 SHL SUB AND SWAP2 PUSH4 0xFBCCA273 SWAP2 PUSH1 0x4 DUP1 DUP4 ADD SWAP3 PUSH1 0x0 SWAP3 SWAP2 SWAP1 DUP3 SWAP1 SUB ADD DUP2 DUP7 GAS STATICCALL ISZERO DUP1 ISZERO PUSH2 0xFA1 JUMPI RETURNDATASIZE PUSH1 0x0 DUP1 RETURNDATACOPY RETURNDATASIZE PUSH1 0x0 REVERT JUMPDEST POP POP POP POP PUSH1 0x40 MLOAD RETURNDATASIZE PUSH1 0x0 DUP3 RETURNDATACOPY PUSH1 0x1F RETURNDATASIZE SWAP1 DUP2 ADD PUSH1 0x1F NOT AND DUP3 ADD PUSH1 0x40 MSTORE PUSH2 0xDE9 SWAP2 SWAP1 DUP2 ADD SWAP1 PUSH2 0x2866 JUMP JUMPDEST CALLER PUSH1 0x0 SWAP1 DUP2 MSTORE PUSH1 0x7A PUSH1 0x20 MSTORE PUSH1 0x40 SWAP1 KECCAK256 SLOAD ISZERO PUSH2 0x1026 JUMPI PUSH1 0x40 MLOAD PUSH3 0x461BCD PUSH1 0xE5 SHL DUP2 MSTORE PUSH1 0x20 PUSH1 0x4 DUP3 ADD MSTORE PUSH1 0x19 PUSH1 0x24 DUP3 ADD MSTORE PUSH32 0x56616C696461746F7220616C7265616479206578697374732E00000000000000 PUSH1 0x44 DUP3 ADD MSTORE PUSH1 0x64 ADD PUSH2 0xA3C JUMP JUMPDEST CALLER PUSH1 0x0 SWAP1 DUP2 MSTORE PUSH1 0x33 PUSH1 0x20 MSTORE PUSH1 0x40 SWAP1 KECCAK256 SLOAD DUP2 GT ISZERO DUP1 ISZERO PUSH2 0x1047 JUMPI POP PUSH1 0x70 SLOAD DUP2 LT ISZERO JUMPDEST PUSH2 0x1093 JUMPI PUSH1 0x40 MLOAD PUSH3 0x461BCD PUSH1 0xE5 SHL DUP2 MSTORE PUSH1 0x20 PUSH1 0x4 DUP3 ADD MSTORE PUSH1 0x1B PUSH1 0x24 DUP3 ADD MSTORE PUSH32 0x496E73756666696369656E7420746F6B656E2062616C616E63652E0000000000 PUSH1 0x44 DUP3 ADD MSTORE PUSH1 0x64 ADD PUSH2 0xA3C JUMP JUMPDEST PUSH1 0x40 DUP1 MLOAD PUSH1 0xA0 DUP2 ADD DUP3 MSTORE DUP4 DUP2 MSTORE CALLER PUSH1 0x20 DUP1 DUP4 ADD DUP3 DUP2 MSTORE PUSH1 0x70 DUP1 SLOAD DUP6 DUP8 ADD SWAP1 DUP2 MSTORE PUSH1 0x0 PUSH1 0x60 DUP8 ADD DUP2 DUP2 MSTORE PUSH1 0x32 PUSH1 0x80 DUP10 ADD SWAP1 DUP2 MSTORE PUSH1 0x67 DUP1 SLOAD DUP5 MSTORE PUSH1 0x76 DUP9 MSTORE DUP11 DUP5 KECCAK256 SWAP10 MLOAD DUP11 SSTORE SWAP6 MLOAD PUSH1 0x1 DUP11 ADD DUP1 SLOAD PUSH1 0x1 PUSH1 0x1 PUSH1 0xA0 SHL SUB SWAP1 SWAP3 AND PUSH1 0x1 PUSH1 0x1 PUSH1 0xA0 SHL SUB NOT SWAP3 DUP4 AND OR SWAP1 SSTORE SWAP4 MLOAD PUSH1 0x2 DUP11 ADD SSTORE SWAP1 MLOAD PUSH1 0x3 DUP10 ADD SSTORE MLOAD PUSH1 0x4 SWAP1 SWAP8 ADD DUP1 SLOAD PUSH1 0xFF SWAP1 SWAP9 AND PUSH1 0xFF NOT SWAP1 SWAP9 AND SWAP8 SWAP1 SWAP8 OR SWAP1 SWAP7 SSTORE SWAP2 SLOAD DUP5 DUP7 MSTORE PUSH1 0x7A DUP5 MSTORE DUP7 DUP7 KECCAK256 SSTORE DUP8 DUP6 MSTORE PUSH1 0x75 SWAP1 SWAP3 MSTORE SWAP4 SWAP1 SWAP3 KECCAK256 DUP1 SLOAD SWAP1 SWAP4 AND DUP2 OR SWAP1 SWAP3 SSTORE SLOAD PUSH2 0x114E SWAP2 SWAP1 PUSH2 0x1EE7 JUMP JUMPDEST PUSH1 0x67 DUP1 SLOAD SWAP1 PUSH1 0x0 PUSH2 0x115E DUP4 PUSH2 0x28E0 JUMP JUMPDEST SWAP2 SWAP1 POP SSTORE POP POP POP JUMP JUMPDEST PUSH1 0x1 PUSH1 0x1 PUSH1 0xA0 SHL SUB DUP2 AND PUSH1 0x0 SWAP1 DUP2 MSTORE PUSH1 0x7A PUSH1 0x20 MSTORE PUSH1 0x40 DUP2 KECCAK256 SLOAD DUP1 PUSH2 0x11C9 JUMPI PUSH1 0x40 MLOAD PUSH3 0x461BCD PUSH1 0xE5 SHL DUP2 MSTORE PUSH1 0x20 PUSH1 0x4 DUP3 ADD MSTORE PUSH1 0x19 PUSH1 0x24 DUP3 ADD MSTORE PUSH25 0x2B30B634B230BA37B9103237B2B9903737BA1032BC34B9BA17 PUSH1 0x39 SHL PUSH1 0x44 DUP3 ADD MSTORE PUSH1 0x64 ADD PUSH2 0xA3C JUMP JUMPDEST PUSH1 0x0 SWAP1 DUP2 MSTORE PUSH1 0x76 PUSH1 0x20 MSTORE PUSH1 0x40 SWAP1 KECCAK256 SLOAD SWAP3 SWAP2 POP POP JUMP JUMPDEST PUSH1 0x0 ADDRESS PUSH1 0x1 PUSH1 0x1 PUSH1 0xA0 SHL SUB AND PUSH4 0x18160DDD PUSH1 0x40 MLOAD DUP2 PUSH4 0xFFFFFFFF AND PUSH1 0xE0 SHL DUP2 MSTORE PUSH1 0x4 ADD PUSH1 0x20 PUSH1 0x40 MLOAD DUP1 DUP4 SUB DUP2 DUP7 GAS STATICCALL ISZERO DUP1 ISZERO PUSH2 0xDC5 JUMPI RETURNDATASIZE PUSH1 0x0 DUP1 RETURNDATACOPY RETURNDATASIZE PUSH1 0x0 REVERT JUMPDEST PUSH2 0x1228 CALLER DUP3 PUSH2 0x1EE7 JUMP JUMPDEST POP JUMP JUMPDEST PUSH1 0x0 PUSH1 0x1 PUSH1 0x67 SLOAD PUSH2 0xDE9 SWAP2 SWAP1 PUSH2 0x296B JUMP JUMPDEST CALLER PUSH1 0x0 SWAP1 DUP2 MSTORE PUSH1 0x7A PUSH1 0x20 MSTORE PUSH1 0x40 SWAP1 KECCAK256 SLOAD DUP1 PUSH2 0x1299 JUMPI PUSH1 0x40 MLOAD PUSH3 0x461BCD PUSH1 0xE5 SHL DUP2 MSTORE PUSH1 0x20 PUSH1 0x4 DUP3 ADD MSTORE PUSH1 0x1B PUSH1 0x24 DUP3 ADD MSTORE PUSH32 0x4E6F74206120726567697374657265642076616C696461746F722E0000000000 PUSH1 0x44 DUP3 ADD MSTORE PUSH1 0x64 ADD PUSH2 0xA3C JUMP JUMPDEST PUSH1 0x0 DUP2 DUP2 MSTORE PUSH1 0x76 PUSH1 0x20 MSTORE PUSH1 0x40 SWAP1 KECCAK256 PUSH1 0x2 DUP2 ADD SLOAD DUP4 GT ISZERO PUSH2 0x12FB JUMPI PUSH1 0x40 MLOAD PUSH3 0x461BCD PUSH1 0xE5 SHL DUP2 MSTORE PUSH1 0x20 PUSH1 0x4 DUP3 ADD MSTORE PUSH1 0x1E PUSH1 0x24 DUP3 ADD MSTORE PUSH32 0x416D6F756E742065786365656473206C6F636B65642062616C616E63652E0000 PUSH1 0x44 DUP3 ADD MSTORE PUSH1 0x64 ADD PUSH2 0xA3C JUMP JUMPDEST PUSH1 0x0 DUP4 GT PUSH2 0x131B JUMPI PUSH1 0x40 MLOAD PUSH3 0x461BCD PUSH1 0xE5 SHL DUP2 MSTORE PUSH1 0x4 ADD PUSH2 0xA3C SWAP1 PUSH2 0x297E JUMP JUMPDEST DUP1 PUSH1 0x3 ADD SLOAD PUSH1 0x0 SUB PUSH2 0x1393 JUMPI PUSH1 0x71 SLOAD PUSH2 0x1334 SWAP1 TIMESTAMP PUSH2 0x2912 JUMP JUMPDEST DUP2 PUSH1 0x3 ADD DUP2 SWAP1 SSTORE POP DUP3 PUSH1 0x6D PUSH1 0x0 DUP3 DUP3 SLOAD PUSH2 0x134E SWAP2 SWAP1 PUSH2 0x296B JUMP JUMPDEST SWAP1 SWAP2 SSTORE POP POP PUSH1 0x3 DUP2 ADD SLOAD PUSH1 0x40 MLOAD SWAP1 DUP2 MSTORE CALLER SWAP1 PUSH32 0x77635F8F13EE1A01D11246347C649817C6EE9FA7620CE4C6ADFA2452BFA162B2 SWAP1 PUSH1 0x20 ADD JUMPDEST PUSH1 0x40 MLOAD DUP1 SWAP2 SUB SWAP1 LOG2 POP POP POP JUMP JUMPDEST DUP1 PUSH1 0x3 ADD SLOAD TIMESTAMP LT ISZERO PUSH2 0x13E7 JUMPI PUSH1 0x40 MLOAD PUSH3 0x461BCD PUSH1 0xE5 SHL DUP2 MSTORE PUSH1 0x20 PUSH1 0x4 DUP3 ADD MSTORE PUSH1 0x18 PUSH1 0x24 DUP3 ADD MSTORE PUSH32 0x546F6B656E7320617265207374696C6C206C6F636B65642E0000000000000000 PUSH1 0x44 DUP3 ADD MSTORE PUSH1 0x64 ADD PUSH2 0xA3C JUMP JUMPDEST DUP3 DUP2 PUSH1 0x2 ADD PUSH1 0x0 DUP3 DUP3 SLOAD PUSH2 0x13FB SWAP2 SWAP1 PUSH2 0x296B JUMP JUMPDEST SWAP1 SWAP2 SSTORE POP PUSH2 0x140B SWAP1 POP CALLER DUP5 PUSH2 0x2072 JUMP JUMPDEST PUSH1 0x40 MLOAD DUP4 DUP2 MSTORE CALLER SWAP1 PUSH32 0xE7B379C6C1FA169E9079C25E9143B127637EEF8EC8C9D5C06DDB4AB3E1195888 SWAP1 PUSH1 0x20 ADD PUSH2 0x1386 JUMP JUMPDEST POP POP POP JUMP JUMPDEST PUSH1 0x60 PUSH1 0x37 DUP1 SLOAD PUSH2 0x88A SWAP1 PUSH2 0x2776 JUMP JUMPDEST PUSH1 0x0 SLOAD PUSH2 0x100 SWAP1 DIV PUSH1 0xFF AND PUSH2 0x146C JUMPI PUSH1 0x0 SLOAD PUSH1 0xFF AND ISZERO PUSH2 0x1470 JUMP JUMPDEST ADDRESS EXTCODESIZE ISZERO JUMPDEST PUSH2 0x14D3 JUMPI PUSH1 0x40 MLOAD PUSH3 0x461BCD PUSH1 0xE5 SHL DUP2 MSTORE PUSH1 0x20 PUSH1 0x4 DUP3 ADD MSTORE PUSH1 0x2E PUSH1 0x24 DUP3 ADD MSTORE PUSH32 0x496E697469616C697A61626C653A20636F6E747261637420697320616C726561 PUSH1 0x44 DUP3 ADD MSTORE PUSH14 0x191E481A5B9A5D1A585B1A5E9959 PUSH1 0x92 SHL PUSH1 0x64 DUP3 ADD MSTORE PUSH1 0x84 ADD PUSH2 0xA3C JUMP JUMPDEST PUSH1 0x0 SLOAD PUSH2 0x100 SWAP1 DIV PUSH1 0xFF AND ISZERO DUP1 ISZERO PUSH2 0x14F5 JUMPI PUSH1 0x0 DUP1 SLOAD PUSH2 0xFFFF NOT AND PUSH2 0x101 OR SWAP1 SSTORE JUMPDEST PUSH2 0x153C PUSH1 0x40 MLOAD DUP1 PUSH1 0x40 ADD PUSH1 0x40 MSTORE DUP1 PUSH1 0xA DUP2 MSTORE PUSH1 0x20 ADD PUSH10 0x536D6172746E6F646573 PUSH1 0xB0 SHL DUP2 MSTORE POP PUSH1 0x40 MLOAD DUP1 PUSH1 0x40 ADD PUSH1 0x40 MSTORE DUP1 PUSH1 0x3 DUP2 MSTORE PUSH1 0x20 ADD PUSH3 0x534E4F PUSH1 0xE8 SHL DUP2 MSTORE POP PUSH2 0x2151 JUMP JUMPDEST PUSH1 0x1 PUSH1 0x68 DUP2 SWAP1 SSTORE PUSH1 0x69 DUP2 SWAP1 SSTORE PUSH1 0x67 SSTORE PUSH9 0xDE0B6B3A764000000 PUSH1 0x6F SSTORE PUSH10 0x152D02C7E14AF6800000 PUSH1 0x70 SSTORE PUSH4 0x3205B7E PUSH1 0x6E SSTORE PUSH3 0x127500 PUSH1 0x71 SSTORE PUSH1 0x0 PUSH1 0x72 DUP2 SWAP1 SSTORE JUMPDEST DUP3 MLOAD DUP2 LT ISZERO PUSH2 0x15B3 JUMPI PUSH2 0x15AB DUP4 DUP3 DUP2 MLOAD DUP2 LT PUSH2 0x159B JUMPI PUSH2 0x159B PUSH2 0x289B JUMP JUMPDEST PUSH1 0x20 MUL PUSH1 0x20 ADD ADD MLOAD PUSH1 0x70 SLOAD PUSH2 0x2072 JUMP JUMPDEST PUSH1 0x1 ADD PUSH2 0x157D JUMP JUMPDEST POP PUSH1 0x1 PUSH1 0x6B SSTORE PUSH1 0x5 PUSH1 0x6C SSTORE DUP1 ISZERO PUSH2 0x15D0 JUMPI PUSH1 0x0 DUP1 SLOAD PUSH2 0xFF00 NOT AND SWAP1 SSTORE JUMPDEST POP POP JUMP JUMPDEST PUSH1 0x66 SLOAD PUSH1 0x1 PUSH1 0x1 PUSH1 0xA0 SHL SUB AND CALLER EQ PUSH2 0x15FE JUMPI PUSH1 0x40 MLOAD PUSH3 0x461BCD PUSH1 0xE5 SHL DUP2 MSTORE PUSH1 0x4 ADD PUSH2 0xA3C SWAP1 PUSH2 0x2925 JUMP JUMPDEST PUSH1 0x6E SLOAD PUSH1 0x72 SLOAD LT PUSH2 0x1634 JUMPI PUSH8 0x1BC16D674EC80000 PUSH1 0x6F SLOAD GT ISZERO PUSH2 0x1634 JUMPI PUSH1 0x2 PUSH1 0x6F PUSH1 0x0 DUP3 DUP3 SLOAD PUSH2 0x162E SWAP2 SWAP1 PUSH2 0x29BF JUMP JUMPDEST SWAP1 SWAP2 SSTORE POP POP JUMPDEST PUSH1 0x0 PUSH1 0x64 PUSH1 0x6F SLOAD PUSH1 0x14 PUSH2 0x1647 SWAP2 SWAP1 PUSH2 0x29E1 JUMP JUMPDEST PUSH2 0x1651 SWAP2 SWAP1 PUSH2 0x29BF JUMP JUMPDEST SWAP1 POP PUSH1 0x0 PUSH1 0x64 PUSH1 0x6F SLOAD PUSH1 0x50 PUSH2 0x1666 SWAP2 SWAP1 PUSH2 0x29E1 JUMP JUMPDEST PUSH2 0x1670 SWAP2 SWAP1 PUSH2 0x29BF JUMP JUMPDEST SWAP1 POP PUSH1 0x0 DUP4 MLOAD DUP4 PUSH2 0x1681 SWAP2 SWAP1 PUSH2 0x29BF JUMP JUMPDEST SWAP1 POP PUSH1 0x0 JUMPDEST DUP5 MLOAD DUP2 LT ISZERO PUSH2 0x16BA JUMPI PUSH2 0x16B2 DUP6 DUP3 DUP2 MLOAD DUP2 LT PUSH2 0x16A4 JUMPI PUSH2 0x16A4 PUSH2 0x289B JUMP JUMPDEST PUSH1 0x20 MUL PUSH1 0x20 ADD ADD MLOAD DUP4 PUSH2 0x2072 JUMP JUMPDEST PUSH1 0x1 ADD PUSH2 0x1686 JUMP JUMPDEST POP PUSH1 0x0 JUMPDEST DUP8 MLOAD DUP2 LT ISZERO PUSH2 0x1727 JUMPI PUSH1 0x0 DUP7 DUP5 DUP10 DUP5 DUP2 MLOAD DUP2 LT PUSH2 0x16DD JUMPI PUSH2 0x16DD PUSH2 0x289B JUMP JUMPDEST PUSH1 0x20 MUL PUSH1 0x20 ADD ADD MLOAD PUSH2 0x16EF SWAP2 SWAP1 PUSH2 0x29E1 JUMP JUMPDEST PUSH2 0x16F9 SWAP2 SWAP1 PUSH2 0x29BF JUMP JUMPDEST SWAP1 POP PUSH2 0x171E DUP10 DUP4 DUP2 MLOAD DUP2 LT PUSH2 0x1710 JUMPI PUSH2 0x1710 PUSH2 0x289B JUMP JUMPDEST PUSH1 0x20 MUL PUSH1 0x20 ADD ADD MLOAD DUP3 PUSH2 0x2072 JUMP JUMPDEST POP PUSH1 0x1 ADD PUSH2 0x16BE JUMP JUMPDEST POP PUSH1 0x72 DUP1 SLOAD SWAP1 PUSH1 0x0 PUSH2 0x1738 DUP4 PUSH2 0x28E0 JUMP JUMPDEST SWAP2 SWAP1 POP SSTORE POP POP POP POP POP POP POP POP JUMP JUMPDEST CALLER PUSH1 0x0 DUP2 DUP2 MSTORE PUSH1 0x34 PUSH1 0x20 SWAP1 DUP2 MSTORE PUSH1 0x40 DUP1 DUP4 KECCAK256 PUSH1 0x1 PUSH1 0x1 PUSH1 0xA0 SHL SUB DUP8 AND DUP5 MSTORE SWAP1 SWAP2 MSTORE DUP2 KECCAK256 SLOAD SWAP1 SWAP2 SWAP1 DUP4 DUP2 LT ISZERO PUSH2 0x17CB JUMPI PUSH1 0x40 MLOAD PUSH3 0x461BCD PUSH1 0xE5 SHL DUP2 MSTORE PUSH1 0x20 PUSH1 0x4 DUP3 ADD MSTORE PUSH1 0x25 PUSH1 0x24 DUP3 ADD MSTORE PUSH32 0x45524332303A2064656372656173656420616C6C6F77616E63652062656C6F77 PUSH1 0x44 DUP3 ADD MSTORE PUSH5 0x207A65726F PUSH1 0xD8 SHL PUSH1 0x64 DUP3 ADD MSTORE PUSH1 0x84 ADD PUSH2 0xA3C JUMP JUMPDEST PUSH2 0xD70 DUP3 DUP7 DUP7 DUP5 SUB PUSH2 0x1B63 JUMP JUMPDEST PUSH1 0x0 CALLER PUSH2 0x91B DUP2 DUP6 DUP6 PUSH2 0x1D19 JUMP JUMPDEST CALLER PUSH1 0x0 SWAP1 DUP2 MSTORE PUSH1 0x79 PUSH1 0x20 MSTORE PUSH1 0x40 SWAP1 KECCAK256 SLOAD ISZERO PUSH2 0x1843 JUMPI PUSH1 0x40 MLOAD PUSH3 0x461BCD PUSH1 0xE5 SHL DUP2 MSTORE PUSH1 0x20 PUSH1 0x4 DUP3 ADD MSTORE PUSH1 0x18 PUSH1 0x24 DUP3 ADD MSTORE PUSH32 0x5573657220616C726561647920726567697374657265642E0000000000000000 PUSH1 0x44 DUP3 ADD MSTORE PUSH1 0x64 ADD PUSH2 0xA3C JUMP JUMPDEST PUSH1 0x40 DUP1 MLOAD PUSH1 0x60 DUP2 ADD DUP3 MSTORE CALLER DUP1 DUP3 MSTORE PUSH1 0x20 DUP1 DUP4 ADD DUP6 DUP2 MSTORE PUSH1 0x32 DUP5 DUP7 ADD SWAP1 DUP2 MSTORE PUSH1 0x0 DUP8 DUP2 MSTORE PUSH1 0x73 DUP5 MSTORE DUP7 DUP2 KECCAK256 SWAP6 MLOAD DUP7 SLOAD PUSH1 0x1 PUSH1 0x1 PUSH1 0xA0 SHL SUB NOT AND PUSH1 0x1 PUSH1 0x1 PUSH1 0xA0 SHL SUB SWAP1 SWAP2 AND OR DUP7 SSTORE SWAP2 MLOAD PUSH1 0x1 DUP7 ADD SSTORE MLOAD PUSH1 0x2 SWAP1 SWAP5 ADD DUP1 SLOAD PUSH1 0xFF NOT AND PUSH1 0xFF SWAP1 SWAP6 AND SWAP5 SWAP1 SWAP5 OR SWAP1 SWAP4 SSTORE SWAP1 DUP3 MSTORE PUSH1 0x79 SWAP1 MSTORE SWAP1 DUP2 KECCAK256 DUP3 SWAP1 SSTORE PUSH1 0x68 DUP1 SLOAD SWAP2 PUSH2 0x18C3 DUP4 PUSH2 0x28E0 JUMP JUMPDEST SWAP2 SWAP1 POP SSTORE POP POP JUMP JUMPDEST PUSH1 0x0 PUSH1 0x1 PUSH1 0x68 SLOAD PUSH2 0xDE9 SWAP2 SWAP1 PUSH2 0x296B JUMP JUMPDEST PUSH1 0x0 DUP1 PUSH1 0x0 PUSH1 0x67 SLOAD DUP5 LT PUSH2 0x1920 JUMPI PUSH1 0x40 MLOAD PUSH3 0x461BCD PUSH1 0xE5 SHL DUP2 MSTORE PUSH1 0x20 PUSH1 0x4 DUP3 ADD MSTORE PUSH1 0xB PUSH1 0x24 DUP3 ADD MSTORE PUSH11 0x24B73B30B634B21024A217 PUSH1 0xA9 SHL PUSH1 0x44 DUP3 ADD MSTORE PUSH1 0x64 ADD PUSH2 0xA3C JUMP JUMPDEST PUSH1 0x0 DUP5 DUP2 MSTORE PUSH1 0x76 PUSH1 0x20 SWAP1 DUP2 MSTORE PUSH1 0x40 DUP1 DUP4 KECCAK256 DUP2 MLOAD PUSH1 0xA0 DUP2 ADD DUP4 MSTORE DUP2 SLOAD DUP2 MSTORE PUSH1 0x1 DUP3 ADD SLOAD PUSH1 0x1 PUSH1 0x1 PUSH1 0xA0 SHL SUB SWAP1 DUP2 AND SWAP5 DUP3 ADD DUP6 SWAP1 MSTORE PUSH1 0x2 DUP4 ADD SLOAD DUP3 DUP6 ADD MSTORE PUSH1 0x3 DUP4 ADD SLOAD PUSH1 0x60 DUP4 ADD MSTORE PUSH1 0x4 SWAP3 DUP4 ADD SLOAD PUSH1 0xFF AND PUSH1 0x80 DUP4 ADD MSTORE PUSH1 0x65 SLOAD SWAP4 MLOAD PUSH4 0x10154287 PUSH1 0xE2 SHL DUP2 MSTORE SWAP3 DUP4 ADD SWAP5 SWAP1 SWAP5 MSTORE SWAP4 SWAP3 SWAP2 SWAP1 SWAP2 AND SWAP1 PUSH4 0x40550A1C SWAP1 PUSH1 0x24 ADD PUSH1 0x20 PUSH1 0x40 MLOAD DUP1 DUP4 SUB DUP2 DUP7 GAS STATICCALL ISZERO DUP1 ISZERO PUSH2 0x19B7 JUMPI RETURNDATASIZE PUSH1 0x0 DUP1 RETURNDATACOPY RETURNDATASIZE PUSH1 0x0 REVERT JUMPDEST POP POP POP POP PUSH1 0x40 MLOAD RETURNDATASIZE PUSH1 0x1F NOT PUSH1 0x1F DUP3 ADD AND DUP3 ADD DUP1 PUSH1 0x40 MSTORE POP DUP2 ADD SWAP1 PUSH2 0x19DB SWAP2 SWAP1 PUSH2 0x29F8 JUMP JUMPDEST DUP3 MLOAD PUSH1 0x20 SWAP1 SWAP4 ADD MLOAD SWAP1 SWAP8 SWAP3 SWAP7 POP SWAP5 POP SWAP1 SWAP3 POP POP POP JUMP JUMPDEST PUSH1 0x66 SLOAD PUSH1 0x1 PUSH1 0x1 PUSH1 0xA0 SHL SUB AND CALLER EQ PUSH2 0x1A1B JUMPI PUSH1 0x40 MLOAD PUSH3 0x461BCD PUSH1 0xE5 SHL DUP2 MSTORE PUSH1 0x4 ADD PUSH2 0xA3C SWAP1 PUSH2 0x2925 JUMP JUMPDEST PUSH1 0x0 DUP2 DUP2 MSTORE PUSH1 0x77 PUSH1 0x20 SWAP1 DUP2 MSTORE PUSH1 0x40 SWAP2 DUP3 SWAP1 KECCAK256 PUSH1 0x4 DUP2 ADD DUP1 SLOAD PUSH1 0xFF NOT AND SWAP1 SSTORE SWAP2 MLOAD TIMESTAMP DUP2 MSTORE DUP4 SWAP2 PUSH32 0x6E04AA702F9AF7A9A398F10D27918152DF25AC0CDC6D74321B9F7496374387A7 SWAP2 ADD PUSH1 0x40 MLOAD DUP1 SWAP2 SUB SWAP1 LOG2 POP POP JUMP JUMPDEST PUSH1 0x0 DUP2 DUP2 MSTORE PUSH1 0x77 PUSH1 0x20 SWAP1 DUP2 MSTORE PUSH1 0x40 DUP1 DUP4 KECCAK256 PUSH1 0x1 ADD DUP1 SLOAD DUP3 MLOAD DUP2 DUP6 MUL DUP2 ADD DUP6 ADD SWAP1 SWAP4 MSTORE DUP1 DUP4 MSTORE PUSH1 0x60 SWAP5 SWAP4 DUP4 ADD DUP3 DUP3 DUP1 ISZERO PUSH2 0x1AD1 JUMPI PUSH1 0x20 MUL DUP3 ADD SWAP2 SWAP1 PUSH1 0x0 MSTORE PUSH1 0x20 PUSH1 0x0 KECCAK256 SWAP1 JUMPDEST DUP2 SLOAD PUSH1 0x1 PUSH1 0x1 PUSH1 0xA0 SHL SUB AND DUP2 MSTORE PUSH1 0x1 SWAP1 SWAP2 ADD SWAP1 PUSH1 0x20 ADD DUP1 DUP4 GT PUSH2 0x1AB3 JUMPI JUMPDEST POP SWAP4 SWAP8 SWAP7 POP POP POP POP POP POP POP JUMP JUMPDEST PUSH1 0x66 SLOAD PUSH1 0x1 PUSH1 0x1 PUSH1 0xA0 SHL SUB AND ISZERO PUSH2 0x1B37 JUMPI PUSH1 0x40 MLOAD PUSH3 0x461BCD PUSH1 0xE5 SHL DUP2 MSTORE PUSH1 0x20 PUSH1 0x4 DUP3 ADD MSTORE PUSH1 0x1E PUSH1 0x24 DUP3 ADD MSTORE PUSH32 0x56616C696461746F72206164647265737320616C7265616479207365742E0000 PUSH1 0x44 DUP3 ADD MSTORE PUSH1 0x64 ADD PUSH2 0xA3C JUMP JUMPDEST PUSH1 0x65 DUP1 SLOAD PUSH1 0x1 PUSH1 0x1 PUSH1 0xA0 SHL SUB SWAP1 SWAP3 AND PUSH1 0x1 PUSH1 0x1 PUSH1 0xA0 SHL SUB NOT SWAP3 DUP4 AND DUP2 OR SWAP1 SWAP2 SSTORE PUSH1 0x66 DUP1 SLOAD SWAP1 SWAP3 AND OR SWAP1 SSTORE JUMP JUMPDEST PUSH1 0x1 PUSH1 0x1 PUSH1 0xA0 SHL SUB DUP4 AND PUSH2 0x1BC5 JUMPI PUSH1 0x40 MLOAD PUSH3 0x461BCD PUSH1 0xE5 SHL DUP2 MSTORE PUSH1 0x20 PUSH1 0x4 DUP3 ADD MSTORE PUSH1 0x24 DUP1 DUP3 ADD MSTORE PUSH32 0x45524332303A20617070726F76652066726F6D20746865207A65726F20616464 PUSH1 0x44 DUP3 ADD MSTORE PUSH4 0x72657373 PUSH1 0xE0 SHL PUSH1 0x64 DUP3 ADD MSTORE PUSH1 0x84 ADD PUSH2 0xA3C JUMP JUMPDEST PUSH1 0x1 PUSH1 0x1 PUSH1 0xA0 SHL SUB DUP3 AND PUSH2 0x1C26 JUMPI PUSH1 0x40 MLOAD PUSH3 0x461BCD PUSH1 0xE5 SHL DUP2 MSTORE PUSH1 0x20 PUSH1 0x4 DUP3 ADD MSTORE PUSH1 0x22 PUSH1 0x24 DUP3 ADD MSTORE PUSH32 0x45524332303A20617070726F766520746F20746865207A65726F206164647265 PUSH1 0x44 DUP3 ADD MSTORE PUSH2 0x7373 PUSH1 0xF0 SHL PUSH1 0x64 DUP3 ADD MSTORE PUSH1 0x84 ADD PUSH2 0xA3C JUMP JUMPDEST PUSH1 0x1 PUSH1 0x1 PUSH1 0xA0 SHL SUB DUP4 DUP2 AND PUSH1 0x0 DUP2 DUP2 MSTORE PUSH1 0x34 PUSH1 0x20 SWAP1 DUP2 MSTORE PUSH1 0x40 DUP1 DUP4 KECCAK256 SWAP5 DUP8 AND DUP1 DUP5 MSTORE SWAP5 DUP3 MSTORE SWAP2 DUP3 SWAP1 KECCAK256 DUP6 SWAP1 SSTORE SWAP1 MLOAD DUP5 DUP2 MSTORE PUSH32 0x8C5BE1E5EBEC7D5BD14F71427D1E84F3DD0314C0F7B2291E5B200AC8C7C3B925 SWAP2 ADD PUSH1 0x40 MLOAD DUP1 SWAP2 SUB SWAP1 LOG3 POP POP POP JUMP JUMPDEST PUSH1 0x1 PUSH1 0x1 PUSH1 0xA0 SHL SUB DUP4 DUP2 AND PUSH1 0x0 SWAP1 DUP2 MSTORE PUSH1 0x34 PUSH1 0x20 SWAP1 DUP2 MSTORE PUSH1 0x40 DUP1 DUP4 KECCAK256 SWAP4 DUP7 AND DUP4 MSTORE SWAP3 SWAP1 MSTORE KECCAK256 SLOAD PUSH1 0x0 NOT DUP2 EQ PUSH2 0x1D13 JUMPI DUP2 DUP2 LT ISZERO PUSH2 0x1D06 JUMPI PUSH1 0x40 MLOAD PUSH3 0x461BCD PUSH1 0xE5 SHL DUP2 MSTORE PUSH1 0x20 PUSH1 0x4 DUP3 ADD MSTORE PUSH1 0x1D PUSH1 0x24 DUP3 ADD MSTORE PUSH32 0x45524332303A20696E73756666696369656E7420616C6C6F77616E6365000000 PUSH1 0x44 DUP3 ADD MSTORE PUSH1 0x64 ADD PUSH2 0xA3C JUMP JUMPDEST PUSH2 0x1D13 DUP5 DUP5 DUP5 DUP5 SUB PUSH2 0x1B63 JUMP JUMPDEST POP POP POP POP JUMP JUMPDEST PUSH1 0x1 PUSH1 0x1 PUSH1 0xA0 SHL SUB DUP4 AND PUSH2 0x1D7D JUMPI PUSH1 0x40 MLOAD PUSH3 0x461BCD PUSH1 0xE5 SHL DUP2 MSTORE PUSH1 0x20 PUSH1 0x4 DUP3 ADD MSTORE PUSH1 0x25 PUSH1 0x24 DUP3 ADD MSTORE PUSH32 0x45524332303A207472616E736665722066726F6D20746865207A65726F206164 PUSH1 0x44 DUP3 ADD MSTORE PUSH5 0x6472657373 PUSH1 0xD8 SHL PUSH1 0x64 DUP3 ADD MSTORE PUSH1 0x84 ADD PUSH2 0xA3C JUMP JUMPDEST PUSH1 0x1 PUSH1 0x1 PUSH1 0xA0 SHL SUB DUP3 AND PUSH2 0x1DDF JUMPI PUSH1 0x40 MLOAD PUSH3 0x461BCD PUSH1 0xE5 SHL DUP2 MSTORE PUSH1 0x20 PUSH1 0x4 DUP3 ADD MSTORE PUSH1 0x23 PUSH1 0x24 DUP3 ADD MSTORE PUSH32 0x45524332303A207472616E7366657220746F20746865207A65726F2061646472 PUSH1 0x44 DUP3 ADD MSTORE PUSH3 0x657373 PUSH1 0xE8 SHL PUSH1 0x64 DUP3 ADD MSTORE PUSH1 0x84 ADD PUSH2 0xA3C JUMP JUMPDEST PUSH1 0x1 PUSH1 0x1 PUSH1 0xA0 SHL SUB DUP4 AND PUSH1 0x0 SWAP1 DUP2 MSTORE PUSH1 0x33 PUSH1 0x20 MSTORE PUSH1 0x40 SWAP1 KECCAK256 SLOAD DUP2 DUP2 LT ISZERO PUSH2 0x1E57 JUMPI PUSH1 0x40 MLOAD PUSH3 0x461BCD PUSH1 0xE5 SHL DUP2 MSTORE PUSH1 0x20 PUSH1 0x4 DUP3 ADD MSTORE PUSH1 0x26 PUSH1 0x24 DUP3 ADD MSTORE PUSH32 0x45524332303A207472616E7366657220616D6F756E7420657863656564732062 PUSH1 0x44 DUP3 ADD MSTORE PUSH6 0x616C616E6365 PUSH1 0xD0 SHL PUSH1 0x64 DUP3 ADD MSTORE PUSH1 0x84 ADD PUSH2 0xA3C JUMP JUMPDEST PUSH1 0x1 PUSH1 0x1 PUSH1 0xA0 SHL SUB DUP1 DUP6 AND PUSH1 0x0 SWAP1 DUP2 MSTORE PUSH1 0x33 PUSH1 0x20 MSTORE PUSH1 0x40 DUP1 DUP3 KECCAK256 DUP6 DUP6 SUB SWAP1 SSTORE SWAP2 DUP6 AND DUP2 MSTORE SWAP1 DUP2 KECCAK256 DUP1 SLOAD DUP5 SWAP3 SWAP1 PUSH2 0x1E8E SWAP1 DUP5 SWAP1 PUSH2 0x2912 JUMP JUMPDEST SWAP3 POP POP DUP2 SWAP1 SSTORE POP DUP3 PUSH1 0x1 PUSH1 0x1 PUSH1 0xA0 SHL SUB AND DUP5 PUSH1 0x1 PUSH1 0x1 PUSH1 0xA0 SHL SUB AND PUSH32 0xDDF252AD1BE2C89B69C2B068FC378DAA952BA7F163C4A11628F55A4DF523B3EF DUP5 PUSH1 0x40 MLOAD PUSH2 0x1EDA SWAP2 DUP2 MSTORE PUSH1 0x20 ADD SWAP1 JUMP JUMPDEST PUSH1 0x40 MLOAD DUP1 SWAP2 SUB SWAP1 LOG3 PUSH2 0x1D13 JUMP JUMPDEST PUSH1 0x0 DUP2 GT PUSH2 0x1F07 JUMPI PUSH1 0x40 MLOAD PUSH3 0x461BCD PUSH1 0xE5 SHL DUP2 MSTORE PUSH1 0x4 ADD PUSH2 0xA3C SWAP1 PUSH2 0x297E JUMP JUMPDEST DUP1 PUSH2 0x1F27 DUP4 PUSH1 0x1 PUSH1 0x1 PUSH1 0xA0 SHL SUB AND PUSH1 0x0 SWAP1 DUP2 MSTORE PUSH1 0x33 PUSH1 0x20 MSTORE PUSH1 0x40 SWAP1 KECCAK256 SLOAD SWAP1 JUMP JUMPDEST LT ISZERO PUSH2 0x1F6D JUMPI PUSH1 0x40 MLOAD PUSH3 0x461BCD PUSH1 0xE5 SHL DUP2 MSTORE PUSH1 0x20 PUSH1 0x4 DUP3 ADD MSTORE PUSH1 0x15 PUSH1 0x24 DUP3 ADD MSTORE PUSH21 0x24B739BAB33334B1B4B2B73A103130B630B731B297 PUSH1 0x59 SHL PUSH1 0x44 DUP3 ADD MSTORE PUSH1 0x64 ADD PUSH2 0xA3C JUMP JUMPDEST PUSH1 0x1 PUSH1 0x1 PUSH1 0xA0 SHL SUB DUP3 AND PUSH1 0x0 SWAP1 DUP2 MSTORE PUSH1 0x7A PUSH1 0x20 MSTORE PUSH1 0x40 DUP2 KECCAK256 SLOAD SWAP1 DUP2 SWAP1 SUB PUSH2 0x1FD2 JUMPI PUSH1 0x40 MLOAD PUSH3 0x461BCD PUSH1 0xE5 SHL DUP2 MSTORE PUSH1 0x20 PUSH1 0x4 DUP3 ADD MSTORE PUSH1 0x19 PUSH1 0x24 DUP3 ADD MSTORE PUSH25 0x2B30B634B230BA37B9103237B2B9903737BA1032BC34B9BA17 PUSH1 0x39 SHL PUSH1 0x44 DUP3 ADD MSTORE PUSH1 0x64 ADD PUSH2 0xA3C JUMP JUMPDEST PUSH2 0x1FDD DUP4 ADDRESS DUP5 PUSH2 0xD57 JUMP JUMPDEST POP PUSH1 0x0 DUP2 DUP2 MSTORE PUSH1 0x76 PUSH1 0x20 MSTORE PUSH1 0x40 DUP2 KECCAK256 PUSH1 0x2 ADD DUP1 SLOAD DUP5 SWAP3 SWAP1 PUSH2 0x1FFF SWAP1 DUP5 SWAP1 PUSH2 0x2912 JUMP JUMPDEST SWAP1 SWAP2 SSTORE POP POP PUSH1 0x0 DUP2 DUP2 MSTORE PUSH1 0x76 PUSH1 0x20 MSTORE PUSH1 0x40 DUP2 KECCAK256 PUSH1 0x2 ADD SLOAD PUSH1 0x6D DUP1 SLOAD SWAP2 SWAP3 DUP4 SWAP3 PUSH2 0x2029 SWAP1 DUP5 SWAP1 PUSH2 0x2912 JUMP JUMPDEST SWAP1 SWAP2 SSTORE POP POP PUSH1 0x40 MLOAD DUP4 DUP2 MSTORE PUSH1 0x1 PUSH1 0x1 PUSH1 0xA0 SHL SUB DUP6 AND SWAP1 PUSH32 0xAC87F20A77D28EE8BBB58EC87EA8FA968B3393EFAE1A368FD50B767C2847391C SWAP1 PUSH1 0x20 ADD PUSH1 0x40 MLOAD DUP1 SWAP2 SUB SWAP1 LOG2 POP POP POP POP JUMP JUMPDEST PUSH1 0x1 PUSH1 0x1 PUSH1 0xA0 SHL SUB DUP3 AND PUSH2 0x20C8 JUMPI PUSH1 0x40 MLOAD PUSH3 0x461BCD PUSH1 0xE5 SHL DUP2 MSTORE PUSH1 0x20 PUSH1 0x4 DUP3 ADD MSTORE PUSH1 0x1F PUSH1 0x24 DUP3 ADD MSTORE PUSH32 0x45524332303A206D696E7420746F20746865207A65726F206164647265737300 PUSH1 0x44 DUP3 ADD MSTORE PUSH1 0x64 ADD PUSH2 0xA3C JUMP JUMPDEST DUP1 PUSH1 0x35 PUSH1 0x0 DUP3 DUP3 SLOAD PUSH2 0x20DA SWAP2 SWAP1 PUSH2 0x2912 JUMP JUMPDEST SWAP1 SWAP2 SSTORE POP POP PUSH1 0x1 PUSH1 0x1 PUSH1 0xA0 SHL SUB DUP3 AND PUSH1 0x0 SWAP1 DUP2 MSTORE PUSH1 0x33 PUSH1 0x20 MSTORE PUSH1 0x40 DUP2 KECCAK256 DUP1 SLOAD DUP4 SWAP3 SWAP1 PUSH2 0x2107 SWAP1 DUP5 SWAP1 PUSH2 0x2912 JUMP JUMPDEST SWAP1 SWAP2 SSTORE POP POP PUSH1 0x40 MLOAD DUP2 DUP2 MSTORE PUSH1 0x1 PUSH1 0x1 PUSH1 0xA0 SHL SUB DUP4 AND SWAP1 PUSH1 0x0 SWAP1 PUSH32 0xDDF252AD1BE2C89B69C2B068FC378DAA952BA7F163C4A11628F55A4DF523B3EF SWAP1 PUSH1 0x20 ADD PUSH1 0x40 MLOAD DUP1 SWAP2 SUB SWAP1 LOG3 POP POP JUMP JUMPDEST PUSH1 0x0 SLOAD PUSH2 0x100 SWAP1 DIV PUSH1 0xFF AND PUSH2 0x2178 JUMPI PUSH1 0x40 MLOAD PUSH3 0x461BCD PUSH1 0xE5 SHL DUP2 MSTORE PUSH1 0x4 ADD PUSH2 0xA3C SWAP1 PUSH2 0x2A1A JUMP JUMPDEST PUSH2 0x15D0 DUP3 DUP3 PUSH1 0x0 SLOAD PUSH2 0x100 SWAP1 DIV PUSH1 0xFF AND PUSH2 0x21A4 JUMPI PUSH1 0x40 MLOAD PUSH3 0x461BCD PUSH1 0xE5 SHL DUP2 MSTORE PUSH1 0x4 ADD PUSH2 0xA3C SWAP1 PUSH2 0x2A1A JUMP JUMPDEST PUSH1 0x36 PUSH2 0x21B0 DUP4 DUP3 PUSH2 0x2AB5 JUMP JUMPDEST POP PUSH1 0x37 PUSH2 0x143D DUP3 DUP3 PUSH2 0x2AB5 JUMP JUMPDEST DUP3 DUP1 SLOAD DUP3 DUP3 SSTORE SWAP1 PUSH1 0x0 MSTORE PUSH1 0x20 PUSH1 0x0 KECCAK256 SWAP1 DUP2 ADD SWAP3 DUP3 ISZERO PUSH2 0x2212 JUMPI SWAP2 PUSH1 0x20 MUL DUP3 ADD JUMPDEST DUP3 DUP2 GT ISZERO PUSH2 0x2212 JUMPI DUP3 MLOAD DUP3 SLOAD PUSH1 0x1 PUSH1 0x1 PUSH1 0xA0 SHL SUB NOT AND PUSH1 0x1 PUSH1 0x1 PUSH1 0xA0 SHL SUB SWAP1 SWAP2 AND OR DUP3 SSTORE PUSH1 0x20 SWAP1 SWAP3 ADD SWAP2 PUSH1 0x1 SWAP1 SWAP2 ADD SWAP1 PUSH2 0x21DD JUMP JUMPDEST POP PUSH2 0x221E SWAP3 SWAP2 POP PUSH2 0x225D JUMP JUMPDEST POP SWAP1 JUMP JUMPDEST DUP3 DUP1 SLOAD DUP3 DUP3 SSTORE SWAP1 PUSH1 0x0 MSTORE PUSH1 0x20 PUSH1 0x0 KECCAK256 SWAP1 DUP2 ADD SWAP3 DUP3 ISZERO PUSH2 0x2212 JUMPI SWAP2 PUSH1 0x20 MUL DUP3 ADD JUMPDEST DUP3 DUP2 GT ISZERO PUSH2 0x2212 JUMPI DUP3 MLOAD DUP3 SSTORE SWAP2 PUSH1 0x20 ADD SWAP2 SWAP1 PUSH1 0x1 ADD SWAP1 PUSH2 0x2242 JUMP JUMPDEST JUMPDEST DUP1 DUP3 GT ISZERO PUSH2 0x221E JUMPI PUSH1 0x0 DUP2 SSTORE PUSH1 0x1 ADD PUSH2 0x225E JUMP JUMPDEST PUSH1 0x0 PUSH1 0x20 DUP1 DUP4 MSTORE DUP4 MLOAD DUP1 PUSH1 0x20 DUP6 ADD MSTORE PUSH1 0x0 JUMPDEST DUP2 DUP2 LT ISZERO PUSH2 0x22A0 JUMPI DUP6 DUP2 ADD DUP4 ADD MLOAD DUP6 DUP3 ADD PUSH1 0x40 ADD MSTORE DUP3 ADD PUSH2 0x2284 JUMP JUMPDEST POP PUSH1 0x0 PUSH1 0x40 DUP3 DUP7 ADD ADD MSTORE PUSH1 0x40 PUSH1 0x1F NOT PUSH1 0x1F DUP4 ADD AND DUP6 ADD ADD SWAP3 POP POP POP SWAP3 SWAP2 POP POP JUMP JUMPDEST PUSH1 0x1 PUSH1 0x1 PUSH1 0xA0 SHL SUB DUP2 AND DUP2 EQ PUSH2 0x1228 JUMPI PUSH1 0x0 DUP1 REVERT JUMPDEST PUSH1 0x0 DUP1 PUSH1 0x40 DUP4 DUP6 SUB SLT ISZERO PUSH2 0x22E9 JUMPI PUSH1 0x0 DUP1 REVERT JUMPDEST DUP3 CALLDATALOAD PUSH2 0x22F4 DUP2 PUSH2 0x22C1 JUMP JUMPDEST SWAP5 PUSH1 0x20 SWAP4 SWAP1 SWAP4 ADD CALLDATALOAD SWAP4 POP POP POP JUMP JUMPDEST PUSH1 0x0 DUP2 MLOAD DUP1 DUP5 MSTORE PUSH1 0x20 DUP1 DUP6 ADD SWAP5 POP PUSH1 0x20 DUP5 ADD PUSH1 0x0 JUMPDEST DUP4 DUP2 LT ISZERO PUSH2 0x233C JUMPI DUP2 MLOAD PUSH1 0x1 PUSH1 0x1 PUSH1 0xA0 SHL SUB AND DUP8 MSTORE SWAP6 DUP3 ADD SWAP6 SWAP1 DUP3 ADD SWAP1 PUSH1 0x1 ADD PUSH2 0x2317 JUMP JUMPDEST POP SWAP5 SWAP6 SWAP5 POP POP POP POP POP JUMP JUMPDEST DUP5 DUP2 MSTORE DUP4 PUSH1 0x20 DUP3 ADD MSTORE DUP3 PUSH1 0x40 DUP3 ADD MSTORE PUSH1 0x80 PUSH1 0x60 DUP3 ADD MSTORE PUSH1 0x0 PUSH2 0x236C PUSH1 0x80 DUP4 ADD DUP5 PUSH2 0x2302 JUMP JUMPDEST SWAP7 SWAP6 POP POP POP POP POP POP JUMP JUMPDEST PUSH1 0x0 DUP1 PUSH1 0x0 DUP1 PUSH1 0x60 DUP6 DUP8 SUB SLT ISZERO PUSH2 0x238C JUMPI PUSH1 0x0 DUP1 REVERT JUMPDEST DUP5 CALLDATALOAD SWAP4 POP PUSH1 0x20 DUP6 ADD CALLDATALOAD SWAP3 POP PUSH1 0x40 DUP6 ADD CALLDATALOAD PUSH8 0xFFFFFFFFFFFFFFFF DUP1 DUP3 GT ISZERO PUSH2 0x23B2 JUMPI PUSH1 0x0 DUP1 REVERT JUMPDEST DUP2 DUP8 ADD SWAP2 POP DUP8 PUSH1 0x1F DUP4 ADD SLT PUSH2 0x23C6 JUMPI PUSH1 0x0 DUP1 REVERT JUMPDEST DUP2 CALLDATALOAD DUP2 DUP2 GT ISZERO PUSH2 0x23D5 JUMPI PUSH1 0x0 DUP1 REVERT JUMPDEST DUP9 PUSH1 0x20 DUP3 PUSH1 0x5 SHL DUP6 ADD ADD GT ISZERO PUSH2 0x23EA JUMPI PUSH1 0x0 DUP1 REVERT JUMPDEST SWAP6 SWAP9 SWAP5 SWAP8 POP POP PUSH1 0x20 ADD SWAP5 POP POP POP JUMP JUMPDEST PUSH1 0x20 DUP1 DUP3 MSTORE DUP3 MLOAD DUP3 DUP3 ADD DUP2 SWAP1 MSTORE PUSH1 0x0 SWAP2 SWAP1 DUP5 DUP3 ADD SWAP1 PUSH1 0x40 DUP6 ADD SWAP1 DUP5 JUMPDEST DUP2 DUP2 LT ISZERO PUSH2 0x2431 JUMPI DUP4 MLOAD DUP4 MSTORE SWAP3 DUP5 ADD SWAP3 SWAP2 DUP5 ADD SWAP2 PUSH1 0x1 ADD PUSH2 0x2415 JUMP JUMPDEST POP SWAP1 SWAP7 SWAP6 POP POP POP POP POP POP JUMP JUMPDEST PUSH1 0x0 PUSH1 0x20 DUP3 DUP5 SUB SLT ISZERO PUSH2 0x244F JUMPI PUSH1 0x0 DUP1 REVERT JUMPDEST POP CALLDATALOAD SWAP2 SWAP1 POP JUMP JUMPDEST PUSH1 0x0 DUP1 PUSH1 0x0 PUSH1 0x60 DUP5 DUP7 SUB SLT ISZERO PUSH2 0x246B JUMPI PUSH1 0x0 DUP1 REVERT JUMPDEST DUP4 CALLDATALOAD PUSH2 0x2476 DUP2 PUSH2 0x22C1 JUMP JUMPDEST SWAP3 POP PUSH1 0x20 DUP5 ADD CALLDATALOAD PUSH2 0x2486 DUP2 PUSH2 0x22C1 JUMP JUMPDEST SWAP3 SWAP6 SWAP3 SWAP5 POP POP POP PUSH1 0x40 SWAP2 SWAP1 SWAP2 ADD CALLDATALOAD SWAP1 JUMP JUMPDEST PUSH1 0x0 PUSH1 0x20 DUP3 DUP5 SUB SLT ISZERO PUSH2 0x24A9 JUMPI PUSH1 0x0 DUP1 REVERT JUMPDEST DUP2 CALLDATALOAD PUSH2 0x24B4 DUP2 PUSH2 0x22C1 JUMP JUMPDEST SWAP4 SWAP3 POP POP POP JUMP JUMPDEST PUSH4 0x4E487B71 PUSH1 0xE0 SHL PUSH1 0x0 MSTORE PUSH1 0x41 PUSH1 0x4 MSTORE PUSH1 0x24 PUSH1 0x0 REVERT JUMPDEST PUSH1 0x40 MLOAD PUSH1 0x1F DUP3 ADD PUSH1 0x1F NOT AND DUP2 ADD PUSH8 0xFFFFFFFFFFFFFFFF DUP2 GT DUP3 DUP3 LT OR ISZERO PUSH2 0x24FA JUMPI PUSH2 0x24FA PUSH2 0x24BB JUMP JUMPDEST PUSH1 0x40 MSTORE SWAP2 SWAP1 POP JUMP JUMPDEST PUSH1 0x0 PUSH8 0xFFFFFFFFFFFFFFFF DUP3 GT ISZERO PUSH2 0x251C JUMPI PUSH2 0x251C PUSH2 0x24BB JUMP JUMPDEST POP PUSH1 0x5 SHL PUSH1 0x20 ADD SWAP1 JUMP JUMPDEST PUSH1 0x0 DUP3 PUSH1 0x1F DUP4 ADD SLT PUSH2 0x2537 JUMPI PUSH1 0x0 DUP1 REVERT JUMPDEST DUP2 CALLDATALOAD PUSH1 0x20 PUSH2 0x254C PUSH2 0x2547 DUP4 PUSH2 0x2502 JUMP JUMPDEST PUSH2 0x24D1 JUMP JUMPDEST DUP1 DUP4 DUP3 MSTORE PUSH1 0x20 DUP3 ADD SWAP2 POP PUSH1 0x20 DUP5 PUSH1 0x5 SHL DUP8 ADD ADD SWAP4 POP DUP7 DUP5 GT ISZERO PUSH2 0x256E JUMPI PUSH1 0x0 DUP1 REVERT JUMPDEST PUSH1 0x20 DUP7 ADD JUMPDEST DUP5 DUP2 LT ISZERO PUSH2 0x2593 JUMPI DUP1 CALLDATALOAD PUSH2 0x2586 DUP2 PUSH2 0x22C1 JUMP JUMPDEST DUP4 MSTORE SWAP2 DUP4 ADD SWAP2 DUP4 ADD PUSH2 0x2573 JUMP JUMPDEST POP SWAP7 SWAP6 POP POP POP POP POP POP JUMP JUMPDEST PUSH1 0x0 DUP1 PUSH1 0x40 DUP4 DUP6 SUB SLT ISZERO PUSH2 0x25B1 JUMPI PUSH1 0x0 DUP1 REVERT JUMPDEST DUP3 CALLDATALOAD SWAP2 POP PUSH1 0x20 DUP4 ADD CALLDATALOAD PUSH8 0xFFFFFFFFFFFFFFFF DUP2 GT ISZERO PUSH2 0x25CF JUMPI PUSH1 0x0 DUP1 REVERT JUMPDEST PUSH2 0x25DB DUP6 DUP3 DUP7 ADD PUSH2 0x2526 JUMP JUMPDEST SWAP2 POP POP SWAP3 POP SWAP3 SWAP1 POP JUMP JUMPDEST PUSH1 0x20 DUP2 MSTORE PUSH1 0x0 PUSH2 0x24B4 PUSH1 0x20 DUP4 ADD DUP5 PUSH2 0x2302 JUMP JUMPDEST PUSH1 0x0 DUP1 PUSH1 0x40 DUP4 DUP6 SUB SLT ISZERO PUSH2 0x260B JUMPI PUSH1 0x0 DUP1 REVERT JUMPDEST POP POP DUP1 CALLDATALOAD SWAP3 PUSH1 0x20 SWAP1 SWAP2 ADD CALLDATALOAD SWAP2 POP JUMP JUMPDEST PUSH1 0x0 PUSH1 0x20 DUP3 DUP5 SUB SLT ISZERO PUSH2 0x262C JUMPI PUSH1 0x0 DUP1 REVERT JUMPDEST DUP2 CALLDATALOAD PUSH8 0xFFFFFFFFFFFFFFFF DUP2 GT ISZERO PUSH2 0x2643 JUMPI PUSH1 0x0 DUP1 REVERT JUMPDEST PUSH2 0x264F DUP5 DUP3 DUP6 ADD PUSH2 0x2526 JUMP JUMPDEST SWAP5 SWAP4 POP POP POP POP JUMP JUMPDEST PUSH1 0x0 DUP1 PUSH1 0x0 DUP1 PUSH1 0x80 DUP6 DUP8 SUB SLT ISZERO PUSH2 0x266D JUMPI PUSH1 0x0 DUP1 REVERT JUMPDEST DUP5 CALLDATALOAD PUSH8 0xFFFFFFFFFFFFFFFF DUP1 DUP3 GT ISZERO PUSH2 0x2685 JUMPI PUSH1 0x0 DUP1 REVERT JUMPDEST PUSH2 0x2691 DUP9 DUP4 DUP10 ADD PUSH2 0x2526 JUMP JUMPDEST SWAP6 POP PUSH1 0x20 SWAP2 POP DUP2 DUP8 ADD CALLDATALOAD DUP2 DUP2 GT ISZERO PUSH2 0x26A8 JUMPI PUSH1 0x0 DUP1 REVERT JUMPDEST DUP8 ADD PUSH1 0x1F DUP2 ADD DUP10 SGT PUSH2 0x26B9 JUMPI PUSH1 0x0 DUP1 REVERT JUMPDEST DUP1 CALLDATALOAD PUSH2 0x26C7 PUSH2 0x2547 DUP3 PUSH2 0x2502 JUMP JUMPDEST DUP2 DUP2 MSTORE PUSH1 0x5 SWAP2 SWAP1 SWAP2 SHL DUP3 ADD DUP5 ADD SWAP1 DUP5 DUP2 ADD SWAP1 DUP12 DUP4 GT ISZERO PUSH2 0x26E6 JUMPI PUSH1 0x0 DUP1 REVERT JUMPDEST SWAP3 DUP6 ADD SWAP3 JUMPDEST DUP3 DUP5 LT ISZERO PUSH2 0x2704 JUMPI DUP4 CALLDATALOAD DUP3 MSTORE SWAP3 DUP6 ADD SWAP3 SWAP1 DUP6 ADD SWAP1 PUSH2 0x26EB JUMP JUMPDEST SWAP8 POP POP POP POP PUSH1 0x40 DUP8 ADD CALLDATALOAD SWAP4 POP PUSH1 0x60 DUP8 ADD CALLDATALOAD SWAP2 POP DUP1 DUP3 GT ISZERO PUSH2 0x2724 JUMPI PUSH1 0x0 DUP1 REVERT JUMPDEST POP PUSH2 0x2731 DUP8 DUP3 DUP9 ADD PUSH2 0x2526 JUMP JUMPDEST SWAP2 POP POP SWAP3 SWAP6 SWAP2 SWAP5 POP SWAP3 POP JUMP JUMPDEST PUSH1 0x0 DUP1 PUSH1 0x40 DUP4 DUP6 SUB SLT ISZERO PUSH2 0x2750 JUMPI PUSH1 0x0 DUP1 REVERT JUMPDEST DUP3 CALLDATALOAD PUSH2 0x275B DUP2 PUSH2 0x22C1 JUMP JUMPDEST SWAP2 POP PUSH1 0x20 DUP4 ADD CALLDATALOAD PUSH2 0x276B DUP2 PUSH2 0x22C1 JUMP JUMPDEST DUP1 SWAP2 POP POP SWAP3 POP SWAP3 SWAP1 POP JUMP JUMPDEST PUSH1 0x1 DUP2 DUP2 SHR SWAP1 DUP3 AND DUP1 PUSH2 0x278A JUMPI PUSH1 0x7F DUP3 AND SWAP2 POP JUMPDEST PUSH1 0x20 DUP3 LT DUP2 SUB PUSH2 0x27AA JUMPI PUSH4 0x4E487B71 PUSH1 0xE0 SHL PUSH1 0x0 MSTORE PUSH1 0x22 PUSH1 0x4 MSTORE PUSH1 0x24 PUSH1 0x0 REVERT JUMPDEST POP SWAP2 SWAP1 POP JUMP JUMPDEST PUSH1 0x0 DUP3 PUSH1 0x1F DUP4 ADD SLT PUSH2 0x27C1 JUMPI PUSH1 0x0 DUP1 REVERT JUMPDEST DUP2 MLOAD PUSH1 0x20 PUSH2 0x27D1 PUSH2 0x2547 DUP4 PUSH2 0x2502 JUMP JUMPDEST DUP1 DUP4 DUP3 MSTORE PUSH1 0x20 DUP3 ADD SWAP2 POP PUSH1 0x20 DUP5 PUSH1 0x5 SHL DUP8 ADD ADD SWAP4 POP DUP7 DUP5 GT ISZERO PUSH2 0x27F3 JUMPI PUSH1 0x0 DUP1 REVERT JUMPDEST PUSH1 0x20 DUP7 ADD JUMPDEST DUP5 DUP2 LT ISZERO PUSH2 0x2593 JUMPI DUP1 MLOAD PUSH2 0x280B DUP2 PUSH2 0x22C1 JUMP JUMPDEST DUP4 MSTORE SWAP2 DUP4 ADD SWAP2 DUP4 ADD PUSH2 0x27F8 JUMP JUMPDEST PUSH1 0x0 DUP1 PUSH1 0x0 DUP1 PUSH1 0x80 DUP6 DUP8 SUB SLT ISZERO PUSH2 0x282E JUMPI PUSH1 0x0 DUP1 REVERT JUMPDEST DUP5 MLOAD SWAP4 POP PUSH1 0x20 DUP6 ADD MLOAD SWAP3 POP PUSH1 0x40 DUP6 ADD MLOAD SWAP2 POP PUSH1 0x60 DUP6 ADD MLOAD PUSH8 0xFFFFFFFFFFFFFFFF DUP2 GT ISZERO PUSH2 0x285A JUMPI PUSH1 0x0 DUP1 REVERT JUMPDEST PUSH2 0x2731 DUP8 DUP3 DUP9 ADD PUSH2 0x27B0 JUMP JUMPDEST PUSH1 0x0 PUSH1 0x20 DUP3 DUP5 SUB SLT ISZERO PUSH2 0x2878 JUMPI PUSH1 0x0 DUP1 REVERT JUMPDEST DUP2 MLOAD PUSH8 0xFFFFFFFFFFFFFFFF DUP2 GT ISZERO PUSH2 0x288F JUMPI PUSH1 0x0 DUP1 REVERT JUMPDEST PUSH2 0x264F DUP5 DUP3 DUP6 ADD PUSH2 0x27B0 JUMP JUMPDEST PUSH4 0x4E487B71 PUSH1 0xE0 SHL PUSH1 0x0 MSTORE PUSH1 0x32 PUSH1 0x4 MSTORE PUSH1 0x24 PUSH1 0x0 REVERT JUMPDEST DUP3 DUP2 MSTORE PUSH1 0x40 PUSH1 0x20 DUP3 ADD MSTORE PUSH1 0x0 PUSH2 0x264F PUSH1 0x40 DUP4 ADD DUP5 PUSH2 0x2302 JUMP JUMPDEST PUSH4 0x4E487B71 PUSH1 0xE0 SHL PUSH1 0x0 MSTORE PUSH1 0x11 PUSH1 0x4 MSTORE PUSH1 0x24 PUSH1 0x0 REVERT JUMPDEST PUSH1 0x0 PUSH1 0x1 DUP3 ADD PUSH2 0x28F2 JUMPI PUSH2 0x28F2 PUSH2 0x28CA JUMP JUMPDEST POP PUSH1 0x1 ADD SWAP1 JUMP JUMPDEST PUSH1 0x0 PUSH1 0x20 DUP3 DUP5 SUB SLT ISZERO PUSH2 0x290B JUMPI PUSH1 0x0 DUP1 REVERT JUMPDEST POP MLOAD SWAP2 SWAP1 POP JUMP JUMPDEST DUP1 DUP3 ADD DUP1 DUP3 GT ISZERO PUSH2 0x921 JUMPI PUSH2 0x921 PUSH2 0x28CA JUMP JUMPDEST PUSH1 0x20 DUP1 DUP3 MSTORE PUSH1 0x26 SWAP1 DUP3 ADD MSTORE PUSH32 0x43616C6C6572206D7573742062652074686520536D6172746E6F6465734D756C PUSH1 0x40 DUP3 ADD MSTORE PUSH6 0x3A34A9B4B397 PUSH1 0xD1 SHL PUSH1 0x60 DUP3 ADD MSTORE PUSH1 0x80 ADD SWAP1 JUMP JUMPDEST DUP2 DUP2 SUB DUP2 DUP2 GT ISZERO PUSH2 0x921 JUMPI PUSH2 0x921 PUSH2 0x28CA JUMP JUMPDEST PUSH1 0x20 DUP1 DUP3 MSTORE PUSH1 0x21 SWAP1 DUP3 ADD MSTORE PUSH32 0x416D6F756E74206D7573742062652067726561746572207468616E207A65726F PUSH1 0x40 DUP3 ADD MSTORE PUSH1 0x17 PUSH1 0xF9 SHL PUSH1 0x60 DUP3 ADD MSTORE PUSH1 0x80 ADD SWAP1 JUMP JUMPDEST PUSH1 0x0 DUP3 PUSH2 0x29DC JUMPI PUSH4 0x4E487B71 PUSH1 0xE0 SHL PUSH1 0x0 MSTORE PUSH1 0x12 PUSH1 0x4 MSTORE PUSH1 0x24 PUSH1 0x0 REVERT JUMPDEST POP DIV SWAP1 JUMP JUMPDEST DUP1 DUP3 MUL DUP2 ISZERO DUP3 DUP3 DIV DUP5 EQ OR PUSH2 0x921 JUMPI PUSH2 0x921 PUSH2 0x28CA JUMP JUMPDEST PUSH1 0x0 PUSH1 0x20 DUP3 DUP5 SUB SLT ISZERO PUSH2 0x2A0A JUMPI PUSH1 0x0 DUP1 REVERT JUMPDEST DUP2 MLOAD DUP1 ISZERO ISZERO DUP2 EQ PUSH2 0x24B4 JUMPI PUSH1 0x0 DUP1 REVERT JUMPDEST PUSH1 0x20 DUP1 DUP3 MSTORE PUSH1 0x2B SWAP1 DUP3 ADD MSTORE PUSH32 0x496E697469616C697A61626C653A20636F6E7472616374206973206E6F742069 PUSH1 0x40 DUP3 ADD MSTORE PUSH11 0x6E697469616C697A696E67 PUSH1 0xA8 SHL PUSH1 0x60 DUP3 ADD MSTORE PUSH1 0x80 ADD SWAP1 JUMP JUMPDEST PUSH1 0x1F DUP3 GT ISZERO PUSH2 0x143D JUMPI PUSH1 0x0 DUP2 PUSH1 0x0 MSTORE PUSH1 0x20 PUSH1 0x0 KECCAK256 PUSH1 0x1F DUP6 ADD PUSH1 0x5 SHR DUP2 ADD PUSH1 0x20 DUP7 LT ISZERO PUSH2 0x2A8E JUMPI POP DUP1 JUMPDEST PUSH1 0x1F DUP6 ADD PUSH1 0x5 SHR DUP3 ADD SWAP2 POP JUMPDEST DUP2 DUP2 LT ISZERO PUSH2 0x2AAD JUMPI DUP3 DUP2 SSTORE PUSH1 0x1 ADD PUSH2 0x2A9A JUMP JUMPDEST POP POP POP POP POP POP JUMP JUMPDEST DUP2 MLOAD PUSH8 0xFFFFFFFFFFFFFFFF DUP2 GT ISZERO PUSH2 0x2ACF JUMPI PUSH2 0x2ACF PUSH2 0x24BB JUMP JUMPDEST PUSH2 0x2AE3 DUP2 PUSH2 0x2ADD DUP5 SLOAD PUSH2 0x2776 JUMP JUMPDEST DUP5 PUSH2 0x2A65 JUMP JUMPDEST PUSH1 0x20 DUP1 PUSH1 0x1F DUP4 GT PUSH1 0x1 DUP2 EQ PUSH2 0x2B18 JUMPI PUSH1 0x0 DUP5 ISZERO PUSH2 0x2B00 JUMPI POP DUP6 DUP4 ADD MLOAD JUMPDEST PUSH1 0x0 NOT PUSH1 0x3 DUP7 SWAP1 SHL SHR NOT AND PUSH1 0x1 DUP6 SWAP1 SHL OR DUP6 SSTORE PUSH2 0x2AAD JUMP JUMPDEST PUSH1 0x0 DUP6 DUP2 MSTORE PUSH1 0x20 DUP2 KECCAK256 PUSH1 0x1F NOT DUP7 AND SWAP2 JUMPDEST DUP3 DUP2 LT ISZERO PUSH2 0x2B47 JUMPI DUP9 DUP7 ADD MLOAD DUP3 SSTORE SWAP5 DUP5 ADD SWAP5 PUSH1 0x1 SWAP1 SWAP2 ADD SWAP1 DUP5 ADD PUSH2 0x2B28 JUMP JUMPDEST POP DUP6 DUP3 LT ISZERO PUSH2 0x2B65 JUMPI DUP8 DUP6 ADD MLOAD PUSH1 0x0 NOT PUSH1 0x3 DUP9 SWAP1 SHL PUSH1 0xF8 AND SHR NOT AND DUP2 SSTORE JUMPDEST POP POP POP POP POP PUSH1 0x1 SWAP1 DUP2 SHL ADD SWAP1 SSTORE POP JUMP INVALID LOG2 PUSH5 0x6970667358 0x22 SLT KECCAK256 RETURNDATACOPY SIGNEXTEND DIV 0x2B 0xC3 0xC8 0x4E 0xC0 0xE6 SWAP5 SWAP12 PUSH20 0x143D048B43C61ABDBE71086E41C55EDF9B86779B PUSH5 0x736F6C6343 STOP ADDMOD NOT STOP CALLER ",
  "sha1": "84bbfe82f1ecfb568192ed89e03dcba863e0c396",
  "source": "// SPDX-License-Identifier: MIT\npragma solidity ^0.8.5;\n\nimport \"@openzeppelin-upgradeable/contracts/token/ERC20/ERC20Upgradeable.sol\";\nimport \"./interfaces/ISmartnodesMultiSig.sol\";\n\n/**\n * @title SmartNodes\n * @dev An ERC20 contract for managing off-chain networks\n */\ncontract SmartnodesCore is ERC20Upgradeable {\n    // Validator multi-sig address\n    ISmartnodesMultiSig private _validatorContractInstance;\n    address public validatorContractAddress;\n\n    // Counters for storage indexing / IDs\n    uint256 public validatorIdCounter;\n    uint256 public userCounter;\n    uint256 public jobCounter;\n    uint256 public activeValidators;\n    uint256 public minValidators;\n    uint256 public maxValidators;\n    uint256 public totalLocked;\n\n    // Events\n    event TokensLocked(address indexed validator, uint256 amount);\n    event UnlockInitiated(address indexed validator, uint256 unlockTime);\n    event TokensUnlocked(address indexed validtor, uint256 amount);\n    event JobRequested(\n        bytes32 indexed jobHash,\n        uint256 timestamp,\n        address[] seedValidators\n    );\n    event JobCompleted(bytes32 indexed jobId, uint256 timestamp);\n    event JobDisputed(bytes32 indexed jobId, uint256 timestamp);\n\n    // User data with key information (address, RSA key hash, reputation)\n    struct User {\n        address userAddress;\n        bytes32 publicKeyHash;\n        uint8 reputation;\n    }\n\n    // Validator data with key information (address, RSA key hash, locked value, reputation, activity)\n    struct Validator {\n        bytes32 publicKeyHash;\n        address validatorAddress;\n        uint256 locked;\n        uint256 unlockTime;\n        uint8 reputation;\n    }\n\n    // Information for  a generic off-chain job (job hash [key for kademlia lookup], seed validators, participants, author, etc)\n    struct Job {\n        address author;\n        address[] seedValidators;\n        address[] workers;\n        uint256[] capacities;\n        bool activity;\n    }\n\n    // ERC20 token supply metrics\n    uint256 constant TAIL_EMISSION = 2e18;\n\n    uint256 public halving; // number of state updates until next halving (~3 months)\n    uint256 public emissionRate; // amount of tokens to be emitted per state update\n    uint256 public lockAmount; // minimum validator locked tokens required\n    uint256 public unlockPeriod;\n    uint256 public timeSinceLastHalving;\n\n    // Main datastructure mappings via id lookup\n    mapping(bytes32 => User) public users;\n    mapping(bytes32 => address) public workers;\n    mapping(bytes32 => address) public validatorAddressByHash;\n    mapping(uint256 => Validator) public validators;\n    mapping(bytes32 => Job) public jobs;\n    uint256[] public activeJobs;\n\n    // Helpful mappings\n    mapping(address => bytes32) public userHashByAddress;\n    mapping(address => uint256) public validatorIdByAddress;\n\n    modifier onlyValidatorMultiSig() {\n        require(\n            msg.sender == validatorContractAddress,\n            \"Caller must be the SmartnodesMultiSig.\"\n        );\n        _;\n    }\n\n    function initialize(address[] memory _genesisNodes) public initializer {\n        __ERC20_init(\"Smartnodes\", \"SNO\");\n\n        // Set all counters to 1 (when looking up values, 0 = Not found)\n        userCounter = 1;\n        jobCounter = 1;\n        validatorIdCounter = 1;\n\n        // Set ERC20 token parameters\n        emissionRate = 256e18; // amount of tokens to be emitted per state update\n        lockAmount = 100_000e18; // minimum validator locked tokens required\n        halving = 52452222; // Number of state updates before reward halving\n        unlockPeriod = 1_209_600; // (seconds)\n        timeSinceLastHalving = 0;\n\n        for (uint i = 0; i < _genesisNodes.length; i++) {\n            _mint(_genesisNodes[i], lockAmount);\n        }\n\n        // Other parameters\n        minValidators = 1;\n        maxValidators = 5;\n    }\n\n    function setValidatorContract(address validatorAddress) external {\n        require(\n            validatorContractAddress == address(0),\n            \"Validator address already set.\"\n        );\n        _validatorContractInstance = ISmartnodesMultiSig(validatorAddress);\n        validatorContractAddress = validatorAddress;\n    }\n\n    /**\n     * @dev Create a User, limit one per address & public key hash (RSA)\n     */\n    function createUser(bytes32 _publicKeyHash) public {\n        // Only one address & public key hash per user.\n        require(\n            userHashByAddress[msg.sender] == bytes32(0),\n            \"User already registered.\"\n        );\n\n        users[_publicKeyHash] = User({\n            userAddress: msg.sender,\n            publicKeyHash: _publicKeyHash,\n            reputation: 50\n        });\n\n        userHashByAddress[msg.sender] = _publicKeyHash;\n        userCounter++;\n    }\n\n    /**\n     * @dev Create a Validator, limit one per address & public key hash (RSA), requires locking up sno\n     */\n    function createValidator(\n        bytes32 _publicKeyHash,\n        uint256 _lockAmount\n    ) external {\n        require(\n            validatorIdByAddress[msg.sender] == 0,\n            \"Validator already exists.\"\n        );\n\n        require(\n            balanceOf(msg.sender) >= _lockAmount && _lockAmount >= lockAmount,\n            \"Insufficient token balance.\"\n        );\n\n        // Create validator on SmartnodesCore\n        validators[validatorIdCounter] = Validator({\n            publicKeyHash: _publicKeyHash,\n            validatorAddress: msg.sender,\n            locked: lockAmount,\n            unlockTime: 0,\n            reputation: 50\n        });\n\n        validatorIdByAddress[msg.sender] = validatorIdCounter;\n        validatorAddressByHash[_publicKeyHash] = msg.sender;\n\n        // Lock token in contract\n        _lockTokens(msg.sender, lockAmount);\n\n        validatorIdCounter++;\n    }\n\n    // User Job Requesting Via Chainlink VRF TODO\n    function requestJob(\n        bytes32 userHash,\n        bytes32 jobHash,\n        uint256[] calldata _capacities\n    ) external returns (uint256[] memory validatorIds) {\n        // If user directly requests a job, register if they have not already done so\n        if (msg.sender != validatorContractAddress) {\n            if (userHashByAddress[msg.sender] == bytes32(0)) {\n                createUser(userHash);\n                userHash = userHashByAddress[msg.sender];\n            }\n        }\n\n        require(userHash != bytes32(0), \"User not registered!\");\n        require(jobs[jobHash].author == address(0), \"Job already created.\");\n        // require(_capacities[0] > 0, \"Capacity must be greater zero.\");\n\n        address[] memory _seedValidators = _validatorContractInstance\n            .generateValidators(1);\n        uint256[] memory _validatorIds = new uint256[](1); // (_seedValidators.length);\n\n        for (uint256 i = 0; i < _seedValidators.length; i++) {\n            _validatorIds[i] = validatorIdByAddress[_seedValidators[i]];\n        }\n\n        // Store the job in the jobs mapping\n        jobs[jobHash] = Job({\n            author: msg.sender,\n            seedValidators: _seedValidators,\n            workers: new address[](_capacities.length),\n            capacities: _capacities,\n            activity: true\n        });\n\n        emit JobRequested(jobHash, block.timestamp, _seedValidators);\n        jobCounter++;\n\n        return _validatorIds;\n    }\n\n    function completeJob(\n        bytes32 jobHash,\n        address[] memory _workers\n    ) external onlyValidatorMultiSig returns (uint256[] memory) {\n        require(_workers.length == jobs[jobHash].capacities.length);\n\n        jobs[jobHash].workers = _workers;\n        jobs[jobHash].activity = false;\n        // jobIdByUserHash[userIdHash] = 0;\n\n        emit JobCompleted(jobHash, block.timestamp);\n\n        return jobs[jobHash].capacities;\n    }\n\n    function disputeJob(bytes32 jobHash) external onlyValidatorMultiSig {\n        Job storage job = jobs[jobHash];\n        job.activity = false;\n        emit JobDisputed(jobHash, block.timestamp);\n    }\n\n    /**\n     * @dev Internal function to lock tokens, callable from other functions\n     */\n    function _lockTokens(address sender, uint256 amount) internal {\n        require(amount > 0, \"Amount must be greater than zero.\");\n        require(balanceOf(sender) >= amount, \"Insufficient balance.\");\n\n        uint256 validatorId = validatorIdByAddress[sender];\n        require(validatorId != 0, \"Validator does not exist.\");\n\n        transferFrom(sender, address(this), amount);\n        validators[validatorId].locked += amount;\n        uint256 _totalLocked = validators[validatorId].locked;\n        totalLocked += _totalLocked;\n\n        emit TokensLocked(sender, amount);\n    }\n\n    /**\n     * @dev Validator token unlocking, 30 day withdrawal period.\n     */\n    function lockTokens(uint256 amount) external {\n        _lockTokens(msg.sender, amount);\n    }\n\n    function unlockTokens(uint256 amount) external {\n        uint256 validatorId = validatorIdByAddress[msg.sender];\n        require(validatorId > 0, \"Not a registered validator.\");\n\n        Validator storage validator = validators[validatorId];\n\n        require(amount <= validator.locked, \"Amount exceeds locked balance.\");\n        require(amount > 0, \"Amount must be greater than zero.\");\n\n        // Initialize the unlock time if it's the first unlock attempt\n        if (validator.unlockTime == 0) {\n            validator.unlockTime = block.timestamp + unlockPeriod; // unlocking period\n\n            // Update multisig validator\n            // uint256 _totalLocked = validator.locked - amount;\n            totalLocked -= amount;\n\n            emit UnlockInitiated(msg.sender, validator.unlockTime); // Optional: emit an event\n        } else {\n            // On subsequent attempts, check if the unlock period has elapsed\n            require(\n                block.timestamp >= validator.unlockTime,\n                \"Tokens are still locked.\"\n            );\n\n            validator.locked -= amount;\n            _mint(msg.sender, amount); // Mint tokens back to the validator's address\n\n            emit TokensUnlocked(msg.sender, amount); // Optional: emit an event when tokens are unlocked\n        }\n    }\n\n    /**\n     * @dev Mint tokens for updating state rewards, distribute 40/60 among validators and workers\n     * Updates the emission rate and halving accordingly\n     */\n    function mintTokens(\n        address[] memory _workers,\n        uint256[] memory _workerCapacities,\n        uint256 _totalCapacity,\n        address[] memory _validatorsVoted\n    ) external onlyValidatorMultiSig {\n        if (timeSinceLastHalving >= halving) {\n            if (emissionRate > TAIL_EMISSION) {\n                emissionRate /= 2;\n            }\n        }\n\n        uint256 validatorRewardTotal = (emissionRate * 20) / 100;\n        uint256 workerRewardTotal = (emissionRate * 80) / 100;\n\n        // Distribute rewards for validators equally\n        uint256 validatorReward = validatorRewardTotal /\n            _validatorsVoted.length;\n\n        for (uint256 v = 0; v < _validatorsVoted.length; v++) {\n            _mint(_validatorsVoted[v], validatorReward);\n        }\n\n        // Distribute rewards for workers\n        for (uint256 w = 0; w < _workers.length; w++) {\n            uint256 reward = ((_workerCapacities[w] * workerRewardTotal) /\n                _totalCapacity);\n            _mint(_workers[w], reward);\n        }\n\n        timeSinceLastHalving++;\n    }\n\n    // Returns a list of all the selected validators for a job request\n    function getJobValidators(\n        bytes32 jobHash\n    ) external view returns (address[] memory) {\n        address[] memory jobValidators = jobs[jobHash].seedValidators;\n        return jobValidators;\n    }\n\n    function getValidatorInfo(\n        uint256 _validatorId\n    ) external view returns (bool, bytes32, address) {\n        require(_validatorId < validatorIdCounter, \"Invalid ID.\");\n        Validator memory _validator = validators[_validatorId];\n        bool isActive = _validatorContractInstance.isActiveValidator(\n            _validator.validatorAddress\n        );\n        return (\n            isActive,\n            _validator.publicKeyHash,\n            _validator.validatorAddress\n        );\n    }\n\n    function getValidatorBytes(\n        address validatorAddress\n    ) external view returns (bytes32) {\n        uint256 validatorId = validatorIdByAddress[validatorAddress];\n        require(validatorId > 0, \"Validator does not exist.\");\n\n        return validators[validatorId].publicKeyHash;\n    }\n\n    function getUserCount() external view returns (uint256) {\n        return userCounter - 1;\n    }\n\n    function getValidatorCount() external view returns (uint256) {\n        return validatorIdCounter - 1;\n    }\n\n    function getActiveValidatorCount() external view returns (uint256) {\n        return _validatorContractInstance.getNumValidators();\n    }\n\n    function getEmissionRate() external view returns (uint256) {\n        return emissionRate;\n    }\n\n    function getSupply() external view returns (uint256) {\n        return this.totalSupply();\n    }\n\n    function isLocked(address validatorAddr) external view returns (bool) {\n        uint256 _id = validatorIdByAddress[validatorAddr];\n        return validators[_id].locked >= lockAmount;\n    }\n\n    function getProposees() external view returns (address[] memory) {\n        return _validatorContractInstance.getSelectedValidators();\n    }\n\n    function getState()\n        external\n        view\n        returns (uint256, uint256, uint256, address[] memory)\n    {\n        return _validatorContractInstance.getState();\n    }\n}\n",
  "sourcePath": "contracts/SmartnodesCore.sol",
  "type": "contract"
}